:020000040800F2
:10000000000400207D1800083769050837690508D5
:10001000376905083769050837690508376905082C
:10002000376905083769050837690508376905081C
:1000300037690508376905084978000837690508F0
:1000400037690508376905083769050837690508FC
:1000500037690508376905083769050837690508EC
:1000600037690508376905083769050879D1010836
:1000700069D1010837690508376905083769050836
:1000800037690508376905083769050837690508BC
:1000900037690508376905087921000837690508B7
:1000A0003769050837690508511D0008291D000832
:1000B000376905083769050809610208016C0208FB
:1000C000B33E0608AF3E060879630208C93E06083B
:1000D000B73E0608D16B0208BB3E0608416C020819
:1000E0002D6D020837690508376905083769050865
:1000F000376905083769050837690508376905084C
:10010000376905083769050837690508376905083B
:10011000376905083769050837690508376905082B
:10012000376905083769050837690508376905081B
:10013000376905083769050837690508376905080B
:1001400037690508376905083769050869800008B7
:100150003769050837690508975D07087142020885
:100160003769050837690508CD3D0608D33D0608FF
:0C0170003769050837690508376905087C
:10017C00194A5AB3194BDB6913F0040F29D110B487
:10018C000AE003EA00048C4210D0013AB2B1134BDE
:10019C00DB6913F0040F14D110F0010FF1D1104CE6
:1001AC001C40002CEDD06FF001000CE00C4A1A4002
:1001BC000AB9002007E06FF0010004E06FF00200C4
:1001CC0001E04FF0FF305DF8044B70476FF0020018
:1001DC0070474FF0FF307047809698000000035036
:1001EC00020001000D4BDB6913F4803F12D170B596
:1001FC000A4B03F580560124F46003F500552C647A
:10020C004FF480721A6100212046FFF7B1FF34646D
:10021C00EC6070BD6FF00100704700BF0000035030
:10022C0038B50446C0F30C03FBB9154B4FF48032C0
:10023C009A6603F51C33DD69154041F67132DA63B9
:10024C0003F580520121D1605C6102221A61002108
:10025C002120FFF78DFF70B10A4B0122DA601DB12E
:10026C00A3F500530022DA6338BD40F21A21064888
:10027C0000F096F8D9E700212120FFF779FFEBE792
:10028C0000900050002003504062070838B51A4B0C
:10029C005861DB6913F0040F2AD10C4654F8041B87
:1002AC00154B9961151F06E0214651F8042B124B92
:1002BC009A61043D0C465DB108210846FFF758FFD2
:1002CC0003460028F0D00C4A04211161184638BDB1
:1002DC00094B04221A6100212120FFF749FF034634
:1002EC000028F3D100212120FFF742FF0346EDE760
:1002FC004FF0FF33EAE700BF000003502DE9F04157
:10030C000F461646054610F0030F14D116F0030FD6
:10031C0017D1204B4FF480329A6603F51C33DA69FF
:10032C0002F4803841F67132DA6303F5805301220E
:10033C00DA6000230EE040F26621174800F030F836
:10034C00E4E74FF41A71144800F02AF8E1E7254469
:10035C002744361B8EB105F5005424F4FF5424F0C9
:10036C001F04641BB44228BF344622463946284633
:10037C00FFF78CFF03460028E9D0084A0121D16021
:10038C00B8F1000F03D0A2F500520021D16318463A
:10039C00BDE8F08100900050406207080020035037
:0803AC005FF800F0497D020832
:1003B800F0B5934C9FB02288A3780021ADF80C20AB
:1003C80013A82C228DF80E3062F0E8FA4FF00233B1
:1003D800159340F20B130AAD0434ADF874300FCC0A
:1003E8000FC50FCC0FC52368864A2B60864B874DF7
:1003F80006930023CDE9073309934FF0FF332846CE
:1004080083492B601EF0DEFB0446002853D1286880
:10041800431C06D140F2A4417E4B7F4A7F481DF021
:100428003FF803A91EF00CFC0446002843D12868B5
:1004380063F07CF87A4E7B4F3070286863F078F868
:100448003870286863F076F8774B78491870286810
:100458001EF00AFF044600282DD13378744E4BB99C
:1004680074482AF00FFE3060D0B940F2DC41724B7C
:10047800694AD3E771482AF005FE30600028EFD0BA
:10048800C18928681EF03EFE3368214658682AF064
:1004980033FE044678B967482AF0F4FD306090B11D
:1004A800C18928681EF02EFE3368042158682AF096
:1004B80023FE044638B1234622210220604A63F015
:1004C800E2FD1FB0F0BD05F065FA5E4BCDE9040111
:1004D80004AAA3F1080112F8010B03F8010D9942CF
:1004E800F9D13B78002B46D15749286862F0A2FE23
:1004F80004460028DFD15549286862F085FE044685
:100508000028D8D1524928681EF09CFC04460028CF
:10051800D1D139A3D3E90023CDE90023286862F0BB
:100528008BFE04460028C6D14A4A4B49286862F027
:100538004CFF04460028BED1484A4949286862F061
:1005480048FF04460028B6D1012128681EF096FB12
:1005580004460028AFD1A023424A06A8D380424AC5
:10056800136005F045FB414B186088B940F22551EE
:100578003F4B294A52E71C22002116A862F00EFAC6
:10058800286813A926F0BEFC04460028ACD092E7E0
:1005980022460121082005F019FD364B186020B9C4
:1005A8004FF4A561344B1C4A38E722460121082044
:1005B80005F00CFD314B186020B940F22B51304B3F
:1005C800154A2BE72F4A304930482CF095FB2F4825
:1005D80048F040FD00212E480AAA05F0F5FB2D4BF6
:1005E800186000287FF46DAF40F237512A4B0A4A51
:1005F80014E700BFAFF30080C88D01C103400000BD
:10060800A4C90808EDAD0208BFBE0808506D002057
:10061800BC860020D4BE0808A5C808088EBC0808F7
:10062800D7760020D6760020D57600200700110066
:100638000C5D00207D5A0608FBBE0808675A0608AC
:1006480086BF0808E0760020A2C90808A0C90808E3
:10065800546D002000880020500E002002880020E1
:10066800485D0020FC860020BC6D0020D06D002075
:1006780013BF0808CC6D00202FBF0808C86D0020E4
:100688004CBF08086CBF0808A9B20208706D0020AA
:1006980025C40208D46D002075BF080800000000BA
:1006A8002DE9F34705465A4C22211020594A63F098
:1006B800EAFC14222946204662F07BF9A27B564BBD
:1006C800DFF8A0A11A70637C00228AF800300023AA
:1006D800CDE90023DFF8908100224FF40073D8F8A9
:1006E800000062F0A9FD064620B10126304602B09E
:1006F800BDE8F087494B4A4F1B787BB949482AF037
:10070800C1FC04463C60FCB9474A2221022063F040
:10071800BAFC0122454B21261A70E7E7444B454CA9
:100728001A88454BD8F8000053F82210434A8B68C2
:1007380021603B601EF070FB2268414B94682422C4
:100748001B8802FB0344DDE73E4B1C60394BD3F8A2
:100758000090B9F1000F07D000232420D9F80C101D
:100768008B4208D100251AE040F2ED71364B374A2A
:1007780037481CF095FED9F8085000FB0355EA6984
:100788005278120912F00E0F2BD0052A29D8314BB6
:100798000021EA89B3F900003D602AF0E5FC1AA3BC
:1007A800D3E90023CDE90023D8F8000062F044FD26
:1007B800D9F80820AA4207D0274B3A600421D289E9
:1007C800B3F900002AF0D0FC244BE2893C601A807F
:1007D800234B1B783BB92BF0D9FC01202BF05AF99D
:1007E80084E70133BCE79AF800301B0913F00E0FB9
:1007F800F1D101220721D8F8000063F063FB00283B
:10080800E9D072E7AFF30080C88D01C10342000050
:10081800105D00205BC30808CC760020D07600204D
:100828000C5D0020E9B1020877C30808CE760020E5
:1008380034760020005D00206C830020F9AD0208AA
:1008480032760020085D0020B3C3080863C7080893
:100858008EBC08080488002006880020FA8700203B
:10086800D6760020CB760020506D002000000000D6
:100878002DE9F84390F8E861054644683EB902203E
:100888002721414A63F0FFFB3046BDE8F88394F91D
:100898000130002B1ADA731E5BB2637000EB43134E
:1008A80093F825302370A06855F0CEF832A3D3E929
:1008B80000238046894694F9017055F0ADFBF8B1E4
:1008C800002F1DDD013F0023677024E09E4222783F
:1008D80005DD00EB431393F825309342E3D0002362
:1008E80005F1250163705801085C904208BF6370E8
:1008F80001339E42F7D8731E637000232371D2E739
:1009080040461FA3D3E90023494655F085FBF0B1C3
:100918002379E3B1013B237194F9013005F5F570B2
:1009280005EB431393F82530237085F8EA31052346
:1009380095F8022285F8EC3185F8F02100230E2283
:1009480085F8EB3185F8F22185F8F1319DE74046CD
:100958000BA3D3E90023494655F040FB0028DBD020
:1009680023790133DBB2092B2371D5D9013EBE426D
:10097800D2DD0137A7E700BF666666666666E63FB2
:100988009A9999999999B93F1A960908000000000F
:100998002DE9F8432DED028B876805463846164643
:1009A8000C4655F051F828A3D3E900238046894620
:1009B80055F032FB88BB26A3D3E9002340464946BD
:1009C80055F00CFB60BBF7EE007A07EE107A87EE65
:1009D800878A6B7F607F0122834224D0002148F000
:1009E800CFFF012204463146687F48F0C9FF04441E
:1009F80004F2D5702860D8B107EE900AF8EE677A4D
:100A08009FED0D7A67EE887A87EE270ABDEC028B98
:100A180010EE103AEB60BDE8F8839FED088AD8E73E
:100A28009FED078AD5E73146184648F0A9FFE1E768
:100A38009FED040AEAE700BF00007A44E4388E3FDD
:100A480000401C4600000000CDCCCCCCCCCCEC3F08
:100A58009A9999999999B93F2DE9F74F064690F8CF
:100A6800E8010D469146A0B37468A3690133A361F8
:100A7800A37D06EB43131A7F02441A77D4E90732A1
:100A8800C3EB520207EE902A4000B8EE677A07EEF1
:100A9800900AF8EEE76AF4EEC76AF1EE10FA0BD5A1
:100AA80007EE903A37EE667AF8EE677A77EE877A4D
:100AB800FCEEE77AC4ED077A4FF0000BD9450BD866
:100AC80042F21073A2699A4282BF0023C4E9063336
:100AD800236203B0BDE8F08FB5F802A02F79BAF110
:100AE800000F2ED0384654F09DFFCDE90001504646
:100AF80054F098FF02460B46DDE9000155F026F94F
:100B080002460B4600204C4954F03EFE55F0AEFA22
:100B180007EE100A96F80332AAEB0700034486F89A
:100B2800033294F8243033B394F825305B4522D14E
:100B3800BAF1000F08D1C4F820A00BF1010B06355B
:100B4800BCE7B7EE007AE5E7E3690133E3612A78A9
:100B5800002AF2D00023984696F8E8C106F1080169
:100B68009C450FD8B8F1000F14D127210220334A31
:100B780063F089FAE1E72A78002ADED0BAF1000F9B
:100B8800DBD0E7E791F81DE00133964508BF8846BA
:100B98002031E5E7002288F81420B8F81020D8F8AA
:100BA800043017440133BAB2C8F80430A8F81070FA
:100BB8001AB198F81D2086F81422F7EE007A012B56
:100BC80077EEC77A8CBFB3EE097A9FED1D7AB8F835
:100BD800122088BF67EE877A0244A8F81220D8F856
:100BE80008208CBF9FED177A67EE877A06EE102AE9
:100BF800DFED156AE6EE077A87EEA67A17EE103A69
:100C080017EE100AC8F8083054F01EFF08A3D3E9FD
:100C1800002355F0E3F918B1FF2388F815308CE765
:100C280098F91530013388D10423F6E7AFF3008033
:100C3800666666666666EE3F0000F03F3A9609080B
:100C480000004842000096420000C8420000000030
:100C58002DE9F04F2DED028B054600274FF0200AB5
:100C68004FF0080B0B4608204D4A87B088462721CD
:100C780063F009FA95F8E83127210820494A63F01A
:100C880002FA6C6805F10806E37D237163716375E8
:100C980095F8E891B9450DDC3FA7D7E900674FF013
:100CA8000008AA46C346C14546D807B0BDEC028B2A
:100CB800BDE8F08FE17D42461AFB01B13046294478
:100CC800FFF766FE96F81D900495F06854F0BCFE98
:100CD800CDE90201B06854F0B7FE4B46CDE90001FA
:100CE800314A2721082063F0CEF92379D6ED037A1B
:100CF80005EB431292ED057AF4EEC77AF1EE10FA9D
:100D080002DB327F22710EE017B995F82420F9E74B
:100D1800637905EB431393ED057AF4EEC77AF1EEA8
:100D280010FA04DB337F637101372036B0E7012FF7
:100D3800FAD195F84430F6E7E37D434515D09AEDAE
:100D4800048A18EE100A54F07FFE32463B4655F0EE
:100D580059F910B9BBF1000F0CD19AF82430227957
:100D68009A4202D062799A4211D108F101080AF137
:100D7800200A98E7637D05EB4313D3ED047AB4EEBC
:100D8800E78AF1EE10FAE8DA4FF0010BEDE7637548
:100D9800FAE700BFAFF30080666666666666EE3FF8
:100DA80052960908749609088396090800000000FD
:100DB8002DE9F047D0F8048000EB411393F8245054
:100DC80098F817300446AB422DD098F81530AB424E
:100DD80029D000EB411ADAF810004FEA411954F013
:100DE80033FE13A3D3E9002306460F4655F000F956
:100DF80010B99AF91D00A0B198F80430AB4212D08E
:100E080098F80530AB420ED009A3D3E90023304649
:100E1800394655F001F918B14C44637F013B6377BB
:100E28000120BDE8F0870020FBE700BFAFF300809A
:100E3800666666666666EE3F2DE9F34704460E462B
:100E4800456827210820804A63F01DF9204631466D
:100E5800FFF7FEFE284670F0B6FB002800F0BA80C7
:100E6800204670F0C3FB061EC0F2B48094F8E83147
:100E78009E4280F2AF8004EB4617334627210820B4
:100E8800724A63F000F92721082097F82530704A44
:100E980063F0F9F8012295F804C085F8242004EBE2
:100EA8004C13386A196A884297F8250002D8397FA6
:100EB800322977D9012284F8EC21002284F8EA014A
:100EC80084F8EB21A97D297093F8251084F8F01196
:100ED80093F8263084F8F12184F8F231697D85F899
:100EE80001C004EB411393F82500012684F8F601AC
:100EF80093F8263084F8F831002384F8F731A97084
:100F080085F82520A04605F1FF3904F1120A19F8E1
:100F1800013F5F1C002E00F0898004EB4313186921
:100F280054F092FD02460B46CDE9002342A3D3E9D3
:100F3800002355F071F840B941A3D3E90023DDE956
:100F4800000155F04BF8002870D004EB4717BB7927
:100F5800042B8EBF02230133C3F3460388F8EC3118
:100F680008F10608C245D2D1EA7D04F5F57004EB14
:100F7800421393F8253084F8FC31002384F8FD31BE
:100F8800EA7085F8243094F8F22194F8EC3113448F
:100F980094F8F821C3F113039B1A84F8FE3102B0C8
:100FA800BDE8F08793F82570697D84F8EA7193F8B5
:100FB800263084F8EC31002384F8EB3185F800C042
:100FC80084F8F13184F8F00184F8F22104EB41133C
:100FD8006E7088E700262A7904EB421393F82510EF
:100FE80084F8EA1193F8263084F8EB6184F8EC3140
:100FF8002A706A7904EB421393F8251084F8F011EB
:1010080093F8263084F8F16184F8F2316A706A7DC9
:1010180004EB421393F8251084F8F61193F8263060
:1010280084F8F76184F8F831AA706BE704EB471786
:10103800BB7993E7AFF30080666666666666EE3F47
:101048009A9999999999B93FA7960908B59609085F
:10105800C5960908000000002DE9F8432DED028B24
:1010680087680546384616460C4654F0EDFC2EA314
:10107800D3E900238046894654F0CEFF00283DD1AD
:101088002BA3D3E900234046494654F0A7FFC0BB31
:10109800F7EE007A07EE107AAB7F87EE878A07EEC5
:1010A800903AB8EEE77AB4EEC87AF1EE10FA01D5C4
:1010B800B8EE678A6B7F607F0122834224D00021CB
:1010C80048F05EFC012204463146687F48F058FC2F
:1010D800044404F2D5702860D8B107EE900AF8EEFF
:1010E800677A9FED0D7A67EE887A87EE270ABDEC5E
:1010F800028B10EE103AEB60BDE8F8839FED078A8B
:10110800D8E79FED078AD5E73146184648F038FCFE
:10111800E1E79FED040AEAE700007A44E4388E3FED
:1011280000401C4600000000CDCCCCCCCCCCEC3F21
:101138009A9999999999B93F2DE9F04F2DED028B1C
:1011480090F8E83105460E46934689B0002B00F02A
:10115800238127210820964A62F095FF00226C68B7
:10116800A1690131A16195F8E80190423DD8D4E91F
:1011780007230A2779436427B1FBF7F1C2EB53032E
:101188000B4407EE903A430006EE903AF8EE677A81
:10119800F8EEE66AF4EEE76AF1EE10FA0BD507EE20
:1011A800102A77EEE67AB8EE477A77EE277AFCEEE1
:1011B800E77AC4ED077A0027B846BB451DD8B8F1D1
:1011C800010F00F0E680B8F1130F40F2B980002358
:1011D800A3612721082095F80332764A09B0BDECAF
:1011E800028BBDE8F04F62F04EBFA37D013205EBE4
:1011F80043131F7F01371F77B7E7B6F8029096F8B9
:1012080004A0B9F1000F41D0504654F00BFCCDE9D1
:101218000601484654F006FC02460B46DDE9060185
:1012280054F094FD02460B460020634954F0ACFA92
:1012380054F01CFF08EE100A337818EE100A0693D3
:10124800049554F001FC069BCDE902015B4A272175
:101258000820CDE9009A62F016FF7288337995F874
:101268000312D31A0B4485F8033294F82430C3B11F
:1012780094F82530BB4214D15AB92262272108209C
:101288004F4A62F000FF0137063696E7B7EE008A4C
:10129800D2E7E3692721013308204A4AE36162F073
:1012A800F2FEB6F802A0BAF1000FECD00023E25D1E
:1012B80005EB4211C8680B770130C86096F804C086
:1012C8000B8B4FEA421963449BB20B831BB191F815
:1012D800253085F81432F7EE007A05EB0902538BB6
:1012E80001285344A3EB0C0377EEC87A53830DD936
:1012F800B2EE0E7AD2ED046A27EE877ADFED327A03
:10130800A6EEA77ADFED316AC7EE267AA944C9EDC1
:10131800047A17EE900A54F097FB23A3D3E900232D
:1013280054F05CFE30B1FF2389F81D30C2441FFA27
:101338008AF8A8E799F91D300133F7D10423F3E7B8
:10134800B8F1020FD4ED0B7AB1EE047A15D977EE25
:10135800877AB3EE047AF4EE477AF1EE10FA77FE64
:10136800277A42F21073A269C4ED0B7A9A4282BFBF
:101378000023C4E9063323622BE7F2EE046A77EE12
:10138800E67AF4EE477AF1EE10FA48BFF0EE477AC3
:10139800E7E7DFED0F7AE4E709B0BDEC028BBDE8C3
:1013A800F08F00BFAFF30080666666666666EE3F44
:1013B8000A970908709709080000F03F2097090864
:1013C80051970908609709080000AA420000C8421E
:1013D80000000000000000002DE9F84F2DED028B01
:1013E8000546884600274FF020094FF0080B44684F
:1013F80000F10806E37D23716371637595F8E8A130
:10140800BA450CDC0FF2D009D9E9008900262F462D
:10141800B346B24532D8BDEC028BBDE8F88FE17D0A
:10142800424619FB01B130462944FFF715FE2379DE
:10143800D6ED037A05EB431292ED057AF4EEC77AFE
:10144800F1EE10FA02DB327F22710EE017B995F83F
:101458002420F9E7637905EB431393ED057AF4EE5D
:10146800C77AF1EE10FA04DB337F63710137203657
:10147800C4E7012FFAD195F84430F6E7E37DB3428B
:1014880015D097ED048A18EE100A54F0DDFA42469A
:101498004B4654F0B7FD10B9BBF1000F0AD197F8CD
:1014A800243022799A4202D062799A420FD10136C9
:1014B8002037AEE7637D05EB4313D3ED047AB4EE32
:1014C800E78AF1EE10FAEADA4FF0010BEFE76375FD
:1014D800FAE700BFAFF30080666666666666EE3FB1
:1014E8002DE9F047456890F8E821AB690446B3EB6D
:1014F800420F2ED900EB411393F82480EB7D43452E
:101508002AD06B7D434527D000EB411ADAF810004A
:101518004FEA411954F098FA11A3D3E9002306467B
:101528000F4654F065FD10B99AF91D0090B12B795A
:10153800434511D06B7943450ED009A3D3E9002365
:101548003046394654F068FD18B14C44637F013B7E
:1015580063770120BDE8F0870020FBE7AFF3008048
:10156800666666666666EE3F0348044B834202D0B1
:10157800034B03B11847704734940020349400207B
:1015880000000000064B0749C91A891048BF0131FD
:10159800491003D0044B0BB101481847704700BFEE
:1015A80034940020349400200000000010B5064C4C
:1015B800237843B9FFF7D8FF044B13B10448AFF3BE
:1015C80000800123237010BD447600200000000035
:1015D800CCB3090808B5054B1BB105490548AFF35D
:1015E8000080BDE80840FFF7CDBF00BF0000000045
:1015F80060180020CCB30908A3F5803A704700BFF3
:10160800174B002B08BF134B9D46FFF7F5FF002132
:101618008B460F461348144A121A61F0BFF90E4B55
:10162800002B00D098470D4B002B00D09847002086
:10163800002104000D000D48002802D00C48AFF32B
:1016480000801CF027FB200029000DF05BF91BF03F
:1016580045FF00BF00000800000000000000000077
:10166800000400200004002000800020000000008A
:101678000000000008B5034874F083FA60F06FFFBB
:1016880008BD00BF0474070808B5024874F079FA69
:1016980008BD00BF047407082DE9F04180460E46D6
:1016A800082904D106F1090500273C460AE040F262
:1016B8006311214826F044FBF4E75B21082000F081
:1016C8000DFA0134AC4233D2052C1BD801A353F8D0
:1016D80024F000BFC3160008F516000829170008F3
:1016E800FD1600080117000805170008F3B20433B7
:1016F800D9B2E3E78021E1E70021DFE77B1C394627
:10170800DFB2DBE7B31DA3420CD0F31DA3420BD01D
:1017180006F10803A34209D0A31F18F80310CDE768
:10172800D121CBE75A21C9E75A21C7E75D21C5E78F
:101738000020BDE8F08100BF085E070800B583B04F
:1017480000220092019202218DF80010054855F000
:1017580040F8019008216846FFF79EFF03B05DF846
:1017680004FB00BF00D4300038B504460D4621B153
:1017780018B123682B60256038BD3721014826F051
:10178800DFFAF6E7845E070838B504460D4601B16E
:1017980028B94521054826F0D3FA00E01C462368FD
:1017A800002BFBD12B60256038BD00BF845E070885
:1017B80010B5044630B1206818B1036823600023CF
:1017C800036010BD5621024826F0BAFAF3E700BFBD
:1017D800845E070838B504460D4601B128B98B2147
:1017E800064826F0ADFA00E01C4623682BB1AB4250
:1017F800FAD12B68236000232B6038BD845E07086C
:10180800F0B18446F1B110B409E004F120000FE012
:101818002033C01A18D1BCB10CF1010C01319CF86D
:1018280000400B4B1B5D03F00303012BEDD020465A
:101838000B78074AD25C02F00302012AE9D1E7E7F4
:1018480001207047012070475DF8044B704700BFC6
:101858004F4A080808B50448044A121A9210044965
:1018680055F066F808BD00BF7C010008B403000805
:101878000080002008B5264B264A1A605A68264B75
:101888009A4202D0224B10225A60002383F30A881E
:1018980000F04CF81E4B5A681F4B9A4202D01C4B62
:1018A80011225A60FFF7D6FF194B5A681A4B9A4211
:1018B80002D0174B12225A60154B5A68164B9A429F
:1018C80002D0134B13225A60144A0AE01068516878
:1018D80050F8230041F82300013391688B42F5D377
:1018E8000C320F4B9A4201D20023F6E70D4A08E06A
:1018F8001168002041F82300013351688B42F7D367
:101908000832094B9A4201D20023F6E7FFF778FE26
:10191800F04F0020CE7A07B00100DFBAD4B309082F
:10192800E0B30908E0B30908E0B3090870B5204B33
:101938005A68204B9A420BD01D4B1F4A1A604FF031
:1019480080725A601D4AD2F894209A600022DA60A8
:101958001B4B1C4A9A60D3F8882042F47002C3F8E3
:101968008820194A4FF480419166184D05F50054B6
:101978004FF0FF322266164A62660222C3F8D02070
:10198800BFF34F8FBFF36F8F00200BF003FA4FF4B4
:101998004036E66000200BF0D3F92E61044B5A68FC
:1019A800044B9A4202D0024B0A4A5A6070BD00BFEB
:1019B800F04F00200100DFBACE7A07B00040005097
:1019C80000ED00E000000008009000500080004496
:1019D8007FFF7F0301000001014B1860704700BFC3
:1019E8004882002008B5064B1860064B1B6F03F0B1
:1019F8000703032B00D008BD70F0CCFFFBE700BF46
:101A0800508200200080005010B582B0002401945C
:101A18002A4874F0B6F88DF8004003238DF8013099
:101A280001220421684600F0C9F8254B0122C3F8B9
:101A3800442401A9052074F09DF800283BD1214BCE
:101A4800D3F8F02042F00102C3F8F020D3F8FC20CC
:101A580042F08072C3F8FC20A3F55D431A4A1A606D
:101A6800019B03F5D52303F2FC43DB08174AA2FBCD
:101A780003239B0A013B164A13610223C2F8F03084
:101A88004FF48073C2F804334FF06043114AC3F82F
:101A9800B02F114AC3F8802ED3F8002E42F480727A
:101AA800C3F8002EFF2283F82020D3F8002E22F45A
:101AB8008072C3F8002E02B010BD00BF047407087E
:101AC80000D0035000ED00E0FF03004017916502CD
:101AD800000004E055CEACC5090001004FF060439A
:101AE800D3F8803E13F0010F01D1112070470E4A40
:101AF800D2F8FC3043F08073C2F8FC304FF06043FA
:101B0800D3F8002E4FF0010C0CFA00FC42EA0C024C
:101B1800C3F8002E53F82030002BE8D04FF0604374
:101B280003F820100020704700ED00E010B50446CF
:101B38000FE00123834024EA03040F2814D800EBA4
:101B480040020E4B03EB82035A6812B19968C0B287
:101B5800904794B1234600201F28EAD813F0010FBC
:101B6800E7D101305B08F7E7103800EB40039B0032
:101B7800B033024A13440433E6E710BD7818002056
:101B880008B50D4873F0FDFF1A200BF0E9F828B9E5
:101B98001B200BF0E5F840B9002008BD1A200BF017
:101BA800F9F81A200BF0CCF8F2E71B200BF0F2F84A
:101BB8001B200BF0C5F8EFE7047407082DE9F04186
:101BC80070B10C46154606460F292FD803787BB10D
:101BD800022B26D0032B27D0012B07D0002309E0A6
:101BE8009321184826F0ACF8222717E00F2301E0CC
:101BF80040F2FF737278D34013F0010F16D0124BE6
:101C0800D3F81073C7B973F08DFA80462A46214677
:101C1800304605F039FF404673F07FFA3846BDE894
:101C2800F08140F2FF33E5E73F23E3E797210548DA
:101C380026F086F82127F1E79B21024826F080F854
:101C48000227EBE7EC5E070800C0035038B550B137
:101C5800044603787BB1022B1FD0032B20D0012B25
:101C680007D0002309E0E421114826F069F8222072
:101C780012E00F2301E040F2FF736278D34013F0C3
:101C8800010F0FD073F04EFA0546204672F078FD2A
:101C9800284673F042FA002038BD40F2FF33ECE7E3
:101CA8003F23EAE7E821024826F04AF82120F3E733
:101CB800EC5E070838B550B1044603787BB1022BB7
:101CC8001FD0032B20D0012B07D0002309E0FC21D3
:101CD800124826F035F8222012E00F2301E040F2E6
:101CE800FF736278D34013F0010F0FD073F01AFA24
:101CF8000546204605F092FE284673F00EFA0020AD
:101D080038BD40F2FF33ECE73F23EAE74FF4807138
:101D1800024826F015F82120F2E700BFEC5E07081C
:101D280008B5084BD3F82404D3F82024104000F059
:101D3800553020F0A04003F50053C3F82004FFF706
:101D4800F5FE08BD00C0035008B5084BD3F82404BD
:101D5800D3F82024104000F0AA3020F0204003F5EA
:101D68000053C3F82004FFF7E1FE08BD00C003508C
:101D7800F0B585B00C4694469DF83410664A127842
:101D8800002A00F0BD800546BCF1070F00F2BA80BA
:101D98000A9A002A00F0B8800B9A002A00F0B68050
:101DA8000E9AB2F5006F00F3B38001285BD05B4A4E
:101DB80002EB0C12127B002A00F0AC800022009289
:101DC800019202920392564A02EB4C1E002C4FD10C
:101DD8004FEA4C1600209051CEF80400CEF80800C7
:101DE800CEF80C009EF8020040F010008EF80200B9
:101DF8009EF8030040F030008EF8030021B9C1B20C
:101E080041F003018EF8031000930E9B013B444AF6
:101E18004FEA4C1002EB4C11165A63F30E16165289
:101E28000A9B8B600B9B4B60CB789DF83C2062F340
:101E38008303CB70012D36D0109B002B56D0374A28
:101E48004FEA0C1102EB0C1310985050119A5A607B
:101E580000249C605D7372466946604603F084FB0B
:101E6800204605B0F0BD0C9A002AA0D12D48F8E70D
:101E78002B4F4FEA4C1607EB4C120020B85150601C
:101E88009060D060907840F010009070D07840F06A
:101E98000300D0700029B7D107EB4C12C1B241F052
:101EA8003001D170B0E70E460A7B42F001020A7396
:101EB800D2B242F002020A73CA68042161F39F0297
:101EC800F26006F1100796E80F0087E80F00F26944
:101ED8006FF0030161F39F02F2610C9B7361012CA7
:101EE800AAD10B9AB2610C9A7260A5E7002DA6D10F
:101EF8000B4B03EB4C139A786FF304129A709EE71E
:101F08000948AEE70748ACE70648AAE70548A8E746
:101F18000448A6E70548A4E745760020E01A002013
:101F2800E0190020018000F0028000F0078000F036
:101F3800134B1B78FBB110B50446F0B173F0F2F8FF
:101F48000023072B13D80F4A02EB0312127B0AB1A6
:101F58000133F6E723600B4A190102EB031301244E
:101F68001C730024545073F0D8F8204602E073F034
:101F7800D4F8054810BD054870470548FAE700BF82
:101F880045760020E01A0020048000F0028000F06E
:101F9800018000F038B573F0C5F804460023072B1C
:101FA80006DC0C4A02EB0312127B12B90133F6E786
:101FB800002222B1204673F0B0F8074838BD03F07C
:101FC8005DFA0025054B1D70204673F0A6F82846DB
:101FD800F4E700BFE01A0020058000F045760020F5
:101FE8000F4B1B78BBB110B50446072815D873F002
:101FF80099F80C4B03EB04131B7B1BB973F08DF89A
:1020080009480BE0074B03EB041300241C7373F01F
:1020180084F8204602E005487047054810BD00BF17
:1020280045760020E01A0020068000F0028000F0CB
:10203800018000F000B583B0134B1B6801930023A7
:102048008DF8043073F06EF8104B1B7833B90F4BD2
:1020580001221A7073F061F8002309E073F05DF84B
:102068000B480EE00B4A02EB0312002111730133F7
:10207800072BF7DD08238DF8073001A803F02AFAAB
:10208800002003B05DF804FB585F07084576002080
:10209800038000F0E01A002010B5104C2478BCB181
:1020A800072817DC0E4C04EB0014247BA4B10C4C5D
:1020B8004FEA001E04EB001C44F80E30029BCCF8DB
:1020C80004300024CCF8084003F04EFA204610BD36
:1020D8000448FCE70448FAE70448F8E74576002096
:1020E800E01A0020028000F0018000F0078000F074
:1020F80008B50A4B1B785BB107280BD8084B03EBD4
:1021080000131B7B43B1002103F0CEF9002008BD6A
:102118000448FCE70448FAE70448F8E74576002055
:10212800E01A0020028000F0018000F0078000F033
:1021380008B50A4B1B785BB107280BD8084B03EB93
:1021480000131B7B43B1012103F0AEF9002008BD49
:102158000448FCE70448FAE70448F8E74576002015
:10216800E01A0020028000F0018000F0078000F0F3
:10217800F8B5194B1F6D5B6D1F4002D40125002473
:1021880002E0FEE701346D00072C24D83D42F9D067
:10219800124B1D652301124AD358002BF2D002EBD3
:1021A8000416B1680131B16072682046984780F022
:1021B8000100C0B2737B012BE4D10028E2D0094BA7
:1021C80003EB44131A7B6FF341021A731A7F6FF300
:1021D80041021A77D6E7F8BD0000045000200450E9
:1021E800E01A0020E01900202DE9F04F89B00546DB
:1021F8000E4614469846C36B5B69012207A96068BE
:102208009847EB6B5B69012206A93046984707A8F7
:1022180055F09EFD48B10027A77567754FF0FF334D
:10222800A360384609B0BDE8F08F074606A855F008
:102238009FFD0123A375237E033304EBC3035E6074
:1022480000221A816368B3422AD02368834201D0EE
:102258000023A37506A855F0B0FD237D984201D050
:102268000023A37506A855F087FD814607A855F0F9
:1022780083FD814501D00023A37506A855F084FD90
:10228800814607A855F080FD814501D00023A3753C
:10229800237D043BDBB2022B0BD80023A375C0E7D8
:1022A800206006A855F089FD20754FF0FF33A36024
:1022B800EEE706A855F060FD80B1EB6B5B69022282
:1022C80004A93046984704A855F069FD0346207DC7
:1022D800032868D8DFE800F0615B070D06A855F011
:1022E8005EFD0346F3E7237E033304EBC303CC22EE
:1022F8001A8155F072FD129B187094F8189006A870
:1023080055F02DFD09F1030904EBC90989F80A0004
:10231800237E033304EBC303B3F808A093F80AB091
:1023280006A855F029FD814606A855F02DFD039015
:10233800B9F1000F3DD0EB6B5B69022204A930466E
:10234800984704A855F0E7FC6075637D03B9A37549
:10235800A37DA3B1BAF1000F11D0039BF1186B6CE8
:102368005B4286EA01021A4201D00023A3756B6C16
:102378005A1E0A409B1A9A4501D90023A375A37DCA
:10238800002B40D0BBF1000F18D1E77D3CE0227E46
:10239800033204EBC2021381ABE7227E033204EB63
:1023A800C2021381A5E7227E033204EBC202138125
:1023B8009FE706A855F098FC6075C6E70122E2750C
:1023C800627EBAB9BBF1010F08D095F83470DFB955
:1023D800EA6AB2F1FF3F05D01F4615E00121617698
:1023E800174611E0BBF1030F01D01F460CE0012294
:1023F800A27609E0BBF1010F37D0BBF1030F03D17F
:102408000122A27600E01F4653B117B1BBF1010FBC
:1024180006D95346039A3146284654F0E2FDA06097
:10242800A37D13B1236953442361237E114A127893
:1024380093421CD201332376B8F1000F13D0A37D49
:102448008BB1E37D7BB177B9BBF1030F0BD0A168EA
:10245800B1F1FF3F07D0129B009301232246284683
:10246800FFF7C2FEA075A77DDBE61746CCE7002381
:10247800A375E1E77C5F07082DE9F04F89B00546B1
:102488000F4692469B4600238DF80B304FF0FF31E4
:10249800104600F0AFFFB7F5801F1DD3002300934F
:1024A80017F1020F07D0009B002B40F09E802B7C79
:1024B800002B00F08C80EB6AB3F1FF3F2CD02A6828
:1024C8009B1A6A6CB3FBF2F917F1020818BF4FF0B8
:1024D8000108002301935DE00DF10A02394605F178
:1024E800080000F0D7FE0146B0F1FF3F11D050467A
:1024F80000F080FF0DF10B0301225146284654F0ED
:10250800EFFD00900028CBD09DF80B308BF8003001
:10251800C6E700230093C3E7696A284654F082FCA3
:102528008146D1E70123019337E09DF80B308BF802
:102538000030324B1A683249504660F03AFA00943B
:102548002F4B9968B1F1FF3F1BD06B6C5B4281EA5E
:1025580006021A4215D12A4C204600F04BFF0DF115
:102568000B0342462146284654F0BAFD044600288B
:10257800E6D017F1020FD8D0214B1B68BB42DFD140
:10258800D3E74946284654F04DFC8146019BCBB918
:10259800009BBBB96B6A4B45C4D02C686B6C03FBC2
:1025A8000944EB6B5B69052203A92046984703A8F9
:1025B80055F0AAFC55F0CFFC204655F0D8FC06464D
:1025C8000146BFE7009BA3B1B7F5801F03D3009B6B
:1025D8008BB100200AE09BF80030DAF80420394675
:1025E80005F1080000F074FEF1E7002009B0BDE82D
:1025F800F08F2D20FAE72D20F8E700BF785F070855
:10260800D421002070B582B004464FF0FF33C36276
:102618000DF107031A4A6FF00101FFF72DFF20BBE8
:10262800174B9B68E362E56A2946204654F0EBF9AC
:102638002063E8B12946204654F0C3FC0546A36A46
:10264800AB421BD02946204654F0DDF90646236BE1
:10265800034423632946204654F0B3FC0546002E64
:10266800EDD100232363E062E9E7A36AE362DAE7D6
:10267800E16A204654F0A5FCE062DBE702B070BDD9
:102688000022002030B583B01C46032A14BF002264
:1026980001221B7E9A4202D0012003B030BD0D46B4
:1026A800096823689942F7D363689942F4D80DF111
:1026B8000703114AFFF7E0FE0028EDD10E4B5A68D8
:1026C8006B689A42E8D19DF80730032B14BF0023AA
:1026D8000123227E9342DFD1636901336361236959
:1026E800E2689342D8D2A268296842F82310236985
:1026F80001332361D0E700BF002200202DE9F0411B
:1027080082B004460E4690461F46816A06E01A4B80
:102718009968B1F1FF3F1FD0012E23D0E06A8842AB
:1027280017D0B1F1FF3F14D0134D284600F062FED8
:102738000DF1070301222946204654F0D1FC002858
:10274800E5D03B469DF8072029462046C04700288B
:10275800DDD102B0BDE8F0815968204654F031FC63
:102768000146D9E7044B5A68636C5B424A401A42F7
:10277800D4D04FF0FF31D1E7A821002010B504468E
:10278800083000F04DFD0023024A19462046FFF7A5
:10279800B5FF10BDD770050838B50446037C0BBBE0
:1027A80002461349083000F0DDFD616A204654F006
:1027B8005BFB421C616A204654F0ACFA054620B91E
:1027C800236B626C1344143B2363A16A204654F0C4
:1027D800F8FBA0622368C01A636CB0FBF3F0606278
:1027E800284638BD0023034A0121FFF787FFDCE7AD
:1027F8006F7405083D740508F0B589B080B30F46BD
:1028080016461D46044690F834301BB90025284664
:1028180009B0F0BD012154F052FA01950E9B0293C4
:10282800039704960023059306939DF83C308DF892
:102838001C30237C5BB901AA0A4904F1080000F0A6
:1028480091FD5EB9069D204654F0DBFCDFE701AB45
:10285800054A00212046FFF751FFF2E7059DF2E700
:102868000025D4E78B6C05088D260008F0B58BB0E1
:1028780004460D46406AE36B5B69052205A9266894
:10288800676C07FB0060984705A855F03DFB0128D9
:1028980036D00094002301938DF808500393012348
:1028A8008DF81030A16AE36A99420FD0237CBBB936
:1028B8006A46144904F1080000F054FD019B13B95D
:1028C8009DF810309BB901980BB0F0BD204654F02C
:1028D80078FBE062236B626C9B1A14332363EDE789
:1028E8006B46094A01212046FFF708FFE6E7626ABE
:1028F8002368616C01FB0231E06B55F0B7FAE2E73F
:102908000020E1E7192B0008992A00082DE9F04F6B
:1029180089B004468A4691461D46002307930969F3
:10292800026BCB1D406C1438B3FBF0F3013301EBA1
:10293800C301914200F2A7804E4677E03D2840F05F
:1029480092800490BB4605961EE04FF0000923686C
:10295800616C01FB0631E06B55F074FA204654F0C7
:10296800B8F9204654F054FB2063B9F1000F76D033
:10297800DAF81020D31D616C1439B3FBF1F301337D
:1029880002EBC30290423AD32368ABEB0309606CB5
:10299800B9FBF0F909FB003055F0E9FA8046E16A25
:1029A800204654F00EFBA36A83422CD0E062374BDA
:1029B8009A68616C4B1E1340226B5B1A13442363A5
:1029C800ABEB08072368079EF61AB6FBF1F6B1458C
:1029D800BBD197B1E36B9B69BA08414698478146DA
:1029E800E36A3B44E362236BA8EB0B08434423638D
:1029F80004F1080000F014FCA9E7B946A7E7DDF8E0
:102A080010B0059E02E0DDF810B0059EBBF1000F86
:102A180029D0DAF81000226BC31D616C1439B3FB9E
:102A2800F1F3013300EBC30082421CD3E76ADFF8FD
:102A38005C803946404600F0DDFC07AB0293019507
:102A480000963B4642465146204654F005FE8346D2
:102A580000287FF473AFD8F80830E362D6E7DDF8D2
:102A680010B0059ED2E75F461FB1384609B0BDE8F1
:102A7800F08F2B46054A5268DAF8001004F1080076
:102A880000F026FCF1E71C27EFE700BFD421002067
:102A9800F0B583B01C46032A05D1237A012B33D025
:102AA800012003B0F0BD06460F4615460DF1070399
:102AB800164A0968FFF7E0FC60600028EDD19DF830
:102AC8000730032BE9D0114B5A687B689A42E4D14E
:102AD800237A012B08D13B69E26813447269934257
:102AE80002D900232374D8E7E3683A69134408330A
:102AF800E3602B46012239463046FFF707FF606046
:102B08000028CAD00020CCE7207CCAE70022002099
:102B1800F0B583B0089C2668032A05D1237A012BD7
:102B28004DD0012003B0F0BD15460DF10703254A2D
:102B38003046FFF7A1FC60600028EFD12168214BE7
:102B48005A688B6A486CC0F1000C5A4012EA0C0FA4
:102B5800E4D1227A012A19D00F68DB1BB3FBF0F30A
:102B6800CA6AD21BB2FBF0F29A4219D0E36815493F
:102B78000A6913440833E3602B4601222068FFF7F3
:102B8800C5FE60600028C9D00020CBE70D4A126955
:102B9800E7683A447769BA42DED900232374BDE76F
:102BA800726CF16A531E0B40316B9B1A0B443363F2
:102BB8002668B16A304654F004FAF062D6E7207C01
:102BC800B0E700BF00220020F8B56E4B1E68002257
:102BD8001A60002800F0B6800D46044690F834309C
:102BE80013B30A6803689A4240F0AE804A684368A3
:102BF8009A4240F0AC808A6883689A4240F0A98083
:102C0800CA68C3689A4240F0A6800A6943699A4232
:102C180040F0A3808A69C36B9A4201D05D2594E095
:102C28004B698361002590E0876B682200215FF083
:102C3800B5FEA7632B6823606B6863602B696361CB
:102C48006B69A361EA68A96804F1080000F0FAFA60
:102C5800AB69E3639B6804F14000984730B9636C43
:102C680023B16268B2FBF3F2E26101E00023E361A1
:102C780094F84330002B72D000232366656C002D36
:102C88006FD0E369002B6ED02368B3FBF5F205FB28
:102C98001233002B69D16768B7FBF5F305FB137393
:102CA800002B64D1204653F09EFEA36903440433ED
:102CB8009F425ED36369B3F5805F5CD8CB2B5CD948
:102CC800B5F5805F5BD30321204653F0F8FFE36B33
:102CD8001B686168206898470546E36BDB6802203B
:102CE8009847EDB1636C143B5DB9266A03FB06F6A1
:102CF800204653F078FEA369034404339E4200D271
:102D08005A25B5FA85F35B0984F834301BB11E4A9D
:102D180013680133136085B1204654F072FA14E049
:102D28003146204654F0F0F905466428DAD1314698
:102D3800204654F0E9F90546D4E76168206854F064
:102D48007CFFE9E7212500E05D252846F8BD5D25E3
:102D5800FBE75D25F9E75D25F7E75D25F5E7212523
:102D6800F3E75B25F1E75B25EFE75925EDE7592503
:102D7800EBE75A25E9E75F25E7E75F25E5E75B2508
:102D8800E3E700BF641B0020601B0020F0B585B09E
:102D9800A8B30C4617461E46054690F8343083B350
:102DA800B1F5801F2FD2012153F089FF0DF10F03D8
:102DB800164A21462846FFF75FFB044630B99DF8BE
:102DC8000F30012B08D0022B17D02D24284654F0A1
:102DD80018FA204605B0F0BD0C4B1B69B34201D070
:102DE8006324F3E700220192084B009333463946E7
:102DF800284654F00EFA0446E8E76024E6E7212462
:102E0800E7E71124E5E72924E3E700BF2C220020A7
:102E1800F0B585B0002838D00C4617461E46054642
:102E280090F834309BB3B1F5801F32D2012153F0B2
:102E380046FF0DF10F03184A21462846FFF71CFBF1
:102E4800044630B99DF80F30012B08D0022B1AD058
:102E58002D24284654F0D5F9204605B0F0BD0E4B78
:102E68001A690A9BF3189A4201D26324F1E70023F6
:102E78000193094B00930A9B32463946284654F081
:102E8800C8F90446E5E76024E3E72124E4E71124D0
:102E9800E2E72924E0E700BF2C22002070B582B0C9
:102EA80058B30C461646054690F834303BB3B1F596
:102EB800801F26D2012153F002FF0DF10703124AA9
:102EC80021462846FFF7D8FA044668B99DF8073026
:102ED800032B10D0022B01D0612406E00A492846B2
:102EE80054F07EFB306000E02D24284654F089F928
:102EF800204602B070BD2D24F7E72124F8E71124FD
:102F0800F6E72924F4E700BF2C220020F0B583B0AF
:102F18001C460023236070B30E461746054690F8FA
:102F2800343053B3B1F5801F29D2012153F0C7FEC5
:102F38000DF10703134A31462846FFF79DFA064666
:102F480080B99DF80730032B13D0022B05D000233E
:102F58003B600C4B1B69236005E001233B600423A5
:102F6800236000E02D26284654F04BF9304603B084
:102F7800F0BD2D26F7E72126F8E71126F6E72926E2
:102F8800F4E700BF2C22002000B583B0044B009367
:102F980000231A46194654F054FD03B05DF804FBAB
:102FA800FFFF0F0000B583B0044B009300231A46BF
:102FB800194654F050FD03B05DF804FBFFFF0F0005
:102FC8002DE9F8431D469DF820704369AB422FD385
:102FD80004468846914654F002FA032F06D0266B21
:102FE8002946204653F0EFFC864225D3134E4FF076
:102FF800FF31304600F0FEF9C6F800803561C6F8AA
:103008000C903B46002231462046FFF77FFC0546E0
:10301800236E73B1204654F028FD94F8503013B94C
:1030280094F858302BB1236E04F15000984700E013
:1030380062252846BDE8F8831C25FAE7002200200F
:103048002DE9F04184B000283AD00C4690461F463E
:10305800054690F83430ABB3B1F5801F34D2022165
:1030680053F02DFE0DF10F03184A21462846FFF7AD
:1030780003FA18B99DF80F30012B0FD001230093E4
:103088003B46424621462846FFF79AFF0646284611
:1030980054F0B7F8304604B0BDE8F0810B4B1B691B
:1030A800BB42EBD101230193084B00933B4600221E
:1030B8004146284654F0ADF806460028E7D0DDE73B
:1030C8002126E7E71126E5E72926E3E72C22002059
:1030D80070B586B00392C0B30C46054690F83430FC
:1030E800ABB3B1F5801F34D2022153F0E8FD0DF1E6
:1030F8001703194A21462846FFF7BEF9064638B98C
:103108009DF81730032B03D0022B10D0612608E05E
:1031180002230093CC2303AA21462846FFF750FF39
:103128000646284654F06DF8304606B070BD0A4988
:10313800284654F055FA039A8242F2D003460649CB
:10314800284654F0BFFC0646EBE72126ECE711269B
:10315800EAE72926E8E700BF2C22002030B585B031
:1031680048B30C46054690F8343033B3B1F5801FA8
:1031780025D2022153F0A3FD0DF10F03114A214678
:103188002846FFF779F978B99DF80F30032B01D15C
:103198002D240AE00323009300231A4621462846DB
:1031A800FFF70EFF044600E02D24284654F029F8C6
:1031B800204605B030BD2124FAE71124F8E7292478
:1031C800F6E700BF2C220020036853F83100C0F353
:1031D80013007047036853F83100C0F30750704775
:1031E800036803EBC1035868704700BF006850F8D4
:1031F80031301B0D1B05134340F83130704700BFB9
:10320800006850F83130C3F3130343EA025340F81F
:1032180031307047036803EBC1035A60704700BF41
:10322800002309E002684FF0FF3142F833100268CA
:1032380002EBC3025160013342689A42F2D800237C
:103248000372704708B501604260FFF7E9FF08BDE7
:10325800002342689A421BD910B403E00133426844
:103268009A4212D904684FEAC30C54F83320B2F1D9
:10327800FF3FF3D0C2F313029142EFD14FF0FF3278
:1032880044F80C20036863445A605DF8044B7047A7
:10329800704700BF10B5002300E0013344689C422A
:1032A80012D904684FEAC30E54F83340B4F1FF3F13
:1032B800F3D0C4F3130C6145EFD1C4F30754147071
:1032C80003687344586801E04FF0FF3010BD00BF39
:1032D8002DE9F047456806467DB30F469146984666
:1032E8000024D0F800A05AF83430013305D0214624
:1032F8003046FFF769FFB84210D00134A542F2D139
:10330800002402E00134A54214D05AF834300133C5
:10331800F8D13A4621463046FFF768FF4246214633
:103328003046FFF76DFF4A4621463046BDE8F04774
:10333800FFF770BFB8F1030F03D101233372BDE863
:10334800F087002402E00134A542F6D02146304639
:10335800FFF740FF0328F6D13A4621463046FFF7EB
:1033680045FFDBE72DE9F0439146426883B00AB395
:103378000546884600242B6853F83430013316D0AC
:1033880021462846FFF720FF214607462846FFF733
:1033980021FF214606462846FFF722FF3946034605
:1033A80032462846CDF80090C04718B16A68013403
:1033B8009442E0D303B0BDE8F08300BF08B5034BE7
:1033C8001968034B1868FFF7FFFB08BD54820020FB
:1033D8007482002008B571F09CFE014B186008BD8E
:1033E8005822002008B5024B186871F08DFE08BD00
:1033F8005822002038B504460D46094B1A680021AA
:103408005FF0CCFA4FF0FF32226065600023A375AD
:103418002361A260E3756376A376237638BD00BF87
:10342800785F07082DE9F04186B006460D46174635
:103438009846586854F0DFFC4403A4B298F8033067
:103448001B0303F480531C4498F80230DB0203F496
:1034580000631C44B8F80030C3F30A031C441B4B38
:1034680001930021384654F0D0FC029001213846DF
:1034780054F0CBFC03904FF0FF3304936FEA0444FD
:103488006FEA14440594B369012205A905F11000F7
:1034980098470446B369012203A905F10800984733
:1034A800074600B92746B369012202A9281D984793
:1034B800044600B93C46B369012201A92846984749
:1034C80000B9204606B0BDE8F08100BF01009AB2FD
:1034D800024B4FF480321A67704700BF00900050CB
:1034E80070B504460D4616461F2906D856B104F590
:1034F80080540123AB40236070BD9121034824F020
:103508001FFCF3E704F50054F3E700BF805F0708EA
:1035180038B505460C46114BD3F8803003F0030349
:10352800022B13D0032B15D0012B07D041F22421F5
:103538000B4824F005FC0023184602E06FF00AFA55
:103548000D2305B1286004B1236038BD6FF046FA39
:103558000723F6E76FF0F8F90623F2E7008000503A
:10356800E45F070838B505460C46194BD3F8200127
:1035780000F0070006281DD8DFE800F02404081032
:103588000C1418006FF0E0F905231CE06FF01CFA2A
:10359800032318E06FF022FA072314E06FF010FA03
:1035A800022310E06FF0D0F906230CE06FF00CFA5C
:1035B800042308E041F2A121064824F0C1FB0023BE
:1035C800184600E0012305B1286004B1236038BD26
:1035D80000800050E45F070838B505460C46184BD4
:1035E800D3F8283103F00703013B052B20D8DFE887
:1035F80003F003131B0F0B176FF0A6F9052305B192
:10360800286004B1236038BD6FF09EF90623F6E701
:103618006FF0E4F90723F2E76FF0D6F90323EEE73A
:103628006FF0D2F90423EAE76FF0CAF90223E6E75C
:1036380041F2A901034824F083FB00231846DEE782
:1036480000800050E45F070830B583B005460C469B
:1036580000230193174BD3F8203203F00703042B00
:1036680019D8DFE803F01F03090E1300002101A891
:10367800FFF7B2FF112316E06FF0B0F901900723AE
:1036880011E071F064FD01900A230CE06FF0F0F98D
:103698000190092307E041F26601074824F050FB36
:1036A800002300E001230DB1019A2A6004B12360D0
:1036B80003B030BD00800050E45F070870B582B0E9
:1036C80006460D4600230193134BD3F8804104F0BE
:1036D8000304022C1BD0032C14D0012C06D041F279
:1036E800F6310E4824F02CFB002404E0002101A848
:1036F800FFF738FF0F240EB1019B336005B12C6032
:1037080002B070BD6FF06AF901900724F3E76FF01B
:1037180057F90190EFE700BF00800050E45F070809
:1037280038B505460C46124BD3F8400100F00300AB
:1037380003280FD8DFE800F01602060A71F007FD2B
:103748000A2310E06FF094F909230CE071F002FDF0
:103758000B2308E041F2D321064824F0F1FA0023B4
:10376800184600E0012305B1286004B1236038BD84
:1037780000800050E45F070838B505460C46154B35
:10378800D3F8000200F00700042815D8DFE800F09D
:103798001C03070B0F0071F0DAFC0A2315E06FF029
:1037A80067F9092311E071F0D5FC0B230DE06FF0E8
:1037B800F1F8800A0E2308E041F2B441064824F0EB
:1037C800BFFA0023184600E0012305B1286004B1C0
:1037D800236038BD00800050E45F070838B505460F
:1037E8000C46154BD3F8080200F00700042815D83A
:1037F800DFE800F01C03070B0F0071F0A8FC0A2398
:1038080015E06FF035F9092311E071F0A3FC0B23E3
:103818000DE06FF0BFF8800A0E2308E041F2EC419A
:10382800064824F08DFA0023184600E0012305B16C
:10383800286004B1236038BD00800050E45F0708A9
:1038480038B505460C46124BD3F8400200F0030089
:1038580003280FD8DFE800F01602060A71F077FC9B
:103868000A2310E06FF004F909230CE071F072FCF0
:103878000B2308E041F27341064824F061FA002363
:10388800184600E0012305B1286004B1236038BD63
:1038980000800050E45F070838B505460C46114B18
:1038A800D3F8503203F00303022B17D0032B09D0AF
:1038B800012B0FD041F2D9010B4824F041FA002323
:1038C800184602E071F046FC0B2305B1286004B1EC
:1038D800236038BD71F03BFC0A23F6E76FF0C8F8A7
:1038E8000923F2E700800050E45F070830B583B091
:1038F80005460C4600230193174BD3F8603203F0BA
:103908000703013B032B1FD8DFE803F0020E19144D
:10391800002101A8FFF726FE0F230DB1019A2A60A6
:1039280004B1236003B030BD002101A8FFF7F8FE01
:103938001023F2E76FF052F801900723EDE76FF0DC
:103948003FF801900223E8E741F20D11034824F003
:10395800F7F90023E1E700BF00800050E45F0708A3
:1039680030B583B005460C46002301930E4BD3F8BF
:10397800703203F00303012B08D0022B0CD041F264
:103988006B110A4824F0DCF9002306E0002101A8A5
:10399800FFF7C6FE102300E014230DB1019A2A6038
:1039A80004B1236003B030BD00800050E45F070815
:1039B80038B505460C460E4BD3F8903203F0030396
:1039C800012B09D0022B0BD16FF008F8072305B1A2
:1039D800286004B1236038BD6EF0F2FF0223F6E7D9
:1039E80041F29511034824F0ABF900231846EEE79D
:1039F80000800050E45F070838B505460C46124BB6
:103A0800D3F8600100F0030003280FD8DFE800F0C6
:103A18001602060A71F09BFB0A2310E06FF028F8E3
:103A280009230CE071F096FB0B2308E041F2053105
:103A3800064824F085F90023184600E0012305B163
:103A4800286004B1236038BD00800050E45F070897
:103A580038B505460C46124BD3F8000100F00300B8
:103A680003280FD8DFE800F01602060A6EF0ACFF54
:103A7800032310E06EF0FCFF09230CE06EF0AAFFB0
:103A8800082308E041F25A21064824F059F9002396
:103A9800184600E0012305B1286004B1236038BD51
:103AA80000800050E45F070808B5344B98424DD0B9
:103AB80010D9334B984251D031D9324B984251D01A
:103AC80003F5740303F5105398424FD12E4BD3F8E6
:103AD80098001DE02D4B984232D00BD92C4B9842C0
:103AE80031D003F5371303F5D86398423ED1264BFE
:103AF800986F0DE0274B98420ED008D9264B984274
:103B08000AD0264B984231D11F4B586E00E000B9BD
:103B180008BD234B984229D11B4B986DF8E7214BE0
:103B2800984217D0204B984203D1174BD3F88C00FA
:103B3800EEE71E4B984219D1134BD3F88400E7E700
:103B4800114B186FE4E7104B586FE1E70E4BD3F8B1
:103B58008000DDE70C4BD3F88800D9E70A4BD3F88F
:103B68009000D5E7084BD3F89400D1E741F2CB3168
:103B78000F4824F0E5F80020CAE700BF80BA8C019E
:103B8800007E56030090D0030080E00F405DC60021
:103B98000024F40080841E0000093D00C0CF6A00A4
:103BA80040420F0080D54302006CDC020048E80167
:103BB800E45F0708F8B505460F46144671F0A9FA00
:103BC800064645B12B685C403C405C402C60304662
:103BD80071F09AFAF8BD4FF49C71024824F0B0F8DD
:103BE800F0E700BF805F070808B5234B984233D041
:103BF8001DD8A3F5B703A3F55863984228D006D972
:103C08001E4B984230D11E4BD3F8BC000EE01D4B22
:103C1800984206D009D91C4B984202D01B4B9842B7
:103C280022D1174BD3F8A00000E0E8B908BD184B23
:103C3800984215D0174B984203D1114BD3F8D000B6
:103C4800F4E7154B98420FD10D4BD3F8C800EDE7B8
:103C58000B4BD3F8B800E9E7094BD3F8C000E5E708
:103C6800074BD3F8CC00E1E741F2EE110B4824F002
:103C780067F80020DAE700BFC0EA21010024F40059
:103C88000080E00F40420F0080841E0000093D00C4
:103C98000048E801005A620280BA8C01E45F070814
:103CA80010B5B0F5207F2FD01DD8B0F5007F25D0F6
:103CB8002FD810B1B0F5C07F13D1174B1C6F230B51
:103CC800C4F3033413F00E0F24D048F28803E34002
:103CD80013F0010F1ED140F28A21104824F030F869
:103CE80018E0002416E0B0F5607F05D10A4BD3F840
:103CF8008040C4F301140DE000240BE0064BD3F818
:103D08009040C4F3046405E0034B1C6FC4F38024A3
:103D180000E00024601C10BD00800050E45F07082C
:103D280038B505460C46174B4FF480329A6600208A
:103D3800FFF7B6FF05FB00F0134BDA6902F4803297
:103D480041F67131D9635B6823F440136CB90F49AC
:103D5800884207D800210B430B494B600AB1002267
:103D6800CA6338BD4FF48011F5E7002C07DD084918
:103D7800884201D80021EEE74FF48011EBE74FF4B9
:103D88004011E8E70090005000000350005A62021A
:103D9800002D310138B504460D46430905D0012BE5
:103DA80016D0022B0DD10B4805E040F237310A48F6
:103DB80023F0C6FF00202A4604F01F01FFF790FBFE
:103DC80038BD40F24531044823F0BAFF0020F2E73D
:103DD8000248F0E768800050E45F070864800050FC
:103DE80010B582B0002301930093B0F5807F00F2F4
:103DF8000781B0F5807F00F2D381DFE810F08901F8
:103E0800D101D101D101D101D101D101D101D1011A
:103E1800D101D101D101D101D101D101D101D1010A
:103E2800D101D101D101D101D101D101D101D101FA
:103E3800D101D101D101D101D101D101D101890132
:103E48008D0189018D01A401A401A401A401A4018B
:103E58008D0163019801B301B80198018D018D01AD
:103E68008D01D101D101D101D101D101D101D101FE
:103E7800B3018D018D018D01CC012F018D01D1017F
:103E8800D101D101D101D101D101D101D101D1019A
:103E9800D101D101D1016E01A401890189018901F2
:103EA800BD0198019801C2017E01A90118011801FC
:103EB800D101D101D101D1018901D101D101D101B2
:103EC800D101D101D101D101D101D101D101D1015A
:103ED800D101D101D101D101D101D101D101D1014A
:103EE800D101D101D101D101D101D101D101D1013A
:103EF800D101D101D101D101D101D101D101830178
:103F0800D101D101D101D101D101D101D101D10119
:103F1800D101D101D101D101D101D101D101D10109
:103F2800D101D101D101D101D101D101D101D101F9
:103F3800D101D101D101D101D101D101D101D101E9
:103F4800D101D101D101D101D101D101D101D101D9
:103F5800D101D101D101D101D101D101D101D101C9
:103F6800D101D101D101D101D101D101D101D101B9
:103F7800D101D101D101D101D101D101D101D101A9
:103F8800D101D101D101D101D101D101D101D10199
:103F9800D101D101D101D101D101D101D101D10189
:103FA800D101D101D101D101D101D101D101D10179
:103FB800D101D101D101D101D101D101D101D10169
:103FC800D101D101D101D101D101D101D101D10159
:103FD800D101D101D101D101D101D101D101D10149
:103FE800D101D101D101D101D101D101D101D10139
:103FF800D101D101D101D101D101D101D101AE014C
:10400800B0F5F06F00F0C78016D9B0F5206F00F05A
:10401800B8805CD9B0F5306F00F0B8806AD9B0F5D7
:10402800386F00F09F80B0F5406F40F0B9800021F4
:1040380001A8FFF7D1FA68E0B0F5806F00F083803F
:1040480011D9B0F5C06F00F08D8035D9B0F5D06FBB
:1040580000F08D80B0F5E06F40F0A280002101A84B
:10406800FFF7EEFB51E0B0F5207F55D013D9B0F53E
:10407800407F5CD0B0F5607F40F0928000216846B8
:10408800FFF746FA009C4FF46070FFF709FEB4FB97
:10409800F0F4019439E0B0F5C07F39D0B0F5007F75
:1040A8007ED16EF057FC04464FF40070FFF7F8FD20
:1040B800B4FBF0F4019428E0B0F5A06F48D0B0F557
:1040C800B06F6DD1002101A8FFF7F8FA1DE0B0F537
:1040D800106F51D0B0F5186F04D1002101A8FFF777
:1040E800DBFB12E0B0F5086F5AD1002101A8FFF7F9
:1040F800AFFC0AE0B0F5286F52D1002101A8FFF704
:104108002FFC02E06EF026FC0190019802B010BD71
:104118006EF040FC0190F8E76EF03CFC04464FF46A
:104128002070FFF7BDFDB4FBF0F40194EDE76EF0ED
:1041380031FC04464FF42070FFF7B2FDB4FBF0F4F5
:1041480064080194E1E7002101A8FFF70BFADCE716
:10415800002101A8FFF778FAD7E7002101A853F05A
:1041680048FFD2E7002101A8FFF7DAFACDE70021DE
:1041780001A8FFF701FBC8E7002101A8FFF72EFB04
:10418800C3E7002101A8FFF7B1FBBEE7002101A8A2
:10419800FFF70EFCB9E7002101A8FFF72DFCB4E7F3
:1041A80040F2A641014823F0CBFDAEE7E45F0708E3
:1041B80008B58020FFF714FE034B984203D8034B41
:1041C8004FF480321A6708BD005A620200A00050FE
:1041D80000B583B000230193B0F5607F00F0C8807C
:1041E80042D8802837D82428C0F0DB8024385C28BF
:1041F80000F2D780DFE800F06969696969D55ED5A2
:10420800B271D5D5D5D5D5D5D5D5D5D5D5B2D5D500
:10421800D553C6D5D5D5D5D5D5D5D5D5D5D5D5D5D7
:10422800CB69D5D5D584D5D57CD0C19090D5D5D5F9
:10423800D5D5D5D5D5D5D5D5D5D5D5D5D5D5D5D526
:10424800D5D5D5D5D5D5D5D5D5D5D5D5D5D5D5D516
:10425800D5D5D5D59500B0F5807F40F0A28001A9CD
:10426800002053F0C6FE29E0B0F5086F7BD00CD9CA
:10427800B0F5286F00F0908034D9B0F5306F44D194
:1042880001A90020FFF794FB18E0B0F5C06F65D0D6
:104298000AD9B0F5E06F75D0B0F5F06F1AD101A961
:1042A8000020FFF7A9FB09E0B0F5A06F65D0B0F5D5
:1042B800B06F07D101A90020FFF700FA019803B0F9
:1042C8005DF804FBB0F5806F6BD101A90020FFF702
:1042D80049F9F3E7B0F5D06F63D101A90020FFF7E2
:1042E8004BFAEBE7B0F5186F51D0B0F5206F04D159
:1042F80001A90020FFF7FAFAE0E7B0F5106F50D1F6
:1043080001A90020FFF76AFAD8E74AD3B0F5386F59
:1043180024D0B0F5406F44D101A90020FFF75CF923
:10432800CCE7234B1B6F03F00703013B032B0FD88C
:10433800DFE803F00B02050805230193BEE703231A
:104348000193BBE708230193B8E702230193B5E77C
:104358004FF49B61174823F0F3FCAFE701A9002055
:10436800FFF7DEF9AAE701A90020FFF771FBA5E72F
:1043780001A90020FFF7CCF8A0E701A90020FFF76A
:1043880063F99BE701A90020FFF75AFA96E701A90C
:104398000020FFF781FA91E701A90020FFF7E0FA72
:1043A8008CE740F28B51034823F0CAFC86E700BF34
:1043B80000800050E45F0708094B596E03F58053ED
:1043C8004FF480325A66074A536A23F00103536256
:1043D80011F4803F03D1044B4FF480325A66704782
:1043E8000080005000C0075000A0005038B50446B7
:1043F80003680F2B00F2C18063680F2B00F2C380A3
:10440800A3680F2B00F2C580237B0F2B00F2C78017
:10441800637B0F2B00F2C980A37B3F2B00F2CB807C
:10442800E37B3F2B00F2CD802369032B00F2CF8082
:104438006369032B00F2D180E369032B00F2D38078
:104448008020FFF7C5FE032800F0F3807F4B4FF470
:1044580080125A667E4B45F60E02C3F8802003F59B
:1044680080524FF0A061916203F500534FF48032FF
:104478009A62774B9B6D13F4803FFAD1744B9B6D16
:1044880013F0804FFAD1226863681B0543EA026380
:10449800227B43EA0243627B43EA0233A27B43EA7C
:1044A8008213E27B13436A4D2B61AB6903F000432F
:1044B800226943EA8263626943EA0263227E43EA2D
:1044C8000243627E43EA0223A27E1343AB614FF4A8
:1044D80000624FF440615F48FFF76CFB2B6A23F0E2
:1044E8000F03E269002A40F0848011460B43E17E05
:1044F80043EA81031A43564B1A62E369002B7AD1C7
:10450800534A916A544B0B4094F8201043EA4113E4
:1045180094F8211043EA011394F8241043EAC103E4
:1045280043F4803393624A4B9A6D4C4B9343FAD1D0
:10453800474A02F580514FF080738B62136923F468
:104548007003A06843EA005313614FF000438B6186
:1045580094F822301BB9424B4FF080729A6294F85B
:104568002330002B5ED13E4B4FF480329A62384B99
:104578009B6D13F0804FFAD154E040F68C313948E6
:1045880023F0DEFB38E740F68F31364823F0D8FBBE
:1045980036E740F69231334823F0D2FB34E740F651
:1045A8009531304823F0CCFB32E740F698312D485E
:1045B80023F0C6FB30E740F69B312A4823F0C0FBC6
:1045C8002EE740F69E31274823F0BAFB2CE740F649
:1045D800A131244823F0B4FB2AE740F6A43121484E
:1045E80023F0AEFB28E740F6A7311E4823F0A8FBCE
:1045F80026E708217AE7022B1CD0154A916A164B48
:104608000B4094F8201043EA411394F8221043EA2F
:10461800016394F8241043EAC10394F8231043EA91
:104628000143936294F825301BB1094B0E4AC3F835
:10463800802038BD064B00221A619A614FF4085257
:104648004FF47F410948FFF7B5FAD6E700900050CC
:104658000040005A3840005AC7FFFEFE0300010020
:104668000060005AE45F0708F1A7FFFF3440005AD2
:10467800014B93F9000070478A88002038B504463A
:104688003E4B4FF0A4425A604368072B5DD8A3689D
:10469800032B60D82378032B63D894F90130002BBF
:1046A80065DB62784F2A28BF4F22344B9A60344921
:1046B800596034494FF4000048663349596033491A
:1046C8004FF4D15048623248586001F580500225B5
:1046D80045603048586001F50051012048602E4976
:1046E80059602A4B1B6913F4803FFAD127480369A4
:1046F8002249CB60294B4B60237842EA032242616E
:10470800274B4B606268A3681B0143EA0223227BA4
:1047180043EA4203627B13438360224B4B60A27BD4
:10472800E37B1B0143EA4213227C43EA4203627C97
:10473800134343601C4B4B60A37C13B16FF4D152FD
:1047480042620E4B194A5A6038BD40F6E951184882
:1047580023F0F6FA9BE740F6EB51154823F0F0FA00
:1047680098E740F6ED51124823F0EAFA95E740F64B
:10477800EF510F4823F0E4FA93E700BFF04F002011
:104788000100005200900050020000520000025048
:1047980003000052040000520500005206000052B7
:1047A8000700005208000052090000520A00005297
:1047B800E45F0708014B1880704700BF8A87002014
:1047C800014B1880704700BF8887002038B5B0F5C6
:1047D800207F7BD03BD8B0F5007F64D000F2878083
:1047E80018B1B0F5C07F40F082804C1E012C0BD967
:1047F800102904D8414BCB4013F0010F04D140F2EB
:10480800CD213F4823F09CFA53F011FC53F021FCD2
:10481800FEF75EFE3B4A136F23F4704343EA04330A
:1048280013676EF0B7F8384BD3F8843013F0100FD5
:10483800F9D1354BD3F88410C1F38111C1F10201CC
:1048480053F0FCFB00F078F8FFF7B2FC38BDB0F588
:10485800607F4CD12D4BD3F8FC5015F0807506D0F5
:104868001A46D3F8FC3023F08073C2F8FC304C1E93
:10487800032C12D8234AD2F8803023F0300343EABD
:104888000413C2F88030002DE0D0204AD2F8FC3062
:1048980043F08073C2F8FC30D8E740F2F921184899
:1048A80023F04EFAE6E74C1E1F2C09D8154AD2F819
:1048B800903023F0F85343EA0463C2F89030C5E718
:1048C80040F20E310E4823F03BFAEFE74C1E012C64
:1048D80007D80C4A136F23F4806343EA84231367D1
:1048E800B4E74FF44571064823F02AFAF1E740F29D
:1048F8001A31034823F024FAA8E700BF1001010089
:10490800E45F0708008000500040005000ED00E020
:1049180008B50121022000F01BF94FF42070FFF7C1
:10492800BFF9044B187053F082FB53F092FBFEF76B
:10493800CFFD08BD4676002008B54FF4C070FFF7DC
:104948004FFA054B984205D902214FF42070FFF722
:104958003DFF08BD0121F8E780F0FA0210B50446D2
:104968006EF018F80F4BD3F8843013F0100FF9D10C
:104978000C4BD3F88410C1F38111C1F1020153F03B
:104988005DFB0121002000F03FF924B1FFF7D4FFBF
:10499800FFF70EFC10BD044B19784FF42070FFF799
:1049A80015FFF5E700400050467600202DE9F0415C
:1049B8000546FFF779F80446431E13F1030F39D86B
:1049C800444B4FF4C0225A6603F598335B68012BB9
:1049D80036D08020FFF7FCFB05283AD024F040743D
:1049E8003D4B9D423CD03D4B9D423CD06DF0ACFFD1
:1049F800074685423AD83A4BDB6813F0060FFAD1DE
:104A0800374BD3F808809C6004F4F8149E6806F4C9
:104A1800F816B4422FD1B44233D0314BC3F80880D2
:104A28003D468020FFF7D4FB05282ED0BD424CD947
:104A3800BDE8F08140F6E4112A4823F081F9BFE788
:104A4800294B01225A60294B5B6813F0020FFAD1F7
:104A5800BFE753F0ECFA53F0FCFAFEF739FDBDE777
:104A680044F00074C2E744F08074BFE7012128468F
:104A780000F0CAF8BFE740F62C211A4823F060F985
:104A8800C9E72846FCF7A8FFCBE76DF083FF04468B
:104A9800854214D3164BD3F8843013F0100FF9D194
:104AA800134BD3F88410C1F38111C1F102012046E0
:104AB80053F0C4FAFFF740FFFFF77AFBB6E740F67A
:104AC8003D21084823F03CF9E4E70121002000F0EB
:104AD8009BF8ADE70090005040420F0080841E0014
:104AE80000000150E45F070800E0015000C00150D9
:104AF8000040005038B50546FFF776F80446431ED7
:104B080013F1030F0FD80E4B4FF400225A6624F00E
:104B180040740C4A95420CD00B4A95420CD04FF089
:104B2800B442946038BD40F69671084823F008F9FD
:104B3800E9E744F00074F2E744F08074EFE700BF5F
:104B48000090005040420F0080841E00E45F070878
:104B5800F8B50446294BD3F8843013F0100FF9D177
:104B6800264BD3F88430C3F381139C423FD06DF0B9
:104B7800F1FE0646012C27D070F0CBFA05461F4FF0
:104B880007F500534FF000725A66204653F068FA52
:104B9800621E4FF4806393403B67184B5B6E13F0C3
:104BA800007F1FD1154BD3F8843013F0200F19D193
:104BB800124BD3F8843013F0200FEED040F2B371CB
:104BC8000F4823F0BDF8E8E70E4B984204D80121BE
:104BD800304653F033FACFE740F29B71084823F090
:104BE800AFF8F4E7284670F08FFA022C00D0F8BD31
:104BF8000021304653F022FAF9E700BF0040005088
:104C080048600708005A620210B50C46034650B1C6
:104C1800094A127812B1094A934208D9214602205A
:104C2800FFF796FF10BD6DF095FE0346F0E72146AD
:104C38000120FFF78DFFF5E75C220020005A620291
:104C480010B5134B5C6E03F580534FF000425A6663
:104C580003F50B235A6C02F001024AF6CD311964B0
:104C68000C4B5B6B13F0800FFAD10A490B6A23F4E3
:104C7800F85343EA00230B620AB1074A0A64002C7E
:104C880003DB064B4FF000425A661AF05FFA10BD7C
:104C980000800050004009503254FFFF00A000502F
:104CA80008B50B4B98420DD00A4B98420CD003F52F
:104CB800804398420AD040F27931074823F040F8FF
:104CC800002008BD5620FCE75720FAE75820F8E7EF
:104CD8000000015B00000A50AC60070810B50446EC
:104CE80053F0BFF9202323610023E360A36041F25E
:104CF80002026261A3614FF4A0226262E36123624F
:104D0800A362E3626363236504F500520149D16439
:104D1800236310BDFF3F0D0338B504460D46194BFC
:104D280098420BD0184B984208D003F5804398421C
:104D380004D040F26911154823F002F8F5B104F5E2
:104D4800805301225A6005F00F02636DC3F30B0311
:104D5800002BFAD1A263636D13F07803FBD115F031
:104D6800010F00D0012315F0040F01D043F0020316
:104D7800A26C02F003029A42FAD138BD204653F0E1
:104D880070F9FAE70000015B00000A50AC60070800
:104D9800F8B504460D4617468AB36F4B9C420BD0B4
:104DA8006E4B9C4208D003F580439C4204D040F2ED
:104DB8002A216B4822F0C4FF3DB3A36813F0010F0A
:104DC80052D0BD4228D3666806F00106B5FBF7F558
:104DD800013DFF2D26D8002E44D0636D13F0280F17
:104DE800FBD1A36C13F0030F29D1A36C13F0010FAF
:104DF80036D1A36C13F0020F1AD0062720E040F238
:104E08002721574822F09CFFC7E72046FFF748FFB5
:104E1800FEF7E6FF0546D0E74FF40D71504822F043
:104E28008FFFD0E74FF40F714D4822F089FFD2E78A
:104E380040F249214A4822F083FF002700E0052775
:104E4800204653F00EF9236923F07F4343EA0563B4
:104E58002361002E43D039462046FFF75DFF3EE030
:104E68000927EDE70027EEE76368012B0FD1A36858
:104E780003F0E003402B41D00FD9602B4DD0802B9D
:104E88005ED107EB4703AB4253D8012311E04FF43F
:104E98001771334822F054FFE9E733B1202B4FD183
:104EA800B7EBD50F23D8082303E0B7EB151F17D8A6
:104EB80010236D0107FB03F3B5FBF3F5203DEE006E
:104EC800284BB3EBC50F41D3264A3240636D13F02C
:104ED800010FFBD12263636D13F0010FFBD1F8BD05
:104EE8004FF421711E4822F02BFF1023E1E740F216
:104EF80089211B4822F024FF0823DAE71A4BA3FB79
:104F08000523B7EB930F01D80623D2E740F28E2191
:104F1800134822F015FF0623CBE7B7EB950F01D80E
:104F28000423C6E740F293210D4822F009FF042329
:104F3800BFE74FF426710A4822F002FF0123B8E7C1
:104F480040F29E21064822F0FBFEC8E740F2A92164
:104F5800034822F0F5FEB7E70000015B00000A50A5
:104F6800AC600708F8FF7F00ABAAAAAA70B5044690
:104F78000D461646436823B1636DC3F30B03002B3C
:104F8800FAD12046FFF7AAFE636923F44C5323F0B5
:104F98000F036A7B1343EA8913432A8A1343636125
:104FA800A36823F0804323F0E2032A7B13432A7E7D
:104FB80013436A691343A360AB681BB9A36843F042
:104FC8000043A360EA69002A70D0A168694B0B40CE
:104FD800117A43EA8153917A43EA4143918801F473
:104FE800C0410B43517843EA8103517B43EAC10333
:104FF800917B43EA0113927843EA8223A360E26833
:105008005D4B1340EA6911690B4351690B43917970
:1050180043EA8123D27943EA4223E360EB691B78B0
:10502800012B01D0032B03D1E36843F00403E360B1
:10503800EB691B78023BDBB2012B51D94F4B9C42E9
:105048006BD04F4B9C426AD003F580439C4262D0A0
:105058004FF0FF3303F593735B0103F1A04303F5AE
:10506800703302225A60EB695A7A04F580539A62C7
:10507800EB695B7A1BB1E36843F40063E360EB69B7
:10508800DB7A63B1E36843F40043E3603B4B9C4243
:1050980047D03B4B9C424BD03A4B9C424FD0636A23
:1050A80023F00303EA69D27B134363623EB196F8A7
:1050B8002030002B4AD004F5805301221A6204F5EF
:1050C800805301225A60AA68002A4ED129782046C6
:1050D800FFF722FEA36CDB4313F4405FFAD170BDE7
:1050E800264B9C4213D0264B9C4212D003F580439A
:1050F8009C420AD04FF0FF33A6335B0103F1A04373
:1051080003F5703302225A60ADE70223F4E7002367
:10511800F2E70123F0E702239CE700239AE7012343
:1051280098E7EB691B7B03F00F03174A5366B0E758
:10513800EB691B7B03F00F03134A1367ACE7EB69BA
:105148001B7B03F00F03104AD367A8E7E36923F03A
:10515800090396F82220134396F82120134343F0BD
:10516800010304F58052D361A9E769682046FFF777
:105178000FFEABE7E39BBDFFFFF9F0870000015B83
:1051880000000A5000400A500090035038B5054608
:105198000C46154B98420AD0144B984207D003F599
:1051A8008043984203D07021114822F0C9FD64B1B0
:1051B800237B802B0ED0637B032B10D800231A4649
:1051C80021462846FFF7D2FE38BD7221084822F052
:1051D800B7FDEDE77621064822F0B2FDEBE779212D
:1051E800034822F0ADFDE9E70000015B00000A502A
:1051F800AC60070838B505460C462D4B984203D0DD
:105208008A212C4822F09CFD44B3294B9D422AD088
:105218000020092805D00A2803D02AD310380128ED
:1052280027D8637B032B29D8237B802B2BD1636959
:10523800B3F1804F2CD1238AB3F5805F02D0B3F548
:10524800405F2AD1A368013BB3F5165F2AD2002339
:105258001A4621462846FFF789FE38BD8C21154895
:1052680022F06EFDD1E75620FEF7B2FF0B28D0D111
:10527800D7E79E210F4822F063FDD2E7AD210D4804
:1052880022F05EFDD0E7AF210A4822F059FDCEE7B3
:10529800B121084822F054FDCDE7B321054822F09A
:1052A8004FFDCFE7B521034822F04AFDCFE700BF05
:1052B8000000015BAC600708F8B505460F461446C8
:1052C8006FF027FF064645B12B685C403C405C40C8
:1052D8002C6030466FF018FFF8BD4FF49C710248FF
:1052E80022F02EFDF0E700BF805F070838B50446BE
:1052F8000D46032803D8DFE800F00B040609002355
:1053080008E00F2306E040F2FF3303E03F2301E00B
:1053180040F2FF73EB4013F0010F07D00122AA40BF
:1053280004EB44042401044B1A5138BD40F2854172
:10533800024822F005FDF1E740D003501461070848
:1053480038B504460D46032803D8DFE800F00B04FF
:105358000609002308E00F2306E040F2FF3303E0CC
:105368003F2301E040F2FF73EB4013F0010F07D039
:105378000122AA4004EB44042401044B1A5138BD0D
:1053880040F25641024822F0DBFCF1E740E00350CE
:1053980014610708F8B504460D4616461F4603284B
:1053A80003D8DFE800F00B040609002308E00F2308
:1053B80006E040F2FF3303E03F2301E040F2FF73D1
:1053C800EB4013F0010F1BD026B1FFB12946204650
:1053D800FFF78CFF072D1ED8A90004EB44031B011F
:1053E80006FA01F20F2000FA01F115481844FFF7F8
:1053F80063FF26B9FFB129462046FFF777FFF8BDBE
:105408004FF4B0710F4822F09BFCDDE72946204697
:10541800FFF796FFDEE7A5F108039B0004EB440CB9
:105428004FEA0C1C06FA03F20F2199400648604423
:10543800FFF742FFDDE729462046FFF781FFDEE759
:1054480034C00350786107083CC0035070B5044667
:105458000D4616461F2906D856B104F58054012377
:10546800AB40236070BD9121034822F069FCF3E74B
:1054780004F50054F3E700BF805F070810B5162055
:1054880007F04EFC074B00245C65FF229A625C60C3
:1054980021462020FEF77EFC21462120FEF77AFCDB
:1054A80010BD00BF0000045038B504460D4607285B
:1054B80006DC85F0010221460448FFF7C7FF38BD26
:1054C8007721034822F03CFCF3E700BF400004507A
:1054D800DC61070810B50446002832D023781B0683
:1054E80033F0F85332D1E3780F2B34D80121202040
:1054F800FEF750FC01212120FEF74CFC184B01223D
:105508005A60227812069A606178A27842EA0142CB
:105518009A61FF229A6200229A631A644FF000424D
:105528005A6503F500534FF0FF321A65162007F04D
:1055380031FCE178162007F03BFC162007F000FC50
:1055480010BD9121074822F0FBFBC7E792210548CF
:1055580022F0F6FBC7E79521024822F0F1FBC5E7E8
:1055680000000450DC610708F8B505460C461746EC
:10557800C3B201269E40072854DC002C57D023686C
:1055880023F47C1323F00F03002B55D1A37A1B04BB
:1055980033F4403355D1E37A1B0533F4801355D1E6
:1055A800237B5B0533F4001355D12D4A02F50053D4
:1055B8001E652168AB0003F1A04303F588235960F9
:1055C800637B05EB450102EB01110B66A07AE37AD8
:1055D8001B0543EA0043207B43EA4053CB6527F091
:1055E80003070F676FF09EFD1E4B5E65237A0BB1B4
:1055F8001C4B1E64637A0BB11A4B9E632379A27904
:1056080042EA0342164B03F500518A616579E27953
:1056180042EA054203F58054A2614E639E646FF02E
:105628007CFDF8BDDE21104822F08AFBA5E7DF21CA
:105638000D4822F085FBA2E7E2210B4822F080FB0F
:10564800A4E7E721084822F07BFBA4E7E921064804
:1056580022F076FBA4E7EB21034822F071FBA4E7D4
:105668000000045000100450DC61070810B5C3B2F4
:1056780001249C4007280ADC6FF054FD074B5A6D43
:1056880022EA04025A659C626FF047FD10BD40F2A1
:105698007B11034822F054FBEEE700BF00000450E2
:1056A800DC61070810B5C3B201249C4007280BDC55
:1056B8006FF038FD0B4BDB6A23420BD1094B5B6B58
:1056C8009C430CD0002406E040F29911064822F0D1
:1056D80037FBEDE700246FF020FD204610BD0124C4
:1056E800F9E700BF00000450DC61070870B5044604
:1056F800C3B201259D40072810DC6FF013FD0B4B4A
:105708005E6B04EB440403EB04135C6E6FF005FD61
:10571800354209D1C4F30A10013070BD4FF4E0716D
:10572800034822F00DFBE8E70020F6E700000450EC
:10573800DC610708064B4FF480329A6603F51C3388
:1057480041F67132DA6303F500530122DA607047DB
:1057580000900050074B41F67132DA6303F50052AE
:105768000121D1600022DA63A3F518334FF48032A7
:105778009A6670470000035008B5322827D8DFE83A
:1057880000F01B2C26262626262626262626242614
:1057980026262626262626262626262626262626A1
:1057A8002626261A1C1E20262626262626262626B5
:1057B800262626262200012008BD0220FCE7042018
:1057C800FAE70520F8E70620F6E70720F4E7B62110
:1057D800034822F0B5FA0020EEE70320ECE700BF0B
:1057E800A462070810B50C460C282AD00CD801284A
:1057F8000ED101290CD002290AD049B140F2071173
:10580800174822F09DFA03E0242803D8212803D260
:10581800204610BD3228FBD1042C0DD801A353F823
:1058280024F000BF19580008195800081958000832
:105838001958000819580008F621094822F080FA7A
:10584800E6E7022907D0032907D04FF48B710448F3
:1058580022F076FADCE70024DAE70124D8E700BF73
:10586800A462070870B50546C2F3062602F00704CD
:1058780081B90B2808D844EA062242F440220635AA
:10588800104B43F8252070BD4FF4FC710E4822F0F0
:1058980057FAF0E703280ED821463046FFF7A2FF53
:1058A80004463046FFF768FF44EA00241235054BEA
:1058B80043F82540E7E740F2FD11034822F040FA9B
:1058C800EAE700BF00800350A462070810B40C4642
:1058D80081B90E4942EA034241F8202064B90C49D3
:1058E800D1F84836012282401343C1F848365DF8A2
:1058F800044B70470749EDE70549D1F848360C30A5
:10590800012282401343C1F84836F0E74CC60350E1
:1059180000C003507CC6035070B504460D461646B9
:105928000B2810D80B2D14D80D4A063452F8243001
:1059380023F0706323F4702343EA064343EA0563C4
:1059480042F8243070BD40F28221064822F0F8F96E
:10595800E8E740F28321034822F0F2F9E4E700BFC8
:1059680000800350A4620708094B4FF480325A663E
:1059780003F5E6239B69C3F3461203F00F010A43BC
:105988004280C3F303424270C3F30333037070478A
:1059980000900050014B986CD96C70470080E00F64
:1059A800034B9B680A3303F01F030120984070479C
:1059B8000080E00F014B586880B270470080E00F0C
:1059C80008B5FFF7F7FF0A4BA3FB0023C3F38F13B8
:1059D80041339BB2422B07D0432B07D0412B01D038
:1059E800002008BD0420FCE70520FAE70320F8E7BB
:1059F800D34D621030B58646049C94460AB94FF0E0
:105A0800040C9C4538BF9C46DEF80820CCF1000009
:105A180010400CF1FF35154000D06546284401447C
:105A2800C3F1000C01EA0C0C5D1E294000D0194698
:105A38000CEB0103DEF80410891A01319A1A91421D
:105A48000BD3CEF80830002323700B4B63604FF460
:105A5800E563A360094BE36030BD039B0BB1521AA9
:105A68001A6016232370044B636040F22273A3600C
:105A7800024BE3600020EFE708630708806307082C
:105A88002DE9F04182B00A9D4AB908232B701E4BBC
:105A98006B604FF4D963AB601C4BEB60FEE70E46BE
:105AA8001C46174663B1013B234209D008232B70DB
:105AB800154B6B6040F2CB63AB60144BEB60FEE7B9
:105AC8006FF030FB80460195099B0093089B2246A6
