S02B00002F55736572732F646965676F736D6163626F6F6B2F446F63756D656E74732F5079726F4E65742F6697
S31508000000000400207D1800081F7905081F790508D7
S315080000101F7905081F7905081F7905081F7905083E
S315080000201F7905081F7905081F7905081F7905082E
S315080000301F7905081F7905084D7700081F790508F7
S315080000401F7905081F7905081F7905081F7905080E
S315080000501F7905081F7905081F7905081F790508FE
S315080000601F7905081F7905081F79050861E1010848
S3150800007051E101081F7905081F7905081F79050848
S315080000801F7905081F7905081F7905081F790508CE
S315080000901F7905081F790508E12000081F7905085A
S315080000A01F7905081F790508B91C0008911C000866
S315080000B01F7905081F790508F1700208E97B02080F
S315080000C0E1520608DD52060861730208F75206086F
S315080000D0E5520608B97B0208E9520608297C020897
S315080000E0157D02081F7905081F7905081F79050877
S315080000F01F7905081F7905081F7905081F7905085E
S315080001001F7905081F7905081F7905081F7905084D
S315080001101F7905081F7905081F7905081F7905083D
S315080001201F7905081F7905081F7905081F7905082D
S315080001301F7905081F7905081F7905081F7905081D
S315080001401F7905081F7905081F7905086D7F0008BE
S315080001501F7905081F790508C7710708595202084B
S315080001601F7905081F790508FB510608015206087C
S311080001701F7905081F7905081F79050886
S3150800017C194A5AB3194BDB6913F0040F29D110B479
S3150800018C0AE003EA00048C4210D0013AB2B1134BD0
S3150800019CDB6913F0040F14D110F0010FF1D1104CD8
S315080001AC1C40002CEDD06FF001000CE00C4A1A40F4
S315080001BC0AB9002007E06FF0010004E06FF00200B6
S315080001CC01E04FF0FF305DF8044B70476FF002000A
S315080001DC70474FF0FF307047809698000000035028
S315080001EC020001000D4BDB6913F4803F12D170B588
S315080001FC0A4B03F580560124F46003F500552C646C
S3150800020C4FF480721A6100212046FFF7B1FF34645F
S3150800021CEC6070BD6FF00100704700BF0000035022
S3150800022C38B50446C0F30C03FBB9154B4FF48032B2
S3150800023C9A6603F51C33DD69154041F67132DA63AB
S3150800024C03F580520121D1605C6102221A610021FA
S3150800025C2120FFF78DFF70B10A4B0122DA601DB120
S3150800026CA3F500530022DA6338BD40F21A2106487A
S3150800027C00F096F8D9E700212120FFF779FFEBE784
S3150800028C00900050002003508076070838B51A4BAA
S3150800029C5861DB6913F0040F2AD10C4654F8041B79
S315080002AC154B9961151F06E0214651F8042B124B84
S315080002BC9A61043D0C465DB108210846FFF758FFC4
S315080002CC03460028F0D00C4A04211161184638BDA3
S315080002DC094B04221A6100212120FFF749FF034626
S315080002EC0028F3D100212120FFF742FF0346EDE752
S315080002FC4FF0FF33EAE700BF000003502DE9F04149
S3150800030C0F461646054610F0030F14D116F0030FC8
S3150800031C17D1204B4FF480329A6603F51C33DA69F1
S3150800032C02F4803841F67132DA6303F58053012200
S3150800033CDA6000230EE040F26621174800F030F828
S3150800034CE4E74FF41A71144800F02AF8E1E725445B
S3150800035C2744361B8EB105F5005424F4FF5424F0BB
S3150800036C1F04641BB44228BF344622463946284625
S3150800037CFFF78CFF03460028E9D0084A0121D16013
S3150800038CB8F1000F03D0A2F500520021D16318462C
S3150800039CBDE8F081009000508076070800200350D5
S30D080003AC5FF800F0318D02082C
S315080003B8F0B5934C9FB02288A3780021ADF80C209D
S315080003C813A82C228DF80E3063F0FFFC4FF0023389
S315080003D8159340F20B130AAD0434ADF874300FCCFC
S315080003E80FC50FCC0FC52368864A2B60864B874DE9
S315080003F806930023CDE9073309934FF0FF332846C0
S3150800040883492B601FF0D2FB0446002853D128687D
S31508000418431C06D140F2A4417E4B7F4A7F481EF012
S3150800042833F803A91FF000FC0446002843D12868BE
S3150800043864F093FA7A4E7B4F3070286864F08FFA26
S315080004483870286864F08DFA774B784918702868E8
S315080004581FF0FEFE044600282DD13378744E4BB99A
S3150800046874482BF003FE3060D0B940F2DC41724B79
S31508000478694AD3E771482BF0F9FD30600028EFD0B8
S31508000488C18928681FF032FE3368214658682BF060
S3150800049827FE044678B967482BF0E8FD306090B126
S315080004A8C18928681FF022FE3368042158682BF092
S315080004B817FE044638B1234622210220604A64F012
S315080004C8F9FF1FB0F0BD05F0E7F95E4BCDE9040169
S315080004D804AAA3F1080112F8010B03F8010D9942C1
S315080004E8F9D13B78002B46D15749286864F0B9F802
S315080004F804460028DFD15549286864F09CF8044664
S315080005080028D8D1524928681FF090FC04460028CC
S31508000518D1D139A3D3E90023CDE90023286864F0AB
S31508000528A2F804460028C6D14A4A4B49286864F006
S3150800053863F904460028BED1484A4949286864F040
S315080005485FF904460028B6D1012128681FF08AFBFE
S3150800055804460028AFD1A023424A06A8D380424AB7
S31508000568136005F0C7FA414B186088B940F225515F
S315080005783F4B294A52E71C22002116A863F025FC9E
S31508000588286813A927F0B2FC04460028ACD092E7DD
S3150800059822460121082005F09BFC364B186020B935
S315080005A84FF4A561344B1C4A38E722460121082036
S315080005B805F08EFC314B186020B940F22B51304BB0
S315080005C8154A2BE72F4A304930482DF089FB2F4822
S315080005D849F034FD00212E480AAA05F077FB2D4B71
S315080005E8186000287FF46DAF40F237512A4B0A4A43
S315080005F814E700BFAFF30080C88D01C103400000AF
S315080006088CE60808D5BD0208A7DB08087470002020
S31508000618E4890020BCDB08088DE5080876D90808AF
S31508000628FB790020FA790020F979002007001100E3
S3150800063830600020AB6E0608E3DB0808956E0608EE
S315080006486EDC0808047A00208AE6080888E608089E
S3150800065878700020288B0020500E00202A8B002056
S315080006686C600020248A0020E0700020F4700020C6
S31508000678FBDB0808F070002017DC0808EC7000207F
S3150800068834DC080854DC080891C202089470002073
S315080006980DD40208F87000205DDC08080000000088
S315080006A82DE9F34705465A4C22211020594A64F089
S315080006B801FF14222946204663F092FBA27B564B7B
S315080006C8DFF8A0A11A70637C00228AF8003000239C
S315080006D8CDE90023DFF8908100224FF40073D8F89B
S315080006E8000063F0C0FF064620B10126304602B076
S315080006F8BDE8F087494B4A4F1B787BB949482BF028
S31508000708B5FC04463C60FCB9474A2221022064F03D
S31508000718D1FE0122454B21261A70E7E7444B454C82
S315080007281A88454BD8F8000053F82210434A8B68B4
S3150800073821603B601FF064FB2268414B94682422C1
S315080007481B8802FB0344DDE73E4B1C60394BD3F894
S315080007580090B9F1000F07D000232420D9F80C100F
S315080007688B4208D100251AE040F2ED71364B374A1C
S3150800077837481DF089FED9F8085000FB0355EA6981
S315080007885278120912F00E0F2BD0052A29D8314BA8
S315080007980021EA89B3F900003D602BF0D9FC1AA3B9
S315080007A8D3E90023CDE90023D8F8000063F05BFFFE
S315080007B8D9F80820AA4207D0274B3A600421D289DB
S315080007C8B3F900002BF0C4FC244BE2893C601A807C
S315080007D8234B1B783BB92CF0CDFC01202CF04EF9A5
S315080007E884E70133BCE79AF800301B0913F00E0FAB
S315080007F8F1D101220721D8F8000064F07AFD002813
S31508000808E9D072E7AFF30080C88D01C10342000042
S315080008183460002043E00808F0790020F4790020C5
S3150800082830600020D1C102085FE00808F27900208C
S31508000838587900202460002094860020E1BD02082B
S31508000848567900202C6000209BE008084BE408082D
S3150800085876D908082C8B00202E8B0020228B0020A6
S31508000868FA790020EF790020747000200000000053
S315080008782DE9F84390F8E861054644683EB9022030
S315080008882721414A64F016FE3046BDE8F88394F9F4
S315080008980130002B1ADA731E5BB2637000EB431340
S315080008A893F825302370A06856F0C2F832A3D3E926
S315080008B800238046894694F9017056F0A1FBF8B1E1
S315080008C8002F1DDD013F0023677024E09E42227831
S315080008D805DD00EB431393F825309342E3D0002354
S315080008E805F1250163705801085C904208BF6370DA
S315080008F801339E42F7D8731E637000232371D2E72B
S3150800090840461FA3D3E90023494656F079FBF0B1C0
S315080009182379E3B1013B237194F9013005F5F570A4
S3150800092805EB431393F82530237085F8EA31052338
S3150800093895F8022285F8EC3185F8F02100230E2275
S3150800094885F8EB3185F8F22185F8F1319DE74046BF
S315080009580BA3D3E90023494656F034FB0028DBD01D
S3150800096823790133DBB2092B2371D5D9013EBE425F
S31508000978D2DD0137A7E700BF666666666666E63FA4
S315080009889A9999999999B93F02B3090800000000FC
S315080009982DE9F8432DED028B876805463846164635
S315080009A80C4656F045F828A3D3E90023804689461D
S315080009B856F026FB88BB26A3D3E9002340464946BA
S315080009C856F000FB60BBF7EE007A07EE107A87EE62
S315080009D8878A6B7F607F0122834224D0002149F0F1
S315080009E8C3FF012204463146687F49F0BDFF044427
S315080009F804F2D5702860D8B107EE900AF8EE677A3F
S31508000A089FED0D7A67EE887A87EE270ABDEC028B8A
S31508000A1810EE103AEB60BDE8F8839FED088AD8E730
S31508000A289FED078AD5E73146184649F09DFFE1E765
S31508000A389FED040AEAE700BF00007A44E4388E3FCF
S31508000A4800401C4600000000CDCCCCCCCCCCEC3FFA
S31508000A589A9999999999B93F2DE9F74F064690F8C1
S31508000A68E8010D469146A0B37468A3690133A361EA
S31508000A78A37D06EB43131A7F02441A77D4E9073293
S31508000A88C3EB520207EE902A4000B8EE677A07EEE3
S31508000A98900AF8EEE76AF4EEC76AF1EE10FA0BD593
S31508000AA807EE903A37EE667AF8EE677A77EE877A3F
S31508000AB8FCEEE77AC4ED077A4FF0000BD9450BD858
S31508000AC842F21073A2699A4282BF0023C4E9063328
S31508000AD8236203B0BDE8F08FB5F802A02F79BAF102
S31508000AE8000F2ED0384655F091FFCDE90001504643
S31508000AF855F08CFF02460B46DDE9000156F01AF957
S31508000B0802460B4600204C4955F032FE56F0A2FA2A
S31508000B1807EE100A96F80332AAEB0700034486F88C
S31508000B28033294F8243033B394F825305B4522D140
S31508000B38BAF1000F08D1C4F820A00BF1010B06354D
S31508000B48BCE7B7EE007AE5E7E3690133E3612A789B
S31508000B58002AF2D00023984696F8E8C106F108015B
S31508000B689C450FD8B8F1000F14D127210220334A23
S31508000B7864F0A0FCE1E72A78002ADED0BAF1000F73
S31508000B88DBD0E7E791F81DE00133964508BF8846AC
S31508000B982031E5E7002288F81420B8F81020D8F89C
S31508000BA8043017440133BAB2C8F80430A8F81070EC
S31508000BB81AB198F81D2086F81422F7EE007A012B48
S31508000BC877EEC77A8CBFB3EE097A9FED1D7AB8F827
S31508000BD8122088BF67EE877A0244A8F81220D8F848
S31508000BE808208CBF9FED177A67EE877A06EE102ADB
S31508000BF8DFED156AE6EE077A87EEA67A17EE103A5B
S31508000C0817EE100AC8F8083055F012FF08A3D3E9FA
S31508000C18002356F0D7F918B1FF2388F815308CE762
S31508000C2898F91530013388D10423F6E7AFF3008025
S31508000C38666666666666EE3F0000F03F22B30908F8
S31508000C4800004842000096420000C8420000000022
S31508000C582DE9F04F2DED028B054600274FF0200AA7
S31508000C684FF0080B0B4608204D4A87B088462721BF
S31508000C7864F020FC95F8E83127210820494A64F0F1
S31508000C8819FC6C6805F10806E37D237163716375C1
S31508000C9895F8E891B9450DDC3FA7D7E900674FF005
S31508000CA80008AA46C346C14546D807B0BDEC028B1C
S31508000CB8BDE8F08FE17D42461AFB01B1304629446A
S31508000CC8FFF766FE96F81D900495F06855F0B0FE95
S31508000CD8CDE90201B06855F0ABFE4B46CDE90001F7
S31508000CE8314A2721082064F0E5FB2379D6ED037AF3
S31508000CF805EB431292ED057AF4EEC77AF1EE10FA8F
S31508000D0802DB327F22710EE017B995F82420F9E73D
S31508000D18637905EB431393ED057AF4EEC77AF1EE9A
S31508000D2810FA04DB337F637101372036B0E7012FE9
S31508000D38FAD195F84430F6E7E37D434515D09AEDA0
S31508000D48048A18EE100A55F073FE32463B4656F0EA
S31508000D584DF910B9BBF1000F0CD19AF82430227955
S31508000D689A4202D062799A4211D108F101080AF129
S31508000D78200A98E7637D05EB4313D3ED047AB4EEAE
S31508000D88E78AF1EE10FAE8DA4FF0010BEDE763753A
S31508000D98FAE700BFAFF30080666666666666EE3FEA
S31508000DA83AB309085CB309086BB3090800000000E0
S31508000DB82DE9F047D0F8048000EB411393F8245046
S31508000DC898F817300446AB422DD098F81530AB4240
S31508000DD829D000EB411ADAF810004FEA411955F004
S31508000DE827FE13A3D3E9002306460F4656F0F4F860
S31508000DF810B99AF91D00A0B198F80430AB4212D080
S31508000E0898F80530AB420ED009A3D3E9002330463B
S31508000E18394656F0F5F818B14C44637F013B6377B9
S31508000E280120BDE8F0870020FBE700BFAFF300808C
S31508000E38666666666666EE3F2DE9F34704460E461D
S31508000E48456827210820804A64F034FB2046314645
S31508000E58FFF7FEFE284671F0CDFD002800F0BA809F
S31508000E68204671F0DAFD061EC0F2B48094F8E8311F
S31508000E789E4280F2AF8004EB4617334627210820A6
S31508000E88724A64F017FB2721082097F82530704A1C
S31508000E9864F010FB012295F804C085F8242004EBB9
S31508000EA84C13386A196A884297F8250002D8397F98
S31508000EB8322977D9012284F8EC21002284F8EA013C
S31508000EC884F8EB21A97D297093F8251084F8F01188
S31508000ED893F8263084F8F12184F8F231697D85F88B
S31508000EE801C004EB411393F82500012684F8F6019E
S31508000EF893F8263084F8F831002384F8F731A97076
S31508000F0885F82520A04605F1FF3904F1120A19F8D3
S31508000F18013F5F1C002E00F0898004EB4313186913
S31508000F2855F086FD02460B46CDE9002342A3D3E9D0
S31508000F38002356F065F840B941A3D3E90023DDE953
S31508000F48000156F03FF8002870D004EB4717BB7924
S31508000F58042B8EBF02230133C3F3460388F8EC310A
S31508000F6808F10608C245D2D1EA7D04F5F57004EB06
S31508000F78421393F8253084F8FC31002384F8FD31B0
S31508000F88EA7085F8243094F8F22194F8EC31134481
S31508000F9894F8F821C3F113039B1A84F8FE3102B0BA
S31508000FA8BDE8F08793F82570697D84F8EA7193F8A7
S31508000FB8263084F8EC31002384F8EB3185F800C034
S31508000FC884F8F13184F8F00184F8F22104EB41132E
S31508000FD86E7088E700262A7904EB421393F82510E1
S31508000FE884F8EA1193F8263084F8EB6184F8EC3132
S31508000FF82A706A7904EB421393F8251084F8F011DD
S3150800100893F8263084F8F16184F8F2316A706A7DBB
S3150800101804EB421393F8251084F8F61193F8263052
S3150800102884F8F76184F8F831AA706BE704EB471778
S31508001038BB7993E7AFF30080666666666666EE3F39
S315080010489A9999999999B93F8FB309089DB3090847
S31508001058ADB30908000000002DE9F8432DED028B11
S3150800106887680546384616460C4655F0E1FC2EA311
S31508001078D3E900238046894655F0C2FF00283DD1AA
S315080010882BA3D3E900234046494655F09BFFC0BB2E
S31508001098F7EE007A07EE107AAB7F87EE878A07EEB7
S315080010A8903AB8EEE77AB4EEC87AF1EE10FA01D5B6
S315080010B8B8EE678A6B7F607F0122834224D00021BD
S315080010C849F052FC012204463146687F49F04CFC37
S315080010D8044404F2D5702860D8B107EE900AF8EEF1
S315080010E8677A9FED0D7A67EE887A87EE270ABDEC50
S315080010F8028B10EE103AEB60BDE8F8839FED078A7D
S31508001108D8E79FED078AD5E73146184649F02CFCFB
S31508001118E1E79FED040AEAE700007A44E4388E3FDF
S3150800112800401C4600000000CDCCCCCCCCCCEC3F13
S315080011389A9999999999B93F2DE9F04F2DED028B0E
S3150800114890F8E83105460E46934689B0002B00F01C
S31508001158238127210820964A64F0ACF900226C6896
S31508001168A1690131A16195F8E80190423DD8D4E911
S3150800117807230A2779436427B1FBF7F1C2EB530320
S315080011880B4407EE903A430006EE903AF8EE677A73
S31508001198F8EEE66AF4EEE76AF1EE10FA0BD507EE12
S315080011A8102A77EEE67AB8EE477A77EE277AFCEED3
S315080011B8E77AC4ED077A0027B846BB451DD8B8F1C3
S315080011C8010F00F0E680B8F1130F40F2B98000234A
S315080011D8A3612721082095F80332764A09B0BDECA1
S315080011E8028BBDE8F04F64F065B9A37D013205EBC3
S315080011F843131F7F01371F77B7E7B6F8029096F8AB
S3150800120804A0B9F1000F41D0504655F0FFFBCDE9CF
S315080012180601484655F0FAFB02460B46DDE9060183
S3150800122855F088FD02460B460020634955F0A0FA9A
S3150800123855F010FF08EE100A337818EE100A0693D0
S31508001248049555F0F5FB069BCDE902015B4A272173
S315080012580820CDE9009A64F02DF97288337995F853
S315080012680312D31A0B4485F8033294F82430C3B111
S3150800127894F82530BB4214D15AB92262272108208E
S315080012884F4A64F017F90137063696E7B7EE008A2B
S31508001298D2E7E3692721013308204A4AE36164F063
S315080012A809F9B6F802A0BAF1000FECD00023E25DFE
S315080012B805EB4211C8680B770130C86096F804C078
S315080012C80B8B4FEA421963449BB20B831BB191F807
S315080012D8253085F81432F7EE007A05EB0902538BA8
S315080012E801285344A3EB0C0377EEC87A53830DD928
S315080012F8B2EE0E7AD2ED046A27EE877ADFED327AF5
S31508001308A6EEA77ADFED316AC7EE267AA944C9EDB3
S31508001318047A17EE900A55F08BFB23A3D3E900232A
S3150800132855F050FE30B1FF2389F81D30C2441FFA24
S315080013388AF8A8E799F91D300133F7D10423F3E7AA
S31508001348B8F1020FD4ED0B7AB1EE047A15D977EE17
S31508001358877AB3EE047AF4EE477AF1EE10FA77FE56
S31508001368277A42F21073A269C4ED0B7A9A4282BFB1
S315080013780023C4E9063323622BE7F2EE046A77EE04
S31508001388E67AF4EE477AF1EE10FA48BFF0EE477AB5
S31508001398E7E7DFED0F7AE4E709B0BDEC028BBDE8B5
S315080013A8F08F00BFAFF30080666666666666EE3F36
S315080013B8F2B3090858B409080000F03F08B4090848
S315080013C839B4090848B409080000AA420000C84206
S315080013D800000000000000002DE9F84F2DED028BF3
S315080013E80546884600274FF020094FF0080B446841
S315080013F800F10806E37D23716371637595F8E8A122
S31508001408BA450CDC0FF2D009D9E9008900262F461F
S31508001418B346B24532D8BDEC028BBDE8F88FE17DFC
S31508001428424619FB01B130462944FFF715FE2379D0
S31508001438D6ED037A05EB431292ED057AF4EEC77AF0
S31508001448F1EE10FA02DB327F22710EE017B995F831
S315080014582420F9E7637905EB431393ED057AF4EE4F
S31508001468C77AF1EE10FA04DB337F63710137203649
S31508001478C4E7012FFAD195F84430F6E7E37DB3427D
S3150800148815D097ED048A18EE100A55F0D1FA424697
S315080014984B4655F0ABFD10B9BBF1000F0AD197F8CA
S315080014A8243022799A4202D062799A420FD10136BB
S315080014B82037AEE7637D05EB4313D3ED047AB4EE24
S315080014C8E78AF1EE10FAEADA4FF0010BEFE76375EF
S315080014D8FAE700BFAFF30080666666666666EE3FA3
S315080014E82DE9F047456890F8E821AB690446B3EB5F
S315080014F8420F2ED900EB411393F82480EB7D434520
S315080015082AD06B7D434527D000EB411ADAF810003C
S315080015184FEA411955F08CFA11A3D3E90023064678
S315080015280F4655F059FD10B99AF91D0090B12B7957
S31508001538434511D06B7943450ED009A3D3E9002357
S315080015483046394655F05CFD18B14C44637F013B7B
S3150800155863770120BDE8F0870020FBE7AFF300803A
S31508001568666666666666EE3F0348044B834202D0A3
S31508001578034B03B1184770475C9700205C97002017
S3150800158800000000064B0749C91A891048BF0131EF
S31508001598491003D0044B0BB101481847704700BFE0
S315080015A85C9700205C9700200000000010B5064CE8
S315080015B8237843B9FFF7D8FF044B13B10448AFF3B0
S315080015C800800123237010BD687900200000000000
S315080015D8B4D0090808B5054B1BB105490548AFF34A
S315080015E80080BDE80840FFF7CDBF00BF0000000037
S315080015F860180020B4D00908A3F5803A704700BFE0
S31508001608174B002B08BF134B9D46FFF7F5FF002124
S315080016188B460F461348144A121A62F0D6FB0E4B2D
S31508001628002B00D098470D4B002B00D09847002078
S31508001638002104000D000D48002802D00C48AFF31D
S3150800164800801DF01BFB200029005AF037FE1CF00D
S3150800165839FF00BF00000800000000000000000075
S315080016680004002000040020248300200000000055
S315080016780000000008B5034875F09BFC62F086F97F
S3150800168808BD00BF4488070808B5024875F091FCEC
S3150800169808BD00BF448807082DE9F04180460E4674
S315080016A8082904D106F1090500273C460AE040F254
S315080016B86311214827F038FBF4E75B21082000F07E
S315080016C8C1F90134AC4233D2052C1BD801A353F80F
S315080016D824F000BFC3160008F516000829170008E5
S315080016E8FD1600080117000805170008F3B20433A9
S315080016F8D9B2E3E78021E1E70021DFE77B1C394619
S31508001708DFB2DBE7B31DA3420CD0F31DA3420BD00F
S3150800171806F10803A34209D0A31F18F80310CDE75A
S31508001728D121CBE75A21C9E75A21C7E75D21C5E781
S315080017380020BDE8F08100BF4872070800B583B0ED
S3150800174800220092019202218DF80010054856F0F1
S3150800175834F8019008216846FFF79EFF03B05DF844
S3150800176804FB00BF00D4300038B504460D4621B145
S3150800177818B123682B60256038BD3721014827F042
S31508001788D3FAF6E7C472070838B504460D4601B118
S3150800179828B94521054827F0C7FA00E01C462368FA
S315080017A8002BFBD12B60256038BD00BFC472070823
S315080017B810B5044630B1206818B1036823600023C1
S315080017C8036010BD5621024827F0AEFAF3E700BFBA
S315080017D8C472070838B504460D4601B128B98B21E5
S315080017E8064827F0A1FA00E01C4623682BB1AB424D
S315080017F8FAD12B68236000232B6038BDC47207080A
S31508001808F0B18446F1B110B409E004F120000FE004
S315080018182033C01A18D1BCB10CF1010C01319CF85F
S3150800182800400B4B1B5D03F00303012BEDD020464C
S315080018380B78074AD25C02F00302012AE9D1E7E7E6
S3150800184801207047012070475DF8044B704700BFB8
S315080018583767080808B50448044A121A9210044952
S3150800186856F05AF808BD00BF7C010008B403000802
S315080018782883002008B5002383F30A8800F02EF889
S31508001888FFF7E8FF114A0AE01068516850F8230084
S3150800189841F82300013391688B42F5D30C320C4B7F
S315080018A89A4201D20023F6E70A4A08E0116800209E
S315080018B841F82300013351688B42F7D30832064BA7
S315080018C89A4201D20023F6E7FFF79AFEBCD0090828
S315080018D8C8D00908C8D00908C8D0090870B5134B74
S315080018E8134A9A60D3F8882042F47002C3F888200D
S315080018F8104A4FF4804191660F4D05F500544FF094
S31508001908FF3222660D4A62660222C3F8D020BFF368
S315080019184F8FBFF36F8F00200BF0BEF94FF4403698
S31508001928E66000200BF08EF92E6170BD00ED00E030
S315080019380000000800900050008000447FFF7F03E5
S31508001948014B1860704700BF7085002008B5064B24
S315080019581860064B1B6F03F00703032B00D008BD5E
S3150800196872F030FAFBE700BF788500200080005047
S3150800197810B582B0002401942A4875F01AFB8DF830
S31508001988004003238DF8013001220421684600F03F
S31508001998C9F8254B0122C3F8442401A9052075F086
S315080019A801FB00283BD1214BD3F8F02042F0010275
S315080019B8C3F8F020D3F8FC2042F08072C3F8FC2064
S315080019C8A3F55D431A4A1A60019B03F5D52303F26A
S315080019D8FC43DB08174AA2FB03239B0A013B164A6A
S315080019E813610223C2F8F0304FF48073C2F8043347
S315080019F84FF06043114AC3F8B02F114AC3F8802E36
S31508001A08D3F8002E42F48072C3F8002EFF2283F81A
S31508001A182020D3F8002E22F48072C3F8002E02B0D4
S31508001A2810BD00BF4488070800D0035000ED00E049
S31508001A38FF03004017916502000004E055CEACC5C7
S31508001A48090001004FF06043D3F8803E13F0010FF8
S31508001A5801D1112070470E4AD2F8FC3043F0807342
S31508001A68C2F8FC304FF06043D3F8002E4FF0010C53
S31508001A780CFA00FC42EA0C02C3F8002E53F8203090
S31508001A88002BE8D04FF0604303F820100020704779
S31508001A9800ED00E010B504460FE00123834024EA70
S31508001AA803040F2814D800EB40020E4B03EB8203FD
S31508001AB85A6812B19968C0B2904794B12346002073
S31508001AC81F28EAD813F0010FE7D101305B08F7E7BA
S31508001AD8103800EB40039B00B033024A1344043322
S31508001AE8E6E710BD7818002008B50D4875F061FAC4
S31508001AF81A200BF0B7F828B91B200BF0B3F840B931
S31508001B08002008BD1A200BF0C7F81A200BF09AF81F
S31508001B18F2E71B200BF0C0F81B200BF093F8EFE751
S31508001B28448807082DE9F04170B10C461546064663
S31508001B380F292FD803787BB1022B26D0032B27D061
S31508001B48012B07D0002309E09321184827F0ECF861
S31508001B58222717E00F2301E040F2FF737278D3407B
S31508001B6813F0010F16D0124BD3F81073C7B974F0D7
S31508001B78F1FC80462A462146304605F007FF4046CE
S31508001B8874F0E3FC3846BDE8F08140F2FF33E5E738
S31508001B983F23E3E79721054827F0C6F82127F1E709
S31508001BA89B21024827F0C0F80227EBE72C730708A1
S31508001BB800C0035038B550B1044603787BB1022BF0
S31508001BC81FD0032B20D0012B07D0002309E0E421DE
S31508001BD8114827F0A9F8222012E00F2301E040F265
S31508001BE8FF736278D34013F0010F0FD074F0B2FC7C
S31508001BF80546204673F0DCFF284674F0A6FC00204C
S31508001C0838BD40F2FF33ECE73F23EAE7E82102480C
S31508001C1827F08AF82120F3E72C73070838B550B15E
S31508001C28044603787BB1022B1FD0032B20D0012B47
S31508001C3807D0002309E0FC21124827F075F822206E
S31508001C4812E00F2301E040F2FF736278D34013F0E5
S31508001C58010F0FD074F07EFC0546204605F060FE9D
S31508001C68284674F072FC002038BD40F2FF33ECE7D2
S31508001C783F23EAE74FF48071024827F055F82120F8
S31508001C88F2E700BF2C73070808B5084BD3F82404F5
S31508001C98D3F82024104000F0553020F0A04003F572
S31508001CA80053C3F82004FFF7F5FE08BD00C003502B
S31508001CB808B5084BD3F82404D3F82024104000F0BC
S31508001CC8AA3020F0204003F50053C3F82004FFF794
S31508001CD8E1FE08BD00C00350F0B585B00C46944631
S31508001CE89DF83410664A1278002A00F0BD80054629
S31508001CF8BCF1070F00F2BA800A9A002A00F0B880E9
S31508001D080B9A002A00F0B6800E9AB2F5006F00F317
S31508001D18B38001285BD05B4A02EB0C12127B002ABF
S31508001D2800F0AC8000220092019202920392564A71
S31508001D3802EB4C1E002C4FD14FEA4C16002090514E
S31508001D48CEF80400CEF80800CEF80C009EF802007B
S31508001D5840F010008EF802009EF8030040F03000AC
S31508001D688EF8030021B9C1B241F003018EF80310B9
S31508001D7800930E9B013B444A4FEA4C1002EB4C1168
S31508001D88165A63F30E1616520A9B8B600B9B4B600A
S31508001D98CB789DF83C2062F38303CB70012D36D0AF
S31508001DA8109B002B56D0374A4FEA0C1102EB0C133E
S31508001DB810985050119A5A6000249C605D737246B8
S31508001DC86946604603F052FB204605B0F0BD0C9AFA
S31508001DD8002AA0D12D48F8E72B4F4FEA4C1607EBF7
S31508001DE84C120020B85150609060D060907840F04E
S31508001DF810009070D07840F00300D0700029B7D151
S31508001E0807EB4C12C1B241F03001D170B0E70E466B
S31508001E180A7B42F001020A73D2B242F002020A733E
S31508001E28CA68042161F39F02F26006F1100796E872
S31508001E380F0087E80F00F2696FF0030161F39F024C
S31508001E48F2610C9B7361012CAAD10B9AB2610C9AA8
S31508001E587260A5E7002DA6D10B4B03EB4C139A78B5
S31508001E686FF304129A709EE70948AEE70748ACE78D
S31508001E780648AAE70548A8E70448A6E70548A4E7E0
S31508001E8869790020E01A0020E0190020018000F096
S31508001E98028000F0078000F0134B1B78FBB110B5E1
S31508001EA80446F0B174F056FB0023072B13D80F4AE3
S31508001EB802EB0312127B0AB10133F6E723600B4AD9
S31508001EC8190102EB031301241C730024545074F0FF
S31508001ED83CFB204602E074F038FB054810BD05486F
S31508001EE870470548FAE700BF69790020E01A00201C
S31508001EF8048000F0028000F0018000F038B574F024
S31508001F0829FB04460023072B06DC0C4A02EB0312BE
S31508001F18127B12B90133F6E7002222B1204674F083
S31508001F2814FB074838BD03F02BFA0025054B1D702E
S31508001F38204674F00AFB2846F4E700BFE01A00209A
S31508001F48058000F0697900200F4B1B78BBB110B5E6
S31508001F580446072815D874F0FDFA0C4B03EB04134E
S31508001F681B7B1BB974F0F1FA09480BE0074B03EB26
S31508001F78041300241C7374F0E8FA204602E00548A6
S31508001F887047054810BD00BF69790020E01A00208F
S31508001F98068000F0028000F0018000F000B583B0EA
S31508001FA8134B1B68019300238DF8043074F0D2FA9A
S31508001FB8104B1B7833B90F4B01221A7074F0C5FA07
S31508001FC8002309E074F0C1FA0B480EE00B4A02EB4D
S31508001FD80312002111730133072BF7DD08238DF847
S31508001FE8073001A803F0F8F9002003B05DF804FBF0
S31508001FF89873070869790020038000F0E01A002022
S3150800200810B5104C2478BCB1072817DC0E4C04EB25
S315080020180014247BA4B10C4C4FEA001E04EB001CE8
S3150800202844F80E30029BCCF804300024CCF808405B
S3150800203803F01CFA204610BD0448FCE70448FAE7F2
S315080020480448F8E769790020E01A0020028000F0C1
S31508002058018000F0078000F008B50A4B1B785BB1D1
S3150800206807280BD8084B03EB00131B7B43B1002149
S3150800207803F09CF9002008BD0448FCE70448FAE781
S315080020880448F8E769790020E01A0020028000F081
S31508002098018000F0078000F008B50A4B1B785BB191
S315080020A807280BD8084B03EB00131B7B43B1012108
S315080020B803F07CF9002008BD0448FCE70448FAE761
S315080020C80448F8E769790020E01A0020028000F041
S315080020D8018000F0078000F0F8B5194B1F6D5B6D9D
S315080020E81F4002D40125002402E0FEE701346D00F2
S315080020F8072C24D83D42F9D0124B1D652301124AF4
S31508002108D358002BF2D002EB0416B1680131B1603E
S3150800211872682046984780F00100C0B2737B012B8D
S31508002128E4D10028E2D0094B03EB44131A7B6FF37A
S3150800213841021A731A7F6FF341021A77D6E7F8BD78
S315080021480000045000200450E01A0020E01900207E
S315080021582DE9F04F89B005460E4614469846C36BD6
S315080021685B69012207A960689847EB6B5B690122DE
S3150800217806A93046984707A856F0DEFD48B1002755
S31508002188A77567754FF0FF33A360384609B0BDE8F1
S31508002198F08F074606A856F0DFFD0123A375237EB0
S315080021A8033304EBC3035E6000221A816368B342F3
S315080021B82AD02368834201D00023A37506A856F0BF
S315080021C8F0FD237D984201D00023A37506A856F092
S315080021D8C7FD814607A856F0C3FD814501D00023EF
S315080021E8A37506A856F0C4FD814607A856F0C0FD93
S315080021F8814501D00023A375237D043BDBB2022B5E
S315080022080BD80023A375C0E7206006A856F0C9FDB9
S3150800221820754FF0FF33A360EEE706A856F0A0FD39
S3150800222880B1EB6B5B69022204A93046984704A87B
S3150800223856F0A9FD0346207D032868D8DFE800F094
S31508002248615B070D06A856F09EFD0346F3E7237E55
S31508002258033304EBC303CC221A8156F0B2FD129B52
S31508002268187094F8189006A856F06DFD09F1030938
S3150800227804EBC90989F80A00237E033304EBC30370
S31508002288B3F808A093F80AB006A856F069FD81467F
S3150800229806A856F06DFD0390B9F1000F3DD0EB6B1B
S315080022A85B69022204A93046984704A856F027FD18
S315080022B86075637D03B9A375A37DA3B1BAF1000F51
S315080022C811D0039BF1186B6C5B4286EA01021A422D
S315080022D801D00023A3756B6C5A1E0A409B1A9A45AF
S315080022E801D90023A375A37D002B40D0BBF1000FAD
S315080022F818D1E77D3CE0227E033204EBC202138143
S31508002308ABE7227E033204EBC2021381A5E7227EDD
S31508002318033204EBC20213819FE706A856F0D8FCDD
S315080023286075C6E70122E275627EBAB9BBF1010F8C
S3150800233808D095F83470DFB9EA6AB2F1FF3F05D0DC
S315080023481F4615E001216176174611E0BBF1030F18
S3150800235801D01F460CE00122A27609E0BBF1010F65
S3150800236837D0BBF1030F03D10122A27600E01F463E
S3150800237853B117B1BBF1010F06D95346039A314633
S31508002388284655F022FEA060A37D13B1236953445D
S315080023982361237E114A127893421CD2013323768D
S315080023A8B8F1000F13D0A37D8BB1E37D7BB177B964
S315080023B8BBF1030F0BD0A168B1F1FF3F07D0129B01
S315080023C80093012322462846FFF7C2FEA075A77D7B
S315080023D8DBE61746CCE70023A375E1E7BC730708D5
S315080023E82DE9F04F89B005460F4692469B460023CD
S315080023F88DF80B304FF0FF31104600F0AFFFB7F5F8
S31508002408801F1DD30023009317F1020F07D0009BE6
S31508002418002B40F09E802B7C002B00F08C80EB6A0A
S31508002428B3F1FF3F2CD02A689B1A6A6CB3FBF2F902
S3150800243817F1020818BF4FF00108002301935DE061
S315080024480DF10A02394605F1080000F0D7FE0146E3
S31508002458B0F1FF3F11D0504600F080FF0DF10B0395
S3150800246801225146284655F02FFE00900028CBD069
S315080024789DF80B308BF80030C6E700230093C3E7B6
S31508002488696A284655F0C2FC8146D1E701230193BB
S3150800249837E09DF80B308BF80030324B1A68324912
S315080024A8504661F09DFC00942F4B9968B1F1FF3FA7
S315080024B81BD06B6C5B4281EA06021A4215D12A4C7C
S315080024C8204600F04BFF0DF10B03424621462846ED
S315080024D855F0FAFD04460028E6D017F1020FD8D0C1
S315080024E8214B1B68BB42DFD1D3E74946284655F03E
S315080024F88DFC8146019BCBB9009BBBB96B6A4B45E2
S31508002508C4D02C686B6C03FB0944EB6B5B6905222A
S3150800251803A92046984703A856F0EAFC56F00FFD8B
S31508002528204656F018FD06460146BFE7009BA3B1AC
S31508002538B7F5801F03D3009B8BB100200AE09BF8F0
S315080025480030DAF80420394605F1080000F074FE70
S31508002558F1E7002009B0BDE8F08F2D20FAE72D2015
S31508002568F8E700BFB8730708D421002070B582B011
S3150800257804464FF0FF33C3620DF107031A4A6FF09A
S315080025880101FFF72DFF20BB174B9B68E362E56A3D
S315080025982946204655F02BFA2063E8B129462046F5
S315080025A855F003FD0546A36AAB421BD029462046CB
S315080025B855F01DFA0646236B03442363294620462D
S315080025C855F0F3FC0546002EEDD100232363E0629F
S315080025D8E9E7A36AE362DAE7E16A204655F0E5FC2B
S315080025E8E062DBE702B070BD0022002030B583B098
S315080025F81C46032A14BF002201221B7E9A4202D0D7
S31508002608012003B030BD0D46096823689942F7D3FF
S3150800261863689942F4D80DF10703114AFFF7E0FEFB
S315080026280028EDD10E4B5A686B689A42E8D19DF896
S315080026380730032B14BF00230123227E9342DFD1E0
S315080026486369013363612369E2689342D8D2A26851
S31508002658296842F82310236901332361D0E700BFAC
S31508002668002200202DE9F04182B004460E46904625
S315080026781F46816A06E01A4B9968B1F1FF3F1FD0D9
S31508002688012E23D0E06A884217D0B1F1FF3F14D053
S31508002698134D284600F062FE0DF10703012229466C
S315080026A8204655F011FD0028E5D03B469DF8072041
S315080026B829462046C0470028DDD102B0BDE8F0818A
S315080026C85968204655F071FC0146D9E7044B5A6803
S315080026D8636C5B424A401A42D4D04FF0FF31D1E7C7
S315080026E8A821002010B50446083000F04DFD002347
S315080026F8024A19462046FFF7B5FF10BDBF800508F0
S3150800270838B50446037C0BBB02461349083000F06B
S31508002718DDFD616A204655F09BFB421C616A20462E
S3150800272855F0ECFA054620B9236B626C1344143B42
S315080027382363A16A204655F038FCA0622368C01AAC
S31508002748636CB0FBF3F06062284638BD0023034A81
S315080027580121FFF787FFDCE7578405082584050864
S31508002768F0B589B080B30F4616461D46044690F85C
S3150800277834301BB90025284609B0F0BD012155F0AB
S3150800278892FA01950E9B02930397049600230593E4
S3150800279806939DF83C308DF81C30237C5BB901AA5A
S315080027A80A4904F1080000F091FD5EB9069D204625
S315080027B855F01BFDDFE701AB054A00212046FFF768
S315080027C851FFF2E7059DF2E70025D4E7737C050873
S315080027D8F5250008F0B58BB004460D46406AE36B4C
S315080027E85B69052205A92668676C07FB0060984798
S315080027F805A856F07DFB012836D0009400230193DE
S315080028088DF80850039301238DF81030A16AE36AFE
S3150800281899420FD0237CBBB96A46144904F10800CB
S3150800282800F054FD019B13B99DF810309BB9019827
S315080028380BB0F0BD204655F0B8FBE062236B626C1E
S315080028489B1A14332363EDE76B46094A0121204690
S31508002858FFF708FFE6E7626A2368616C01FB023145
S31508002868E06B56F0F7FAE2E70020E1E7812A00086C
S31508002878012A00082DE9F04F89B004468A46914690
S315080028881D46002307930969026BCB1D406C143853
S31508002898B3FBF0F3013301EBC301914200F2A780C1
S315080028A84E4677E03D2840F092800490BB46059650
S315080028B81EE04FF000092368616C01FB0631E06BE6
S315080028C856F0B4FA204655F0F8F9204655F094FB28
S315080028D82063B9F1000F76D0DAF81020D31D616CA1
S315080028E81439B3FBF1F3013302EBC30290423AD32E
S315080028F82368ABEB0309606CB9FBF0F909FB0030F8
S3150800290856F029FB8046E16A204655F04EFBA36A35
S3150800291883422CD0E062374B9A68616C4B1E134091
S31508002928226B5B1A13442363ABEB08072368079EDD
S31508002938F61AB6FBF1F6B145BBD197B1E36B9B69BD
S31508002948BA08414698478146E36A3B44E362236BE3
S31508002958A8EB0B084344236304F1080000F014FCB1
S31508002968A9E7B946A7E7DDF810B0059E02E0DDF845
S3150800297810B0059EBBF1000F29D0DAF81000226BBB
S31508002988C31D616C1439B3FBF1F3013300EBC300C3
S3150800299882421CD3E76ADFF85C803946404600F075
S315080029A8DDFC07AB0293019500963B464246514625
S315080029B8204655F045FE834600287FF473AFD8F8BD
S315080029C80830E362D6E7DDF810B0059ED2E75F4621
S315080029D81FB1384609B0BDE8F08F2B46054A52683C
S315080029E8DAF8001004F1080000F026FCF1E71C27C5
S315080029F8EFE700BFD4210020F0B583B01C46032AB0
S31508002A0805D1237A012B33D0012003B0F0BD064641
S31508002A180F4615460DF10703164A0968FFF7E0FC45
S31508002A2860600028EDD19DF80730032BE9D0114BDB
S31508002A385A687B689A42E4D1237A012B08D13B6904
S31508002A48E26813447269934202D900232374D8E7CB
S31508002A58E3683A6913440833E3602B46012239468A
S31508002A683046FFF707FF60600028CAD00020CCE789
S31508002A78207CCAE700220020F0B583B0089C2668A7
S31508002A88032A05D1237A012B4DD0012003B0F0BDC6
S31508002A9815460DF10703254A3046FFF7A1FC606085
S31508002AA80028EFD12168214B5A688B6A486CC0F117
S31508002AB8000C5A4012EA0C0FE4D1227A012A19D0DE
S31508002AC80F68DB1BB3FBF0F3CA6AD21BB2FBF0F242
S31508002AD89A4219D0E36815490A6913440833E3602A
S31508002AE82B4601222068FFF7C5FE60600028C9D07A
S31508002AF80020CBE70D4A1269E7683A447769BA4273
S31508002B08DED900232374BDE7726CF16A531E0B40A5
S31508002B18316B9B1A0B4433632668B16A304655F005
S31508002B2844FAF062D6E7207CB0E700BF002200200E
S31508002B38F8B56E4B1E6800221A60002800F0B680A9
S31508002B480D46044690F8343013B30A6803689A4267
S31508002B5840F0AE804A6843689A4240F0AC808A687A
S31508002B6883689A4240F0A980CA68C3689A4240F0C6
S31508002B78A6800A6943699A4240F0A3808A69C36BAA
S31508002B889A4201D05D2594E04B698361002590E05F
S31508002B98876B6822002161F018F9A7632B68236000
S31508002BA86B6863602B6963616B69A361EA68A968E6
S31508002BB804F1080000F0FAFAAB69E3639B6804F1CC
S31508002BC84000984730B9636C23B16268B2FBF3F2E8
S31508002BD8E26101E00023E36194F84330002B72D0E8
S31508002BE800232366656C002D6FD0E369002B6ED031
S31508002BF82368B3FBF5F205FB1233002B69D1676826
S31508002C08B7FBF5F305FB1373002B64D1204654F084
S31508002C18DEFEA369034404339F425ED36369B3F5B2
S31508002C28805F5CD8CB2B5CD9B5F5805F5BD3032175
S31508002C38204655F038F8E36B1B68616820689847A2
S31508002C480546E36BDB6802209847EDB1636C143BD5
S31508002C585DB9266A03FB06F6204654F0B8FEA36952
S31508002C68034404339E4200D25A25B5FA85F35B0914
S31508002C7884F834301BB11E4A13680133136085B1D2
S31508002C88204655F0B2FA14E03146204655F030FA97
S31508002C9805466428DAD13146204655F029FA05460C
S31508002CA8D4E76168206855F0BCFFE9E7212500E00C
S31508002CB85D252846F8BD5D25FBE75D25F9E75D2511
S31508002CC8F7E75D25F5E72125F3E75B25F1E75B25BA
S31508002CD8EFE75925EDE75925EBE75A25E9E75F2593
S31508002CE8E7E75F25E5E75B25E3E700BF641B002008
S31508002CF8601B0020F0B585B0A8B30C4617461E46DB
S31508002D08054690F8343083B3B1F5801F2FD20121D8
S31508002D1854F0C9FF0DF10F03164A21462846FFF756
S31508002D285FFB044630B99DF80F30012B08D0022BFB
S31508002D3817D02D24284655F058FA204605B0F0BD78
S31508002D480C4B1B69B34201D06324F3E700220192B6
S31508002D58084B009333463946284655F04EFA04463A
S31508002D68E8E76024E6E72124E7E71124E5E72924CC
S31508002D78E3E700BF2C220020F0B585B0002838D03C
S31508002D880C4617461E46054690F834309BB3B1F5EF
S31508002D98801F32D2012154F086FF0DF10F03184A1D
S31508002DA821462846FFF71CFB044630B99DF80F3024
S31508002DB8012B08D0022B1AD02D24284655F015FACF
S31508002DC8204605B0F0BD0E4B1A690A9BF3189A42BD
S31508002DD801D26324F1E700230193094B00930A9B68
S31508002DE832463946284655F008FA0446E5E7602487
S31508002DF8E3E72124E4E71124E2E72924E0E700BF12
S31508002E082C22002070B582B058B30C4616460546E3
S31508002E1890F834303BB3B1F5801F26D2012154F01F
S31508002E2842FF0DF10703124A21462846FFF7D8FA4A
S31508002E38044668B99DF80730032B10D0022B01D039
S31508002E48612406E00A49284655F0BEFB306000E0D2
S31508002E582D24284655F0C9F9204602B070BD2D2400
S31508002E68F7E72124F8E71124F6E72924F4E700BF51
S31508002E782C220020F0B583B01C460023236070B3CB
S31508002E880E461746054690F8343053B3B1F5801FF9
S31508002E9829D2012154F007FF0DF10703134A3146D9
S31508002EA82846FFF79DFA064680B99DF80730032B92
S31508002EB813D0022B05D000233B600C4B1B692360FB
S31508002EC805E001233B600423236000E02D262846FD
S31508002ED855F08BF9304603B0F0BD2D26F7E72126C5
S31508002EE8F8E71126F6E72926F4E700BF2C22002082
S31508002EF800B583B0044B009300231A46194655F0CB
S31508002F0894FD03B05DF804FBFFFF0F0000B583B01E
S31508002F18044B009300231A46194655F090FD03B052
S31508002F285DF804FBFFFF0F002DE9F8431D469DF8E1
S31508002F3820704369AB422FD304468846914655F01C
S31508002F4842FA032F06D0266B2946204654F02FFD51
S31508002F58864225D3134E4FF0FF31304600F0FEF96E
S31508002F68C6F800803561C6F80C903B460022314603
S31508002F782046FFF77FFC0546236E73B1204655F0B9
S31508002F8868FD94F8503013B994F858302BB1236E6D
S31508002F9804F15000984700E062252846BDE8F88302
S31508002FA81C25FAE7002200202DE9F04184B0002804
S31508002FB83AD00C4690461F46054690F83430ABB3CF
S31508002FC8B1F5801F34D2022154F06DFE0DF10F03BE
S31508002FD8184A21462846FFF703FA18B99DF80F300C
S31508002FE8012B0FD0012300933B464246214628462B
S31508002FF8FFF79AFF0646284655F0F7F8304604B014
S31508003008BDE8F0810B4B1B69BB42EBD10123019349
S31508003018084B00933B4600224146284655F0EDF8F2
S3150800302806460028E7D0DDE72126E7E71126E5E783
S315080030382926E3E72C22002070B586B00392C0B390
S315080030480C46054690F83430ABB3B1F5801F34D238
S31508003058022154F028FE0DF11703194A214628467D
S31508003068FFF7BEF9064638B99DF81730032B03D083
S31508003078022B10D0612608E002230093CC2303AA6A
S3150800308821462846FFF750FF0646284655F0ADF86C
S31508003098304606B070BD0A49284655F095FA039A8F
S315080030A88242F2D003460649284655F0FFFC0646F2
S315080030B8EBE72126ECE71126EAE72926E8E700BF29
S315080030C82C22002030B585B048B30C46054690F842
S315080030D8343033B3B1F5801F25D2022154F0E3FD0D
S315080030E80DF10F03114A21462846FFF779F978B9F1
S315080030F89DF80F30032B01D12D240AE003230093F2
S3150800310800231A4621462846FFF70EFF044600E024
S315080031182D24284655F069F8204605B030BD2124E7
S31508003128FAE71124F8E72924F6E700BF2C2200203D
S31508003138036853F83100C0F313007047036853F85F
S315080031483100C0F307507047036803EBC10358689A
S31508003158704700BF006850F831301B0D1B05134334
S3150800316840F83130704700BF006850F83130C3F373
S31508003178130343EA025340F831307047036803EBF8
S31508003188C1035A60704700BF002309E002684FF080
S31508003198FF3142F83310026802EBC302516001336B
S315080031A842689A42F2D800230372704708B501604C
S315080031B84260FFF7E9FF08BD002342689A421BD917
S315080031C810B403E0013342689A4212D904684FEAF8
S315080031D8C30C54F83320B2F1FF3FF3D0C2F31302FD
S315080031E89142EFD14FF0FF3244F80C20036863444C
S315080031F85A605DF8044B7047704700BF10B5002346
S3150800320800E0013344689C4212D904684FEAC30EA9
S3150800321854F83340B4F1FF3FF3D0C4F3130C6145B7
S31508003228EFD1C4F30754147003687344586801E06F
S315080032384FF0FF3010BD00BF2DE9F0474568064638
S315080032487DB30F46914698460024D0F800A05AF850
S315080032583430013305D021463046FFF769FFB842B6
S3150800326810D00134A542F2D1002402E00134A54267
S3150800327814D05AF834300133F8D13A462146304644
S31508003288FFF768FF424621463046FFF76DFF4A4674
S3150800329821463046BDE8F047FFF770BFB8F1030F7F
S315080032A803D101233372BDE8F087002402E0013414
S315080032B8A542F6D021463046FFF740FF0328F6D147
S315080032C83A4621463046FFF745FFDBE72DE9F04346
S315080032D89146426883B00AB30546884600242B6897
S315080032E853F83430013316D021462846FFF720FF15
S315080032F8214607462846FFF721FF2146064628465F
S31508003308FFF722FF3946034632462846CDF800908D
S31508003318C04718B16A6801349442E0D303B0BDE8DF
S31508003328F08300BF08B5034B1968034B1868FFF705
S31508003338FFFB08BD7C8500209C85002008B573F036
S3150800334800F9014B186008BD5822002008B5024B41
S31508003358186873F0F1F808BD5822002038B50446F5
S315080033680D46094B1A68002160F02FFD4FF0FF3211
S31508003378226065600023A3752361A260E3756376FE
S31508003388A376237638BD00BFB87307082DE9F04140
S3150800339886B006460D4617469846586855F01FFDE6
S315080033A84403A4B298F803301B0303F480531C445F
S315080033B898F80230DB0203F400631C44B8F80030BE
S315080033C8C3F30A031C441B4B01930021384655F0E6
S315080033D810FD02900121384655F00BFD03904FF079
S315080033E8FF3304936FEA04446FEA14440594B369F7
S315080033F8012205A905F1100098470446B369012278
S3150800340803A905F108009847074600B92746B3698E
S31508003418012202A9281D9847044600B93C46B36903
S31508003428012201A92846984700B9204606B0BDE8F2
S31508003438F08100BF01009AB2024B4FF480321A6736
S31508003448704700BF0090005070B504460D461646F2
S315080034581F2906D856B104F580540123AB402360CA
S3150800346870BD9121034825F05FFCF3E704F5005485
S31508003478F3E700BFC073070838B505460C46114B75
S31508003488D3F8803003F00303022B13D0032B15D08F
S31508003498012B07D041F214210B4825F045FC0023DF
S315080034A8184602E070F06EFC0D2305B1286004B1D9
S315080034B8236038BD70F0AAFC0723F6E770F05CFCB9
S315080034C80623F2E7008000502474070838B5054635
S315080034D80C46194BD3F8200100F0070006281DD81A
S315080034E8DFE800F0240408100C14180070F044FCF7
S315080034F805231CE070F080FC032318E070F086FCB6
S31508003508072314E070F074FC022310E070F034FC12
S3150800351806230CE070F070FC042308E041F29121C0
S31508003528064825F001FC0023184600E0012305B1EA
S31508003538286004B1236038BD008000502474070849
S3150800354838B505460C46184BD3F8283103F0070357
S31508003558013B052B20D8DFE803F003131B0F0B17D5
S3150800356870F00AFC052305B1286004B1236038BD4C
S3150800357870F002FC0623F6E770F048FC0723F2E72A
S3150800358870F03AFC0323EEE770F036FC0423EAE70A
S3150800359870F02EFC0223E6E741F29901034825F06C
S315080035A8C3FB00231846DEE700800050247407088A
S315080035B830B583B005460C4600230193174BD3F85C
S315080035C8203203F00703042B19D8DFE803F01F039A
S315080035D8090E1300002101A8FFF7B2FF112316E010
S315080035E870F014FC0190072311E072F0C8FF0190EF
S315080035F80A230CE070F054FC0190092307E041F215
S315080036085601074825F090FB002300E001230DB179
S31508003618019A2A6004B1236003B030BD00800050C7
S315080036282474070870B582B006460D460023019330
S31508003638134BD3F8804104F00304022C1BD0032C47
S3150800364814D0012C06D041F2E6310E4825F06CFB61
S31508003658002404E0002101A8FFF738FF0F240EB163
S31508003668019B336005B12C6002B070BD70F0CEFBCB
S3150800367801900724F3E770F0BBFB0190EFE700BF62
S31508003688008000502474070838B505460C46124BC6
S31508003698D3F8400100F0030003280FD8DFE800F04C
S315080036A81602060A72F06BFF0A2310E070F0F8FBA0
S315080036B809230CE072F066FF0B2308E041F2C321E8
S315080036C8064825F031FB0023184600E0012305B11A
S315080036D8286004B1236038BD0080005024740708A8
S315080036E838B505460C46154BD3F8000200F0070016
S315080036F8042815D8DFE800F01C03070B0F0072F042
S315080037083EFF0A2315E070F0CBFB092311E072F09F
S3150800371839FF0B230DE070F055FB800A0E2308E0ED
S3150800372841F2A441064825F0FFFA0023184600E0AE
S31508003738012305B1286004B1236038BD0080005014
S315080037482474070838B505460C46154BD3F80802FD
S3150800375800F00700042815D8DFE800F01C03070B5B
S315080037680F0072F00CFF0A2315E070F099FB092385
S3150800377811E072F007FF0B230DE070F023FB800AB7
S315080037880E2308E041F2DC41064825F0CDFA00236D
S31508003798184600E0012305B1286004B1236038BD46
S315080037A8008000502474070838B505460C46124BA5
S315080037B8D3F8400200F0030003280FD8DFE800F02A
S315080037C81602060A72F0DBFE0A2310E070F068FBA0
S315080037D809230CE072F0D6FE0B2308E041F2634198
S315080037E8064825F0A1FA0023184600E0012305B18A
S315080037F8286004B1236038BD008000502474070887
S3150800380838B505460C46114BD3F8503203F0030376
S31508003818022B17D0032B09D0012B0FD041F2C9016F
S315080038280B4825F081FA0023184602E072F0AAFE32
S315080038380B2305B1286004B1236038BD72F09FFEDA
S315080038480A23F6E770F02CFB0923F2E700800050FC
S315080038582474070830B583B005460C46002301933F
S31508003868174BD3F8603203F00703013B032B1FD825
S31508003878DFE803F0020E1914002101A8FFF726FE57
S315080038880F230DB1019A2A6004B1236003B030BD35
S31508003898002101A8FFF7F8FE1023F2E770F0B6FA40
S315080038A801900723EDE770F0A3FA01900223E8E7F1
S315080038B841F2FD01034825F037FA0023E1E700BF86
S315080038C8008000502474070830B583B005460C46B6
S315080038D8002301930E4BD3F8703203F00303012B30
S315080038E808D0022B0CD041F25B110A4825F01CFAC5
S315080038F8002306E0002101A8FFF7C6FE102300E012
S3150800390814230DB1019A2A6004B1236003B030BDAF
S31508003918008000502474070838B505460C460E4B37
S31508003928D3F8903203F00303012B09D0022B0BD1ED
S3150800393870F06CFA072305B1286004B1236038BD16
S3150800394870F056FA0223F6E741F28511034825F086
S31508003958EBF900231846EEE70080005024740708A0
S3150800396838B505460C46124BD3F8600100F003003B
S3150800397803280FD8DFE800F01602060A72F0FFFDE2
S315080039880A2310E070F08CFA09230CE072F0FAFDAD
S315080039980B2308E041F2F521064825F0C5F900236E
S315080039A8184600E0012305B1286004B1236038BD34
S315080039B8008000502474070838B505460C46124B93
S315080039C8D3F8000100F0030003280FD8DFE800F059
S315080039D81602060A70F010FA032310E070F060FA6F
S315080039E809230CE070F00EFA082308E041F24A2190
S315080039F8064825F099F90023184600E0012305B181
S31508003A08286004B1236038BD008000502474070874
S31508003A1808B5344B98424DD010D9334B984251D0FB
S31508003A2831D9324B984251D003F5740303F5105334
S31508003A3898424FD12E4BD3F898001DE02D4B98424B
S31508003A4832D00BD92C4B984231D003F5371303F5EE
S31508003A58D86398423ED1264B986F0DE0274B98427B
S31508003A680ED008D9264B98420AD0264B984231D10F
S31508003A781F4B586E00E000B908BD234B984229D160
S31508003A881B4B986DF8E7214B984217D0204B984264
S31508003A9803D1174BD3F88C00EEE71E4B984219D181
S31508003AA8134BD3F88400E7E7114B186FE4E7104B7C
S31508003AB8586FE1E70E4BD3F88000DDE70C4BD3F8D7
S31508003AC88800D9E70A4BD3F89000D5E7084BD3F80E
S31508003AD89400D1E741F2BB310F4825F025F90020BB
S31508003AE8CAE700BF80BA8C01007E56030090D0034F
S31508003AF80080E00F405DC6000024F40080841E00A4
S31508003B0800093D00C0CF6A0040420F0080D5430235
S31508003B18006CDC020048E80124740708F8B5054675
S31508003B280F46144672F00DFD064645B12B685C40F3
S31508003B383C405C402C60304672F0FEFCF8BD4FF401
S31508003B489C71024825F0F0F8F0E700BFC073070833
S31508003B5808B5234B984233D01DD8A3F5B703A3F568
S31508003B685863984228D006D91E4B984230D11E4B26
S31508003B78D3F8BC000EE01D4B984206D009D91C4B59
S31508003B88984202D01B4B984222D1174BD3F8A00073
S31508003B9800E0E8B908BD184B984215D0174B98426B
S31508003BA803D1114BD3F8D000F4E7154B98420FD13F
S31508003BB80D4BD3F8C800EDE70B4BD3F8B800E9E787
S31508003BC8094BD3F8C000E5E7074BD3F8CC00E1E783
S31508003BD841F2DE110B4825F0A7F80020DAE700BF06
S31508003BE8C0EA21010024F4000080E00F40420F00DB
S31508003BF880841E0000093D000048E801005A620258
S31508003C0880BA8C012474070810B5B0F5207F2FD028
S31508003C181DD8B0F5007F25D02FD810B1B0F5C07FD4
S31508003C2813D1174B1C6F230BC4F3033413F00E0F71
S31508003C3824D048F28803E34013F0010F1ED14FF44D
S31508003C482271104825F070F818E0002416E0B0F53F
S31508003C58607F05D10A4BD3F88040C4F301140DE000
S31508003C6800240BE0064BD3F89040C4F3046405E03F
S31508003C78034B1C6FC4F3802400E00024601C10BDAD
S31508003C88008000502474070838B505460C46174BBB
S31508003C984FF480329A660020FFF7B6FF05FB00F05E
S31508003CA8134BDA6902F4803241F67131D9635B68DD
S31508003CB823F440136CB90F49884207D800210B43EF
S31508003CC80B494B600AB10022CA6338BD4FF480110C
S31508003CD8F5E7002C07DD0849884201D80021EEE7F8
S31508003CE84FF48011EBE74FF44011E8E700900050D5
S31508003CF800000350005A6202002D310138B5044607
S31508003D080D46430905D0012B16D0022B0DD10B48B9
S31508003D1805E040F235310A4825F006F800202A461B
S31508003D2804F01F01FFF790FB38BD40F24331044801
S31508003D3824F0FAFF0020F2E70248F0E7688000500E
S31508003D48247407086480005010B582B000230193D4
S31508003D580093B0F5807F00F20781B0F5807F00F206
S31508003D68D381DFE810F08901D101D101D101D10150
S31508003D78D101D101D101D101D101D101D101D1019D
S31508003D88D101D101D101D101D101D101D101D1018D
S31508003D98D101D101D101D101D101D101D101D1017D
S31508003DA8D101D101D10189018D0189018D01A401B2
S31508003DB8A401A401A401A4018D0163019801B3011A
S31508003DC8B80198018D018D018D01D101D101D1016B
S31508003DD8D101D101D101D101B3018D018D018D0127
S31508003DE8CC012F018D01D101D101D101D101D10118
S31508003DF8D101D101D101D101D101D101D1016E0180
S31508003E08A401890189018901BD0198019801C201A6
S31508003E187E01A90118011801D101D101D101D101E9
S31508003E288901D101D101D101D101D101D101D10134
S31508003E38D101D101D101D101D101D101D101D101DC
S31508003E48D101D101D101D101D101D101D101D101CC
S31508003E58D101D101D101D101D101D101D101D101BC
S31508003E68D101D101D1018301D101D101D101D101FA
S31508003E78D101D101D101D101D101D101D101D1019C
S31508003E88D101D101D101D101D101D101D101D1018C
S31508003E98D101D101D101D101D101D101D101D1017C
S31508003EA8D101D101D101D101D101D101D101D1016C
S31508003EB8D101D101D101D101D101D101D101D1015C
S31508003EC8D101D101D101D101D101D101D101D1014C
S31508003ED8D101D101D101D101D101D101D101D1013C
S31508003EE8D101D101D101D101D101D101D101D1012C
S31508003EF8D101D101D101D101D101D101D101D1011C
S31508003F08D101D101D101D101D101D101D101D1010B
S31508003F18D101D101D101D101D101D101D101D101FB
S31508003F28D101D101D101D101D101D101D101D101EB
S31508003F38D101D101D101D101D101D101D101D101DB
S31508003F48D101D101D101D101D101D101D101D101CB
S31508003F58D101D101D101D101D101D101D101D101BB
S31508003F68D101D101D101AE01B0F5F06F00F0C780DB
S31508003F7816D9B0F5206F00F0B8805CD9B0F5306F67
S31508003F8800F0B8806AD9B0F5386F00F09F80B0F5B0
S31508003F98406F40F0B980002101A8FFF7D1FA68E020
S31508003FA8B0F5806F00F0838011D9B0F5C06F00F0C6
S31508003FB88D8035D9B0F5D06F00F08D80B0F5E06FFB
S31508003FC840F0A280002101A8FFF7EEFB51E0B0F50A
S31508003FD8207F55D013D9B0F5407F5CD0B0F5607F07
S31508003FE840F0928000216846FFF746FA009C4FF495
S31508003FF86070FFF709FEB4FBF0F4019439E0B0F5F8
S31508004008C07F39D0B0F5007F7ED16FF0BBFE04467D
S315080040184FF40070FFF7F8FDB4FBF0F4019428E0BC
S31508004028B0F5A06F48D0B0F5B06F6DD1002101A8E2
S31508004038FFF7F8FA1DE0B0F5106F51D0B0F5186F14
S3150800404804D1002101A8FFF7DBFB12E0B0F5086FE1
S315080040585AD1002101A8FFF7AFFC0AE0B0F5286F8E
S3150800406852D1002101A8FFF72FFC02E06FF08AFE63
S315080040780190019802B010BD6FF0A4FE0190F8E710
S315080040886FF0A0FE04464FF42070FFF7BDFDB4FBA1
S31508004098F0F40194EDE76FF095FE04464FF42070AE
S315080040A8FFF7B2FDB4FBF0F464080194E1E70021D8
S315080040B801A8FFF70BFADCE7002101A8FFF778FA51
S315080040C8D7E7002101A854F088FFD2E7002101A804
S315080040D8FFF7DAFACDE7002101A8FFF701FBC8E7E1
S315080040E8002101A8FFF72EFBC3E7002101A8FFF767
S315080040F8B1FBBEE7002101A8FFF70EFCB9E70021CE
S3150800410801A8FFF72DFCB4E740F2A441014824F0C2
S315080041180BFEAEE72474070808B58020FFF714FEDF
S31508004128034B984203D8034B4FF480321A6708BDED
S31508004138005A620200A0005000B583B0002301931C
S31508004148B0F5607F00F0C88042D8802837D8242880
S31508004158C0F0DB8024385C2800F2D780DFE800F05E
S315080041686969696969D55ED5B271D5D5D5D5D5D503
S31508004178D5D5D5D5D5B2D5D5D553C6D5D5D5D5D58D
S31508004188D5D5D5D5D5D5D5D5CB69D5D5D584D5D590
S315080041987CD0C19090D5D5D5D5D5D5D5D5D5D5D5B5
S315080041A8D5D5D5D5D5D5D5D5D5D5D5D5D5D5D5D5A9
S315080041B8D5D5D5D5D5D5D5D5D5D5D5D59500B0F5B3
S315080041C8807F40F0A28001A9002054F006FF29E06C
S315080041D8B0F5086F7BD00CD9B0F5286F00F0908041
S315080041E834D9B0F5306F44D101A90020FFF794FB04
S315080041F818E0B0F5C06F65D00AD9B0F5E06F75D08C
S31508004208B0F5F06F1AD101A90020FFF7A9FB09E05C
S31508004218B0F5A06F65D0B0F5B06F07D101A9002039
S31508004228FFF700FA019803B05DF804FBB0F5806F54
S315080042386BD101A90020FFF749F9F3E7B0F5D06F6C
S3150800424863D101A90020FFF74BFAEBE7B0F5186F21
S3150800425851D0B0F5206F04D101A90020FFF7FAFA6A
S31508004268E0E7B0F5106F50D101A90020FFF76AFA08
S31508004278D8E74AD3B0F5386F24D0B0F5406F44D1A3
S3150800428801A90020FFF75CF9CCE7234B1B6F03F065
S315080042980703013B032B0FD8DFE803F00B020508D9
S315080042A805230193BEE703230193BBE7082301937C
S315080042B8B8E702230193B5E740F2D641174824F038
S315080042C833FDAFE701A90020FFF7DEF9AAE701A940
S315080042D80020FFF771FBA5E701A90020FFF7CCF836
S315080042E8A0E701A90020FFF763F99BE701A90020C9
S315080042F8FFF75AFA96E701A90020FFF781FA91E72E
S3150800430801A90020FFF7E0FA8CE740F28951034833
S3150800431824F00AFD86E700BF0080005024740708C9
S31508004328094B596E03F580534FF480325A66074A8B
S31508004338536A23F00103536211F4803F03D1044BF7
S315080043484FF480325A6670470080005000C0075004
S3150800435800A0005038B5044603680F2B00F2C18048
S3150800436863680F2B00F2C380A3680F2B00F2C58081
S31508004378237B0F2B00F2C780637B0F2B00F2C980C3
S31508004388A37B3F2B00F2CB80E37B3F2B00F2CD804B
S315080043982369032B00F2CF806369032B00F2D180CF
S315080043A8E369032B00F2D3808020FFF7C5FE0328B4
S315080043B800F0F3807F4B4FF480125A667E4B45F621
S315080043C80E02C3F8802003F580524FF0A06191626F
S315080043D803F500534FF480329A62774B9B6D13F4BA
S315080043E8803FFAD1744B9B6D13F0804FFAD122683F
S315080043F863681B0543EA0263227B43EA0243627B3E
S3150800440843EA0233A27B43EA8213E27B13436A4DEB
S315080044182B61AB6903F00043226943EA8263626948
S3150800442843EA0263227E43EA0243627E43EA0223A0
S31508004438A27E1343AB614FF400624FF440615F48B4
S31508004448FFF76CFB2B6A23F00F03E269002A40F09A
S31508004458848011460B43E17E43EA81031A43564B8F
S315080044681A62E369002B7AD1534A916A544B0B4076
S3150800447894F8201043EA411394F8211043EA0113EB
S3150800448894F8241043EAC10343F4803393624A4BF1
S315080044989A6D4C4B9343FAD1474A02F580514FF02F
S315080044A880738B62136923F47003A06843EA005388
S315080044B813614FF000438B6194F822301BB9424BC5
S315080044C84FF080729A6294F82330002B5ED13E4BE7
S315080044D84FF480329A62384B9B6D13F0804FFAD1AD
S315080044E854E040F68A31394824F01EFC38E740F68D
S315080044F88D31364824F018FC36E74FF439613348CD
S3150800450824F012FC34E740F69331304824F00CFCCA
S3150800451832E740F696312D4824F006FC30E740F697
S3150800452899312A4824F000FC2EE740F69C312748A2
S3150800453824F0FAFB2CE740F69F31244824F0F4FBD4
S315080045482AE740F6A231214824F0EEFB28E740F690
S31508004558A5311E4824F0E8FB26E708217AE7022B4E
S315080045681CD0154A916A164B0B4094F8201043EA5A
S31508004578411394F8221043EA016394F8241043EA95
S31508004588C10394F8231043EA0143936294F825304B
S315080045981BB1094B0E4AC3F8802038BD064B0022CA
S315080045A81A619A614FF408524FF47F410948FFF798
S315080045B8B5FAD6E7009000500040005A3840005A2D
S315080045C8C7FFFEFE030001000060005A24740708AE
S315080045D8F1A7FFFF3440005A014B93F900007047D2
S315080045E8B28B002010B504464368072B46D8A36843
S315080045F8032B49D82378032B4CD894F90130002B80
S315080046084EDB63784F2B28BF4F231A46274B4FF4A8
S315080046180001596603F5B8334FF4D151596203F5C9
S3150800462880510220486003F5005301215960204B48
S315080046381B6913F4803FFAD1237842EA03231C4AFC
S3150800464853616168A3681B0143EA0123217B43EA96
S315080046584103617B0B439360A17BE37B1B0143EA20
S315080046684113217C43EA4103617C0B435360A37CD5
S315080046781BB113466FF4D1525A6210BD40F6E65183
S315080046880C4824F051FBB2E740F6E851094824F0F3
S315080046984BFBAFE740F6EA51064824F045FBACE782
S315080046A840F6EC51034824F03FFBAAE70090005077
S315080046B80000025024740708014B1880704700BF91
S315080046C8B28A0020014B1880704700BFB08A0020C4
S315080046D838B5B0F5207F7BD03BD8B0F5007F64D0DD
S315080046E800F2878018B1B0F5C07F40F082804C1E72
S315080046F8012C0BD9102904D8414BCB4013F0010FD4
S3150800470804D140F2CB213F4824F00EFB54F083FC39
S3150800471854F093FCFEF790FE3B4A136F23F470435C
S3150800472843EA043313676FF04DFB384BD3F88430EC
S3150800473813F0100FF9D1354BD3F88410C1F3811152
S31508004748C1F1020154F06EFC00F078F8FFF7E4FCBA
S3150800475838BDB0F5607F4CD12D4BD3F8FC5015F019
S31508004768807506D01A46D3F8FC3023F08073C2F851
S31508004778FC304C1E032C12D8234AD2F8803023F07A
S31508004788300343EA0413C2F88030002DE0D0204AEB
S31508004798D2F8FC3043F08073C2F8FC30D8E740F210
S315080047A8F721184824F0C0FAE6E74C1E1F2C09D84A
S315080047B8154AD2F8903023F0F85343EA0463C2F84E
S315080047C89030C5E74FF443710E4824F0ADFAEFE789
S315080047D84C1E012C07D80C4A136F23F4806343EA4E
S315080047E884231367B4E740F21231064824F09CFA8A
S315080047F8F1E74FF44671034824F096FAA8E700BF94
S315080048081001010024740708008000500040005079
S3150800481800ED00E008B50121022000F01BF94FF46D
S315080048282070FFF7F1F9044B187054F0F4FB54F0B4
S3150800483804FCFEF701FE08BD6A79002008B54FF4A6
S31508004848C070FFF781FA054B984205D902214FF443
S315080048582070FFF73DFF08BD0121F8E780F0FA024E
S3150800486810B504466FF0AEFA0F4BD3F8843013F040
S31508004878100FF9D10C4BD3F88410C1F38111C1F18B
S31508004888020154F0CFFB0121002000F03FF924B1C2
S31508004898FFF7D4FFFFF740FC10BD044B19784FF417
S315080048A82070FFF715FFF5E7004000506A790020E9
S315080048B82DE9F0410546FFF7ABF80446431E13F108
S315080048C8030F39D8444B4FF4C0225A6603F5983378
S315080048D85B68012B36D08020FFF72EFC05283AD0D6
S315080048E824F040743D4B9D423CD03D4B9D423CD004
S315080048F86FF042FA074685423AD83A4BDB6813F016
S31508004908060FFAD1374BD3F808809C6004F4F814DC
S315080049189E6806F4F816B4422FD1B44233D0314B08
S31508004928C3F808803D468020FFF706FC05282ED0E8
S31508004938BD424CD9BDE8F08140F6E2112A4824F078
S31508004948F3F9BFE7294B01225A60294B5B6813F034
S31508004958020FFAD1BFE754F05EFB54F06EFBFEF780
S315080049686BFDBDE744F00074C2E744F08074BFE706
S315080049780121284600F0CAF8BFE740F62A211A4856
S3150800498824F0D2F9C9E72846FCF7DAFFCBE76FF037
S3150800499819FA0446854214D3164BD3F8843013F013
S315080049A8100FF9D1134BD3F88410C1F38111C1F153
S315080049B80201204654F036FBFFF740FFFFF7ACFB31
S315080049C8B6E740F63B21084824F0AEF9E4E70121AA
S315080049D8002000F09BF8ADE70090005040420F0019
S315080049E880841E00000001502474070800E0015066
S315080049F800C001500040005038B50546FFF7A8F832
S31508004A080446431E13F1030F0FD80E4B4FF400222A
S31508004A185A6624F040740C4A95420CD00B4A9542C3
S31508004A280CD04FF0B442946038BD40F686710848F9
S31508004A3824F07AF9E9E744F00074F2E744F0807460
S31508004A48EFE700BF0090005040420F0080841E0028
S31508004A5824740708F8B50446294BD3F8843013F0AC
S31508004A68100FF9D1264BD3F88430C3F381139C422F
S31508004A783FD06FF087F90646012C27D071F061FD03
S31508004A8805461F4F07F500534FF000725A66204631
S31508004A9854F0DAFA621E4FF4806393403B67184B6A
S31508004AA85B6E13F0007F1FD1154BD3F8843013F0D3
S31508004AB8200F19D1124BD3F8843013F0200FEED0FB
S31508004AC840F2B3710F4824F02FF9E8E70E4B9842E5
S31508004AD804D80121304654F0A5FACFE740F29B7175
S31508004AE8084824F021F9F4E7284671F025FD022C38
S31508004AF800D0F8BD0021304654F094FAF9E700BF13
S31508004B080040005088740708005A620210B50C461F
S31508004B18034650B1094A127812B1094A934208D98C
S31508004B2821460220FFF796FF10BD6FF02BF90346C2
S31508004B38F0E721460120FFF78DFFF5E75C22002004
S31508004B48005A620210B5134B5C6E03F580534FF09A
S31508004B5800425A6603F50B235A6C02F001024AF61C
S31508004B68CD3119640C4B5B6B13F0800FFAD10A49E7
S31508004B780B6A23F4F85343EA00230B620AB1074A7F
S31508004B880A64002C03DB064B4FF000425A661BF0FA
S31508004B98D1FA10BD00800050004009503254FFFF7A
S31508004BA800A0005008B50B4B98420DD00A4B984206
S31508004BB80CD003F5804398420AD040F27931074869
S31508004BC824F0B2F8002008BD5620FCE75720FAE77B
S31508004BD85820F8E70000015B00000A50EC74070843
S31508004BE810B5044654F031FA202323610023E36004
S31508004BF8A36041F202026261A3614FF4A0226262D5
S31508004C08E3612362A362E3626363236504F50052E2
S31508004C180149D164236310BDFF3F0D0338B5044627
S31508004C280D46194B98420BD0184B984208D003F5F5
S31508004C388043984204D040F26911154824F074F864
S31508004C48F5B104F5805301225A6005F00F02636D29
S31508004C58C3F30B03002BFAD1A263636D13F0780331
S31508004C68FBD115F0010F00D0012315F0040F01D070
S31508004C7843F00203A26C02F003029A42FAD138BD45
S31508004C88204654F0E2F9FAE70000015B00000A50F2
S31508004C98EC740708F8B504460D4617468AB36F4BF1
S31508004CA89C420BD06E4B9C4208D003F580439C422D
S31508004CB804D040F22A216B4824F036F83DB3A3689D
S31508004CC813F0010F52D0BD4228D3666806F00106D4
S31508004CD8B5FBF7F5013DFF2D26D8002E44D0636DA8
S31508004CE813F0280FFBD1A36C13F0030F29D1A36C7B
S31508004CF813F0010F36D1A36C13F0020F1AD006274A
S31508004D0820E040F22721574824F00EF8C7E7204646
S31508004D18FFF748FFFFF718F80546D0E74FF40D7177
S31508004D28504824F001F8D0E74FF40F714D4823F0A6
S31508004D38FBFFD2E740F249214A4823F0F5FF00274E
S31508004D4800E00527204654F080F9236923F07F43BD
S31508004D5843EA05632361002E43D039462046FFF708
S31508004D685DFF3EE00927EDE70027EEE76368012BBC
S31508004D780FD1A36803F0E003402B41D00FD9602B6D
S31508004D884DD0802B5ED107EB4703AB4253D801239E
S31508004D9811E04FF41771334823F0C6FFE9E733B13A
S31508004DA8202B4FD1B7EBD50F23D8082303E0B7EB51
S31508004DB8151F17D810236D0107FB03F3B5FBF3F589
S31508004DC8203DEE00284BB3EBC50F41D3264A3240A7
S31508004DD8636D13F0010FFBD12263636D13F0010FA6
S31508004DE8FBD1F8BD4FF421711E4823F09DFF10230F
S31508004DF8E1E740F289211B4823F096FF0823DAE702
S31508004E081A4BA3FB0523B7EB930F01D80623D2E762
S31508004E1840F28E21134823F087FF0623CBE7B7EB2A
S31508004E28950F01D80423C6E740F293210D4823F0CD
S31508004E387BFF0423BFE74FF426710A4823F074FF63
S31508004E480123B8E740F29E21064823F06DFFC8E71C
S31508004E5840F2A921034823F067FFB7E70000015B82
S31508004E6800000A50EC740708F8FF7F00ABAAAAAA44
S31508004E7870B504460D461646436823B1636DC3F3F9
S31508004E880B03002BFAD12046FFF7AAFE636923F421
S31508004E984C5323F00F036A7B1343EA8913432A8A80
S31508004EA813436361A36823F0804323F0E2032A7B54
S31508004EB813432A7E13436A691343A360AB681BB975
S31508004EC8A36843F00043A360EA69002A70D0A16882
S31508004ED8694B0B40117A43EA8153917A43EA414375
S31508004EE8918801F4C0410B43517843EA8103517B09
S31508004EF843EAC103917B43EA0113927843EA822382
S31508004F08A360E2685D4B1340EA6911690B4351696E
S31508004F180B43917943EA8123D27943EA4223E36032
S31508004F28EB691B78012B01D0032B03D1E36843F007
S31508004F380403E360EB691B78023BDBB2012B51D90A
S31508004F484F4B9C426BD04F4B9C426AD003F580432B
S31508004F589C4262D04FF0FF3303F593735B0103F16C
S31508004F68A04303F5703302225A60EB695A7A04F5AE
S31508004F7880539A62EB695B7A1BB1E36843F4006372
S31508004F88E360EB69DB7A63B1E36843F40043E36003
S31508004F983B4B9C4247D03B4B9C424BD03A4B9C429E
S31508004FA84FD0636A23F00303EA69D27B134363622B
S31508004FB83EB196F82030002B4AD004F580530122DA
S31508004FC81A6204F5805301225A60AA68002A4ED14B
S31508004FD829782046FFF722FEA36CDB4313F4405FCB
S31508004FE8FAD170BD264B9C4213D0264B9C4212D050
S31508004FF803F580439C420AD04FF0FF33A6335B0182
S3150800500803F1A04303F5703302225A60ADE7022381
S31508005018F4E70023F2E70123F0E702239CE70023DD
S315080050289AE7012398E7EB691B7B03F00F03174AF6
S315080050385366B0E7EB691B7B03F00F03134A136744
S31508005048ACE7EB691B7B03F00F03104AD367A8E7A5
S31508005058E36923F0090396F82220134396F82120DA
S31508005068134343F0010304F58052D361A9E769683D
S315080050782046FFF70FFEABE7E39BBDFFFFF9F08776
S315080050880000015B00000A5000400A5000900350D7
S3150800509838B505460C46154B98420AD0144B984223
S315080050A807D003F58043984203D07021114823F0AE
S315080050B83BFE64B1237B802B0ED0637B032B10D871
S315080050C800231A4621462846FFF7D2FE38BD722124
S315080050D8084823F029FEEDE77621064823F024FE42
S315080050E8EBE77921034823F01FFEE9E70000015B97
S315080050F800000A50EC74070838B505460C462D4BCF
S31508005108984203D08A212C4823F00EFE44B3294B33
S315080051189D422AD00020092805D00A2803D02AD378
S315080051281038012827D8637B032B29D8237B802BA3
S315080051382BD16369B3F1804F2CD1238AB3F5805FED
S3150800514802D0B3F5405F2AD1A368013BB3F5165FD1
S315080051582AD200231A4621462846FFF789FE38BD73
S315080051688C21154823F0E0FDD1E75620FEF7E4FF29
S315080051780B28D0D1D7E79E210F4823F0D5FDD2E7D3
S31508005188AD210D4823F0D0FDD0E7AF210A4823F01A
S31508005198CBFDCEE7B121084823F0C6FDCDE7B321FC
S315080051A8054823F0C1FDCFE7B521034823F0BCFD28
S315080051B8CFE700BF0000015BEC740708F8B50546A1
S315080051C80F46144671F0BDF9064645B12B685C4092
S315080051D83C405C402C60304671F0AEF9F8BD4FF49F
S315080051E89C71024823F0A0FDF0E700BFC0730708CA
S315080051F838B504460D46032803D8DFE800F00B0443
S315080052080609002308E00F2306E040F2FF3303E00F
S315080052183F2301E040F2FF73EB4013F0010F07D07C
S315080052280122AA4004EB44042401044B1A5138BD50
S3150800523840F28541024823F077FDF1E740D0035054
S315080052485475070838B504460D46032803D8DFE819
S3150800525800F00B040609002308E00F2306E040F2D5
S31508005268FF3303E03F2301E040F2FF73EB4013F0FE
S31508005278010F07D00122AA4004EB44042401044B79
S315080052881A5138BD40F25641024823F04DFDF1E760
S3150800529840E0035054750708F8B504460D46164607
S315080052A81F46032803D8DFE800F00B040609002385
S315080052B808E00F2306E040F2FF3303E03F2301E04E
S315080052C840F2FF73EB4013F0010F1BD026B1FFB174
S315080052D829462046FFF78CFF072D1ED8A90004EBA0
S315080052E844031B0106FA01F20F2000FA01F11548DA
S315080052F81844FFF763FF26B9FFB129462046FFF78A
S3150800530877FFF8BD4FF4B0710F4823F00DFDDDE7C0
S3150800531829462046FFF796FFDEE7A5F108039B0016
S3150800532804EB440C4FEA0C1C06FA03F20F219940C9
S3150800533806486044FFF742FFDDE729462046FFF79F
S3150800534881FFDEE734C00350B87507083CC0035030
S3150800535870B504460D4616461F2906D856B104F5F3
S3150800536880540123AB40236070BD9121034823F084
S31508005378DBFCF3E704F50054F3E700BFC07307083E
S3150800538810B5162007F04EFC074B00245C65FF2273
S315080053989A625C6021462020FEF7B0FC214621204F
S315080053A8FEF7ACFC10BD00BF0000045038B5044633
S315080053B80D46072806DC85F0010221460448FFF752
S315080053C8C7FF38BD7721034823F0AEFCF3E700BFD3
S315080053D8400004501C76070810B50446002832D049
S315080053E823781B0633F0F85332D1E3780F2B34D8D9
S315080053F801212020FEF782FC01212120FEF77EFCF0
S31508005408184B01225A60227812069A606178A278A7
S3150800541842EA01429A61FF229A6200229A631A6452
S315080054284FF000425A6503F500534FF0FF321A65EC
S31508005438162007F031FCE178162007F03BFC162009
S3150800544807F000FC10BD9121074823F06DFCC7E75B
S315080054589221054823F068FCC7E79521024823F0FE
S3150800546863FCC5E7000004501C760708F8B505462E
S315080054780C461746C3B201269E40072854DC002C62
S3150800548857D0236823F47C1323F00F03002B55D138
S31508005498A37A1B0433F4403355D1E37A1B0533F456
S315080054A8801355D1237B5B0533F4001355D12D4A58
S315080054B802F500531E652168AB0003F1A04303F506
S315080054C888235960637B05EB450102EB01110B66DE
S315080054D8A07AE37A1B0543EA0043207B43EA405354
S315080054E8CB6527F003070F6771F034F81E4B5E6526
