:020000040800F2
:1000000000100020A5020008EB2F0008EB2F0008CD
:10001000EB2F0008EB2F0008EB2F0008EB2F000858
:10002000EB2F0008EB2F0008EB2F0008EB2F000848
:10003000EB2F0008EB2F0008EB2F0008EB2F000838
:10004000EB2F0008EB2F0008EB2F0008EB2F000828
:10005000EB2F0008EB2F0008EB2F0008EB2F000818
:10006000EB2F0008EB2F0008EB2F0008EB2F000808
:10007000EB2F0008EB2F0008EB2F0008EB2F0008F8
:10008000EB2F0008EB2F0008EB2F0008EB2F0008E8
:10009000EB2F0008EB2F0008EB2F0008EB2F0008D8
:1000A000EB2F0008EB2F00083504000815040008AA
:1000B000EB2F0008EB2F0008EB2F0008EB2F0008B8
:1000C000EB2F0008EB2F0008EB2F0008EB2F0008A8
:1000D000EB2F0008EB2F0008EB2F0008EB2F000898
:1000E000EB2F0008EB2F0008EB2F0008EB2F000888
:1000F000EB2F0008EB2F0008EB2F0008EB2F000878
:10010000EB2F0008EB2F0008EB2F0008EB2F000867
:10011000EB2F0008EB2F0008EB2F0008EB2F000857
:10012000EB2F0008EB2F0008EB2F0008EB2F000847
:10013000EB2F0008EB2F0008EB2F0008EB2F000837
:10014000EB2F0008EB2F0008EB2F0008EB2F000827
:10015000EB2F0008EB2F0008EB2F0008EB2F000817
:10016000EB2F0008EB2F0008EB2F0008EB2F000807
:0C017000EB2F0008EB2F0008EB2F00081D
:10017C000348044B834202D0034B03B1184770472A
:10018C00481300204813002000000000064B0749CC
:10019C00C91A891048BF0131491003D0044B0BB167
:1001AC0001481847704700BF48130020481300202F
:1001BC000000000010B5064C237843B9FFF7D8FFB8
:1001CC00044B13B10448AFF300800123237010BD1E
:1001DC00C812002000000000583F000808B5054B6D
:1001EC001BB105490548AFF30080BDE80840FFF797
:1001FC00CDBF00BF0000000000100020583F0008D9
:10020C00A3F5803A704700BF174B002B08BF134B68
:10021C009D46FFF7F5FF00218B460F461348144A05
:10022C00121A03F00BF80E4B002B00D098470D4B15
:10023C00002B00D098470020002104000D000D4831
:10024C00002802D00C48AFF3008002F095FA200091
:10025C00290001F005FD02F0BFF900BF0000080005
:10026C000000000000000000001000200010002022
:10027C00D012002000000000000000000348044AD7
:10028C000449121A921002F0ABBE00BF7C010008A8
:10029C007C010008D012002008B5154B83F30A88A6
:1002AC0000F030F8FFF7EAFF124B13498B4212D3E0
:1002BC000020124B12498B4218D3FFF7A5FF186888
:1002CC0050F82240586840F8224001329868824227
:1002DC00F5D30C33EAE70022F8E71C6844F8220057
:1002EC0001325C68A242F8D30833E4E70022F8E755
:1002FC0000000020603F00086C3F00086C3F0008C5
:10030C006C3F00084FF48041124B134A70B59A6051
:10031C00D3F88820114D42F47002C3F88820104A9B
:10032C0005F5005491664FF0FF3222660D4A626665
:10033C000222C3F8D020BFF34F8FBFF36F8F4FF45F
:10034C004036002001F004FC0020E66001F0CEFBFA
:10035C002E6170BD00ED00E000000008008000443C
:10036C00009000507FFF7F03014B1860704700BF67
:10037C00D41200202DE9F04104460C254FF0010861
:10038C00124E0CB314F001000BD0002024F0010429
:10039C0005FB00625768002FF3D09168C0B2B847D4
:1003AC00EFE72246013020284FEA520201D0D30752
:1003BC00F8D508FA00F20F2824EA0204E8D910381C
:1003CC0005FB0062B432E5E7BDE8F08118100020AF
:1003DC0008B50C4803F055FA1A2001F0A1FB28B11E
:1003EC001A2001F0B5FB1A2001F080FB1B2001F054
:1003FC0097FB28B11B2001F0ABFB1B2001F076FB17
:10040C00002008BD903C000808B501F065FA054BCA
:10041C0000F0553020F0A040C3F82004BDE808409F
:10042C00FFF7A8BF00E0035008B501F055FA054BE3
:10043C0000F0AA3020F02040C3F82004BDE80840AA
:10044C00FFF798BF00E00350044BD3F88420D2068A
:10045C00FBD4D3F88400C0F38110704700400050E7
:10046C0038B5104B0546D3F800310C4603F00303A6
:10047C00022B0BD0032B0DD0012B0FD103F060F905
:10048C00032305B1286004B1236038BD03F0AAF939
:10049C000923F6E703F05AF90823F2E701230020B9
:1004AC00EFE700BF0080005038B5104B0546D3F87D
:1004BC0040310C4603F00303022B0BD0032B0DD061
:1004CC00012B0FD103F0D2F90A2305B1286004B136
:1004DC00236038BD03F086F90923F6E703F0C9F968
:1004EC000B23F2E701230020EFE700BF0080005050
:1004FC0038B5104B0546D3F860310C4603F00303B6
:10050C00022B0BD0032B0DD0012B0FD103F0AEF926
:10051C000A2305B1286004B1236038BD03F062F9E9
:10052C000923F6E703F0A5F90B23F2E701230020DA
:10053C00EFE700BF0080005038B5104B0546D3F8EC
:10054C0040320C4603F00303022B0BD0032B0DD0CF
:10055C00012B0FD103F08AF90A2305B1286004B1ED
:10056C00236038BD03F03EF90923F6E703F081F967
:10057C000B23F2E701230020EFE700BF00800050BF
:10058C0038B5124B0546D3F880300C4603F0030304
:10059C00022B0BD0032B0DD0012B0FD103F096F8AF
:1005AC000D2305B1286004B1236038BD03F0D2F8E7
:1005BC000723F6E703F084F80623F2E7044841F238
:1005CC00142102F0FFFC00231846EAE700800050DB
:1005DC007839000838B51A4B0546D3F820010C467B
:1005EC0000F00700062821D8DFE800F028040C14DE
:1005FC0010181C0003F064F8052305B1286004B141
:10060C00236038BD03F09CF80323F6E703F0A2F84F
:10061C000723F2E703F090F80223EEE703F050F81B
:10062C000623EAE703F08CF80423E6E7054841F2D9
:10063C00912102F0C7FC00231846DEE70123DCE71A
:10064C00008000507839000838B5194B0546D3F8AE
:10065C0028310C4603F00703013B052B20D8DFE8BB
:10066C0003F003131B0F0B1703F02AF8052305B136
:10067C00286004B1236038BD03F022F80623F6E7A6
:10068C0003F068F80723F2E703F05AF80323EEE7C8
:10069C0003F056F80423EAE703F04EF80223E6E7EA
:1006AC00044841F2990102F08DFC00231846DEE764
:1006BC000080005078390008002337B50193194B9E
:1006CC000546D3F820320C4603F00703042B1FD841
:1006DC00DFE803F025030F141900002101A8FFF730
:1006EC00B3FF11230DB1019A2A6004B1236003B04A
:1006FC0030BD03F02FF807230190F3E703F0B6F8B1
:10070C000A230190EEE703F06DF809230190E9E765
:10071C0041F25601044802F055FC0023E2E70123A4
:10072C00E0E700BF0080005078390008F7B50027DB
:10073C00144B0197D3F88041064604F00304022CB5
:10074C000D4614D0032C0DD0012C14D1394601A820
:10075C00FFF740FF0F240EB1019B336005B12C60F5
:10076C0003B0F0BD02F0F6FF07240190F3E702F0AE
:10077C00E3FF0190EFE741F2E631034802F022FC7F
:10078C003C46E8E7008000507839000838B5164B35
:10079C000546D3F800020C4600F00700042819D8CF
:1007AC00DFE800F020030B0F130003F05FF80A23BF
:1007BC0005B1286004B1236038BD03F013F8092398
:1007CC00F6E703F056F80B23F2E702F09FFF0E2337
:1007DC00800AEDE7054841F2A44102F0F3FB002347
:1007EC001846E5E70123E3E700800050783900085C
:1007FC0038B5164B0546D3F808020C4600F0070036
:10080C00042819D8DFE800F020030B0F130003F0C5
:10081C002DF80A2305B1286004B1236038BD02F01D
:10082C00E1FF0923F6E703F024F80B23F2E702F0CB
:10083C006DFF0E23800AEDE7054841F2DC4102F022
:10084C00C1FB00231846E5E70123E3E700800050D5
:10085C007839000838B5124B0546D3F850320C469F
:10086C0003F00303022B0FD0032B05D0012B0FD168
:10087C0002F0FCFF0A2302E002F0FBFF0B2305B1A0
:10088C00286004B1236038BD02F0ACFF0923F6E701
:10089C00044841F2C90102F095FB00231846EEE72B
:1008AC000080005078390008002337B50193184BAD
:1008BC000546D3F860320C4603F00703013B032BCB
:1008CC001FD8DFE803F0020E1914002101A8FFF76E
:1008DC0081FE0F230DB1019A2A6004B1236003B08D
:1008EC0030BD002101A8FFF7DFFD1023F2E702F075
:1008FC0031FF07230190EDE702F01EFF0223019068
:10090C00E8E741F2FD01034802F05CFB0023E1E75C
:10091C00008000507839000873B500240F4B019407
:10092C00D3F87032064603F00303012B0D4607D0B3
:10093C00022B11D041F25B11094802F043FB04E099
:10094C00214601A8FFF7B0FD10240EB1019B3360C6
:10095C0005B12C6002B070BD1424F6E70080005085
:10096C007839000838B50F4B0546D3F890320C4651
:10097C0003F00303012B09D0022B0BD102F0EAFE8A
:10098C00072305B1286004B1236038BD02F0D4FE02
:10099C000223F6E7044841F2851102F013FB002311
:1009AC001846EEE7008000507839000808B5334B44
:1009BC0098424FD027D8324B984245D017D8314B5C
:1009CC0098423ED00AD838B12F4B984239D041F2D8
:1009DC00BB312E4802F0F6FA002034E02C4B984242
:1009EC002FD02C4B9842F2D12B4B586E2BE02B4B2B
:1009FC0098422CD003F5371303F5D8639842E6D10F
:100A0C00254B986F1FE0264B98422FD00CD8254BC6
:100A1C00984223D0244B984224D0244B9842D6D1D0
:100A2C001D4BD3F884000EE0214B984222D003F5E5
:100A3C00740303F510539842C9D1174BD3F898009F
:100A4C0001E0154B986D08BD134B186FFBE7124B6B
:100A5C00586FF8E7104BD3F88000F4E70E4BD3F83F
:100A6C008800F0E70C4BD3F88C00ECE70A4BD3F87A
:100A7C009000E8E7084BD3F89400E4E780BA8C01C7
:100A8C00405DC60080841E0040420F00783900088B
:100A9C0000093D00C0CF6A000080E00F0024F40084
:100AAC00007E560380D54302006CDC020048E8014E
:100ABC000090D003B0F5207F10B52ED009D8B0F53A
:100ACC00007F24D003D868B1B0F5C07F0AD00024D1
:100ADC001BE0B0F5607FFAD1124BD3F88040C4F321
:100AEC00011412E00F4B1C6F230B13F00E0FC4F309
:100AFC0003340AD0072C08D00F2C06D0032C04D0BA
:100B0C004FF42271084802F05DFA601C10BD054BD1
:100B1C00D3F89040C4F30464F7E7024B1C6FC4F3A2
:100B2C008024F2E700800050783900084FF48032BE
:100B3C0038B5104B04469A6600200D46FFF7BAFFF5
:100B4C0041F671320C4B6043DC69DA635A6804F489
:100B5C00803422F440125DB90849884294BF0020C9
:100B6C000120000502435A600CB10022DA6338BD43
:100B7C000349F2E70090005000000350005A620253
:100B8C00002D310138B5430904460D460ED140F213
:100B9C0035310D4802F016FA002304F01F0485B11C
:100BAC0003F580530122A2401A6038BD012B04D0FA
:100BBC00022B04D040F24331EBE7044BEDE7044B3E
:100BCC00EBE703F50053EDE778390008648000503B
:100BDC0068800050002130B5B0F5807F85B00446A8
:100BEC00CDE9001100F007816BD8002800F0DC8003
:100BFC00A0F12004602C75D8602C73D8DFE814F0B9
:100C0C00D400E100D400E100F100F100F100F100AA
:100C1C00F100E100F6007E00A1000C017E00E10075
:100C2C00E100E1007200720072007200720072004A
:100C3C007200A100E100E100E10029011601E100D0
:100C4C007200720072007200720072007200720008
:100C5C0072007200720072001B01F100D400D4000B
:100C6C00D40011017E007E002001BE009300C9005B
:100C7C00C900720072007200720072007200720081
:100C8C0072007200720072007200720072007200C8
:100C9C0072007200720072007200720072007200B8
:100CAC0072007200720072007200720072007200A8
:100CBC007200720072007200720072007200720098
:100CCC00CE00B0F5F06F00F0C4803FD8B0F5607F77
:100CDC0000F082801DD8B0F5007F68D008D8B0F540
:100CEC00C07F61D040F2A4415C4802F06BF958E03F
:100CFC00B0F5207F65D0B0F5407FF3D102F006FD52
:100D0C0004464FF42070FFF7D5FEB4FBF0F46408F2
:100D1C0060E0B0F5B06F69D00AD8B0F5806F60D0E4
:100D2C00B0F5A06FDED100216846FFF7C5FC38E0B6
:100D3C00B0F5D06F70D0B0F5E06F77D0B0F5C06F74
:100D4C00D0D100216846FFF7AFFB2AE0B0F5206F49
:100D5C0076D00CD8B0F5106F63D0B0F5186F6AD0A0
:100D6C00B0F5086FBED16846FFF77AFB19E0B0F515
:100D7C00306F6AD007D8B0F5286FB3D10021684620
:100D8C00FFF7CAFD0DE0B0F5386FDAD0B0F5406F63
:100D9C00A8D100216846FFF757FC02E002F096FC50
:100DAC000090009805B030BD02F0B0FCF8E702F0FE
:100DBC008DFC05462046FFF77DFEB5FBF0F5009552
:100DCC00EFE702F0A3FC04464FF42070FFF772FE2D
:100DDC00B4FBF0F40094E4E701A8FFF7D1FB019D0C
:100DEC00E8E700216846FFF7F5FBDAE700216846E3
:100DFC00FFF79CFCD5E74FF0E02302911B695B07E2
:100E0C0005D502F083FC0290029B0093C9E703A96D
:100E1C0002A8FFF749FBF7E700216846FFF7B6FC8D
:100E2C00BFE700216846FFF7E3FCBAE700216846FC
:100E3C00FFF782FBB5E700216846FFF70BFDB0E733
:100E4C0000216846FFF730FDABE76846FFF78AFDE7
:100E5C00A7E700216846FFF74BFBA2E778390008AB
:100E6C0008B58020FFF7B6FE034B98429EBF4FF4A7
:100E7C008032024B1A6708BD005A620200A0005073
:100E8C001FB503460020B3F5607F019000F0FC8095
:100E9C007BD8582B68D8382B05D8243B092B49D93B
:100EAC0040F28951D1E0393B1F2BF9D801A252F8FD
:100EBC0023F000BF79100008AD0E0008AD0E00083D
:100ECC00AD0E000883100008A7100008AD0E000836
:100EDC00AD0E0008AD0E0008AD0E0008AD0E0008FA
:100EEC00AD0E0008AD0E0008AD0E0008AD0E0008EA
:100EFC00AD0E0008AD0E0008AD0E0008AD0E0008DA
:100F0C00B1100008BB0F0008AD0E0008AD0E0008B4
:100F1C00AD0E0008FF0F0008AD0E0008AD0E000866
:100F2C00BB100008C51000089D1000082110000817
:100F3C0021100008092BB3D801A252F823F000BFEE
:100F4C00BB0F0008BB0F0008BB0F0008BB0F00084D
:100F5C00BB0F0008AD0E00085F100008AD0E0008B6
:100F6C0079100008D90F0008802B58D0B3F5807F7A
:100F7C0096D14FF0E02302901B695B0771D502F00C
:100F8C00C5FB0C230393039B55E0B3F5086F77D097
:100F9C0021D8B3F5C06F69D00ED8B3F5A06F77D058
:100FAC00B3F5B06F55D0B3F5806F7FF479AF0020F7
:100FBC0001A9FFF70FFB50E0B3F5E06F6DD0B3F56F
:100FCC00F06F58D0B3F5D06F7FF46AAF002001A951
:100FDC00FFF7DCFB41E0B3F5286F6DD00ED8B3F50D
:100FEC00186F5FD0B3F5206F61D0B3F5106F7FF43D
:100FFC0057AF002001A9FFF7FBFB2EE0B3F5306FD4
:10100C005FD0FFF44DAFB3F5386F2FD0B3F5406F11
:10101C007FF446AF002001A9FFF716FB1DE02B4B18
:10102C001B6F03F00703013B032B0CD8DFE803F025
:10103C0009020507052301930FE00323FBE70823AF
:10104C00F9E70223F7E740F2D641214801F0BAFF55
:10105C0003E0002001A9FFF769FB019805B05DF8DA
:10106C0004FB03A902A8FFF71FFA8CE7002001A9D3
:10107C00FFF71AFAF1E7002001A9FFF739FAECE7BC
:10108C0001A9FFF7EDF9E8E701A9FFF779FAE4E721
:10109C00002001A9FFF710FBDFE7002001A9FFF7F3
:1010AC004BFADAE7002001A9FFF7D4FBD5E70020C3
:1010BC0001A9FFF7F9FBD0E7002001A9FFF72CFCF1
:1010CC00CBE701A9FFF74EFCC7E700BF008000503B
:1010DC00783900084FF48032074B0849586E03F5F5
:1010EC0080535A664B6A23F001034B62C3035CBF07
:1010FC00034B5A66704700BF0080005000C0075079
:10110C0000A00050B0F5207F38B577D00ED8B0F5E0
:10111C00007F61D003D890B3B0F5C07F2FD04FF4CF
:10112C004671BDE838403D4801F04CBFB0F5607FDA
:10113C00F5D13B4A4C1ED2F8FC5015F080751EBF01
:10114C00D2F8FC3023F08073C2F8FC30032C04D9A5
:10115C0040F2F721314801F035FF324AD2F88030A5
:10116C0023F0300343EA0413C2F8803035B12C4A23
:10117C00D2F8FC3043F08073C2F8FC3038BD4C1E02
:10118C00012C0AD9102903D8274BCB40DB0704D4F8
:10119C0040F2CB21214801F015FF01F02EFF01F0A8
:1011AC003AFF4FF48031214B1E4A1967136F23F419
:1011BC00704343EA0433136702F0A8FA0446FFF7BE
:1011CC0043F9C0F10201204601F01FFF00F048F87E
:1011DC00BDE83840FFF744BE4C1E1F2C04D94FF419
:1011EC0043710E4801F0EEFE0E4AD2F8903023F017
:1011FC00F85343EA0463C2F89030BFE74C1E012C4D
:10120C0004D940F21231054801F0DCFE054A136F97
:10121C0023F4806343EA84231367AFE7783900082B
:10122C0000ED00E000800050100101000090005023
:10123C0008B50121022000F099F94FF42070FFF756
:10124C0039FC054B187001F0D8FE01F0E4FE4FF4A8
:10125C008032024B1A6708BDC91200200090005062
:10126C0008B54FF4C070FFF7B5FCBDE80840044961
:10127C00884294BF012102214FF42070FFF742BF36
:10128C0080F0FA0238B5044602F040FA0546FFF742
:10129C00DBF8C0F10201284601F0B7FE0121002065
:1012AC0000F0B8F92CB1FFF7DBFFBDE83840FFF7D1
:1012BC00D7BD034B4FF420701978FFF723FFF4E7E9
:1012CC00C91200202DE9F0410546FFF76FFB431EC4
:1012DC000333044604D940F6E2113B4801F072FE98
:1012EC004FF4C022394B5A6603F598335A68012AD9
:1012FC0004D137494A605A689207FCD48020FFF722
:10130C00BFFD052807D101F078FE01F084FE4FF4F3
:10131C0080322E4B1A672F4B24F040749D4239D0EB
:10132C002D4B9D4239D002F0CBF98542064603D9AC
:10133C000121284600F06EF9284FFB6813F0060FC8
:10134C00FBD1D7F80880BC60BB68634013F4F81F6E
:10135C0026D12846FFF708F88020FFF791FD0528D5
:10136C0014D102F0D3F9A842044604D940F63B212B
:10137C00154801F027FEFFF767F8C0F1020120467F
:10138C0001F043FEFFF76CFFFFF76AFDAE4213D28C
:10139C00BDE8F08144F00074C5E744F08074C2E706
:1013AC0040F62A21084801F00DFE8020C7F808807D
:1013BC00FFF766FD052805D0BDE8F04101210020AE
:1013CC0000F028B93546CCE7783900080090005079
:1013DC0000E0015040420F0080841E0000000150CC
:1013EC004E4B70B59842054673D041D8A3F5B70360
:1013FC00A3F55863984265D033D8494B494E98426F
:10140C0051D017D8002877D041F2DE11464801F0B0
:10141C00D9FD40F68671444801F0D4FD4FF400220A
:10142C00404B5A663E4B9D4276D000243F4A954233
:10143C0036D05DE03D4B984227D03D4B9842E3D1EE
:10144C003C4BD3F8A040621E033224F040744CD9BC
:10145C0040F68671344801F0B5FD4FF400237366F5
:10146C00E4E7354B9842CFD1324BD3F8BC402CE05B
:10147C00324B984231D0324B984232D0314B984259
:10148C00C2D12C4BD3F8C8401FE02A4BD3F8A04054
:10149C00621E033224F04074DAD84FF400237366D2
:1014AC0044F0807424E0234BD3F8A040621E033236
:1014BC0024F040742AD84FF400237366234643F07B
:1014CC00007415E01B4BD3F8B840621E154E033266
:1014DC00BBE7184BD3F8C040F7E7164BD3F8CC401A
:1014EC00F3E7144BD3F8D040EFE74FF400237366C7
:1014FC004FF0B442946070BD40F686710A4801F01A
:10150C0061FD4FF400232C467366F1E740F68671BB
:10151C00054801F057FDCEE70023D0E7C0EA2101D2
:10152C0040420F00009000507839000880841E0063
:10153C0000093D000080E00F0024F4000048E801A1
:10154C00005A620280BA8C01024A536B0342FCD1EE
:10155C00704700BF00400950034A0179D36E23F055
:10156C0030030B43D366704700400050F8B5044677
:10157C00244BD3F88420D006FBD4D3F88430C3F3A7
:10158C0081139C423CD002F0A1F8012C05460BD1F2
:10159C001D4B984204D940F29B711C4801F012FD7E
:1015AC000121284601F031FD02F051F94FF0007293
:1015BC00174B07465A66204601F032FD4FF4806304
:1015CC00104E621E93403367736E9A0103D4D6F8A3
:1015DC0084309B060AD5384602F034F9022C0FD120
:1015EC002846BDE8F840002101F00FBDD6F8843044
:1015FC009906E9D540F2B371044801F0E3FCE3E746
:10160C00F8BD00BF00400050005A6202DB390008F0
:10161C000060005010B50C4608B902F057F8074BA3
:10162C0021461B783BB1064B984204D80120BDE8FB
:10163C001040FFF79BBF0220F9E700BFCA12002041
:10164C00005A62024FF0004238B5244B244C5A66C3
:10165C004AF6CD33656C014605F00105236428BBC1
:10166C000120FFF771FF6368DB0715D51D4B586030
:10167C0008461D4B226BD2070CD4984208D1072484
:10168C0015B1174B194A1A6401F0CBFC204638BD32
:10169C000130EFE79842F2D00024F1E70132236BDE
:1016AC0013F0080305D08A42F8D1E8E700220E496E
:1016BC00F5E78A42E3D020210A4A91620121A2F582
:1016CC00805251600649084A886A800603D49342C6
:1016DC00D5D00133F8E79342DDE700BF009000500E
:1016EC00004009500060095040420F003254FFFF87
:1016FC004FF0004238B5164B01465A664AF6CD33C8
:10170C00144C154A656C236443780B205B0043F042
:10171C000103D363FFF718FF63688A7823F4F87327
:10172C0043EA02136360CA784B7943EA0223A3604D
:10173C000A798B7943EA022323610878FFF782FF49
:10174C00EB0744BF054B236401F06BFC012038BD53
:10175C000090005000400950004000503254FFFFF0
:10176C000F2870B5044605D940F67461124801F093
:10177C0029FC0F244FF00042104B11495D6E03F50C
:10178C0080535A664AF6CD334E6C80200B64FFF7BB
:10179C00DBFE0B6A23F00F0323430B62F30744BFFA
:1017AC00084B0B64002DA2BF4FF00042064B5A664B
:1017BC0001F037FC70BD00BFDB3900080080005021
:1017CC00004009503254FFFF00A00050032838B5E8
:1017DC0004460D4605D8094B33F81030CB40DB07D7
:1017EC0004D440F28541064801F0ECFB3023012281
:1017FC005C43044BAA401A5138BD00BF063B00089D
:10180C003E3A000840D00350032838B504460D4634
:10181C0005D8094B33F81030CB40DB0704D440F229
:10182C005641064801F0CEFB302301225C43044BA9
:10183C00AA401A5138BD00BF063B00083E3A0008CA
:10184C0040E0035003282DE9F04104460D461746AD
:10185C00984605D81D4B33F81030CB40DB0704D429
:10186C004FF4B0711A4801F0ADFB37B12946204650
:10187C00B8F1000F20D0FFF7A9FF0F21072D04EBC3
:10188C00440688BFA5F108034FEA0616114895BF18
:10189C00AB009B0004360C3607FA03F29940304437
:1018AC0001F0C0FB7FB929462046B8F1000F06D0E5
:1018BC00BDE8F041FFF78ABFFFF7A6FFDDE7BDE803
:1018CC00F041FFF7A1BFBDE8F08100BF063B000867
:1018DC00A23A000830C00350034BD3F82424D3F8A9
:1018EC0020041040704700BF00C0035010B563487F
:1018FC0001F0C7FF20B14FF44E71614801F062FB5B
:10190C006048FFF7DFFC6048FFF76AFD5F4801F0B5
:10191C00B8FF20B140F2CB11594801F053FB5C4C9D
:10192C00FFF786FC236F002023F0070343F002032C
:10193C002367FFF7A7FC236F564923F4744343F442
:10194C0080632367544BD3F8FC2012F080727CD157
:10195C00D4F8803023F0030343F00103C4F8803043
:10196C00C1F880204A4CD4F8203123F0070343F00F
:10197C000103C4F82031D4F8283123F0070343F0D5
:10198C000103C4F82831D4F8803123F0030343F069
:10199C000103C4F88031D4F8903223F0030343F0F0
:1019AC000103C4F89032D4F8403123F0030343F020
:1019BC000103C4F84031D4F8603123F0030343F041
:1019CC000103C4F86031D4F8403223F0030343F030
:1019DC000103C4F84032D4F8003223F0070343F07B
:1019EC000103C4F80032D4F8083223F0070343F0A3
:1019FC000103C4F80832D4F8503223F0030343F047
:101A0C000103C4F85032D4F8703223F0030343F0CE
:101A1C000103C4F87032D4F8203223F0070343F0EA
:101A2C000103C4F82032FFF755FB4FF0E022136995
:101A3C00002043F004031361D4F8603223F0070351
:101A4C0043F00103C4F8603210BDD3F8FC2022F03F
:101A5C008072C3F8FC20D4F8802022F0030242F0FC
:101A6C000102C4F880200022C1F88020D3F8FC20A9
:101A7C0042F08072C3F8FC2074E700BF883C000879
:101A8C00F53B000800B4C404C0EA21018C3C0008FA
:101A9C00008000500090005000ED00E007B5094BAD
:101AAC0018689A889B7900906846ADF804208DF8E8
:101ABC000630FFF71DFE0920FFF752FE002003B091
:101ACC005DF804FB7E3C000813B50024064A68460A
:101ADC00536F43F00103536700948DF80440FFF7F4
:101AEC003BFD204602B010BD004000504F2810B501
:101AFC00044608D801236109074A04F01F04A340D7
:101B0C0042F8213010BD4FF49971044801F05AFA93
:101B1C00002CF7DBEEE700BF00E100E0943C00088E
:101B2C004E2810B5044604D940F23D11064801F088
:101B3C0049FA064B621153F8220004F01F04E040EE
:101B4C00C04300F0010010BD943C000800E100E02F
:101B5C00002808DB01224309034900F01F008240E2
:101B6C00603341F82320704700E100E038B500F104
:101B7C0010035F2B04460D4604D94FF4F0710E4848
:101B8C0001F020FA0F2D04D940F2E1110A4801F0BE
:101B9C0019FA60B20028ACBF00F16040074B4FEA65
:101BAC000515EDB2ABBF00F5614000F00F0080F8F9
:101BBC0000531D5438BD00BF943C000814ED00E0E8
:101BCC0010B501F04DFE0A4B1A786AB901226FF07C
:101BDC0004041A7001F03FFE204605210134FFF782
:101BEC00C5FF4F2CF8D110BDBDE8104001F033BE3D
:101BFC00CB1200200346054A0549106803448B426A
:101C0C008CBF4FF0FF301360704700BFE012002014
:101C1C000000042008B500F0EFF8BDE808400148CA
:101C2C0000F0A2BD213D000808B500F039F80849C4
:101C3C00084800F087FD00F06FF84FF4E1310648DA
:101C4C0000F080FDBDE80840044800F0A3B800BFD8
:101C5C00A08601004E3D00087A3D0008A63D000814
:101C6C0007B501F002FA0B4800F07EFD00230A4A8A
:101C7C000193019B934209D9084800F075FDFFF7C9
:101C8C00D3FF01F014FA01F01DFAFAE7019B0133BE
:101C9C000193EEE7BE3D00083F0D0300EF3D000849
:101CAC0030B585B06C46174B174D0FCB84E80F0041
:101CBC0001213A20FEF766FF01212F20FEF762FF7B
:101CCC0001230A2202210320FFF7BCFD032101237B
:101CDC0008460A22FFF7B6FD0C4B0D4A2846C3F8FE
:101CEC004C254FF00312C3F850250322C3F84825A6
:101CFC0000F05AFC074B21462846029300F022FCC8
:101D0C0005B030BD283E00080080065000C00350CE
:101D1C0003000200A086010030B589B06C46194D55
:101D2C000FCD0FC495E80F0084E80F0001213A2075
:101D3C00FEF728FF01215720FEF724FF0123042280
:101D4C0019460220FFF77EFD0023012219460220CE
:101D5C00FFF778FD0C4B0D4A0D4CC3F8FC24022206
:101D6C00C3F8F42414222046C3F8E42400F0C0F88D
:101D7C004FF4E13369462046029300F011FB09B0A1
:101D8C0030BD00BF383E000800C003500200010007
:101D9C0000000A5038B520B1044D441E14F8011F40
:101DAC0001B938BD284601F0D1F9F7E700000A5017
:101DBC000F4910B5D1F8FC30DC0116D54FF060435B
:101DCC00D3F8802ED20710D50A4AD1F8FC4044F043
:101DDC008074C1F8FC40D3F8004E44F00104C3F801
:101DEC00004E1C6814B9013AEFD110BD1870FCE715
:101DFC0000ED00E0FFFF0F0007B54FF08061324BA4
:101E0C00324A5966324905204B6B23F4704343F434
:101E1C0080434B633E212F4BC3F844140121A3F59F
:101E2C008053C3F84414D2F8803023F033030B43AF
:101E3C00C2F88030002301A9019301F01DFD002898
:101E4C003ED10198244B00F5D52000F2FC4098427D
:101E5C00224A84BF0133B0FBF3F0D2F8FC3098BFB8
:101E6C00012043F08073C2F8FC301D4B1D4A013831
:101E7C001A60022203F57C331861C3F8F0204FF48A
:101E8C008072C3F804234FF06043174AC3F8B02F95
:101E9C00164AC3F8802E0122C3F8002ED3F8002E68
:101EAC0042F48072C3F8002EFF2283F82020D3F86E
:101EBC00002E22F48072C3F8002E03B05DF804FBF0
:101ECC0001F004FCBEE700BF009000500080005001
:101EDC0000C0035000E00350F7590D0000ED00E086
:101EEC00001000E0FF03004055CEACC50900010016
:101EFC0010B501F011F9202341F202020361002315
:101F0C00C360836042614FF4A0220749836142623F
:101F1C0000F50052C36103628362C36243630365CD
:101F2C00D164036310BD00BFFF3F0D0338B5194BDF
:101F3C00044698420D460BD0174B984208D003F537
:101F4C008043984204D040F26911144801F03AF8E9
:101F5C0025B92046BDE8384001F0DEB8012204F571
:101F6C0080535A6040F6FF71204605F00F0201F0D5
:101F7C00CFF8A263782101F0CBF805F001036A07D2
:101F8C0048BF43F00203A26C02F003029A42FAD15A
:101F9C0038BD00BF0000015B00000A50583E00082D
:101FAC00F8B505460C46164622B940F227216D4875
:101FBC0001F008F86C4B9D4202D1BCB9562411E0DB
:101FCC006A4B9D424FD003F580439D4247D040F26F
:101FDC002A21644800F0F6FF44B940F27931614897
:101FEC0000F0F0FF2046FEF7F5FD0446AB68D9077C
:101FFC0049D5B44204D24FF40D715A4800F0E2FFB7
:10200C00B4FBF6F46F68013CFF2C07F0010704D910
:10201C004FF40F71534800F0D5FF24066FB32821FD
:10202C00284601F075F8AB6C9A0720D1AB6CDB0736
:10203C001FD4AE6C16F002061DD140F2492149485E
:10204C0000F0C0FF284601F067F82B69314623F0F9
:10205C007F4323432B61BDE8F840FFF767BF002C9B
:10206C00C4D15824BEE7002CC0D15724BAE70526AA
:10207C00E8E70926E6E70626E4E72B6923F07F4329
:10208C0023432B61F8BD6B68012B04D04FF41771FF
:10209C00344800F097FFAB6803F0E003402B42D0CC
:1020AC0009D893B1202B1AD040F29E21BDE8F840FC
:1020BC002C4800F087BF602B42D0802BF4D106EB6C
:1020CC004603A34247D801230DE0B6EB141F04D9F5
:1020DC004FF42171234800F075FF102303E0B6EB99
:1020EC00D40F1AD8082373436401B4FBF3F4204FC4
:1020FC00203CB7EBC40F4FEAC40604D240F2A9212E
:10210C00184800F05FFF28463E40012101F000F81E
:10211C002E63BDE8F84000F0FBBF40F28921114866
:10212C0000F050FFDEE70623B4FBF3F3B34201D318
:10213C000623D8E740F28E210A4800F043FFF7E768
:10214C00B6EB940F01D80423CDE740F29321054858
:10215C0000F038FFF7E74FF42671024800F032FF29
:10216C00B1E700BF583E00080000015B00000A50B8
:10217C00F8FF7F00F8B5436804460D4616461BB1C0
:10218C0040F6FF7100F0C4FF2046FFF7B1FEE9896D
:10219C006B7B62690B43298A22F44C520B4322F06D
:1021AC000F0213436361A268297E2B7B22F08042CD
:1021BC000B4322F0E20213436A6904F58051134386
:1021CC00AA68A360EB69002A35D1A06840F00040F2
:1021DC00A060002B34D166B396F82030E3B1012314
:1021EC000B624B6020462978FFF7A0FEA36CDB4303
:1021FC0013F4405FFAD1F8BD96F8203063B1012397
:10220C000B624B6020466968FFF7CAFEEAE796F856
:10221C002030002B40F0B08096F82230E06996F820
:10222C00216020F009003343034343F00103CB61E9
:10223C007EE00123D5E71BB9002EDDD10123E0E7B9
:10224C00987A1F7A4004D4F808C040EA87504C4F63
:10225C000CEA070738439F8807F4C04738435F7878
:10226C0040EA87005F7B40EAC7009F7B40EA07108B
:10227C009F7840EA8720A060D4F80CC0D3E904070B
:10228C003843404F0CEA070738439F7940EA8720D0
:10229C00DF7940EA4720E06018783B4F012812D1E3
:1022AC00E06840F00400E060BC424FD03748844204
:1022BC004ED000F5804084420CBF02204FF0FF301E
:1022CC00334F400113E0032838D1E06840F004009C
:1022DC00E060BC4236D02D48844235D000F58040B9
:1022EC0084420CBF02204FF0FF302A4F40010744BC
:1022FC0002207860587A886218B1E06840F4006077
:10230C00E060D87A58B1E06840F40040E0601E48C4
:10231C0084421FD1187B204F00F00F007866606A52
:10232C00DB7B20F0030003436362002E7FF46FAF6E
:10233C0001234B60002A3FF455AF63E702380128B4
:10234C00C7D9B1E70020D0E70120CEE70020B7E7DE
:10235C000120B5E70D48844205D1187B0E4F00F0E3
:10236C000F003867DBE70D48844201BF187B0A4F2A
:10237C0000F00F00F867D2E701230B62D8E700BF2B
:10238C00E39BBDFFFFF9F0870000015B00000A50E2
:10239C00C0E40350C0D403500090035000400A50D6
:1023AC0038B5154B044698420D460AD0134B98424B
:1023BC0007D003F58043984203D07021104800F0F9
:1023CC0001FE1DB972210E4800F0FCFD2B7B802B09
:1023DC0003D176210A4800F0F5FD6B7B032B03D962
:1023EC007921074800F0EEFD29462046BDE838402B
:1023FC000022FFF7BFBE00BF0000015B00000A50C7
:10240C00583E0008F8B506460F461546002A6AD015
:10241C0003F00304836823F44073836001F017FA1C
:10242C00B26882EA042303F440735340B36001F0B2
:10243C0009FA37B9B6F1B64F0DD12E20FEF7CAFB0B
:10244C000746B3689A0717D5012C1BD0022C27D04E
:10245C0064B9264B17E0264B9E4201D12F20EDE7A5
:10246C0040F22F11234800F0ADFDB3684FF4B27168
:10247C00204800F0A7FD08E0012C13D0022CE7D176
:10248C001D4B00E01D4B9F42F0D91D4B1B5D6B4358
:10249C000AD140F27511BDE8F840164800F092BD23
:1024AC00184BF0E7184BEEE7A3EBC504013C3C449A
:1024BC00B4FBF3F4013C0CD540F27B110D4800F059
:1024CC0081FD4FF4BE710B4800F07CFDB368B46124
:1024DC00F8BDB4F5007FF4D2B3689B07F7D5002C98
:1024EC0008BF0124F3E740F21511D4E780841E00E5
:1024FC0000800650BE3E0008002D3101404B4C00C0
:10250C00213F0008809FD50040548900B0F1B64FA0
:10251C0038B504460D4607D0084B984204D040F21B
:10252C009511074800F04EFD043425B104F5805494
:10253C000123236038BD04F50054F9E700800650F0
:10254C00BE3E0008B0F1B64F38B504460D4607D074
:10255C00124B984204D04FF4D571114800F032FD63
:10256C000023104A236404F50053DA636A7804F1FB
:10257C0008037AB903F5805302221A602046D5E984
:10258C0001122B7BFFF73EFF20462978BDE838402F
:10259C00FFF7BCBF03F50053EEE700BF0080065009
:1025AC00BE3E0008FFFF1F00E023C36000238360D2
:1025BC008361C3610362036443604369DB0506D432
:1025CC00202300F50050C363024BC3637047436A7A
:1025DC00F3E700BFFFFF1F0008B5064B044613B11D
:1025EC000021AFF30080044B1B6803B198472046D1
:1025FC0000F0ECFC00000000B8120020002310B525
:10260C0004468360818119464366C2810822836136
:10261C00C0E90033C0E904335C3000F00FFE0D4B11
:10262C00246263620C4BA3620C4BE3620C4B23637E
:10263C000C4B9C4206D003F16802944202D0D0337A
:10264C009C4205D104F15800BDE8104000F0FEBDDD
:10265C0010BD00BFEB3400080D35000845350008EF
:10266C006935000880110020024A0349034800F034
:10267C0072BD00BFE41200209B340008F41200204D
:10268C0041680C4B994210B5044601D000F0FFFE96
:10269C00A168094B994202D0204600F0F8FEE1688F
:1026AC00064B994204D02046BDE8104000F0EFBE26
:1026BC0010BD00BF80110020E81100205012002036
:1026CC0010B50B4B04210B4C0B4A20461A60002210
:1026DC00FFF794FF04F1680001220921FFF78EFF38
:1026EC0004F1D00002221221BDE81040FFF786BF92
:1026FC00B81200208011002075260008014800F057
:10270C00A6BD00BFCD120020014800F0A1BD00BF46
:10271C00CD12002010B50446FFF7F0FF236A1BB161
:10272C00BDE81040FFF7F0BF044B2362044B1B685D
:10273C00002BF5D1FFF7C4FFF2E700BF8D26000890
:10274C00B81200200FB407B5064904AB086853F85B
:10275C00042B8168019300F033F803B05DF804EBAF
:10276C0004B07047F0120020024B0146186800F0CC
:10277C0010BD00BFF012002070B50D4D00260D4CA1
:10278C00641BA410A64209D10B4D00260B4C01F082
:10279C00E1F8641BA410A64205D170BD55F8043BAA
:1027AC0001369847EEE755F8043B01369847F2E7B7
:1027BC00401300204013002040130020441300203D
:1027CC002DE9F04F0D469DB014469846064618B1BB
:1027DC00036A0BB9FFF79EFF6B6ED90705D4AB8963
:1027EC009A0502D4A86D00F032FDAB891B0701D508
:1027FC002B699BB92946304600F0CCFA70B16B6E50
:10280C00DC0704D54FF0FF301DB0BDE8F08FAB896D
:10281C009805F7D4A86D00F01BFDF3E70023CDF865
:10282C000C804FF00109DFF8B481099320238DF857
:10283C00293030238DF82A3023469A4613F8012B81
:10284C000AB1252AF9D1BAEB040B0BD05B46224610
:10285C002946304600F014FD013000F0A780099A9B
:10286C005A4409929AF80030002B00F09F80002304
:10287C004FF0FF320AF1010A049307938DF853309D
:10288C001A93CDE9052354460522544814F8011B2C
:10289C0000F007FF049AD8B9D10644BF20238DF865
:1028AC005330130744BF2B238DF853309AF8003064
:1028BC002A2B15D0079A544600204FF00A0C2146BB
:1028CC0011F8013B303B092B4BD9B0B1079214E006
:1028DC00A0EB0803A24609FA03F313430493D2E7CF
:1028EC00039B191D1B68002B0391BBBF5B4242F07D
:1028FC00020207930793B8BF049223782E2B0AD1B8
:10290C0063782A2B32D1039B02341A1D1B6843EACD
:10291C00E37303920593DFF8D4A003222178504689
:10292C0000F0BFFE38B1A0EB0A004022049B01343A
:10293C0082401343049314F8011B062228488DF897
:10294C00281000F0AEFE00283FD0264B1BBB039B8B
:10295C00073323F0070308330393099B3B44099384
:10296C006AE70CFB02320C460120A8E70023013475
:10297C004FF00A0C19460593204610F8012B303AFB
:10298C00092A03D9002BC6D00591C4E70CFB012101
:10299C0004460123F0E703AB2A4604A93046009312
:1029AC00114BAFF300800746781CD6D16B6ED9075C
:1029BC0005D4AB899A0502D4A86D00F049FCAB890B
:1029CC005B063FF51FAF09981EE703AB2A4604A927
:1029DC0030460093044B00F0A5F8E4E7253F0008CF
:1029EC002F3F0008000000008D3200082B3F00082C
:1029FC0070B50F4E0C460546316811B900F076FAE9
:102A0C0030602146284600F071FA431C03D14FF088
:102A1C00FF34204670BDC41C24F00304A042F8D03F
:102A2C00211A284600F062FA0130F2D1EFE700BF1C
:102A3C00BC1200202DE9F041CD1C064625F0030503
:102A4C0008350C2D38BF0C25002D01DBA94204D90B
:102A5C000C2333600020BDE8F081314F00F08EF97B
:102A6C003B681C4644BB29463046FFF7C1FF431C5C
:102A7C00044650D13C682146002941D1002C44D059
:102A8C002368304604EB030800F030FA80453CD153
:102A9C00216830466D1A2946FFF7AAFF013034D061
:102AAC0023682B4423603B68002B36D05A68A24223
:102ABC0029D100225A600EE02268521B1DD40B2A29
:102ACC0016D96119A342256018BF5960636808BF05
:102ADC00396062514B60304600F056F904F10B003E
:102AEC00231D20F00700C21AB5D01B1AA350B2E761
:102AFC00A3426268DED13A60EDE723466468B1E731
:102B0C000C464968B8E71346CEE70C2330463360D1
:102B1C0000F03AF99EE70560DDE75B60FFDE00BF81
:102B2C00C01200202DE9FF470F7E914680460C46CF
:102B3C00782F9A460C9E01F1430207D8622F0AD8CF
:102B4C00002F00F0DD80582F00F0C38004F1420606
:102B5C0084F842703AE0A7F16303152BF6D801A173
:102B6C0051F823F0C92B0008DD2B0008592B000865
:102B7C00592B0008592B0008592B0008DD2B000895
:102B8C00592B0008592B0008592B0008592B000809
:102B9C00F32C00086B2C0008AB2C0008592B0008F8
:102BAC00592B0008152D0008592B00086B2C000818
:102BBC00592B0008592B0008B32C000833681A1D38
:102BCC001B68326004F1420684F842300123A8E00D
:102BDC0031682368081D30601E0601D50D6803E0BE
:102BEC005D06FBD5B1F90050002D616878DA2D2017
:102BFC000029A16084F843002DDA6D425D480A2358
:102C0C001646B5FBF3F103FB1157C75D06F8017DC2
:102C1C002F460D46BB42F4D9082B0BD12368DF0796
:102C2C0008D5236961689942DEBF302306F8013C60
:102C3C0006F1FF36921B22614B4603AA2146404601
:102C4C00CDF800A000F02EFB01306FD14FF0FF301B
:102C5C0004B0BDE8F08723F004032360CDE72168BE
:102C6C003368080653F8045B02D4490648BFADB27A
:102C7C006F2F33603F4814BF0A230823002184F8C8
:102C8C0043106668002EA660BADB216821F00401AF
:102C9C002160002DB4D1002EB2D11646BCE72368BA
:102CAC0043F02003236078273348236884F8457069
:102CBC001F06316851F8045B02D45F0648BFADB201
:102CCC003160D90744BF43F0200323601DB11023AA
:102CDC00D4E72848E9E7236823F020032360F6E7CC
:102CEC0024480A23CDE733682568181D61693060D4
:102CFC002E061B6801D5196002E06806FBD5198009
:102D0C0000231646236197E7336800211A1D3260B1
:102D1C001E686268304600F0C4FC08B1801B60601D
:102D2C0063682361002384F8433085E723693246C6
:102D3C0049464046D047013088D023689B0714D4BD
:102D4C00E068039B9842B8BF184681E701233246DE
:102D5C0049464046D04701303FF478AF0135E3682F
:102D6C0003995B1AAB42F1DCEAE7002504F1190682
:102D7C00F5E700BF363F0008473F0008014800F068
:102D8C0066BA00BFCC120020014800F061BA00BF47
:102D9C00CC12002038B5294B05460C46186818B1E2
:102DAC00036A0BB9FFF7B6FCB4F90C30190722D43F
:102DBC00DA0607D409222A6043F040034FF0FF30B3
:102DCC00A38133E0580712D5616B41B104F1440380
:102DDC00994202D0284600F0ABF800236363A38924
:102DEC0023F02403A3810023636023692360A38958
:102DFC0043F00803A38123694BB9A38903F420731F
:102E0C00B3F5007F03D02146284600F00EFCB4F940
:102E1C000C3013F001020AD00022A2606269524207
:102E2C00A261226942B913F08000C5D138BD99075F
:102E3C0058BF6269A260F4E70020F7E7F0120020A7
:102E4C0038B50023054D044608462B6000F0BBF84E
:102E5C00431C02D12B6803B1236038BDC41200207F
:102E6C0038B50023064D0446084611462B6000F089
:102E7C00AEF8431C02D12B6803B1236038BD00BFF0
:102E8C00C412002038B50023054D044608462B60BB
:102E9C0000F09FF8431C02D12B6803B1236038BDAE
:102EAC00C412002038B50446064D084611460022CF
:102EBC002A601A4600F08FF8431C02D12B6803B12C
:102ECC00236038BDC412002038B50446064D0846B0
:102EDC00114600222A601A4600F07FF8431C02D1EA
:102EEC002B6803B1236038BDC412002038B5002311
:102EFC00054D044608462B60FEF77CFE431C02D1B0
:102F0C002B6803B1236038BDC412002038B50446C9
:102F1C00064D0846114600222A601A4600F0E3F8D6
:102F2C00431C02D12B6803B1236038BDC4120020AE
:102F3C0038B50546002941D051F8043C0C1F002B34
:102F4C00B8BFE418FFF71AFF1D4A136833B9636062
:102F5C0014602846BDE83840FFF716BFA34208D9D5
:102F6C00206821188B4201BF19685B680918216021
:102F7C00EDE71A465B680BB1A342FAD911685018F9
:102F8C00A0420BD120680144501811608342E0D15B
:102F9C0018685B68084453601060DAE702D90C23A8
:102FAC002B60D6E7206821188B4202BF19685B683A
:102FBC000918636008BF21605460CAE738BD00BFC0
:102FCC00C0120020FEE74FF0FF307047FEE70020F4
:102FDC007047012070470020704700207047FEE7C3
:102FEC0000239A4200D1704710B550F8234041F8A5
:102FFC00234001339A42F8D110BD08B500F098FB7C
:10300C00BDE808400021FDF791BD0029CCBF01218E
:10301C000021FDF78BBD02214FF42070FEF772B832
:10302C007047704770B5054614460E4600F00FFC0D
:10303C002B685C4034405C402C60BDE8704000F074
:10304C0001BC00F000B800207047FEF74FBC704781
:10305C0008B500F03CF800F03DF800F03DF800F049
:10306C003CF8BDE8084000F039B808B5FFF7EFFFB1
:10307C00FEF7A6FDFEF712FDFFF7E7FFFEF724FDB6
:10308C00FEF7C8FD00F007F800F023F8BDE8084093
:10309C00FFF7DEBF704708B500F015F800F014F824
:1030AC0000F013F800F012F8FFF7F4FF08BD08B5B4
:1030BC0000F015F800F014F800F013F8BDE8084023
:1030CC0000F010B870477047704770477047FFF7B3
:1030DC00B8BF7047FDF77CB97047704770477047B1
:1030EC0070477047704770B515464E1EC1F101040C
:1030FC00A3199D4201DC284670BD73780A2B02D1BE
:10310C000D20FEF755FE16F8010FFEF751FEEFE706
:10311C00436D0B42FCD1704708B54368DA0714D5F0
:10312C008368DB0702D50369D90707D50A23502129
:10313C008363FFF7EDFF836C9A07FCD1012200F546
:10314C0000535A6043689B07FCD408BD836C5B0634
:10315C00FCD5416470472DE9F84307468846144670
:10316C000026D4E90195B9F1010905D52468002C94
:10317C00F7D13046BDE8F883AB89012B07D9B5F9F7
:10318C000E30013303D029463846C0470643683514
:10319C00E9E7036A70B505460E4684680BB9FFF77C
:1031AC00B9FA636EDB0705D4A389980502D4A06D28
:1031BC0000F04DF8A389190702D52369002B35D1EE
:1031CC0021462846FFF7E6FD80B34FF0FF35636ECE
:1031DC00DA0705D4A3899B0502D4A06D00F038F85A
:1031EC00284670BD002B15DB23685A1C2260197011
:1031FC00A36816F8011F013BA3600029F2D1002B34
:10320C0016DA22460A21284600F0ACF90130DCD04F
:10321C000A25DCE7A2699A4201DC0A29E4D122469C
:10322C00284600F09FF90130E2D1CEE7013EDFE7FE
:10323C0023685A1C22600A221A70E9E702440346EA
:10324C00934200D1704703F8011BF9E770477047B0
:10325C0070479368013B002B936010B408DA9469B3
:10326C00A34201DB0A2903D15DF8044B00F07AB9C3
:10327C001368581C1060084619705DF8044B7047B1
:10328C00F8B506460F461446D518AC4201D10020BD
:10329C0007E03A4614F8011B3046FFF7DAFF431CEF
:1032AC00F3D1F8BD2DE9F047164698468A680746D3
:1032BC000B690C46DDF820909342B8BF134633607F
:1032CC0091F843200AB1013333602368990642BF59
:1032DC00336802333360256815F0060506D104F116
:1032EC00190AE36832689B1AAB422BDC94F8433022
:1032FC002268003B18BF0123920630D404F143022C
:10330C0041463846C847013023D023681A3454F854
:10331C000A2C03F00603042B0ABF54F80E5C00259C
:10332C0033684FF0000608BFED1A54F8123C08BF82
:10333C0025EAE5759342C4BF9B1AED18B5421AD124
:10334C00002008E00123524641463846C847013068
:10335C0003D14FF0FF30BDE8F0870135C1E7E1182C
:10336C005A1C30200233224481F8430094F8451053
:10337C0082F84310C2E70123224641463846C8472B
:10338C000130E6D00136D9E7B1F90C202DE9F04136
:10339C00170705460C4656D44B68002B02DC0B6C09
:1033AC00002B3DDDE66A002E3AD0002312F4805249
:1033BC002F68216A2B6025D0626DA389580705D52B
:1033CC006368D21A636B0BB1236CD21A216A002387
:1033DC00E66A2846B047411C24D000236360236969
:1033EC002360A389DA0400D56065616B2F60B9B1E5
:1033FC0004F14403994202D02846FFF799FD0023BB
:10340C0063630DE001232846B047461C0246D4D125
:10341C002B68002BD1D01D2B01D0162B2AD12F605D
:10342C0000202EE02A68B4F90C3042B11D2A01D0DC
:10343C00162A21D10023636023692360D5E76260DB
:10344C0022692260CEE70F69002FE9D093070E683E
:10345C000F600CBF4B690023A6EB07088B60B8F11B
:10346C00000FDDDD43463A46216A2846A66AB0477E
:10347C00002808DCB4F90C3043F040034FF0FF3067
:10348C00A381BDE8F0810744A8EB0008E7E738B555
:10349C000B6905460C4613B90025284638BD18B1F2
:1034AC00036A0BB9FFF736F9B4F90C30002BF3D0E3
:1034BC00626ED00704D4990502D4A06DFFF7C7FE45
:1034CC0028462146FFF760FF636E0546DA07E4D411
:1034DC00A3899B05E1D4A06DFFF7BAFEDDE710B51B
:1034EC000C46B1F90E10FFF7EFFC0028ABBF636D73
:1034FC00A3891B1823F48053ACBF6365A38110BD53
:10350C002DE9F0411F468B8905460C46DB05164616
:10351C0005D502230022B1F90E10FFF7C3FCA389D5
:10352C003246B4F90E10284623F48053A3813B464F
:10353C00BDE8F041FFF7EABC10B50C46B1F90E102E
:10354C00FFF7B0FC431CA38915BF606523F48053BF
:10355C0043F48053A38118BFA38110BDB1F90E10A1
:10356C00FFF76EBCF8B50E461446054618B1036A53
:10357C000BB9FFF7CFF8A369A360A3891A0701D58C
:10358C00236943B921462846FFF704FC18B14FF0D4
:10359C00FF373846F8BD2368F6B222693746981AC9
:1035AC006369834205DC21462846FFF770FF00283B
:1035BC00EDD1A368013BA36023685A1C22601E70E6
:1035CC00431C62699A4204D0A389DB07E1D50A2E19
:1035DC00DFD121462846FFF75AFF0028D9D0D6E77D
:1035EC0070B50C46B1F90E1096B0154600291E4662
:1035FC000CDAA389002113F0800F14BF40234FF481
:10360C008063002031602B6016B070BD6A46FFF7F6
:10361C0027FC0028EDDB019901F47041A1F5005362
:10362C00594259414FF48063EBE78B89F7B59D07FD
:10363C0006460C4607D504F147032360236101239A
:10364C00636103B0F0BD01AB6A46FFF7C9FF009F91
:10365C00054630463946FFF7EDF948B9B4F90C3058
:10366C009A05EED423F0030343F00203A381E2E7AF
:10367C00A389206043F08003A381019BC4E9040764
:10368C005BB1B4F90E103046FFF7FCFB28B1A389EF
:10369C0023F0030343F00103A381A3891D43A581F8
:1036AC00CFE7C9B20346024410B59342184601D184
:1036BC00002003E0047801338C42F6D110BD0000E9
:1036CC00014B1868704700BFD41200200A4B1B6FC7
:1036DC0003F00703013B032B03D8DFE803F00A03D5
:1036EC000608FEE7054B18687047054BFBE70548D5
:1036FC0070470548704700BF00800050D41200206E
:10370C00DC12002080D54302002D310108B5FFF7F3
:10371C00DDFF054B1B6FC3F303330133B0FBF3F039
:10372C00024B186008BD00BF00800050D012002072
:10373C000048704700B4C40400487047002D3101A4
:10374C00014B1868704700BFDC120020004870471E
:10375C0080D543024FF40022184B5A664FF0B44305
:10376C009868C0F304400C280AD8DFE800F00B0975
:10377C0009090909072119091B1D1F001048704769
:10378C00002070479B6803F04073B3F1807F11D029
:10379C00B3F1007F10D00B4A002B08BF10467047C6
:1037AC0009487047094870470948704709487047ED
:1037BC000948704709487047094870470090005005
:1037CC00405DC60000093D00C0EA210180BA8C01B1
:1037DC000048E801005A62020024F40080841E00B4
:1037EC0040420F00014B1868704700BFD8120020F0
:1037FC0070B50D46E8B1036813F4E07F03F03F06A3
:10380C00C3F3821210D0012A13D10B4C9B0603D5A3
:10381C0091210A48FFF7D6FB45B104F580540123EA
:10382C000020B340236070BD054CEFE704F5005455
:10383C00F5E70E20F7E700BF688000500E3B00084C
:10384C006480005010B962B6BFF36F8F7047EFF30E
:10385C00108072B6704780F31188BFF36F8F70477A
:10386C00EFF31180302383F3118870474FF400403D
:10387C0070474FF47A70704709B100F005B82220F8
:10388C0070470121FFF7B4BF70B506460D46FFF730
:10389C00E7FF04461F2E58D8DFE806F01019571E14
:1038AC00212457272A572D5730335736393C573F49
:1038BC005742575457455748574B4E51FFF706FF41
:1038CC00002628602046FFF7C6FF304670BD4FF437
:1038DC00C070FDF77FF9F3E74FF42070F9E74FF470
:1038EC004070F6E74FF46070F3E74FF40070F0E7C8
:1038FC004FF48060EDE74FF44060EAE74FF4C060AE
:10390C00E7E74FF4F060E4E74FF4B060E1E74FF421
:10391C00D060DEE74FF41060DBE74FF4E060D8E7EF
:10392C004FF4A060D5E74FF41860D2E74FF428604D
:10393C00CFE74FF48070CCE74FF43060C9E74FF419
:10394C002060C6E74FF40860C3E700202126B8E7E3
:10395C0000000000F8B500BFF8BC08BC9E467047DC
:10396C00F8B500BFF8BC08BC9E4670472F55736570
:10397C0072732F646965676F736D6163626F6F6BD0
:10398C002F2E73696C6162732F736C742F696E7355
:10399C0074616C6C732F636F6E616E2F702F736913
:1039AC006D706C6562353236393938663461346421
:1039BC002F702F706C6174666F726D2F656D6C69F2
:1039CC00622F7372632F656D5F636D752E63002FAD
:1039DC0055736572732F646965676F736D6163628C
:1039EC006F6F6B2F2E73696C6162732F736C742FF6
:1039FC00696E7374616C6C732F636F6E616E2F7074
:103A0C002F73696D706C65623532363939386634AE
:103A1C006134642F702F706C6174666F726D2F65DA
:103A2C006D6C69622F7372632F656D5F656D752E9A
:103A3C0063002F55736572732F646965676F736DBF
:103A4C006163626F6F6B2F2E73696C6162732F737E
:103A5C006C742F696E7374616C6C732F636F6E6111
:103A6C006E2F702F73696D706C6562353236393913
:103A7C003866346134642F702F706C6174666F72A9
:103A8C006D2F656D6C69622F696E632F656D5F6755
:103A9C0070696F2E68002F55736572732F6469659A
:103AAC00676F736D6163626F6F6B2F2E73696C61DF
:103ABC0062732F736C742F696E7374616C6C732FDB
:103ACC00636F6E616E2F702F73696D706C656235EC
:103ADC00323639393866346134642F702F706C612A
:103AEC0074666F726D2F656D6C69622F7372632FC4
:103AFC00656D5F6770696F2E6300FF070F00FF0332
:103B0C003F002F55736572732F646965676F736D12
:103B1C006163626F6F6B2F2E73696C6162732F73AD
:103B2C006C742F696E7374616C6C732F636F6E6140
:103B3C006E2F702F73696D706C6562353236393942
:103B4C003866346134642F702F706C6174666F72D8
:103B5C006D2F656D6C69622F696E632F656D5F6289
:103B6C0075732E68002F55736572732F64696567C2
:103B7C006F736D6163626F6F6B2F2E73696C616213
:103B8C00732F736C742F696E7374616C6C732F6309
:103B9C006F6E616E2F702F73696D706C656235324C
:103BAC003639393866346134642F702F706C617417
:103BBC00666F726D2F736572766963652F636C6FB8
:103BCC00636B5F6D616E616765722F7372632F73C8
:103BDC006C5F636C6F636B5F6D616E616765725F69
:103BEC0068616C5F73322E63002F55736572732F8F
:103BFC00646965676F736D6163626F6F6B2F2E7392
:103C0C00696C6162732F736C742F696E7374616C61
:103C1C006C732F636F6E616E2F702F73696D706C88
:103C2C00656235323639393866346134642F702F19
:103C3C00706C6174666F726D2F73657276696365F3
:103C4C002F636C6F636B5F6D616E616765722F7351
:103C5C0072632F736C5F636C6F636B5F6D616E610E
:103C6C006765725F696E69745F68616C5F73322E31
:103C7C006300010310010109030000001E00000095
:103C8C00160000001A0000002F55736572732F6424
:103C9C006965676F736D6163626F6F6B2F2E7369EC
:103CAC006C6162732F736C742F696E7374616C6CBE
:103CBC00732F636F6E616E2F702F73696D706C65EF
:103CCC006235323639393866346134642F702F706E
:103CDC006C6174666F726D2F736572766963652F94
:103CEC00696E746572727570745F6D616E61676513
:103CFC00722F7372632F736C5F696E746572727559
:103D0C0070745F6D616E616765725F636F7274650D
:103D1C00786D2E630053574F5F53454C465F5445A7
:103D2C0053543A20464732385F504130335F495440
:103D3C004D5F4348302070686173653D4541524C7E
:103D4C0059004932433A204932433120726561644B
:103D5C00792073636C3D50443032207364613D5064
:103D6C0044303320667265713D256C750A005541EF
:103D7C0052543A2045555341525431207265616476
:103D8C00792072783D5043302074783D5043312077
:103D9C00626175643D256C750A0073656E736F7294
:103DAC005F6D637520554152542072656164790DC5
:103DBC000A0053574F5F53454C465F544553543A92
:103DCC0020464732385F504130335F49544D5F4392
:103DDC0048302070686173653D504F53545F494EB5
:103DEC0049540053574F5F53454C465F5445535409
:103DFC003A20464732385F504130335F49544D5F6B
:103E0C004348302070686173653D504F53545F498F
:103E1C004E49545F524554525900000001010000B4
:103E2C0000000000A086010000000000050000005A
:103E3C000000000000C201000002000000100000A1
:103E4C000000000000000000000000002F5573650A
:103E5C0072732F646965676F736D6163626F6F6BEB
:103E6C002F2E73696C6162732F736C742F696E7370
:103E7C0074616C6C732F636F6E616E2F702F73692E
:103E8C006D706C656235323639393866346134643C
:103E9C002F702F706C6174666F726D2F656D6C690D
:103EAC00622F7372632F656D5F6575736172742E0B
:103EBC0063002F55736572732F646965676F736D3B
:103ECC006163626F6F6B2F2E73696C6162732F73FA
:103EDC006C742F696E7374616C6C732F636F6E618D
:103EEC006E2F702F73696D706C656235323639398F
:103EFC003866346134642F702F706C6174666F7225
:103F0C006D2F656D6C69622F7372632F656D5F69C0
:103F1C0032632E630008091108232D302B20006812
:103F2C006C4C00656667454647003031323334359A
:103F3C003637383941424344454600303132333408
:0C3F4C0035363738396162636465660001
:083F5800B4C2FF7F010000006C
:0C3F60006C3F0008D01200201E00000082
:103F6C00C0EA2101C0EA210100800000C017530201
:103F7C004813002000000000030000008011002006
:103F8C00F41200200000000080110020E811002035
:103F9C005012002000000000000000000000000093
:103FAC000000000000000000000000000000000005
:103FBC0000000000000000000000000000000000F5
:103FCC0000000000000000000000000000000000E5
:083FDC00E9010008C101000821
:04000005080002A548
:00000001FF
