S02B00002F55736572732F646965676F736D6163626F6F6B2F446F63756D656E74732F5079726F4E65742F6697
S3150800000000100020A50200087B2600087B260008B1
S315080000107B2600087B2600087B2600087B2600082E
S315080000207B2600087B2600087B2600087B2600081E
S315080000307B2600087B2600087B260008C51A0008D0
S315080000407B2600087B2600087B2600087B260008FE
S315080000507B2600087B2600087B2600087B260008EE
S315080000607B2600087B2600087B2600087B260008DE
S315080000707B2600087B2600087B2600087B260008CE
S315080000807B2600087B2600087B2600087B260008BE
S315080000907B2600087B2600087B2600087B260008AE
S315080000A07B2600087B26000835040008150400088E
S315080000B07B2600087B2600087B2600087B2600088E
S315080000C07B2600087B2600087B2600087B2600087E
S315080000D07B2600087B2600087B2600087B2600086E
S315080000E07B2600087B2600087B2600087B2600085E
S315080000F07B2600087B2600087B2600087B2600084E
S315080001007B2600087B2600087B2600087B2600083D
S315080001107B2600087B2600087B2600087B2600082D
S315080001207B2600087B2600087B2600087B2600081D
S315080001307B2600087B2600087B2600087B2600080D
S315080001407B2600087B2600087B2600087B260008FD
S315080001507B2600087B2600087B2600087B260008ED
S315080001607B2600087B2600087B2600087B260008DD
S311080001707B2600087B2600087B2600087A
S3150800017C0348044B834202D0034B03B1184770471C
S3150800018C1C1D00201C1D002000000000064B074902
S3150800019CC91A891048BF0131491003D0044B0BB159
S315080001AC01481847704700BF1C1D00201C1D002065
S315080001BC0000000010B5064C237843B9FFF7D8FFAA
S315080001CC044B13B10448AFF300800123237010BD10
S315080001DC9C140020000000006833000808B5054B85
S315080001EC1BB105490548AFF30080BDE80840FFF789
S315080001FCCDBF00BF000000000010002068330008C7
S3150800020CA3F5803A704700BF174B002B08BF134B5A
S3150800021C9D46FFF7F5FF00218B460F461348144AF7
S3150800022C121A02F06BFB0E4B002B00D098470D4BA5
S3150800023C002B00D098470020002104000D000D4823
S3150800024C002802D00C48AFF3008001F0EFFD200027
S3150800025C290001F079FC01F019FD00BF0000080027
S3150800026C0000000000000000001000200010002014
S3150800027CA41C002000000000000000000348044AEB
S3150800028C0449121A921002F0F3B900BF7C01000857
S3150800029C7C010008A41C002008B5154B83F30A88BA
S315080002AC00F030F8FFF7EAFF124B13498B4212D3D2
S315080002BC0020124B12498B4218D3FFF7A5FF18687A
S315080002CC50F82240586840F8224001329868824219
S315080002DCF5D30C33EAE70022F8E71C6844F8220049
S315080002EC01325C68A242F8D30833E4E70022F8E747
S315080002FC00000020703300087C3300087C330008AB
S3150800030C7C3300084FF48041124B134A70B59A603F
S3150800031CD3F88820114D42F47002C3F88820104A8D
S3150800032C05F5005491664FF0FF3222660D4A626657
S3150800033C0222C3F8D020BFF34F8FBFF36F8F4FF451
S3150800034C4036002001F056FB0020E66001F020FB49
S3150800035C2E6170BD00ED00E000000008008000442E
S3150800036C009000507FFF7F03014B1860704700BF59
S3150800037CA81C00202DE9F04104460C254FF0010875
S3150800038C124E0CB314F001000BD0002024F001041B
S3150800039C05FB00625768002FF3D09168C0B2B847C6
S315080003ACEFE72246013020284FEA520201D0D30744
S315080003BCF8D508FA00F20F2824EA0204E8D910380E
S315080003CC05FB0062B432E5E7BDE8F08118100020A1
S315080003DC08B50C4802F0BCFD1A2001F0F3FA28B156
S315080003EC1A2001F007FB1A2001F0D2FA1B2001F0A3
S315080003FCE9FA28B11B2001F0FDFA1B2001F0C8FA16
S3150800040C002008BDE031000808B501F0B7F9054B26
S3150800041C00F0553020F0A040C3F82004BDE8084091
S3150800042CFFF7A8BF00E0035008B501F0A7F9054B84
S3150800043C00F0AA3020F02040C3F82004BDE808409C
S3150800044CFFF798BF00E00350044BD3F88420D2067C
S3150800045CFBD4D3F88400C0F38110704700400050D9
S3150800046C38B5104B0546D3F800310C4603F0030398
S3150800047C022B0BD0032B0DD0012B0FD102F0CCFC89
S3150800048C032305B1286004B1236038BD02F016FDBC
S3150800049C0923F6E702F0C6FC0823F2E7012300203D
S315080004ACEFE700BF0080005038B5104B0546D3F86F
S315080004BC40310C4603F00303022B0BD0032B0DD053
S315080004CC012B0FD102F03EFD0A2305B1286004B1B9
S315080004DC236038BD02F0F2FC0923F6E702F035FD7D
S315080004EC0B23F2E701230020EFE700BF0080005042
S315080004FC38B5104B0546D3F860310C4603F00303A8
S3150800050C022B0BD0032B0DD0012B0FD102F01AFDA9
S3150800051C0A2305B1286004B1236038BD02F0CEFC6D
S3150800052C0923F6E702F011FD0B23F2E7012300205D
S3150800053CEFE700BF0080005038B5104B0546D3F8DE
S3150800054C40320C4603F00303022B0BD0032B0DD0C1
S3150800055C012B0FD102F0F6FC0A2305B1286004B171
S3150800056C236038BD02F0AAFC0923F6E702F0EDFC7D
S3150800057C0B23F2E701230020EFE700BF00800050B1
S3150800058C38B5124B0546D3F880300C4603F00303F6
S3150800059C022B0BD0032B0DD0012B0FD102F002FC32
S315080005AC0D2305B1286004B1236038BD02F03EFC6A
S315080005BC0723F6E702F0F0FB0623F2E7044841F2BC
S315080005CC142102F047F800231846EAE70080005089
S315080005DC982F000838B51A4B0546D3F820010C4657
S315080005EC00F00700062821D8DFE800F028040C14D0
S315080005FC10181C0002F0D0FB052305B1286004B1C5
S3150800060C236038BD02F008FC0323F6E702F00EFC63
S3150800061C0723F2E702F0FCFB0223EEE702F0BCFB31
S3150800062C0623EAE702F0F8FB0423E6E7054841F25D
S3150800063C912102F00FF800231846DEE70123DCE7C8
S3150800064C00800050982F000838B5194B0546D3F88A
S3150800065C28310C4603F00703013B052B20D8DFE8AD
S3150800066C03F003131B0F0B1702F096FB052305B1BA
S3150800067C286004B1236038BD02F08EFB0623F6E72A
S3150800068C02F0D4FB0723F2E702F0C6FB0323EEE7DE
S3150800069C02F0C2FB0423EAE702F0BAFB0223E6E700
S315080006AC044841F2990101F0D5FF00231846DEE70C
S315080006BC00800050982F0008002337B50193194B7A
S315080006CC0546D3F820320C4603F00703042B1FD833
S315080006DCDFE803F025030F141900002101A8FFF722
S315080006ECB3FF11230DB1019A2A6004B1236003B03C
S315080006FC30BD02F09BFB07230190F3E702F022FCC6
S3150800070C0A230190EEE702F0D9FB09230190E9E7E9
S3150800071C41F25601044801F09DFF0023E2E701234C
S3150800072CE0E700BF00800050982F0008F7B50027B7
S3150800073C144B0197D3F88041064604F00304022CA7
S3150800074C0D4614D0032C0DD0012C14D1394601A812
S3150800075CFFF740FF0F240EB1019B336005B12C60E7
S3150800076C03B0F0BD02F062FB07240190F3E702F038
S3150800077C4FFB0190EFE741F2E631034801F06AFFBF
S3150800078C3C46E8E700800050982F000838B5164B11
S3150800079C0546D3F800020C4600F00700042819D8C1
S315080007ACDFE800F020030B0F130002F0CBFB0A2343
S315080007BC05B1286004B1236038BD02F07FFB09231C
S315080007CCF6E702F0C2FB0B23F2E702F00BFB0E2353
S315080007DC800AEDE7054841F2A44101F03BFF0023EE
S315080007EC1846E5E70123E3E700800050982F000838
S315080007FC38B5164B0546D3F808020C4600F0070028
S3150800080C042819D8DFE800F020030B0F130002F0B8
S3150800081C99FB0A2305B1286004B1236038BD02F0A0
S3150800082C4DFB0923F6E702F090FB0B23F2E702F0E7
S3150800083CD9FA0E23800AEDE7054841F2DC4101F0AE
S3150800084C09FF00231846E5E70123E3E7008000507B
S3150800085C982F000838B5124B0546D3F850320C467B
S3150800086C03F00303022B0FD0032B05D0012B0FD15A
S3150800087C02F068FB0A2302E002F067FB0B2305B1C2
S3150800088C286004B1236038BD02F018FB0923F6E78B
S3150800089C044841F2C90101F0DDFE00231846EEE7D3
S315080008AC00800050982F0008002337B50193184B89
S315080008BC0546D3F860320C4603F00703013B032BBD
S315080008CC1FD8DFE803F0020E1914002101A8FFF760
S315080008DC81FE0F230DB1019A2A6004B1236003B07F
S315080008EC30BD002101A8FFF7DFFD1023F2E702F067
S315080008FC9DFA07230190EDE702F08AFA022301908C
S3150800090CE8E741F2FD01034801F0A4FE0023E1E704
S3150800091C00800050982F000873B500240F4B0194E3
S3150800092CD3F87032064603F00303012B0D4607D0A5
S3150800093C022B11D041F25B11094801F08BFE04E041
S3150800094C214601A8FFF7B0FD10240EB1019B3360B8
S3150800095C05B12C6002B070BD1424F6E70080005077
S3150800096C982F000838B50F4B0546D3F890320C462D
S3150800097C03F00303012B09D0022B0BD102F056FA14
S3150800098C072305B1286004B1236038BD02F040FA8C
S3150800099C0223F6E7044841F2851101F05BFE0023B9
S315080009AC1846EEE700800050982F000808B5334B20
S315080009BC98424FD027D8324B984245D017D8314B4E
S315080009CC98423ED00AD838B12F4B984239D041F2CA
S315080009DCBB312E4801F03EFE002034E02C4B9842E9
S315080009EC2FD02C4B9842F2D12B4B586E2BE02B4B1D
S315080009FC98422CD003F5371303F5D8639842E6D101
S31508000A0C254B986F1FE0264B98422FD00CD8254BB8
S31508000A1C984223D0244B984224D0244B9842D6D1C2
S31508000A2C1D4BD3F884000EE0214B984222D003F5D7
S31508000A3C740303F510539842C9D1174BD3F8980091
S31508000A4C01E0154B986D08BD134B186FFBE7124B5D
S31508000A5C586FF8E7104BD3F88000F4E70E4BD3F831
S31508000A6C8800F0E70C4BD3F88C00ECE70A4BD3F86C
S31508000A7C9000E8E7084BD3F89400E4E780BA8C01B9
S31508000A8C405DC60080841E0040420F00982F000867
S31508000A9C00093D00C0CF6A000080E00F0024F40076
S31508000AAC007E560380D54302006CDC020048E80140
S31508000ABC0090D003B0F5207F10B52ED009D8B0F52C
S31508000ACC007F24D003D868B1B0F5C07F0AD00024C3
S31508000ADC1BE0B0F5607FFAD1124BD3F88040C4F313
S31508000AEC011412E00F4B1C6F230B13F00E0FC4F3FB
S31508000AFC03340AD0072C08D00F2C06D0032C04D0AC
S31508000B0C4FF42271084801F0A5FD601C10BD054B79
S31508000B1CD3F89040C4F30464F7E7024B1C6FC4F394
S31508000B2C8024F2E700800050982F00084FF480329A
S31508000B3C38B5104B04469A6600200D46FFF7BAFFE7
S31508000B4C41F671320C4B6043DC69DA635A6804F47B
S31508000B5C803422F440125DB90849884294BF0020BB
S31508000B6C0120000502435A600CB10022DA6338BD35
S31508000B7C0349F2E70090005000000350005A620245
S31508000B8C002D3101002130B5B0F5807F85B00446C3
S31508000B9CCDE9001100F007816BD8002800F0DC8045
S31508000BACA0F12004602C75D8602C73D8DFE814F0FB
S31508000BBCD400E100D400E100F100F100F100F100ED
S31508000BCCF100E100F6007E00A1000C017E00E100B8
S31508000BDCE100E1007200720072007200720072008D
S31508000BEC7200A100E100E100E10029011601E10013
S31508000BFC720072007200720072007200720072004B
S31508000C0C72007200720072001B01F100D400D4004D
S31508000C1CD40011017E007E002001BE009300C9009D
S31508000C2CC9007200720072007200720072007200C3
S31508000C3C720072007200720072007200720072000A
S31508000C4C72007200720072007200720072007200FA
S31508000C5C72007200720072007200720072007200EA
S31508000C6C72007200720072007200720072007200DA
S31508000C7CCE00B0F5F06F00F0C4803FD8B0F5607FB9
S31508000C8C00F082801DD8B0F5007F68D008D8B0F582
S31508000C9CC07F61D040F2A4415C4801F0DBFC58E00F
S31508000CACB0F5207F65D0B0F5407FF3D102F09AF805
S31508000CBC04464FF42070FFF7FDFEB4FBF0F464080D
S31508000CCC60E0B0F5B06F69D00AD8B0F5806F60D027
S31508000CDCB0F5A06FDED100216846FFF7EDFC38E0D1
S31508000CECB0F5D06F70D0B0F5E06F77D0B0F5C06FB7
S31508000CFCD0D100216846FFF7D7FB2AE0B0F5206F64
S31508000D0C76D00CD8B0F5106F63D0B0F5186F6AD0E2
S31508000D1CB0F5086FBED16846FFF7A2FB19E0B0F52F
S31508000D2C306F6AD007D8B0F5286FB3D10021684662
S31508000D3CFFF7F2FD0DE0B0F5386FDAD0B0F5406F7D
S31508000D4CA8D100216846FFF77FFC02E002F02AF8DA
S31508000D5C0090009805B030BD02F044F8F8E702F0B0
S31508000D6C21F805462046FFF7A5FEB5FBF0F50095DC
S31508000D7CEFE702F037F804464FF42070FFF79AFEB7
S31508000D8CB4FBF0F40094E4E701A8FFF7F9FB019D26
S31508000D9CE8E700216846FFF71DFCDAE700216846FC
S31508000DACFFF7C4FCD5E74FF0E02302911B695B07FC
S31508000DBC05D502F017F80290029B0093C9E703A920
S31508000DCC02A8FFF771FBF7E700216846FFF7DEFC80
S31508000DDCBFE700216846FFF70BFDBAE70021684616
S31508000DECFFF7AAFBB5E700216846FFF733FDB0E726
S31508000DFC00216846FFF758FDABE76846FFF7B2FDDA
S31508000E0CA7E700216846FFF773FBA2E7982F0008AF
S31508000E1C08B58020FFF7B6FE034B98429EBF4FF4E9
S31508000E2C8032024B1A6708BD005A620200A00050B5
S31508000E3C1FB503460020B3F5607F019000F0FC80D7
S31508000E4C7BD8582B68D8382B05D8243B092B49D97D
S31508000E5C40F28951D1E0393B1F2BF9D801A252F83F
S31508000E6C23F000BF291000085D0E00085D0E00086F
S31508000E7C5D0E000833100008571000085D0E0008B8
S31508000E8C5D0E00085D0E00085D0E00085D0E00087C
S31508000E9C5D0E00085D0E00085D0E00085D0E00086C
S31508000EAC5D0E00085D0E00085D0E00085D0E00085C
S31508000EBC611000086B0F00085D0E00085D0E000837
S31508000ECC5D0E0008AF0F00085D0E00085D0E0008E9
S31508000EDC6B100008751000084D100008D10F00089B
S31508000EECD10F0008092BB3D801A252F823F000BF82
S31508000EFC6B0F00086B0F00086B0F00086B0F0008D0
S31508000F0C6B0F00085D0E00080F1000085D0E000838
S31508000F1C29100008890F0008802B58D0B3F5807F5C
S31508000F2C96D14FF0E02302901B695B0771D501F04F
S31508000F3C59FF0C230393039B55E0B3F5086F77D041
S31508000F4C21D8B3F5C06F69D00ED8B3F5A06F77D09A
S31508000F5CB3F5B06F55D0B3F5806F7FF479AF002039
S31508000F6C01A9FFF737FB50E0B3F5E06F6DD0B3F589
S31508000F7CF06F58D0B3F5D06F7FF46AAF002001A993
S31508000F8CFFF704FC41E0B3F5286F6DD00ED8B3F526
S31508000F9C186F5FD0B3F5206F61D0B3F5106F7FF47F
S31508000FAC57AF002001A9FFF723FC2EE0B3F5306FED
S31508000FBC5FD0FFF44DAFB3F5386F2FD0B3F5406F54
S31508000FCC7FF446AF002001A9FFF73EFB1DE02B4B33
S31508000FDC1B6F03F00703013B032B0CD8DFE803F068
S31508000FEC09020507052301930FE00323FBE70823F2
S31508000FFCF9E70223F7E740F2D641214801F02AFB2C
S3150800100C03E0002001A9FFF791FB019805B05DF8F4
S3150800101C04FB03A902A8FFF747FA8CE7002001A9ED
S3150800102CFFF742FAF1E7002001A9FFF761FAECE7AE
S3150800103C01A9FFF715FAE8E701A9FFF7A1FAE4E712
S3150800104C002001A9FFF738FBDFE7002001A9FFF70D
S3150800105C73FADAE7002001A9FFF7FCFBD5E70020B5
S3150800106C01A9FFF721FCD0E7002001A9FFF754FCE2
S3150800107CCBE701A9FFF776FCC7E700BF0080005055
S3150800108C982F00084FF48032074B0849586E03F521
S3150800109C80535A664B6A23F001034B62C3035CBF49
S315080010AC034B5A66704700BF0080005000C00750BB
S315080010BC00A00050B0F5207F38B577D00ED8B0F523
S315080010CC007F61D003D890B3B0F5C07F2FD04FF412
S315080010DC4671BDE838403D4801F0BCBAB0F5607FB2
S315080010ECF5D13B4A4C1ED2F8FC5015F080751EBF44
S315080010FCD2F8FC3023F08073C2F8FC30032C04D9E8
S3150800110C40F2F721314801F0A5FA324AD2F880307C
S3150800111C23F0300343EA0413C2F8803035B12C4A65
S3150800112CD2F8FC3043F08073C2F8FC3038BD4C1E44
S3150800113C012C0AD9102903D8274BCB40DB0704D43A
S3150800114C40F2CB21214801F085FA01F09EFA01F014
S3150800115CAAFA4FF48031214B1E4A1967136F23F4F0
S3150800116C704343EA0433136701F03CFE0446FFF769
S3150800117C6BF9C0F10201204601F08FFA00F048F82D
S3150800118CBDE83840FFF744BE4C1E1F2C04D94FF45B
S3150800119C43710E4801F05EFA0E4AD2F8903023F0ED
S315080011ACF85343EA0463C2F89030BFE74C1E012C8F
S315080011BC04D940F21231054801F04CFA054A136F6E
S315080011CC23F4806343EA84231367AFE7982F000858
S315080011DC00ED00E000800050100101000090005066
S315080011EC08B50121022000F099F94FF42070FFF799
S315080011FC61FC054B187001F048FA01F054FA4FF4EB
S3150800120C8032024B1A6708BD9D14002000900050CE
S3150800121C08B54FF4C070FFF7B5FCBDE808400449A3
S3150800122C884294BF012102214FF42070FFF742BF78
S3150800123C80F0FA0238B5044601F0D4FD0546FFF7EE
S3150800124C03F9C0F10201284601F027FA0121002012
S3150800125C00F0B8F92CB1FFF7DBFFBDE83840FFF713
S3150800126CD7BD034B4FF420701978FFF723FFF4E72B
S3150800127C9D1400202DE9F0410546FFF797FB431E08
S3150800128C0333044604D940F6E2113B4801F0E2F96F
S3150800129C4FF4C022394B5A6603F598335A68012A1B
S315080012AC04D137494A605A689207FCD48020FFF764
S315080012BCBFFD052807D101F0E8F901F0F4F94FF460
S315080012CC80322E4B1A672F4B24F040749D4239D02E
S315080012DC2D4B9D4239D001F05FFD8542064603D958
S315080012EC0121284600F06EF9284FFB6813F0060F0B
S315080012FCFBD1D7F80880BC60BB68634013F4F81FB1
S3150800130C26D12846FFF730F88020FFF791FD0528EF
S3150800131C14D101F067FDA842044604D940F63B21D6
S3150800132C154801F097F9FFF78FF8C0F1020120462E
S3150800133C01F0B3F9FFF76CFFFFF76AFDAE4213D263
S3150800134CBDE8F08144F00074C5E744F08074C2E748
S3150800135C40F62A21084801F07DF98020C7F8088054
S3150800136CFFF766FD052805D0BDE8F04101210020F0
S3150800137C00F028B93546CCE7982F000800900050A5
S3150800138C00E0015040420F0080841E00000001500E
S3150800139C4E4B70B59842054673D041D8A3F5B703A2
S315080013ACA3F55863984265D033D8494B494E9842B1
S315080013BC51D017D8002877D041F2DE11464801F0F3
S315080013CC49F940F68671444801F044F94FF4002275
S315080013DC404B5A663E4B9D4276D000243F4A954276
S315080013EC36D05DE03D4B984227D03D4B9842E3D131
S315080013FC3C4BD3F8A040621E033224F040744CD9FF
S3150800140C40F68671344801F025F94FF400237366CB
S3150800141CE4E7354B9842CFD1324BD3F8BC402CE09D
S3150800142C324B984231D0324B984232D0314B98429B
S3150800143CC2D12C4BD3F8C8401FE02A4BD3F8A04096
S3150800144C621E033224F04074DAD84FF40023736614
S3150800145C44F0807424E0234BD3F8A040621E033278
S3150800146C24F040742AD84FF400237366234643F0BD
S3150800147C007415E01B4BD3F8B840621E154E0332A8
S3150800148CBBE7184BD3F8C040F7E7164BD3F8CC405C
S3150800149CF3E7144BD3F8D040EFE74FF40023736609
S315080014AC4FF0B442946070BD40F686710A4801F05C
S315080014BCD1F84FF400232C467366F1E740F6867193
S315080014CC054801F0C7F8CEE70023D0E7C0EA2101AA
S315080014DC40420F0000900050982F000880841E0090
S315080014EC00093D000080E00F0024F4000048E801E4
S315080014FC005A620280BA8C01024A536B0342FCD131
S3150800150C704700BF00400950034A0179D36E23F097
S3150800151C30030B43D366704700400050F8B50446B9
S3150800152C244BD3F88420D006FBD4D3F88430C3F3E9
S3150800153C81139C423CD001F035FC012C05460BD19D
S3150800154C1D4B984204D940F29B711C4801F082F855
S3150800155C0121284601F0A1F801F0E5FC4FF00072D4
S3150800156C174B07465A66204601F0A2F84FF48063DB
S3150800157C104E621E93403367736E9A0103D4D6F8E5
S3150800158C84309B060AD5384601F0C8FC022C0FD1CC
S3150800159C2846BDE8F840002101F07FB8D6F884301B
S315080015AC9906E9D540F2B371044801F053F8E3E71C
S315080015BCF8BD00BF00400050005A6202FB2F00081D
S315080015CC0060005010B50C4608B901F0EBFB074B50
S315080015DC21461B783BB1064B984204D80120BDE83E
S315080015EC1040FFF79BBF0220F9E700BF9E140020AE
S315080015FC005A62024FF0004238B5244B244C5A6606
S3150800160C4AF6CD33656C014605F00105236428BB03
S3150800161C0120FFF771FF6368DB0715D51D4B586072
S3150800162C08461D4B226BD2070CD4984208D10724C6
S3150800163C15B1174B194A1A6401F03BF8204638BD08
S3150800164C0130EFE79842F2D00024F1E70132236B20
S3150800165C13F0080305D08A42F8D1E8E700220E49B0
S3150800166CF5E78A42E3D020210A4A91620121A2F5C4
S3150800167C805251600649084A886A800603D4934208
S3150800168CD5D00133F8E79342DDE700BF0090005050
S3150800169C004009500060095040420F003254FFFFC9
S315080016AC4FF0004238B5164B01465A664AF6CD330A
S315080016BC144C154A656C236443780B205B0043F085
S315080016CC0103D363FFF718FF63688A7823F4F8736A
S315080016DC43EA02136360CA784B7943EA0223A36090
S315080016EC0A798B7943EA022323610878FFF782FF8C
S315080016FCEB0744BF054B236400F0DBFF012038BD24
S3150800170C0090005000400950004000503254FFFF32
S3150800171C0F2870B5044605D940F67461124800F0D6
S3150800172C99FF0F244FF00042104B11495D6E03F5DB
S3150800173C80535A664AF6CD334E6C80200B64FFF7FD
S3150800174CDBFE0B6A23F00F0323430B62F30744BF3C
S3150800175C084B0B64002DA2BF4FF00042064B5A668D
S3150800176C00F0A7FF70BD00BFFB2F000800800050DB
S3150800177C004009503254FFFF00A00050034BD3F829
S3150800178C2424D3F820041040704700BF00C003502F
S3150800179C10B5634801F0DCFB20B14FF44E7161487B
S315080017AC00F058FF6048FFF765FD6048FFF7F0FD4D
S315080017BC5F4801F0CDFB20B140F2CB11594800F03F
S315080017CC49FF5C4CFFF70CFD236F002023F0070341
S315080017DC43F002032367FFF72DFD236F564923F4C5
S315080017EC744343F480632367544BD3F8FC2012F0FC
S315080017FC80727CD1D4F8803023F0030343F00103C4
S3150800180CC4F88030C1F880204A4CD4F8203123F033
S3150800181C070343F00103C4F82031D4F8283123F028
S3150800182C070343F00103C4F82831D4F8803123F0B8
S3150800183C030343F00103C4F88031D4F8903223F043
S3150800184C030343F00103C4F89032D4F8403123F073
S3150800185C030343F00103C4F84031D4F8603123F094
S3150800186C030343F00103C4F86031D4F8403223F083
S3150800187C030343F00103C4F84032D4F8003223F0D2
S3150800188C070343F00103C4F80032D4F8083223F0F6
S3150800189C070343F00103C4F80832D4F8503223F096
S315080018AC030343F00103C4F85032D4F8703223F022
S315080018BC030343F00103C4F87032D4F8203223F042
S315080018CC070343F00103C4F82032FFF7DBFB4FF0A4
S315080018DCE0221369002043F004031361D4F8603244
S315080018EC23F0070343F00103C4F8603210BDD3F8A4
S315080018FCFC2022F08072C3F8FC20D4F8802022F059
S3150800190C030242F00102C4F880200022C1F88020AC
S3150800191CD3F8FC2042F08072C3F8FC2074E700BFB1
S3150800192CD83100084531000800B4C404C0EA2101C6
S3150800193CDC310008008000500090005000ED00E0FB
S3150800194C07B5094B18689A889B7900906846ADF8D4
S3150800195C04208DF80630FFF7A3FE0920FFF7D8FE02
S3150800196C002003B05DF804FBCE31000813B5002443
S3150800197C064A6846536F43F00103536700948DF883
S3150800198C0440FFF7C1FD204602B010BD00400050D0
S3150800199C4F2810B5044608D801236109074A04F0F4
S315080019AC1F04A34042F8213010BD4FF49971044826
S315080019BC00F050FE002CF7DBEEE700BF00E100E07C
S315080019CCE43100084E2810B5044604D940F23D11FE
S315080019DC064800F03FFE064B621153F8220004F04D
S315080019EC1F04E040C04300F0010010BDE4310008BC
S315080019FC00E100E0002808DB01224309034900F056
S31508001A0C1F008240603341F82320704700E100E054
S31508001A1C38B500F110035F2B04460D4604D94FF474
S31508001A2CF0710E4800F016FE0F2D04D940F2E111A4
S31508001A3C0A4800F00FFE60B20028ACBF00F1604007
S31508001A4C074B4FEA0515EDB2ABBF00F5614000F048
S31508001A5C0F0080F800531D5438BD00BFE431000850
S31508001A6C14ED00E010B501F067FA0A4B1A786AB95A
S31508001A7C01226FF004041A7001F059FA2046052168
S31508001A8C0134FFF7C5FF4F2CF8D110BDBDE8104047
S31508001A9C01F04DBA9F1400200346054A0549106803
S31508001AAC03448B428CBF4FF0FF301360704700BF66
S31508001ABCB41C002000000420024A1368013313608A
S31508001ACC704700BF88110020802010B5FFF75AF820
S31508001ADCB0F57A7F10D34FF47A73B0FBF3F04FF06E
S31508001AECE024013860610F214FF0FF30FFF790FFBB
S31508001AFC0023A361072323618020FFF743F8BDE881
S31508001B0C10400146014800F077B900BF7132000851
S31508001B1C094B0A491A680868121AB2F57A7F09D36A
S31508001B2C1A6807480A60074A1168013111601A6871
S31508001B3C00F062B9704700BF88110020841100209C
S31508001B4C9F3200088011002008B500F005FE00F051
S31508001B5C19F80146084800F04FF900F0C0FD07488F
S31508001B6C00F05CF9FFF7B0FF054800F057F900F0F4
S31508001B7CD8FDFFF7CDFFFAE7BD320008EA320008B8
S31508001B8C01330008004870471433000808B5174B92
S31508001B9C4FF4E4720021184600F0B0FE0922034601
S31508001BAC026142611248134A98614FF48061DA6106
S31508001BBC002219629A625A62DA62C3F8F0000E4879
S31508001BCCC3F8F400C3F8F810C3F80021C3F8FC20D6
S31508001BDCC3F80421BFF35F8F084911F8010D985417
S31508001BEC0132102AF9D1BFF35F8F08BD8C11002082
S31508001BFC18330008A0180020A01400203133000860
S31508001C0CF8B5182700FB0775124B0E461D4407FB43
S31508001C1C0033DB6A1446012B0AD0022B14D023B9E5
S31508001C2C284600F0A4FD844208D900242046F8BDB5
S31508001C3C284600F09CFD844228BF044622463146BD
S31508001C4C284600F09DFDF1E72846BDE8F84000F06F
S31508001C5CB4BD00BF8C110020F8B50B4B04461B789D
S31508001C6C0D46532B164601D0FFF790FFEFF311875D
S31508001C7C4FF0200181F31188324629462046FFF79A
S31508001C8CBFFF87F31188F8BD8C11002008B5064BE9
S31508001C9C044613B10021AFF30080044B1B6803B153
S31508001CAC9847204600F0DAFC000000008C1400204F
S31508001CBC002310B504468360818119464366C281A8
S31508001CCC08228361C0E90033C0E904335C3000F0B4
S31508001CDC15FE0D4B246263620C4BA3620C4BE3623C
S31508001CEC0C4B23630C4B9C4206D003F168029442BE
S31508001CFC02D0D0339C4205D104F15800BDE81040FF
S31508001D0C00F004BE10BD00BFC52B0008E72B000869
S31508001D1C1F2C0008432C000854130020024A0349C0
S31508001D2C034800F078BD00BFB81C0020752B0008CE
S31508001D3CC81C002041680C4B994210B5044601D0CA
S31508001D4C00F012FFA168094B994202D0204600F018
S31508001D5C0BFFE168064B994204D02046BDE81040BB
S31508001D6C00F002BF10BD00BF54130020BC130020A6
S31508001D7C2414002010B50B4B04210B4C0B4A20469F
S31508001D8C1A600022FFF794FF04F16800012209216A
S31508001D9CFFF78EFF04F1D00002221221BDE8104095
S31508001DACFFF786BF8C14002054130020291D000849
S31508001DBC014800F0ACBD00BFA11C0020014800F092
S31508001DCCA7BD00BFA11C002010B50446FFF7F0FF05
S31508001DDC236A1BB1BDE81040FFF7F0BF044B236222
S31508001DEC044B1B68002BF5D1FFF7C4FFF2E700BFC5
S31508001DFC411D00088C1400200FB407B5064904AB26
S31508001E0C086853F8042B8168019300F033F803B083
S31508001E1C5DF804EB04B07047C41C0020024B014665
S31508001E2C186800F016BD00BFC41C002070B50D4D17
S31508001E3C00260D4C641BA410A64209D10B4D002696
S31508001E4C0B4C01F097F8641BA410A64205D170BD83
S31508001E5C55F8043B01369847EEE755F8043B01362E
S31508001E6C9847F2E7141D0020141D0020141D0020AD
S31508001E7C181D00202DE9F04F0D469DB014469846C6
S31508001E8C064618B1036A0BB9FFF79EFF6B6ED907A6
S31508001E9C05D4AB899A0502D4A86D00F038FDAB8938
S31508001EAC1B0701D52B699BB92946304600F0CCFA9D
S31508001EBC70B16B6EDC0704D54FF0FF301DB0BDE872
S31508001ECCF08FAB899805F7D4A86D00F021FDF3E7E0
S31508001EDC0023CDF80C804FF00109DFF8B481099383
S31508001EEC20238DF8293030238DF82A3023469A463C
S31508001EFC13F8012B0AB1252AF9D1BAEB040B0BD02E
S31508001F0C5B4622462946304600F027FD013000F094
S31508001F1CA780099A5A4409929AF80030002B00F0C7
S31508001F2C9F8000234FF0FF320AF1010A04930793AE
S31508001F3C8DF853301A93CDE9052354460522544897
S31508001F4C14F8011B00F01AFF049AD8B9D10644BF3D
S31508001F5C20238DF85330130744BF2B238DF85330A9
S31508001F6C9AF800302A2B15D0079A544600204FF0C1
S31508001F7C0A0C214611F8013B303B092B4BD9B0B161
S31508001F8C079214E0A0EB0803A24609FA03F31343DD
S31508001F9C0493D2E7039B191D1B68002B0391BBBF47
S31508001FAC5B4242F0020207930793B8BF0492237868
S31508001FBC2E2B0AD163782A2B32D1039B02341A1D95
S31508001FCC1B6843EAE37303920593DFF8D4A0032254
S31508001FDC2178504600F0D2FE38B1A0EB0A00402218
S31508001FEC049B013482401343049314F8011B062204
S31508001FFC28488DF8281000F0C1FE00283FD0264B43
S3150800200C1BBB039B073323F0070308330393099B76
S3150800201C3B4409936AE70CFB02320C460120A8E7FD
S3150800202C002301344FF00A0C19460593204610F884
S3150800203C012B303A092A03D9002BC6D00591C4E7DF
S3150800204C0CFB012104460123F0E703AB2A4604A93D
S3150800205C30460093114BAFF300800746781CD6D157
S3150800206C6B6ED90705D4AB899A0502D4A86D00F016
S3150800207C4FFCAB895B063FF51FAF09981EE703AB10
S3150800208C2A4604A930460093044B00F0A5F8E4E769
S3150800209C323300083C3300080000000067290008AA
S315080020AC3833000870B50F4E0C460546316811B921
S315080020BC00F076FA30602146284600F071FA431C87
S315080020CC03D14FF0FF34204670BDC41C24F0030422
S315080020DCA042F8D0211A284600F062FA0130F2D153
S315080020ECEFE700BF901400202DE9F041CD1C064601
S315080020FC25F0030508350C2D38BF0C25002D01DB02
S3150800210CA94204D90C2333600020BDE8F081314F75
S3150800211C00F08EF93B681C4644BB29463046FFF74F
S3150800212CC1FF431C044650D13C682146002941D1C5
S3150800213C002C44D02368304604EB030800F030FA30
S3150800214C80453CD1216830466D1A2946FFF7AAFF0F
S3150800215C013034D023682B4423603B68002B36D0DF
S3150800216C5A68A24229D100225A600EE02268521BF4
S3150800217C1DD40B2A16D96119A342256018BF5960BC
S3150800218C636808BF396062514B60304600F056F9F7
S3150800219C04F10B00231D20F00700C21AB5D01B1A38
S315080021ACA350B2E7A3426268DED13A60EDE7234654
S315080021BC6468B1E70C464968B8E71346CEE70C23C2
S315080021CC3046336000F03AF99EE70560DDE75B6060
S315080021DCFFDE00BF941400202DE9FF470F7E9146C1
S315080021EC80460C46782F9A460C9E01F1430207D876
S315080021FC622F0AD8002F00F0DD80582F00F0C3801C
S3150800220C04F1420684F842703AE0A7F16303152BF1
S3150800221CF6D801A151F823F07D2200089122000876
S3150800222C0D2200080D2200080D2200080D220008B8
S3150800223C912200080D2200080D2200080D22000824
S3150800224C0D220008A72300081F2300085F23000897
S3150800225C0D2200080D220008C92300080D220008CB
S3150800226C1F2300080D2200080D220008672300080A
S3150800227C33681A1D1B68326004F1420684F8423032
S3150800228C0123A8E031682368081D30601E0601D5B5
S3150800229C0D6803E05D06FBD5B1F90050002D6168A9
S315080022AC78DA2D200029A16084F843002DDA6D42D6
S315080022BC5D480A231646B5FBF3F103FB1157C75DB8
S315080022CC06F8017D2F460D46BB42F4D9082B0BD1D7
S315080022DC2368DF0708D5236961689942DEBF302376
S315080022EC06F8013C06F1FF36921B22614B4603AAFF
S315080022FC21464046CDF800A000F041FB01306FD1D5
S3150800230C4FF0FF3004B0BDE8F08723F004032360D8
S3150800231CCDE721683368080653F8045B02D44906EE
S3150800232C48BFADB26F2F33603F4814BF0A2308234A
S3150800233C002184F843106668002EA660BADB216873
S3150800234C21F004012160002DB4D1002EB2D116461D
S3150800235CBCE7236843F020032360782733482368B7
S3150800236C84F845701F06316851F8045B02D45F0681
S3150800237C48BFADB23160D90744BF43F02003236090
S3150800238C1DB11023D4E72848E9E7236823F0200376
S3150800239C2360F6E724480A23CDE733682568181D19
S315080023AC616930602E061B6801D5196002E0680663
S315080023BCFBD5198000231646236197E7336800215D
S315080023CC1A1D32601E686268304600F0D7FC08B1E8
S315080023DC801B606063682361002384F8433085E7BB
S315080023EC2369324649464046D047013088D023688F
S315080023FC9B0714D4E068039B9842B8BF184681E73C
S3150800240C0123324649464046D04701303FF478AF5F
S3150800241C0135E36803995B1AAB42F1DCEAE7002560
S3150800242C04F11906F5E700BF4333000854330008D6
S3150800243C014800F06CBA00BFA01C0020014800F04F
S3150800244C67BA00BFA01C002038B5294B05460C46B8
S3150800245C186818B1036A0BB9FFF7B6FCB4F90C3057
S3150800246C190722D4DA0607D409222A6043F0400356
S3150800247C4FF0FF30A38133E0580712D5616B41B199
S3150800248C04F14403994202D0284600F099F8002337
S3150800249C6363A38923F02403A38100236360236960
S315080024AC2360A38943F00803A38123694BB9A38945
S315080024BC03F42073B3F5007F03D02146284600F0B9
S315080024CC21FCB4F90C3013F001020AD00022A260E8
S315080024DC62695242A261226942B913F08000C5D1E1
S315080024EC38BD990758BF6269A260F4E70020F7E780
S315080024FCC41C002038B50023054D044608462B603D
S3150800250C00F0A9F8431C02D12B6803B1236038BD2F
S3150800251C9814002038B50023064D04460846114683
S3150800252C2B6000F09CF8431C02D12B6803B1236086
S3150800253C38BD00BF9814002038B50023054D044655
S3150800254C08462B6000F08DF8431C02D12B6803B1AA
S3150800255C236038BD9814002038B50446064D084645
S3150800256C114600222A601A4600F07DF8431C02D157
S3150800257C2B6803B1236038BD9814002038B504467F
S3150800258C064D0846114600222A601A4600F06DF8D8
S3150800259C431C02D12B6803B1236038BD9814002064
S315080025AC38B50023054D044608462B60FFF774FA28
S315080025BC431C02D12B6803B1236038BD9814002044
S315080025CC38B50546002941D051F8043C0C1F002BA0
S315080025DCB8BFE418FFF72CFF1D4A136833B96360BC
S315080025EC14602846BDE83840FFF728BFA34208D92F
S315080025FC206821188B4201BF19685B68091821608D
S3150800260CEDE71A465B680BB1A342FAD91168501864
S3150800261CA0420BD120680144501811608342E0D1C6
S3150800262C18685B68084453601060DAE702D90C2313
S3150800263C2B60D6E7206821188B4202BF19685B68A5
S3150800264C0918636008BF21605460CAE738BD00BF2B
S3150800265C94140020FEE74FF0FF307047FEE7002089
S3150800266C7047012070470020704700207047FEE72E
S3150800267C00239A4200D1704710B550F8234041F810
S3150800268C234001339A42F8D110BD08B500F0BCFBC3
S3150800269CBDE808400021FEF749BA0029CCBF012144
S315080026AC0021FEF743BA02214FF42070FEF702BD53
S315080026BC7047704700F000B800207047FFF768B8FD
S315080026CC7047704708B500F03BF800F03CF800F08E
S315080026DC3CF800F03BF8BDE8084000F038B808B5FF
S315080026ECFFF7EEFFFFF7BEF9FFF72AF9FFF7E6FF4C
S315080026FCFFF73CF9FFF7E5FF00F007F800F022F8C2
S3150800270CBDE80840FFF7DEBF704708B500F014F8BF
S3150800271C00F013F800F012F800F011F8FFF7F4FFC8
S3150800272C08BD08B500F014F800F013F800F012F81C
S3150800273CBDE8084000F00FB87047704770477047FF
S3150800274CFFF7B8BF7047FDF743BE70477047704731
S3150800275C704770477047704700F05BB81146002009
S3150800276C1A4619B1002B01DDFFF776BA70470369D3
S3150800277CC26893429CBF81685B18013B981A7047E4
S3150800278C2DE9F041D0E902840546A8EB0406406819
S3150800279C964220440F46144406D900F0BAF8BFF303
S315080027AC5F8FEC60BDE8F0813246A4EB080400F0BC
S315080027BCB0F822466868B919EFE72DE9F8430646DA
S315080027CC894617464FF00008C5683369B4689D42B8
S315080027DC28BF1B19641BBC4228BF3C46013B5B1B2C
S315080027EC9C4228BF1C46706849462246284400F07D
S315080027FC90F8B3682544AB4208BF0025A044A14411
S3150800280C3F1BBFF35F8FF560002FDED14046BDE856
S3150800281CF883FFF7BBB92DE9F843074688461446F3
S3150800282C0026D4E90195B9F1010905D52468002CCF
S3150800283CF7D13046BDE8F883AB89012B07D9B5F932
S3150800284C0E30013303D029463846C047064368354F
S3150800285CE9E7036A70B505460E4684680BB9FFF7B7
S3150800286CB3FA636EDB0705D4A389980502D4A06D69
S3150800287C00F04DF8A389190702D52369002B35D129
S3150800288C21462846FFF7E0FD80B34FF0FF35636E0F
S3150800289CDA0705D4A3899B0502D4A06D00F038F895
S315080028AC284670BD002B15DB23685A1C226019704C
S315080028BCA36816F8011F013BA3600029F2D1002B6F
S315080028CC16DA22460A21284600F0B9F90130DCD07E
S315080028DC0A25DCE7A2699A4201DC0A29E4D12246D8
S315080028EC284600F0ACF90130E2D1CEE7013EDFE72D
S315080028FC23685A1C22600A221A70E9E70244034626
S3150800290C934200D1704703F8011BF9E770477047EB
S3150800291C70470A44431E914200D1704710B511F80E
S3150800292C014B914203F8014FF9D110BD9368013B55
S3150800293C002B936010B408DA9469A34201DB0A29C8
S3150800294C03D15DF8044B00F07AB91368581C106073
S3150800295C084619705DF8044B7047F8B506460F46DD
S3150800296C1446D518AC4201D1002007E03A4614F8B3
S3150800297C011B3046FFF7DAFF431CF3D1F8BD2DE9EE
S3150800298CF047164698468A6807460B690C46DDF8E2
S3150800299C20909342B8BF1346336091F843200AB18E
S315080029AC013333602368990642BF336802333360B8
S315080029BC256815F0060506D104F1190AE36832688C
S315080029CC9B1AAB422BDC94F843302268003B18BFA9
S315080029DC0123920630D404F1430241463846C847CF
S315080029EC013023D023681A3454F80A2C03F0060352
S315080029FC042B0ABF54F80E5C002533684FF000060A
S31508002A0C08BFED1A54F8123C08BF25EAE57593423F
S31508002A1CC4BF9B1AED18B5421AD1002008E0012351
S31508002A2C524641463846C847013003D14FF0FF306D
S31508002A3CBDE8F0870135C1E7E1185A1C302002338E
S31508002A4C224481F8430094F8451082F84310C2E7F3
S31508002A5C0123224641463846C8470130E6D001369E
S31508002A6CD9E7B1F90C202DE9F041170705460C46B4
S31508002A7C56D44B68002B02DC0B6C002B3DDDE66A4A
S31508002A8C002E3AD0002312F480522F68216A2B604C
S31508002A9C25D0626DA389580705D56368D21A636B6E
S31508002AAC0BB1236CD21A216A0023E66A2846B04772
S31508002ABC411C24D00023636023692360A389DA04AC
S31508002ACC00D56065616B2F60B9B104F14403994276
S31508002ADC02D02846FFF774FD002363630DE001233B
S31508002AEC2846B047461C0246D4D12B68002BD1D0B9
S31508002AFC1D2B01D0162B2AD12F6000202EE02A6818
S31508002B0CB4F90C3042B11D2A01D0162A21D1002362
S31508002B1C636023692360D5E7626022692260CEE789
S31508002B2C0F69002FE9D093070E680F600CBF4B692D
S31508002B3C0023A6EB07088B60B8F1000FDDDD4346D2
S31508002B4C3A46216A2846A66AB047002808DCB4F932
S31508002B5C0C3043F040034FF0FF30A381BDE8F08101
S31508002B6C0744A8EB0008E7E738B50B6905460C4699
S31508002B7C13B90025284638BD18B1036A0BB9FFF7F7
S31508002B8C23F9B4F90C30002BF3D0626ED00704D4B9
S31508002B9C990502D4A06DFFF7BAFE28462146FFF721
S31508002BAC60FF636E0546DA07E4D4A3899B05E1D476
S31508002BBCA06DFFF7ADFEDDE710B50C46B1F90E10AA
S31508002BCCFFF7DCFC0028ABBF636DA3891B1823F445
S31508002BDC8053ACBF6365A38110BD2DE9F0411F4638
S31508002BEC8B8905460C46DB05164605D502230022BD
S31508002BFCB1F90E10FFF7B0FCA3893246B4F90E10E2
S31508002C0C284623F48053A3813B46BDE8F041FFF7E1
S31508002C1CA5BD10B50C46B1F90E10FFF79DFC431C6B
S31508002C2CA38915BF606523F4805343F48053A381AD
S31508002C3C18BFA38110BDB1F90E10FFF75BBCF8B530
S31508002C4C0E461446054618B1036A0BB9FFF7BCF8CD
S31508002C5CA369A360A3891A0701D5236943B9214639
S31508002C6C2846FFF7F1FB18B14FF0FF373846F8BD89
S31508002C7C2368F6B222693746981A6369834205DCDB
S31508002C8C21462846FFF770FF0028EDD1A368013BC3
S31508002C9CA36023685A1C22601E70431C62699A4200
S31508002CAC04D0A389DB07E1D50A2EDFD121462846B5
S31508002CBCFFF75AFF0028D9D0D6E770B50C46B1F9FC
S31508002CCC0E1096B0154600291E460CDAA38900216B
S31508002CDC13F0800F14BF40234FF48063002031603B
S31508002CEC2B6016B070BD6A46FFF714FC0028EDDBA6
S31508002CFC019901F47041A1F50053594259414FF419
S31508002D0C8063EBE78B89F7B59D0706460C4607D516
S31508002D1C04F14703236023610123636103B0F0BD0B
S31508002D2C01AB6A46FFF7C9FF009F05463046394690
S31508002D3CFFF7DAF948B9B4F90C309A05EED423F052
S31508002D4C030343F00203A381E2E7A389206043F05F
S31508002D5C8003A381019BC4E904075BB1B4F90E1087
S31508002D6C3046FFF7E9FB28B1A38923F0030343F0A8
S31508002D7C0103A381A3891D43A581CFE7C9B20346E5
S31508002D8C024410B59342184601D1002003E004789A
S31508002D9C01338C42F6D110BD014B1868704700BF41
S31508002DACA81C00200A4B1B6F03F00703013B032BDF
S31508002DBC03D8DFE803F00A030608FEE7054B186894
S31508002DCC7047054BFBE7054870470548704700BF39
S31508002DDC00800050A81C0020B01C002080D543029F
S31508002DEC002D310108B5FFF7DDFF054B1B6FC3F34B
S31508002DFC03330133B0FBF3F0024B186008BD00BF78
S31508002E0C00800050A41C00200048704700B4C4047D
S31508002E1C00487047002D3101014B1868704700BFF8
S31508002E2CB01C00200048704780D543024FF400229E
S31508002E3C184B5A664FF0B4439868C0F304400C28F4
S31508002E4C0AD8DFE800F00B0909090909072119094D
S31508002E5C1B1D1F0010487047002070479B6803F025
S31508002E6C4073B3F1807F11D0B3F1007F10D00B4AB9
S31508002E7C002B08BF10467047094870470948704729
S31508002E8C0948704709487047094870470948704708
S31508002E9C0948704700900050405DC60000093D0087
S31508002EACC0EA210180BA8C010048E801005A620286
S31508002EBC0024F40080841E0040420F00014B186861
S31508002ECC704700BFAC1C002070B50D46E8B103680E
S31508002EDC13F4E07F03F03F06C3F3821210D0012AE5
S31508002EEC13D10B4C9B0603D591210A48FFF7B2FB6D
S31508002EFC45B104F5805401230020B340236070BD0E
S31508002F0C054CEFE704F50054F5E70E20F7E700BF8C
S31508002F1C688000505E3000086480005010B962B6B4
S31508002F2CBFF36F8F7047EFF3108072B6704780F35C
S31508002F3C1188BFF36F8F7047EFF31180302383F33B
S31508002F4C118870474FF4004070474FF47A707047F9
S31508002F5C0121FFF7B9BF00000000000000000000C7
S31508002F6C0000000000000000000000000000000047
S31508002F7C00000000F8B500BFF8BC08BC9E467047B8
S31508002F8CF8B500BFF8BC08BC9E4670472F5573654C
S31508002F9C72732F646965676F736D6163626F6F6BAC
S31508002FAC2F2E73696C6162732F736C742F696E7331
S31508002FBC74616C6C732F636F6E616E2F702F7369EF
S31508002FCC6D706C65623532363939386634613464FD
S31508002FDC2F702F706C6174666F726D2F656D6C69CE
S31508002FEC622F7372632F656D5F636D752E63002F89
S31508002FFC55736572732F646965676F736D61636268
S3150800300C6F6F6B2F2E73696C6162732F736C742FD1
S3150800301C696E7374616C6C732F636F6E616E2F704F
S3150800302C2F73696D706C656235323639393866348A
S3150800303C6134642F702F706C6174666F726D2F65B6
S3150800304C6D6C69622F7372632F656D5F656D752E76
S3150800305C63002F55736572732F646965676F736D9B
S3150800306C6163626F6F6B2F2E73696C6162732F735A
S3150800307C6C742F696E7374616C6C732F636F6E61ED
S3150800308C6E2F702F73696D706C65623532363939EF
S3150800309C3866346134642F702F706C6174666F7285
S315080030AC6D2F656D6C69622F696E632F656D5F6236
S315080030BC75732E68002F55736572732F646965676F
S315080030CC6F736D6163626F6F6B2F2E73696C6162C0
S315080030DC732F736C742F696E7374616C6C732F63B6
S315080030EC6F6E616E2F702F73696D706C65623532F9
S315080030FC3639393866346134642F702F706C6174C4
S3150800310C666F726D2F736572766963652F636C6F64
S3150800311C636B5F6D616E616765722F7372632F7374
S3150800312C6C5F636C6F636B5F6D616E616765725F15
S3150800313C68616C5F73322E63002F55736572732F3B
S3150800314C646965676F736D6163626F6F6B2F2E733E
S3150800315C696C6162732F736C742F696E7374616C0E
S3150800316C6C732F636F6E616E2F702F73696D706C35
S3150800317C656235323639393866346134642F702FC6
S3150800318C706C6174666F726D2F73657276696365A0
S3150800319C2F636C6F636B5F6D616E616765722F73FE
S315080031AC72632F736C5F636C6F636B5F6D616E61BB
S315080031BC6765725F696E69745F68616C5F73322EDE
S315080031CC6300010310010109030000001E00000042
S315080031DC160000001A0000002F55736572732F64D1
S315080031EC6965676F736D6163626F6F6B2F2E736999
S315080031FC6C6162732F736C742F696E7374616C6C6B
S3150800320C732F636F6E616E2F702F73696D706C659B
S3150800321C6235323639393866346134642F702F701A
S3150800322C6C6174666F726D2F736572766963652F40
S3150800323C696E746572727570745F6D616E616765BF
S3150800324C722F7372632F736C5F696E746572727505
S3150800325C70745F6D616E616765725F636F727465BA
S3150800326C786D2E63006170705F696E69743A2053CD
S3150800327C79735469636B20686561727462656174ED
S3150800328C2061726D656420617420256C7520487AFE
S3150800329C0D0A0061707020686561727462656174EC
S315080032AC20256C7520617420256C75206D730D0AAC
S315080032BC000D0A73656E736F725F6D637520626FAE
S315080032CC6F74696E67207769746820257320646546
S315080032DC62756720636F6E736F6C650D0A00736C8D
S315080032EC5F6D61696E5F696E697420636F6D706C72
S315080032FC6574650D006170705F696E697420636F23
S3150800330C6D706C6574650D00525454005465726D7D
S3150800331C696E616C00000000000000545452205283
S3150800332C454747455300232D302B2000686C4C002D
S3150800333C656667454647003031323334353637389B
S3150800334C39414243444546003031323334353637F9
S3110800335C38396162636465660000000091
S30D08003368A4CEFF7F010000005E
S311080033707C330008A41C00201E0000008E
S3150800337CC0EA2101C0EA210100800000C0175302EF
S3150800338C201D00200000000003000000541300203C
S3150800339CC81C00200000000054130020BC13002099
S315080033AC24140020000000000000000000000000AB
S315080033BC00000000000000000000000000000000F3
S315080033CC00000000000000000000000000000000E3
S315080033DC00000000000000000000000000000000D3
S30D080033ECE9010008C10100080F
S705080002A54B
