S02B00002F55736572732F646965676F736D6163626F6F6B2F446F63756D656E74732F5079726F4E65742F6697
S3150800000000100020A5020008F3370008F33700089F
S31508000010F3370008F3370008F3370008F33700080A
S31508000020F3370008F3370008F3370008F3370008FA
S31508000030F3370008F3370008F3370008F3370008EA
S31508000040F3370008F3370008F3370008F3370008DA
S31508000050F3370008F3370008F3370008F3370008CA
S31508000060F3370008F3370008F3370008F3370008BA
S31508000070F3370008F3370008F3370008F3370008AA
S31508000080F3370008F3370008F3370008F33700089A
S31508000090F3370008F3370008F3370008F33700088A
S315080000A0F3370008F337000835040008150400087C
S315080000B0F3370008F3370008F3370008F33700086A
S315080000C0F3370008F3370008F3370008F33700085A
S315080000D0F3370008F3370008F3370008F33700084A
S315080000E0F3370008F3370008F3370008F33700083A
S315080000F0F3370008F3370008F3370008F33700082A
S31508000100F3370008F3370008F3370008F337000819
S31508000110F3370008F3370008F3370008F337000809
S31508000120F3370008F3370008F3370008F3370008F9
S31508000130F3370008F3370008F3370008F3370008E9
S31508000140F3370008F3370008F3370008F3370008D9
S31508000150F3370008F3370008F3370008F3370008C9
S31508000160F3370008F3370008F3370008F3370008B9
S31108000170F3370008F3370008F3370008DF
S3150800017C0348044B834202D0034B03B1184770471C
S3150800018C641300206413002000000000064B074986
S3150800019CC91A891048BF0131491003D0044B0BB159
S315080001AC01481847704700BF6413002064130020E9
S315080001BC0000000010B5064C237843B9FFF7D8FFAA
S315080001CC044B13B10448AFF300800123237010BD10
S315080001DCE412002000000000E848000808B5054BAA
S315080001EC1BB105490548AFF30080BDE80840FFF789
S315080001FCCDBF00BF0000000000100020E848000832
S3150800020CA3F5803A704700BF174B002B08BF134B5A
S3150800021C9D46FFF7F5FF00218B460F461348144AF7
S3150800022C121A03F04FFC0E4B002B00D098470D4BBF
S3150800023C002B00D098470020002104000D000D4823
S3150800024C002802D00C48AFF3008002F099FE20007B
S3150800025C290003F04EFB02F0C3FD00BF00000800A6
S3150800026C0000000000000000001000200010002014
S3150800027CEC12002000000000000000000348044AAD
S3150800028C0449121A921003F0AFBA00BF7C01000899
S3150800029C7C010008EC12002008B5154B83F30A887C
S315080002AC00F030F8FFF7EAFF124B13498B4212D3D2
S315080002BC0020124B12498B4218D3FFF7A5FF18687A
S315080002CC50F82240586840F8224001329868824219
S315080002DCF5D30C33EAE70022F8E71C6844F8220049
S315080002EC01325C68A242F8D30833E4E70022F8E747
S315080002FC00000020F0480008FC480008FC480008EC
S3150800030CFC4800084FF48041124B134A70B59A60AA
S3150800031CD3F88820114D42F47002C3F88820104A8D
S3150800032C05F5005491664FF0FF3222660D4A626657
S3150800033C0222C3F8D020BFF34F8FBFF36F8F4FF451
S3150800034C4036002001F004FC0020E66001F0CEFBEC
S3150800035C2E6170BD00ED00E000000008008000442E
S3150800036C009000507FFF7F03014B1860704700BF59
S3150800037CF01200202DE9F04104460C254FF0010837
S3150800038C124E0CB314F001000BD0002024F001041B
S3150800039C05FB00625768002FF3D09168C0B2B847C6
S315080003ACEFE72246013020284FEA520201D0D30744
S315080003BCF8D508FA00F20F2824EA0204E8D910380E
S315080003CC05FB0062B432E5E7BDE8F08118100020A1
S315080003DC08B50C4803F099FE1A2001F0A1FB28B1C8
S315080003EC1A2001F0B5FB1A2001F080FB1B2001F046
S315080003FC97FB28B11B2001F0ABFB1B2001F076FB09
S3150800040C002008BD9C45000808B501F065FA054BA7
S3150800041C00F0553020F0A040C3F82004BDE8084091
S3150800042CFFF7A8BF00E0035008B501F055FA054BD5
S3150800043C00F0AA3020F02040C3F82004BDE808409C
S3150800044CFFF798BF00E00350044BD3F88420D2067C
S3150800045CFBD4D3F88400C0F38110704700400050D9
S3150800046C38B5104B0546D3F800310C4603F0030398
S3150800047C022B0BD0032B0DD0012B0FD103F0A4FDAF
S3150800048C032305B1286004B1236038BD03F0EEFDE3
S3150800049C0923F6E703F09EFD0823F2E70123002063
S315080004ACEFE700BF0080005038B5104B0546D3F86F
S315080004BC40310C4603F00303022B0BD0032B0DD053
S315080004CC012B0FD103F016FE0A2305B1286004B1DF
S315080004DC236038BD03F0CAFD0923F6E703F00DFEC9
S315080004EC0B23F2E701230020EFE700BF0080005042
S315080004FC38B5104B0546D3F860310C4603F00303A8
S3150800050C022B0BD0032B0DD0012B0FD103F0F2FDD0
S3150800051C0A2305B1286004B1236038BD03F0A6FD93
S3150800052C0923F6E703F0E9FD0B23F2E70123002084
S3150800053CEFE700BF0080005038B5104B0546D3F8DE
S3150800054C40320C4603F00303022B0BD0032B0DD0C1
S3150800055C012B0FD103F0CEFD0A2305B1286004B197
S3150800056C236038BD03F082FD0923F6E703F0C5FDC9
S3150800057C0B23F2E701230020EFE700BF00800050B1
S3150800058C38B5124B0546D3F880300C4603F00303F6
S3150800059C022B0BD0032B0DD0012B0FD103F0DAFC59
S315080005AC0D2305B1286004B1236038BD03F016FD90
S315080005BC0723F6E703F0C8FC0623F2E7044841F2E2
S315080005CC142103F003F900231846EAE700800050CB
S315080005DC1842000838B51A4B0546D3F820010C46C4
S315080005EC00F00700062821D8DFE800F028040C14D0
S315080005FC10181C0003F0A8FC052305B1286004B1EB
S3150800060C236038BD03F0E0FC0323F6E703F0E6FCB1
S3150800061C0723F2E703F0D4FC0223EEE703F094FC7D
S3150800062C0623EAE703F0D0FC0423E6E7054841F283
S3150800063C912103F0CBF800231846DEE70123DCE70B
S3150800064C008000501842000838B5194B0546D3F8F7
S3150800065C28310C4603F00703013B052B20D8DFE8AD
S3150800066C03F003131B0F0B1703F06EFC052305B1E0
S3150800067C286004B1236038BD03F066FC0623F6E750
S3150800068C03F0ACFC0723F2E703F09EFC0323EEE72A
S3150800069C03F09AFC0423EAE703F092FC0223E6E74C
S315080006AC044841F2990103F091F800231846DEE755
S315080006BC0080005018420008002337B50193194BE7
S315080006CC0546D3F820320C4603F00703042B1FD833
S315080006DCDFE803F025030F141900002101A8FFF722
S315080006ECB3FF11230DB1019A2A6004B1236003B03C
S315080006FC30BD03F073FC07230190F3E703F0FAFC13
S3150800070C0A230190EEE703F0B1FC09230190E9E70F
S3150800071C41F25601044803F059F80023E2E7012395
S3150800072CE0E700BF0080005018420008F7B5002724
S3150800073C144B0197D3F88041064604F00304022CA7
S3150800074C0D4614D0032C0DD0012C14D1394601A812
S3150800075CFFF740FF0F240EB1019B336005B12C60E7
S3150800076C03B0F0BD03F03AFC07240190F3E703F05D
S3150800077C27FC0190EFE741F2E631034803F026F82F
S3150800078C3C46E8E7008000501842000838B5164B7E
S3150800079C0546D3F800020C4600F00700042819D8C1
S315080007ACDFE800F020030B0F130003F0A3FC0A2369
S315080007BC05B1286004B1236038BD03F057FC092342
S315080007CCF6E703F09AFC0B23F2E703F0E3FB0E23A0
S315080007DC800AEDE7054841F2A44102F0F7FF002331
S315080007EC1846E5E70123E3E70080005018420008A5
S315080007FC38B5164B0546D3F808020C4600F0070028
S3150800080C042819D8DFE800F020030B0F130003F0B7
S3150800081C71FC0A2305B1286004B1236038BD03F0C6
S3150800082C25FC0923F6E703F068FC0B23F2E703F033
S3150800083CB1FB0E23800AEDE7054841F2DC4102F0D4
S3150800084CC5FF00231846E5E70123E3E700800050BF
S3150800085C1842000838B5124B0546D3F850320C46E8
S3150800086C03F00303022B0FD0032B05D0012B0FD15A
S3150800087C03F040FC0A2302E003F03FFC0B2305B10E
S3150800088C286004B1236038BD03F0F0FB0923F6E7B2
S3150800089C044841F2C90102F099FF00231846EEE715
S315080008AC0080005018420008002337B50193184BF6
S315080008BC0546D3F860320C4603F00703013B032BBD
S315080008CC1FD8DFE803F0020E1914002101A8FFF760
S315080008DC81FE0F230DB1019A2A6004B1236003B07F
S315080008EC30BD002101A8FFF7DFFD1023F2E703F066
S315080008FC75FB07230190EDE703F062FB02230190D9
S3150800090CE8E741F2FD01034802F060FF0023E1E746
S3150800091C008000501842000873B500240F4B019450
S3150800092CD3F87032064603F00303012B0D4607D0A5
S3150800093C022B11D041F25B11094802F047FF04E083
S3150800094C214601A8FFF7B0FD10240EB1019B3360B8
S3150800095C05B12C6002B070BD1424F6E70080005077
S3150800096C1842000838B50F4B0546D3F890320C469A
S3150800097C03F00303012B09D0022B0BD103F02EFB3A
S3150800098C072305B1286004B1236038BD03F018FBB2
S3150800099C0223F6E7044841F2851102F017FF0023FB
S315080009AC1846EEE7008000501842000808B5334B8D
S315080009BC98424FD027D8324B984245D017D8314B4E
S315080009CC98423ED00AD838B12F4B984239D041F2CA
S315080009DCBB312E4802F0FAFE002034E02C4B98422C
S315080009EC2FD02C4B9842F2D12B4B586E2BE02B4B1D
S315080009FC98422CD003F5371303F5D8639842E6D101
S31508000A0C254B986F1FE0264B98422FD00CD8254BB8
S31508000A1C984223D0244B984224D0244B9842D6D1C2
S31508000A2C1D4BD3F884000EE0214B984222D003F5D7
S31508000A3C740303F510539842C9D1174BD3F8980091
S31508000A4C01E0154B986D08BD134B186FFBE7124B5D
S31508000A5C586FF8E7104BD3F88000F4E70E4BD3F831
S31508000A6C8800F0E70C4BD3F88C00ECE70A4BD3F86C
S31508000A7C9000E8E7084BD3F89400E4E780BA8C01B9
S31508000A8C405DC60080841E0040420F0018420008D4
S31508000A9C00093D00C0CF6A000080E00F0024F40076
S31508000AAC007E560380D54302006CDC020048E80140
S31508000ABC0090D003B0F5207F10B52ED009D8B0F52C
S31508000ACC007F24D003D868B1B0F5C07F0AD00024C3
S31508000ADC1BE0B0F5607FFAD1124BD3F88040C4F313
S31508000AEC011412E00F4B1C6F230B13F00E0FC4F3FB
S31508000AFC03340AD0072C08D00F2C06D0032C04D0AC
S31508000B0C4FF42271084802F061FE601C10BD054BBB
S31508000B1CD3F89040C4F30464F7E7024B1C6FC4F394
S31508000B2C8024F2E700800050184200084FF4803207
S31508000B3C38B5104B04469A6600200D46FFF7BAFFE7
S31508000B4C41F671320C4B6043DC69DA635A6804F47B
S31508000B5C803422F440125DB90849884294BF0020BB
S31508000B6C0120000502435A600CB10022DA6338BD35
S31508000B7C0349F2E70090005000000350005A620245
S31508000B8C002D310138B5430904460D460ED140F205
S31508000B9C35310D4802F01AFE002304F01F0485B106
S31508000BAC03F580530122A2401A6038BD012B04D0EC
S31508000BBC022B04D040F24331EBE7044BEDE7044B30
S31508000BCCEBE703F50053EDE7184200086480005084
S31508000BDC68800050002130B5B0F5807F85B004469A
S31508000BECCDE9001100F007816BD8002800F0DC80F5
S31508000BFCA0F12004602C75D8602C73D8DFE814F0AB
S31508000C0CD400E100D400E100F100F100F100F1009C
S31508000C1CF100E100F6007E00A1000C017E00E10067
S31508000C2CE100E1007200720072007200720072003C
S31508000C3C7200A100E100E100E10029011601E100C2
S31508000C4C72007200720072007200720072007200FA
S31508000C5C72007200720072001B01F100D400D400FD
S31508000C6CD40011017E007E002001BE009300C9004D
S31508000C7CC900720072007200720072007200720073
S31508000C8C72007200720072007200720072007200BA
S31508000C9C72007200720072007200720072007200AA
S31508000CAC720072007200720072007200720072009A
S31508000CBC720072007200720072007200720072008A
S31508000CCCCE00B0F5F06F00F0C4803FD8B0F5607F69
S31508000CDC00F082801DD8B0F5007F68D008D8B0F532
S31508000CECC07F61D040F2A4415C4802F06FFD58E029
S31508000CFCB0F5207F65D0B0F5407FF3D103F04AF903
S31508000D0C04464FF42070FFF7D5FEB4FBF0F46408E4
S31508000D1C60E0B0F5B06F69D00AD8B0F5806F60D0D6
S31508000D2CB0F5A06FDED100216846FFF7C5FC38E0A8
S31508000D3CB0F5D06F70D0B0F5E06F77D0B0F5C06F66
S31508000D4CD0D100216846FFF7AFFB2AE0B0F5206F3B
S31508000D5C76D00CD8B0F5106F63D0B0F5186F6AD092
S31508000D6CB0F5086FBED16846FFF77AFB19E0B0F507
S31508000D7C306F6AD007D8B0F5286FB3D10021684612
S31508000D8CFFF7CAFD0DE0B0F5386FDAD0B0F5406F55
S31508000D9CA8D100216846FFF757FC02E003F0DAF801
S31508000DAC0090009805B030BD03F0F4F8F8E703F0AE
S31508000DBCD1F805462046FFF77DFEB5FBF0F5009504
S31508000DCCEFE703F0E7F804464FF42070FFF772FEDE
S31508000DDCB4FBF0F40094E4E701A8FFF7D1FB019DFE
S31508000DECE8E700216846FFF7F5FBDAE700216846D5
S31508000DFCFFF79CFCD5E74FF0E02302911B695B07D4
S31508000E0C05D503F0C7F80290029B0093C9E703A91E
S31508000E1C02A8FFF749FBF7E700216846FFF7B6FC7F
S31508000E2CBFE700216846FFF7E3FCBAE700216846EE
S31508000E3CFFF782FBB5E700216846FFF70BFDB0E725
S31508000E4C00216846FFF730FDABE76846FFF78AFDD9
S31508000E5CA7E700216846FFF74BFBA2E718420008F4
S31508000E6C08B58020FFF7B6FE034B98429EBF4FF499
S31508000E7C8032024B1A6708BD005A620200A0005065
S31508000E8C1FB503460020B3F5607F019000F0FC8087
S31508000E9C7BD8582B68D8382B05D8243B092B49D92D
S31508000EAC40F28951D1E0393B1F2BF9D801A252F8EF
S31508000EBC23F000BF79100008AD0E0008AD0E00082F
S31508000ECCAD0E000883100008A7100008AD0E000828
S31508000EDCAD0E0008AD0E0008AD0E0008AD0E0008EC
S31508000EECAD0E0008AD0E0008AD0E0008AD0E0008DC
S31508000EFCAD0E0008AD0E0008AD0E0008AD0E0008CC
S31508000F0CB1100008BB0F0008AD0E0008AD0E0008A6
S31508000F1CAD0E0008FF0F0008AD0E0008AD0E000858
S31508000F2CBB100008C51000089D1000082110000809
S31508000F3C21100008092BB3D801A252F823F000BFE0
S31508000F4CBB0F0008BB0F0008BB0F0008BB0F00083F
S31508000F5CBB0F0008AD0E00085F100008AD0E0008A8
S31508000F6C79100008D90F0008802B58D0B3F5807F6C
S31508000F7C96D14FF0E02302901B695B0771D503F0FD
S31508000F8C09F80C230393039B55E0B3F5086F77D048
S31508000F9C21D8B3F5C06F69D00ED8B3F5A06F77D04A
S31508000FACB3F5B06F55D0B3F5806F7FF479AF0020E9
S31508000FBC01A9FFF70FFB50E0B3F5E06F6DD0B3F561
S31508000FCCF06F58D0B3F5D06F7FF46AAF002001A943
S31508000FDCFFF7DCFB41E0B3F5286F6DD00ED8B3F5FF
S31508000FEC186F5FD0B3F5206F61D0B3F5106F7FF42F
S31508000FFC57AF002001A9FFF7FBFB2EE0B3F5306FC6
S3150800100C5FD0FFF44DAFB3F5386F2FD0B3F5406F03
S3150800101C7FF446AF002001A9FFF716FB1DE02B4B0A
S3150800102C1B6F03F00703013B032B0CD8DFE803F017
S3150800103C09020507052301930FE00323FBE70823A1
S3150800104CF9E70223F7E740F2D641214802F0BEFB46
S3150800105C03E0002001A9FFF769FB019805B05DF8CC
S3150800106C04FB03A902A8FFF71FFA8CE7002001A9C5
S3150800107CFFF71AFAF1E7002001A9FFF739FAECE7AE
S3150800108C01A9FFF7EDF9E8E701A9FFF779FAE4E713
S3150800109C002001A9FFF710FBDFE7002001A9FFF7E5
S315080010AC4BFADAE7002001A9FFF7D4FBD5E70020B5
S315080010BC01A9FFF7F9FBD0E7002001A9FFF72CFCE3
S315080010CCCBE701A9FFF74EFCC7E700BF008000502D
S315080010DC184200084FF48032074B0849586E03F53E
S315080010EC80535A664B6A23F001034B62C3035CBFF9
S315080010FC034B5A66704700BF0080005000C007506B
S3150800110C00A00050B0F5207F38B577D00ED8B0F5D2
S3150800111C007F61D003D890B3B0F5C07F2FD04FF4C1
S3150800112C4671BDE838403D4802F050BBB0F5607FCB
S3150800113CF5D13B4A4C1ED2F8FC5015F080751EBFF3
S3150800114CD2F8FC3023F08073C2F8FC30032C04D997
S3150800115C40F2F721314802F039FB324AD2F8803096
S3150800116C23F0300343EA0413C2F8803035B12C4A15
S3150800117CD2F8FC3043F08073C2F8FC3038BD4C1EF4
S3150800118C012C0AD9102903D8274BCB40DB0704D4EA
S3150800119C40F2CB21214802F019FB02F032FB02F097
S315080011AC3EFB4FF48031214B1E4A1967136F23F40B
S315080011BC704343EA0433136702F0ECFE0446FFF768
S315080011CC43F9C0F10201204602F023FB00F048F86F
S315080011DCBDE83840FFF744BE4C1E1F2C04D94FF40B
S315080011EC43710E4802F0F2FA0E4AD2F8903023F008
S315080011FCF85343EA0463C2F89030BFE74C1E012C3F
S3150800120C04D940F21231054802F0E0FA054A136F88
S3150800121C23F4806343EA84231367AFE71842000874
S3150800122C00ED00E000800050100101000090005015
S3150800123C08B50121022000F099F94FF42070FFF748
S3150800124C39FC054B187002F0DCFA02F0E8FA4FF498
S3150800125C8032024B1A6708BDE51200200090005038
S3150800126C08B54FF4C070FFF7B5FCBDE80840044953
S3150800127C884294BF012102214FF42070FFF742BF28
S3150800128C80F0FA0238B5044602F084FE0546FFF7EC
S3150800129CDBF8C0F10201284602F0BBFA0121002056
S315080012AC00F0B8F92CB1FFF7DBFFBDE83840FFF7C3
S315080012BCD7BD034B4FF420701978FFF723FFF4E7DB
S315080012CCE51200202DE9F0410546FFF76FFB431E9A
S315080012DC0333044604D940F6E2113B4802F076FA89
S315080012EC4FF4C022394B5A6603F598335A68012ACB
S315080012FC04D137494A605A689207FCD48020FFF714
S3150800130CBFFD052807D102F07CFA02F088FA4FF4E3
S3150800131C80322E4B1A672F4B24F040749D4239D0DD
S3150800132C2D4B9D4239D002F00FFE8542064603D955
S3150800133C0121284600F06EF9284FFB6813F0060FBA
S3150800134CFBD1D7F80880BC60BB68634013F4F81F60
S3150800135C26D12846FFF708F88020FFF791FD0528C7
S3150800136C14D102F017FEA842044604D940F63B21D4
S3150800137C154802F02BFAFFF767F8C0F10201204670
S3150800138C02F047FAFFF76CFFFFF76AFDAE4213D27D
S3150800139CBDE8F08144F00074C5E744F08074C2E7F8
S315080013AC40F62A21084802F011FA8020C7F808806E
S315080013BCFFF766FD052805D0BDE8F04101210020A0
S315080013CC00F028B93546CCE71842000800900050C2
S315080013DC00E0015040420F0080841E0000000150BE
S315080013EC4E4B70B59842054673D041D8A3F5B70352
S315080013FCA3F55863984265D033D8494B494E984261
S3150800140C51D017D8002877D041F2DE11464802F0A1
S3150800141CDDF940F68671444802F0D8F94FF40022FB
S3150800142C404B5A663E4B9D4276D000243F4A954225
S3150800143C36D05DE03D4B984227D03D4B9842E3D1E0
S3150800144C3C4BD3F8A040621E033224F040744CD9AE
S3150800145C40F68671344802F0B9F94FF400237366E6
S3150800146CE4E7354B9842CFD1324BD3F8BC402CE04D
S3150800147C324B984231D0324B984232D0314B98424B
S3150800148CC2D12C4BD3F8C8401FE02A4BD3F8A04046
S3150800149C621E033224F04074DAD84FF400237366C4
S315080014AC44F0807424E0234BD3F8A040621E033228
S315080014BC24F040742AD84FF400237366234643F06D
S315080014CC007415E01B4BD3F8B840621E154E033258
S315080014DCBBE7184BD3F8C040F7E7164BD3F8CC400C
S315080014ECF3E7144BD3F8D040EFE74FF400237366B9
S315080014FC4FF0B442946070BD40F686710A4802F00B
S3150800150C65F94FF400232C467366F1E740F68671AD
S3150800151C054802F05BF9CEE70023D0E7C0EA2101C3
S3150800152C40420F00009000501842000880841E00AC
S3150800153C00093D000080E00F0024F4000048E80193
S3150800154C005A620280BA8C01024A536B0342FCD1E0
S3150800155C704700BF00400950034A0179D36E23F047
S3150800156C30030B43D366704700400050F8B5044669
S3150800157C244BD3F88420D006FBD4D3F88430C3F399
S3150800158C81139C423CD002F0E5FC012C05460BD19C
S3150800159C1D4B984204D940F29B711C4802F016F96F
S315080015AC0121284602F035F902F095FD4FF000723C
S315080015BC174B07465A66204602F036F94FF48063F5
S315080015CC104E621E93403367736E9A0103D4D6F895
S315080015DC84309B060AD5384602F078FD022C0FD1CA
S315080015EC2846BDE8F840002102F013B9D6F8843035
S315080015FC9906E9D540F2B371044802F0E7F8E3E737
S3150800160CF8BD00BF00400050005A6202874200082D
S3150800161C0060005010B50C4608B902F09BFC074B4D
S3150800162C21461B783BB1064B984204D80120BDE8ED
S3150800163C1040FFF79BBF0220F9E700BFE612002017
S3150800164C005A62024FF0004238B5244B244C5A66B5
S3150800165C4AF6CD33656C014605F00105236428BBB3
S3150800166C0120FFF771FF6368DB0715D51D4B586022
S3150800167C08461D4B226BD2070CD4984208D1072476
S3150800168C15B1174B194A1A6402F0CFF8204638BD23
S3150800169C0130EFE79842F2D00024F1E70132236BD0
S315080016AC13F0080305D08A42F8D1E8E700220E4960
S315080016BCF5E78A42E3D020210A4A91620121A2F574
S315080016CC805251600649084A886A800603D49342B8
S315080016DCD5D00133F8E79342DDE700BF0090005000
S315080016EC004009500060095040420F003254FFFF79
S315080016FC4FF0004238B5164B01465A664AF6CD33BA
S3150800170C144C154A656C236443780B205B0043F034
S3150800171C0103D363FFF718FF63688A7823F4F87319
S3150800172C43EA02136360CA784B7943EA0223A3603F
S3150800173C0A798B7943EA022323610878FFF782FF3B
S3150800174CEB0744BF054B236402F06FF8012038BD44
S3150800175C0090005000400950004000503254FFFFE2
S3150800176C0F2870B5044605D940F67461124802F084
S3150800177C2DF80F244FF00042104B11495D6E03F5FE
S3150800178C80535A664AF6CD334E6C80200B64FFF7AD
S3150800179CDBFE0B6A23F00F0323430B62F30744BFEC
S315080017AC084B0B64002DA2BF4FF00042064B5A663D
S315080017BC02F03BF870BD00BF87420008008000505D
S315080017CC004009503254FFFF00A00050032838B5DA
S315080017DC04460D4605D8094B33F81030CB40DB07C9
S315080017EC04D440F28541064801F0F0FF302301226B
S315080017FC5C43044BAA401A5138BD00BFE4430008A9
S3150800180CF642000840D00350032838B504460D4666
S3150800181C05D8094B33F81030CB40DB0704D440F21B
S3150800182C5641064801F0D2FF302301225C43044B93
S3150800183CAA401A5138BD00BFE4430008F642000816
S3150800184C40E0035003282DE9F04104460D4617469F
S3150800185C984605D81D4B33F81030CB40DB0704D41B
S3150800186C4FF4B0711A4801F0B1FF37B1294620463A
S3150800187CB8F1000F20D0FFF7A9FF0F21072D04EBB5
S3150800188C440688BFA5F108034FEA0616114895BF0A
S3150800189CAB009B0004360C3607FA03F29940304429
S315080018AC01F0C4FF7FB929462046B8F1000F06D0CF
S315080018BCBDE8F041FFF78ABFFFF7A6FFDDE7BDE8F5
S315080018CCF041FFF7A1BFBDE8F08100BFE443000873
S315080018DC7343000830C00350034BD3F82424D3F8C1
S315080018EC20041040704700BF00C0035010B5634871
S315080018FC02F00BFC20B14FF44E71614801F066FF03
S3150800190C6048FFF7DFFC6048FFF76AFD5F4802F0A6
S3150800191CFCFB20B140F2CB11594801F057FF5C4C47
S3150800192CFFF786FC236F002023F0070343F002031E
S3150800193C2367FFF7A7FC236F564923F4744343F434
S3150800194C80632367544BD3F8FC2012F080727CD149
S3150800195CD4F8803023F0030343F00103C4F8803035
S3150800196CC1F880204A4CD4F8203123F0070343F001
S3150800197C0103C4F82031D4F8283123F0070343F0C7
S3150800198C0103C4F82831D4F8803123F0030343F05B
S3150800199C0103C4F88031D4F8903223F0030343F0E2
S315080019AC0103C4F89032D4F8403123F0030343F012
S315080019BC0103C4F84031D4F8603123F0030343F033
S315080019CC0103C4F86031D4F8403223F0030343F022
S315080019DC0103C4F84032D4F8003223F0070343F06D
S315080019EC0103C4F80032D4F8083223F0070343F095
S315080019FC0103C4F80832D4F8503223F0030343F039
S31508001A0C0103C4F85032D4F8703223F0030343F0C0
S31508001A1C0103C4F87032D4F8203223F0070343F0DC
S31508001A2C0103C4F82032FFF755FB4FF0E022136987
S31508001A3C002043F004031361D4F8603223F0070343
S31508001A4C43F00103C4F8603210BDD3F8FC2022F031
S31508001A5C8072C3F8FC20D4F8802022F0030242F0EE
S31508001A6C0102C4F880200022C1F88020D3F8FC209B
S31508001A7C42F08072C3F8FC2074E700BF9445000856
S31508001A8CF844000800B4C404C0EA210198450008CB
S31508001A9C008000500090005000ED00E007B5094B9F
S31508001AAC18689A889B7900906846ADF804208DF8DA
S31508001ABC0630FFF71DFE0920FFF752FE002003B083
S31508001ACC5DF804FB8D45000813B50024064A6846E4
S31508001ADC536F43F00103536700948DF80440FFF7E6
S31508001AEC3BFD204602B010BD004000504F2810B5F3
S31508001AFC044608D801236109074A04F01F04A340C9
S31508001B0C42F8213010BD4FF49971044801F05EFE7D
S31508001B1C002CF7DBEEE700BF00E100E0A04500086B
S31508001B2C4E2810B5044604D940F23D11064801F07A
S31508001B3C4DFE064B621153F8220004F01F04E040D8
S31508001B4CC04300F0010010BDA045000800E100E00C
S31508001B5C002808DB01224309034900F01F008240D4
S31508001B6C603341F82320704700E100E038B500F1F6
S31508001B7C10035F2B04460D4604D94FF4F0710E483A
S31508001B8C01F024FE0F2D04D940F2E1110A4801F0A8
S31508001B9C1DFE60B20028ACBF00F16040074B4FEA4F
S31508001BAC0515EDB2ABBF00F5614000F00F0080F8EB
S31508001BBC00531D5438BD00BFA045000814ED00E0C5
S31508001BCC10B502F091FA0A4B1A786AB901226FF02D
S31508001BDC04041A7002F083FA204605210134FFF733
S31508001BECC5FF4F2CF8D110BDBDE8104002F077BAEE
S31508001BFCE71200200346054A0549106803448B4240
S31508001C0C8CBF4FF0FF301360704700BFFC120020EA
S31508001C1C0000042030B5224D8DB001A804AC00F0AC
S31508001C2CF9FD0FCD0FC495E80F0084E80F000121CC
S31508001C3C3A20FEF7A7FF01215720FEF7A3FF012341
S31508001C4C042219460220FFF7FDFD02220123104645
S31508001C5C0021FFF7F7FD134B134A144CC3F8FC2469
S31508001C6C0222C3F8F4241422C3F8E42400238DF8C2
S31508001C7C10304FF4E133204604A9069300F0F4FC27
S31508001C8C2046052100F0B6FA9DF80E209DF80F1097
S31508001C9C074801F05BF90DB0BDE8304000F0D0BE46
S31508001CAC5C46000800C003500200010000000A5000
S31508001CBC39460008B0F1B64F10B504460ED12E20A1
S31508001CCCFEF788FFA3680B49C3F30123A269CB5C13
S31508001CDC02FB03330833B0FBF3F010BD064B9842F6
S31508001CEC01D12F20ECE70548DE2101F06FFD00201D
S31508001CFCE8E700BFDF460008008006507C4600086F
S31508001D0CF8B506460F461546002A6AD003F00304B2
S31508001D1C836823F44073836002F0DDF9B26882EAC3
S31508001D2C042303F440735340B36002F0CFF937B978
S31508001D3CB6F1B64F0DD12E20FEF74CFF0746B36809
S31508001D4C9A0717D5012C1BD0022C27D064B9264B21
S31508001D5C17E0264B9E4201D12F20EDE740F22F11BA
S31508001D6C234801F033FDB3684FF4B271204801F0F3
S31508001D7C2DFD08E0012C13D0022CE7D11D4B00E0F9
S31508001D8C1D4B9F42F0D91D4B1B5D6B430AD140F28C
S31508001D9C7511BDE8F840164801F018BD184BF0E768
S31508001DAC184BEEE7A3EBC504013C3C44B4FBF3F437
S31508001DBC013C0CD540F27B110D4801F007FD4FF4A0
S31508001DCCBE710B4801F002FDB368B461F8BDB4F5F9
S31508001DDC007FF4D2B3689B07F7D5002C08BF012403
S31508001DECF3E740F21511D4E780841E0000800650F4
S31508001DFC7C460008002D3101404B4C00DF4600089C
S31508001E0C809FD50040548900B0F1B64F38B50446CA
S31508001E1C0D4607D0084B984204D040F29511074856
S31508001E2C01F0D4FC043425B104F580540123236055
S31508001E3C38BD04F50054F9E7008006507C460008C6
S31508001E4CB0F1B64F38B504460D4607D0124B98423A
S31508001E5C04D04FF4D571114801F0B8FC0023104A90
S31508001E6C236404F50053DA636A7804F108037AB933
S31508001E7C03F5805302221A602046D5E901122B7B02
S31508001E8CFFF73EFF20462978BDE83840FFF7BCBF70
S31508001E9C03F50053EEE700BF008006507C460008A9
S31508001EACFFFF1F00E023C360002383608361C361C7
S31508001EBC0362036443604369DB0506D4202300F5FB
S31508001ECC0050C363024BC3637047436AF3E700BF12
S31508001EDCFFFF1F00B0F1B64F70B50AD0824B98427F
S31508001EEC1DD0824840F2012101F070FC6FF003000E
S31508001EFC70BD7F4B9968C26B12F4C06F15D09105F3
S31508001F0C0FD5FD225A7009221A700022026493F921
S31508001F1C0110012900D15A7093F90100E8E7754BB5
S31508001F2CE8E75605EFD5FE22ECE71C78082C00F2FC
S31508001F3CD680DFE814F009001F0045005300700036
S31508001F4C7E009C00A700CB004C880A88E5060AD5BB
S31508001F5C120A02F0060242F0F002012119704263DD
S31508001F6CC1600120C4E702F0FE02A10748BF42F097
S31508001F7C0102F2E7160608D5802100F50052D16356
S31508001F8C4FF608721A80022318E05506E9D5402444
S31508001F9C00F50052D4634A88D40604D502221A7076
S31508001FAC0B784363DDE796076AD507221A701B7907
S31508001FBC01EBC3031B89012BD3D10823C360D0E7DC
S31508001FCC1506D9D45406CCD5402400F50052D46352
S31508001FDC4A88920754D503221A708CE74C880A88CB
S31508001FECE60643BF120A02F0060242F0F00202F0BD
S31508001FFCFE02650709D51C7942F0010201EBC40102
S3150800200C0989012904BF0821C1600421197001231B
S3150800201CC3604263A5E71406AED45206A1D5402484
S3150800202C00F50052D4634A88560729D507221A7038
S3150800203C97E71A795D8801EBC2042689AE420FD858
S3150800204C00240132D2B21A715C804C886507C2D45E
S3150800205CE40702D4012A7FF64EAF08221A7092E7DB
S3150800206C6268691C5980525D42630622DFE71606D0
S3150800207C82D455067FF575AF402400F50052D4631B
S3150800208C0522A9E794067FF56CAF20261A7900F588
S3150800209C005401EBC2010A89456AE6635C88A242D0
S315080020AC81BF4968661C5E800D5559888A42D4D909
S315080020BC0424012AC46004D0013A914201D10822B1
S315080020CCC2601A78092A3FF420AF4AE7D2057FF591
S315080020DC48AF4FF4807100F50052D16313E74FF601
S315080020EC09321A8011E700BF008006507C460008AA
S315080020FC801100208C110020B0F1B64F38B504467B
S3150800210C0D4607D121B940F26A31264801F05EFB2B
S3150800211C254B13E0254B98420DD040F269312148E6
S3150800212C01F054FB25B940F26A311E4801F04EFB0A
S3150800213C6FF0030038BD00292BD01D4B2269D00740
S3150800214C44BF2022E2606A88910702D529890029B2
S3150800215CEED0520702D52A8A002AE9D04FF48072AB
S3150800216C1A6000229D601A71C023E3606369DB055F
S3150800217C15D4202204F50053DA630E4A2046DA6396
S3150800218C4FF4FC6204F580531A64BDE83840FFF737
S3150800219CA1BE40F26A31034801F018FBCDE7636A29
S315080021ACE4E700BF7C46000880110020008006503A
S315080021BC8C110020FFFF1F0010B501F0A8FB20238F
S315080021CC41F2020203610023C360836042614FF44B
S315080021DCA02207498361426200F50052C36103627B
S315080021EC8362C36243630365D164036310BD00BF96
S315080021FCFF3F0D0338B5194B044698420D460BD0D4
S3150800220C174B984208D003F58043984204D040F205
S3150800221C6911144801F0DAFA25B92046BDE83840A8
S3150800222C01F075BB012204F580535A6040F6FF7124
S3150800223C204605F00F0201F066FBA263782101F037
S3150800224C62FB05F001036A0748BF43F00203A26C60
S3150800225C02F003029A42FAD138BD00BF0000015BB6
S3150800226C00000A50E3460008F8B505460C46164623
S3150800227C22B940F227216D4801F0A8FA6C4B9D4211
S3150800228C02D1BCB9562411E06A4B9D424FD003F5D6
S3150800229C80439D4247D040F22A21644801F096FAC1
S315080022AC44B940F27931614801F090FA2046FEF7BC
S315080022BC91FC0446AB68D90749D5B44204D24FF40D
S315080022CC0D715A4801F082FAB4FBF6F46F68013CBA
S315080022DCFF2C07F0010704D94FF40F71534801F08E
S315080022EC75FA24066FB32821284601F00CFBAB6C53
S315080022FC9A0720D1AB6CDB071FD4AE6C16F002061E
S3150800230C1DD140F24921494801F060FA284601F0EE
S3150800231CFEFA2B69314623F07F4323432B61BDE834
S3150800232CF840FFF767BF002CC4D15824BEE7002C31
S3150800233CC0D15724BAE70526E8E70926E6E70626B4
S3150800234CE4E72B6923F07F4323432B61F8BD6B68C5
S3150800235C012B04D04FF41771344801F037FAAB68E7
S3150800236C03F0E003402B42D009D893B1202B1AD0A6
S3150800237C40F29E21BDE8F8402C4801F027BA602BA4
S3150800238C42D0802BF4D106EB4603A34247D801234F
S3150800239C0DE0B6EB141F04D94FF42171234801F054
S315080023AC15FA102303E0B6EBD40F1AD80823734397
S315080023BC6401B4FBF3F4204F203CB7EBC40F4FEA8F
S315080023CCC40604D240F2A921184801F0FFF92846A0
S315080023DC3E40012101F097FA2E63BDE8F84001F062
S315080023EC92BA40F28921114801F0F0F9DEE706238A
S315080023FCB4FBF3F3B34201D30623D8E740F28E219C
S3150800240C0A4801F0E3F9F7E7B6EB940F01D8042371
S3150800241CCDE740F29321054801F0D8F9F7E74FF4D8
S3150800242C2671024801F0D2F9B1E700BFE34600086D
S3150800243C0000015B00000A50F8FF7F00F8B54368FE
S3150800244C04460D4616461BB140F6FF7101F05BFAC1
S3150800245C2046FFF7B1FEE9896B7B62690B43298A33
S3150800246C22F44C520B4322F00F0213436361A26809
S3150800247C297E2B7B22F080420B4322F0E202134387
S3150800248C6A6904F580511343AA68A360EB69002AAC
S3150800249C35D1A06840F00040A060002B34D166B35B
S315080024AC96F82030E3B101230B624B60204629785D
S315080024BCFFF7A0FEA36CDB4313F4405FFAD1F8BD1B
S315080024CC96F8203063B101230B624B60204669688D
S315080024DCFFF7CAFEEAE796F82030002B40F0B080EA
S315080024EC96F82230E06996F8216020F0090033430B
S315080024FC034343F00103CB617EE00123D5E71BB907
S3150800250C002EDDD10123E0E7987A1F7A4004D4F82F
S3150800251C08C040EA87504C4F0CEA070738439F8897
S3150800252C07F4C04738435F7840EA87005F7B40EA88
S3150800253CC7009F7B40EA07109F7840EA8720A06077
S3150800254CD4F80CC0D3E904073843404F0CEA070704
S3150800255C38439F7940EA8720DF7940EA4720E060D4
S3150800256C18783B4F012812D1E06840F00400E0606F
S3150800257CBC424FD0374884424ED000F58040844246
S3150800258C0CBF02204FF0FF30334F400113E00328F5
S3150800259C38D1E06840F00400E060BC4236D02D48E3
S315080025AC844235D000F5804084420CBF02204FF09F
S315080025BCFF302A4F4001074402207860587A886217
S315080025CC18B1E06840F40060E060D87A58B1E06869
S315080025DC40F40040E0601E4884421FD1187B204F0F
S315080025EC00F00F007866606ADB7B20F0030003437B
S315080025FC6362002E7FF46FAF01234B60002A3FF411
S3150800260C55AF63E702380128C7D9B1E70020D0E7F0
S3150800261C0120CEE70020B7E70120B5E70D48844234
S3150800262C05D1187B0E4F00F00F003867DBE70D4815
S3150800263C844201BF187B0A4F00F00F00F867D2E7F7
S3150800264C01230B62D8E700BFE39BBDFFFFF9F087B8
S3150800265C0000015B00000A50C0E40350C0D40350CC
S3150800266C0090035000400A5038B5154B0446984262
S3150800267C0D460AD0134B984207D003F5804398426F
S3150800268C03D07021104801F0A1F81DB972210E482B
S3150800269C01F09CF82B7B802B03D176210A4801F09C
S315080026AC95F86B7B032B03D97921074801F08EF833
S315080026BC29462046BDE838400022FFF7BFBE00BFBA
S315080026CC0000015B00000A50E3460008034BD3F8F0
S315080026DCD43023FA00F000F00100704700C0035014
S315080026EC2DE9FF47E846384B04460FCB88E80F0020
S315080026FC01213A20FEF746FA01212E20FEF742FA6E
S3150800270C0220FFF7E3FFB0F1000A4FF0030018BFF1
S3150800271C4FF0010AFFF7DAFF0A22B0F100094FF071
S3150800272C01034FF002014FF0030018BF4FF00109E7
S3150800273CFFF788F80321012308460A22FFF782F8D7
S3150800274C092704202149224DC5F8D00001F0F9F8D3
S3150800275C204BC3F8D00001F0F4F8013FF4D1022065
S3150800276CFFF7B4FF06460320FFF7B0FF1A4BC1F874
S3150800277C3875C1F83C354FF00313C1F840350323BF
S3150800278C0546C1F838354FF0B640FFF78BFB134BAF
S3150800279C41464FF0B6400293FFF752FB4FF0B64056
S315080027ACFFF788FA003E18BF0126003D18BF012521
S315080027BC6060204684F800A084F80190A670E57045
S315080027CC04B0BDE8F08700BF4C47000800C00350B2
S315080027DC00E0035000D0035003000200A08601005D
S315080027EC22B90A460146074800F0B0BB042A96BF30
S315080027FC054B064B53F822300A460146044800F0AE
S3150800280CA5BB00BF65470008604800085C47000880
S3150800281C884700082DE9F04F87B0044603A8FFF750
S3150800282C5FFF9DF80CB09DF80DA09DF80E909DF8D5
S3150800283C0F8052465946049F224800F087FB4246B1
S3150800284C4946214800F082FB3946204800F07EFBB9
S3150800285C692001F081F80646B0FA80F5024669212E
S3150800286C1B48FFF7BDFF012E4FEA55150BD903A8D8
S3150800287CFFF736FF9DF80CB09DF80DA09DF80E904D
S3150800288C9DF80F80049F762001F066F876210246A3
S3150800289C01901048FFF7A4FF019A20466272B2FA1B
S315080028AC82F2520984F800B084F801A084F80290E8
S315080028BC84F8038067602672A572E27207B0BDE8D9
S315080028CCF08F00BFB5470008D6470008FF47000839
S315080028DC2F48000835480008064AD2F8FC3043F061
S315080028EC8073C2F8FC30A2F55D42136843F001030D
S315080028FC1360704700ED00E00F4910B5D1F8FC30B5
S3150800290CDC0116D54FF06043D3F8802ED20710D5CC
S3150800291C0A4AD1F8FC4044F08074C1F8FC40D3F85C
S3150800292C004E44F00104C3F8004E1C6814B9013A71
S3150800293CEFD110BD1870FCE700ED00E0FFFF0F00AB
S3150800294C07B501213A20FEF71DF900230422184683
S3150800295C0321FEF777FF3E22304B0520C3F84424AB
S3150800296C0122A3F58053C3F844242D4A01A9D2F8B1
S3150800297C803023F0330343F00103C2F88030002380
S3150800298C019301F0BDFB002844D10198254A012189
S3150800299CD2F8FC3043F08073C2F8FC30FFF79CFF8A
S315080029AC214A00F5D52303F2FC43934286BF013234
S315080029BCB3FBF2F30123B0FBF3F01C4A013B1060A6
S315080029CC1B4A4FF0FF3013610223C2F8F0304FF464
S315080029DC8073C2F804334FF06043164AC3F8B02F1D
S315080029EC154AC3F8400EC3F8802EC3F8001ED3F858
S315080029FC002E42F48072C3F8002E83F82000D3F818
S31508002A0C002E22F48072C3F8002E0C4B197003B0FA
S31508002A1C5DF804FB01F09EFAB8E700BF00E003502E
S31508002A2C0080005000ED00E0F7590D0098110020C9
S31508002A3C000004E055CEACC519000100E8120020D0
S31508002A4C174B07B51B783BB3164B174A1B68174928
S31508002A5C00931748002300F079FA6421FFF73CFF2E
S31508002A6C144B1868A0FB0101B0F57A7F71F10003CD
S31508002A7C10D34FF47A72002300F022F80E4A5168EC
S31508002A8C53685B1A8342FBD30C4803B05DF804EB1E
S31508002A9C00F06EBA0120F1E703B05DF804FB00BF45
S31508002AACE81200209811002074480008784800089D
S31508002ABC81480008EC120020001000E0A448000829
S31508002ACC53B94AB9002908BF00281CBF4FF0FF317B
S31508002ADC4FF0FF3000F082B9ADF1080C6DE904CE69
S31508002AEC00F006F8DDF804E0DDE9022304B07047CF
S31508002AFC2DE9F04F099D0C46002B4DD18A420F4605
S31508002B0C84469646B2FA82F360D94BB102FA03FEB2
S31508002B1CC3F120029F4000FA03FC20FA02F2174385
S31508002B2C4FEA1E461FFA8EF44FEA1C42B7FBF6F123
S31508002B3C06FB117701FB04F042EA0742904208D9DA
S31508002B4C1EEB020201F1FF3702D2904200F23181EC
S31508002B5C3946121A1FFA8CFCB2FBF6F006FB102249
S31508002B6C00FB04F44CEA024C644508D91EEB0C0C29
S31508002B7C00F1FF3202D2644500F21E81104640EA8B
S31508002B8C0140ACEB040C002125B12CFA03F300220E
S31508002B9CC5E90032BDE8F08F8B4205D90DB1C5E900
S31508002BAC000100210846F5E7B3FA83F100294DD157
S31508002BBCA342C0F0F380904280F0F080064623468C
S31508002BCC0846002DE6D0C5E90063E3E7002B40F084
S31508002BDCA3808A1A4FEA1E471FFA8EF60121B2FB0A
S31508002BECF7F407FB14204FEA1C4242EA004206FBA4
S31508002BFC04F090420FD91EEB020204F1FF382CBFE9
S31508002C0C4FF001094FF00009904203D9B9F1000FB2
S31508002C1C00F0CC804446121A1FFA8CFCB2FBF7F073
S31508002C2C07FB102200FB06F64CEA024C664508D94F
S31508002C3C1EEB0C0C00F1FF3202D2664500F2B38093
S31508002C4C1046ACEB060C40EA04409DE7C1F12006A1
S31508002C5C8B4004FA01FE22FA06F720FA06FCF44029
S31508002C6C8A401F434EEA0C0300FA01FE4FEA174846
S31508002C7C4FEA13491FFA87FCB4FBF8F008FB10441B
S31508002C8C49EA044400FB0CF9A1450ED93C1900F19C
S31508002C9CFF3A2CBF4FF0010B4FF0000BA14503D99F
S31508002CACBBF1000F00F08B805046A4EB09041FFA09
S31508002CBC83F9B4FBF8F308FB134403FB0CFC49EA51
S31508002CCC0444A44506D93C1903F1FF3801D2A4459E
S31508002CDC7BD8434643EA0040A4EB0C04A0FB0298BD
S31508002CEC4445CC46434602D306D1CE4504D20138D8
S31508002CFCB9EB020C68EB0703002D6CD0BEEB0C028B
S31508002D0C64EB030422FA01F304FA06F6CC4000211C
S31508002D1C1E43C5E900643DE702FA03FEC3F1200130
S31508002D2C04FA03F200FA03FCCC404FEA1E4720FAD9
S31508002D3C01F11FFA8EF6B4FBF7F00A4307FB1044B1
S31508002D4C110C41EA044100FB06F48C420ED91EEB29
S31508002D5C010100F1FF382CBF4FF001094FF00009B3
S31508002D6C8C4202D9B9F1000F2CD04046091B92B2FD
S31508002D7CB1FBF7F407FB141142EA014204FB06F116
S31508002D8C914207D91EEB020204F1FF3801D2914297
S31508002D9C1ED84446521A44EA004120E7861A64EBC8
S31508002DAC030301200DE7F44402384AE7023C724457
S31508002DBC31E702397244CCE6F4440238DFE60238CD
S31508002DCC3C4472E702387144D0E7023B3C4481E745
S31508002DDC023C7244DEE72946DCE600BF704700BFBA
S31508002DEC08B5064B044613B10021AFF30080044B1B
S31508002DFC1B6803B19847204600F0ECFC0000000065
S31508002E0CD4120020002310B504468360818119462C
S31508002E1C4366C28108228361C0E90033C0E90433E2
S31508002E2C5C3000F04FFE0D4B246263620C4BA362C0
S31508002E3C0C4BE3620C4B23630C4B9C4206D003F100
S31508002E4C6802944202D0D0339C4205D104F1580052
S31508002E5CBDE8104000F03EBE10BD00BF733D000833
S31508002E6C953D0008CD3D0008F13D00089C11002059
S31508002E7C024A0349034800F0B2BD00BF0013002004
S31508002E8C233D00081013002041680C4B994210B5DD
S31508002E9C044601D000F03FFFA168094B994202D0C5
S31508002EAC204600F038FFE168064B994204D02046CC
S31508002EBCBDE8104000F02FBF10BD00BF9C110020CC
S31508002ECC041200206C12002010B50B4B04210B4C7D
S31508002EDC0B4A20461A600022FFF794FF04F168009B
S31508002EEC01220921FFF78EFF04F1D00002221221DC
S31508002EFCBDE81040FFF786BFD41200209C110020B5
S31508002F0C7D2E0008014800F0E6BD00BFEA1200203D
S31508002F1C014800F0E1BD00BFEA12002010B50446D6
S31508002F2CFFF7F0FF236A1BB1BDE81040FFF7F0BFAF
S31508002F3C044B2362044B1B68002BF5D1FFF7C4FF27
S31508002F4CF2E700BF952E0008D41200200FB407B57F
S31508002F5C064904AB086853F8042B8168019300F002
S31508002F6C33F803B05DF804EB04B070470C1300207B
S31508002F7C024B0146186800F050BD00BF0C13002028
S31508002F8C70B50D4D00260D4C641BA410A64209D134
S31508002F9C0B4D00260B4C01F02DF9641BA410A64210
S31508002FAC05D170BD55F8043B01369847EEE755F840
S31508002FBC043B01369847F2E75C1300205C130020AB
S31508002FCC5C130020601300202DE9F04F0D469DB0D0
S31508002FDC14469846064618B1036A0BB9FFF79EFFC6
S31508002FEC6B6ED90705D4AB899A0502D4A86D00F087
S31508002FFC72FDAB891B0701D52B699BB9294630464F
S3150800300C00F0CCFA70B16B6EDC0704D54FF0FF30CC
S3150800301C1DB0BDE8F08FAB899805F7D4A86D00F004
S3150800302C5BFDF3E70023CDF80C804FF00109DFF8C0
S3150800303CB481099320238DF8293030238DF82A3052
S3150800304C23469A4613F8012B0AB1252AF9D1BAEB6D
S3150800305C040B0BD05B4622462946304600F054FD3D
S3150800306C013000F0A780099A5A4409929AF8003060
S3150800307C002B00F09F8000234FF0FF320AF1010A63
S3150800308C049307938DF853301A93CDE905235446C8
S3150800309C0522544814F8011B00F047FF049AD8B9C6
S315080030ACD10644BF20238DF85330130744BF2B2376
S315080030BC8DF853309AF800302A2B15D0079A5446B7
S315080030CC00204FF00A0C214611F8013B303B092B26
S315080030DC4BD9B0B1079214E0A0EB0803A24609FA43
S315080030EC03F313430493D2E7039B191D1B68002BA8
S315080030FC0391BBBF5B4242F0020207930793B8BF2A
S3150800310C049223782E2B0AD163782A2B32D1039B6F
S3150800311C02341A1D1B6843EAE37303920593DFF81E
S3150800312CD4A003222178504600F0FFFE38B1A0EB5C
S3150800313C0A004022049B013482401343049314F87A
S3150800314C011B062228488DF8281000F0EEFE0028F0
S3150800315C3FD0264B1BBB039B073323F007030833CF
S3150800316C0393099B3B4409936AE70CFB02320C4612
S3150800317C0120A8E7002301344FF00A0C19460593E1
S3150800318C204610F8012B303A092A03D9002BC6D051
S3150800319C0591C4E70CFB012104460123F0E703ABB8
S315080031AC2A4604A930460093114BAFF30080074614
S315080031BC781CD6D16B6ED90705D4AB899A0502D47F
S315080031CCA86D00F089FCAB895B063FF51FAF099823
S315080031DC1EE703AB2A4604A930460093044B00F0BD
S315080031ECA5F8E4E7B3480008BD480008000000004D
S315080031FC153B0008B948000870B50F4E0C46054635
S3150800320C316811B900F076FA30602146284600F08C
S3150800321C71FA431C03D14FF0FF34204670BDC41C11
S3150800322C24F00304A042F8D0211A284600F062FACA
S3150800323C0130F2D1EFE700BFD81200202DE9F0419A
S3150800324CCD1C064625F0030508350C2D38BF0C2574
S3150800325C002D01DBA94204D90C2333600020BDE8FC
S3150800326CF081314F00F08EF93B681C4644BB294669
S3150800327C3046FFF7C1FF431C044650D13C68214633
S3150800328C002941D1002C44D02368304604EB0308AE
S3150800329C00F030FA80453CD1216830466D1A294633
S315080032ACFFF7AAFF013034D023682B4423603B6810
S315080032BC002B36D05A68A24229D100225A600EE059
S315080032CC2268521B1DD40B2A16D96119A3422560F4
S315080032DC18BF5960636808BF396062514B60304645
S315080032EC00F056F904F10B00231D20F00700C21A52
S315080032FCB5D01B1AA350B2E7A3426268DED13A6076
S3150800330CEDE723466468B1E70C464968B8E7134607
S3150800331CCEE70C233046336000F03AF99EE7056099
S3150800332CDDE75B60FFDE00BFDC1200202DE9FF47FE
S3150800333C0F7E914680460C46782F9A460C9E01F1D4
S3150800334C430207D8622F0AD8002F00F0DD80582FC9
S3150800335C00F0C38004F1420684F842703AE0A7F103
S3150800336C6303152BF6D801A151F823F0D1330008C5
S3150800337CE53300086133000861330008613300083F
S3150800338C61330008E533000861330008613300082F
S3150800339C6133000861330008FB34000873340008F5
S315080033ACB334000861330008613300081D35000882
S315080033BC6133000873340008613300086133000870
S315080033CCBB34000833681A1D1B68326004F14206C8
S315080033DC84F842300123A8E031682368081D306060
S315080033EC1E0601D50D6803E05D06FBD5B1F9005044
S315080033FC002D616878DA2D200029A16084F8430035
S3150800340C2DDA6D425D480A231646B5FBF3F103FB2C
S3150800341C1157C75D06F8017D2F460D46BB42F4D9F8
S3150800342C082B0BD12368DF0708D5236961689942F5
S3150800343CDEBF302306F8013C06F1FF36921B2261EB
S3150800344C4B4603AA21464046CDF800A000F06EFB79
S3150800345C01306FD14FF0FF3004B0BDE8F08723F090
S3150800346C04032360CDE721683368080653F8045B28
S3150800347C02D4490648BFADB26F2F33603F4814BF1C
S3150800348C0A230823002184F843106668002EA660D8
S3150800349CBADB216821F004012160002DB4D1002E7D
S315080034ACB2D11646BCE7236843F02003236078277D
S315080034BC3348236884F845701F06316851F8045B55
S315080034CC02D45F0648BFADB23160D90744BF43F09A
S315080034DC200323601DB11023D4E72848E9E72368A5
S315080034EC23F020032360F6E724480A23CDE7336844
S315080034FC2568181D616930602E061B6801D5196090
S3150800350C02E06806FBD5198000231646236197E767
S3150800351C336800211A1D32601E686268304600F056
S3150800352C04FD08B1801B606063682361002384F87E
S3150800353C433085E72369324649464046D047013031
S3150800354C88D023689B0714D4E068039B9842B8BFBD
S3150800355C184681E70123324649464046D047013092
S3150800356C3FF478AF0135E36803995B1AAB42F1DC9B
S3150800357CEAE7002504F11906F5E700BFC448000878
S3150800358CD5480008014800F0A6BA00BFE912002089
S3150800359C014800F0A1BA00BFE912002038B5294B42
S315080035AC05460C46186818B1036A0BB9FFF7B6FC42
S315080035BCB4F90C30190722D4DA0607D409222A6082
S315080035CC43F040034FF0FF30A38133E0580712D580
S315080035DC616B41B104F14403994202D0284600F0CC
S315080035ECABF800236363A38923F02403A381002388
S315080035FC636023692360A38943F00803A3812369C5
S3150800360C4BB9A38903F42073B3F5007F03D0214685
S3150800361C284600F04EFCB4F90C3013F001020AD01F
S3150800362C0022A26062695242A261226942B913F071
S3150800363C8000C5D138BD990758BF6269A260F4E706
S3150800364C0020F7E70C13002038B50023054D044677
S3150800365C08462B6000F0BBF8431C02D12B6803B15B
S3150800366C236038BDE012002038B50023064D044609
S3150800367C084611462B6000F0AEF8431C02D12B68A5
S3150800368C03B1236038BD00BFE012002038B5002313
S3150800369C054D044608462B6000F09FF8431C02D1E2
S315080036AC2B6803B1236038BDE012002038B50446F8
S315080036BC064D0846114600222A601A4600F08FF875
S315080036CC431C02D12B6803B1236038BDE0120020DD
S315080036DC38B50446064D0846114600222A601A4695
S315080036EC00F07FF8431C02D12B6803B1236038BD68
S315080036FCE012002038B50023054D044608462B6019
S3150800370CFEF778FA431C02D12B6803B1236038BD47
S3150800371CE012002038B50446064D0846114600222C
S3150800372C2A601A4600F046F9431C02D12B6803B1ED
S3150800373C236038BDE012002038B50546002941D073
S3150800374C51F8043C0C1F002BB8BFE418FFF71AFFFE
S3150800375C1D4A136833B9636014602846BDE83840BF
S3150800376CFFF716BFA34208D9206821188B4201BF60
S3150800377C19685B6809182160EDE71A465B680BB196
S3150800378CA342FAD911685018A0420BD120680144FB
S3150800379C501811608342E0D118685B68084453607E
S315080037AC1060DAE702D90C232B60D6E720682118BB
S315080037BC8B4202BF19685B680918636008BF2160F1
S315080037CC5460CAE738BD00BFDC120020FEE74FF094
S315080037DCFF307047FEE70020704701207047002035
S315080037EC704700207047FEE700239A4200D17047C5
S315080037FC10B550F8234041F8234001339A42F8D1CA
S3150800380C10BD08B500F0D8FBBDE808400021FDF74F
S3150800381C8DB90029CCBF01210021FDF787B90221FA
S3150800382C4FF42070FDF76EBC7047704770B50546AF
S3150800383C14460E4600F04FFC2B685C4034405C4046
S3150800384C2C60BDE8704000F041BC00F000B80020C8
S3150800385C7047FEF74BB8704708B500F03EF800F015
S3150800386C3FF800F03FF800F03EF8BDE8084000F0DD
S3150800387C3BB808B5FFF7EFFFFEF7A2F9FEF70EF90E
S3150800388CFFF7E7FFFEF720F900F020F800F007F83D
S3150800389C00F025F8BDE80840FFF7DEBF704708B50D
S315080038AC00F017F800F016F800F015F800F014F808
S315080038BCFFF7F4FF08BD08B500F017F800F016F886
S315080038CC00F015F8BDE8084000F012B8FFF738B854
S315080038DC70477047704770477047FFF7B6BF704719
S315080038ECFCF776BD7047704770477047704770474E
S315080038FC704708B5FFF7BDFFFEF78CF9FFF7DBFF3E
S3150800390CFFF7E6FFFAE7436D0B42FCD1704708B5A3
S3150800391C4368DA0714D58368DB0702D50369D90728
S3150800392C07D50A2350218363FFF7EDFF836C9A07AB
S3150800393CFCD1012200F500535A6043689B07FCD45E
S3150800394C08BD4FF4807382B00193019B5A1E0192F5
S3150800395C002BFAD102B07047002310B586B0CDE91A
S3150800396C033305938DF8033001234000ADF80400AA
S3150800397CADF806304FF0B6400DF1030301A90293DA
S3150800398C42F21174FEF7B8FB01280CD1013C02D1A6
S3150800399C042006B010BD4FF0B640FEF79BFAF3E7CD
S315080039AC4042C0B2F5E7C0B2C31CDBB2032BF7D951
S315080039BC0520EEE770B515464E1EC1F10104A31994
S315080039CC9D4201DC284670BD73780A2B02D10D2066
S315080039DCFEF792FF16F8010FFEF78EFFEFE72DE9BB
S315080039ECF8430746884614460026D4E90195B9F1EA
S315080039FC010905D52468002CF7D13046BDE8F883B3
S31508003A0CAB89012B07D9B5F90E30013303D02946FA
S31508003A1C3846C04706436835E9E7036A70B5054674
S31508003A2C0E4684680BB9FFF779FA636EDB0705D483
S31508003A3CA389980502D4A06D00F04DF8A38919073F
S31508003A4C02D52369002B35D121462846FFF7A6FD5A
S31508003A5C80B34FF0FF35636EDA0705D4A3899B054F
S31508003A6C02D4A06D00F038F8284670BD002B15DB83
S31508003A7C23685A1C22601970A36816F8011F013BAB
S31508003A8CA3600029F2D1002B16DA22460A21284611
S31508003A9C00F0ACF90130DCD00A25DCE7A2699A42C1
S31508003AAC01DC0A29E4D12246284600F09FF90130A8
S31508003ABCE2D1CEE7013EDFE723685A1C22600A22D0
S31508003ACC1A70E9E702440346934200D1704703F89B
S31508003ADC011BF9E77047704770479368013B002B49
S31508003AEC936010B408DA9469A34201DB0A2903D15E
S31508003AFC5DF8044B00F07AB91368581C1060084638
S31508003B0C19705DF8044B7047F8B506460F4614460F
S31508003B1CD518AC4201D1002007E03A4614F8011B2F
S31508003B2C3046FFF7DAFF431CF3D1F8BD2DE9F04711
S31508003B3C164698468A6807460B690C46DDF82090A7
S31508003B4C9342B8BF1346336091F843200AB1013348
S31508003B5C33602368990642BF33680233336025689D
S31508003B6C15F0060506D104F1190AE36832689B1AA2
S31508003B7CAB422BDC94F843302268003B18BF012378
S31508003B8C920630D404F1430241463846C847013000
S31508003B9C23D023681A3454F80A2C03F00603042B92
S31508003BAC0ABF54F80E5C002533684FF0000608BFB0
S31508003BBCED1A54F8123C08BF25EAE5759342C4BFC2
S31508003BCC9B1AED18B5421AD1002008E0012352467B
S31508003BDC41463846C847013003D14FF0FF30BDE89F
S31508003BECF0870135C1E7E1185A1C3020023322440C
S31508003BFC81F8430094F8451082F84310C2E7012374
S31508003C0C224641463846C8470130E6D00136D9E740
S31508003C1CB1F90C202DE9F041170705460C4656D488
S31508003C2C4B68002B02DC0B6C002B3DDDE66A002E84
S31508003C3C3AD0002312F480522F68216A2B6025D0C3
S31508003C4C626DA389580705D56368D21A636B0BB1E5
S31508003C5C236CD21A216A0023E66A2846B047411C0F
S31508003C6C24D00023636023692360A389DA0400D572
S31508003C7C6065616B2F60B9B104F14403994202D0B7
S31508003C8C2846FFF759FD002363630DE001232846F8
S31508003C9CB047461C0246D4D12B68002BD1D01D2B1D
S31508003CAC01D0162B2AD12F6000202EE02A68B4F9F1
S31508003CBC0C3042B11D2A01D0162A21D1002363608B
S31508003CCC23692360D5E7626022692260CEE70F6913
S31508003CDC002FE9D093070E680F600CBF4B690023C1
S31508003CECA6EB07088B60B8F1000FDDDD43463A46B4
S31508003CFC216A2846A66AB047002808DCB4F90C30B5
S31508003D0C43F040034FF0FF30A381BDE8F081074430
S31508003D1CA8EB0008E7E738B50B6905460C4613B956
S31508003D2C0025284638BD18B1036A0BB9FFF7F6F813
S31508003D3CB4F90C30002BF3D0626ED00704D4990575
S31508003D4C02D4A06DFFF7C7FE28462146FFF760FF91
S31508003D5C636E0546DA07E4D4A3899B05E1D4A06D06
S31508003D6CFFF7BAFEDDE710B50C46B1F90E10FFF7F2
S31508003D7CAFFC0028ABBF636DA3891B1823F48053D3
S31508003D8CACBF6365A38110BD2DE9F0411F468B8935
S31508003D9C05460C46DB05164605D502230022B1F965
S31508003DAC0E10FFF783FCA3893246B4F90E10284689
S31508003DBC23F48053A3813B46BDE8F041FFF7AABC28
S31508003DCC10B50C46B1F90E10FFF770FC431CA3890D
S31508003DDC15BF606523F4805343F48053A38118BF41
S31508003DECA38110BDB1F90E10FFF72EBCF8B50E461F
S31508003DFC1446054618B1036A0BB9FFF78FF8A36981
S31508003E0CA360A3891A0701D5236943B92146284615
S31508003E1CFFF7C4FB18B14FF0FF373846F8BD2368D7
S31508003E2CF6B222693746981A6369834205DC21463D
S31508003E3C2846FFF770FF0028EDD1A368013BA36065
S31508003E4C23685A1C22601E70431C62699A4204D06D
S31508003E5CA389DB07E1D50A2EDFD121462846FFF7D1
S31508003E6C5AFF0028D9D0D6E770B50C46B1F90E1012
S31508003E7C96B0154600291E460CDAA389002113F0C4
S31508003E8C800F14BF40234FF48063002031602B60F1
S31508003E9C16B070BD6A46FFF7E7FB0028EDDB019903
S31508003EAC01F47041A1F50053594259414FF480630E
S31508003EBCEBE78B89F7B59D0706460C4607D504F143
S31508003ECC4703236023610123636103B0F0BD01AB93
S31508003EDC6A46FFF7C9FF009F054630463946FFF785
S31508003EECADF948B9B4F90C309A05EED423F00303AE
S31508003EFC43F00203A381E2E7A389206043F0800321
S31508003F0CA381019BC4E904075BB1B4F90E103046D2
S31508003F1CFFF7BCFB28B1A38923F0030343F0010385
S31508003F2CA381A3891D43A581CFE7C9B203460244E1
S31508003F3C10B59342184601D1002003E004780133EA
S31508003F4C8C42F6D110BD0000014B1868704700BFB3
S31508003F5CF01200200A4B1B6F03F00703013B032BDF
S31508003F6C03D8DFE803F00A030608FEE7054B1868D2
S31508003F7C7047054BFBE7054870470548704700BF77
S31508003F8C00800050F0120020F812002080D5430261
S31508003F9C002D310108B5FFF7DDFF054B1B6FC3F389
S31508003FAC03330133B0FBF3F0024B186008BD00BFB6
S31508003FBC00800050EC1200200048704700B4C4047E
S31508003FCC00487047002D3101014B1868704700BF37
S31508003FDCF81200200048704780D543024FF400229F
S31508003FEC184B5A664FF0B4439868C0F304400C2833
S31508003FFC0AD8DFE800F00B0909090909072119098C
S3150800400C1B1D1F0010487047002070479B6803F063
S3150800401C4073B3F1807F11D0B3F1007F10D00B4AF7
S3150800402C002B08BF10467047094870470948704767
S3150800403C0948704709487047094870470948704746
S3150800404C0948704700900050405DC60000093D00C5
S3150800405CC0EA210180BA8C010048E801005A6202C4
S3150800406C0024F40080841E0040420F00014B18689F
S3150800407C704700BFF412002070B50D46E8B103680E
S3150800408C13F4E07F03F03F06C3F3821210D0012A23
S3150800409C13D10B4C9B0603D591210A48FFF796FBC7
S315080040AC45B104F5805401230020B340236070BD4C
S315080040BC054CEFE704F50054F5E70E20F7E700BFCB
S315080040CC68800050EC4300086480005010B962B652
S315080040DCBFF36F8F7047EFF3108072B6704780F39B
S315080040EC1188BFF36F8F7047EFF31180302383F37A
S315080040FC118870474FF4004070474FF47A70704738
S3150800410C09B100F005B8222070470121FFF7B4BFAA
S3150800411C70B506460D46FFF7E7FF04461F2E58D81E
S3150800412CDFE806F01019571E212457272A572D5752
S3150800413C30335736393C573F5742575457455748EB
S3150800414C574B4E51FFF706FF002628602046FFF70F
S3150800415CC6FF304670BD4FF4C070FCF73BFDF3E765
S3150800416C4FF42070F9E74FF44070F6E74FF460709F
S3150800417CF3E74FF40070F0E74FF48060EDE74FF487
S3150800418C4060EAE74FF4C060E7E74FF4F060E4E715
S3150800419C4FF4B060E1E74FF4D060DEE74FF41060FF
S315080041ACDBE74FF4E060D8E74FF4A060D5E74FF4AF
S315080041BC1860D2E74FF42860CFE74FF48070CCE74D
S315080041CC4FF43060C9E74FF42060C6E74FF4086037
S315080041DCC3E700202126B8E7000000000000000015
S315080041EC00000000000000000000000000000000B5
S315080041FC00000000F8B500BFF8BC08BC9E46704726
S3150800420CF8B500BFF8BC08BC9E4670472F557365B9
S3150800421C72732F646965676F736D6163626F6F6B19
S3150800422C2F446F63756D656E74732F5079726F4E6C
S3150800423C65742F6669726D776172652F73656E7317
S3150800424C6F725F6D63752F73696D706C69636974D2
S3150800425C795F73646B5F323032352E362E322F709F
S3150800426C6C6174666F726D2F656D6C69622F7372F3
S3150800427C632F656D5F636D752E63002F55736572BD
S3150800428C732F646965676F736D6163626F6F6B2FEC
S3150800429C446F63756D656E74732F5079726F4E65C6
S315080042AC742F6669726D776172652F73656E736F9D
S315080042BC725F6D63752F73696D706C696369747958
S315080042CC5F73646B5F323032352E362E322F706C3C
S315080042DC6174666F726D2F656D6C69622F7372638C
S315080042EC2F656D5F656D752E63002F55736572733B
S315080042FC2F646965676F736D6163626F6F6B2F44AB
S3150800430C6F63756D656E74732F5079726F4E657425
S3150800431C2F6669726D776172652F73656E736F722E
S3150800432C5F6D63752F636D616B655F6763632F2EB6
S3150800433C2E2F73696D706C69636974795F73646B1E
S3150800434C5F323032352E362E322F706C6174666FB2
S3150800435C726D2F656D6C69622F696E632F656D5F63
S3150800436C6770696F2E68002F55736572732F6469B1
S3150800437C65676F736D6163626F6F6B2F446F6375DF
S3150800438C6D656E74732F5079726F4E65742F6669EE
S3150800439C726D776172652F73656E736F725F6D637D
S315080043AC752F73696D706C69636974795F73646B67
S315080043BC5F323032352E362E322F706C6174666F42
S315080043CC726D2F656D6C69622F7372632F656D5FE5
S315080043DC6770696F2E630000FF070F00FF033F002D
S315080043EC2F55736572732F646965676F736D616397
S315080043FC626F6F6B2F446F63756D656E74732F5098
S3150800440C79726F4E65742F6669726D776172652F56
S3150800441C73656E736F725F6D63752F636D616B6514
S3150800442C5F6763632F2E2E2F73696D706C696369D2
S3150800443C74795F73646B5F323032352E362E322FB9
S3150800444C706C6174666F726D2F656D6C69622F691D
S3150800445C6E632F656D5F6275732E68002F557365D5
S3150800446C72732F646965676F736D6163626F6F6BC7
S3150800447C2F446F63756D656E74732F5079726F4E1A
S3150800448C65742F6669726D776172652F73656E73C5
S3150800449C6F725F6D63752F73696D706C6963697480
S315080044AC795F73646B5F323032352E362E322F704D
S315080044BC6C6174666F726D2F736572766963652F9E
S315080044CC636C6F636B5F6D616E616765722F737278
S315080044DC632F736C5F636C6F636B5F6D616E616783
S315080044EC65725F68616C5F73322E63002F55736556
S315080044FC72732F646965676F736D6163626F6F6B37
S3150800450C2F446F63756D656E74732F5079726F4E89
S3150800451C65742F6669726D776172652F73656E7334
S3150800452C6F725F6D63752F73696D706C69636974EF
S3150800453C795F73646B5F323032352E362E322F70BC
S3150800454C6C6174666F726D2F736572766963652F0D
S3150800455C636C6F636B5F6D616E616765722F7372E7
S3150800456C632F736C5F636C6F636B5F6D616E6167F2
S3150800457C65725F696E69745F68616C5F73322E630E
S3150800458C00010310010109031E00000016000000BB
S3150800459C1A0000002F55736572732F646965676F6F
S315080045AC736D6163626F6F6B2F446F63756D656EA8
S315080045BC74732F5079726F4E65742F6669726D77A6
S315080045CC6172652F73656E736F725F6D63752F738A
S315080045DC696D706C69636974795F73646B5F32308B
S315080045EC32352E362E322F706C6174666F726D2FC3
S315080045FC736572766963652F696E74657272757008
S3150800460C745F6D616E616765722F7372632F736C5D
S3150800461C5F696E746572727570745F6D616E6167D1
S3150800462C65725F636F727465786D2E630053454EC1
S3150800463C534F52535F524541445920626D65363883
S3150800464C783D25752073707333303D25750D0A003A
S3150800465C050000000000000000C201000002000076
S3150800466C0010000000000000000000000000000020
S3150800467C2F55736572732F646965676F736D616304
S3150800468C626F6F6B2F2E73696C6162732F736C7408
S3150800469C2F696E7374616C6C732F636F6E616E2FFA
S315080046AC702F73696D706C656235323639393866B8
S315080046BC346134642F702F706C6174666F726D2F51
S315080046CC656D6C69622F7372632F656D5F693263F2
S315080046DC2E6300080911082F55736572732F6469C8
S315080046EC65676F736D6163626F6F6B2F2E73696C81
S315080046FC6162732F736C742F696E7374616C6C734F
S3150800470C2F636F6E616E2F702F73696D706C656297
S3150800471C35323639393866346134642F702F706CFB
S3150800472C6174666F726D2F656D6C69622F73726337
S3150800473C2F656D5F6575736172742E6300000000DA
S3150800474C0101000000000000A08601000000000026
S3150800475C73772D6661756C740053454E534F525FD3
S3150800476C464F554E44206E616D653D257320616438
S3150800477C64723D3078253032580D0A0053454E5335
S3150800478C4F525F50524F4245206E616D653D257301
S3150800479C20616464723D3078253032582073746118
S315080047AC7475733D25730D0A004932435F4C494EA7
S315080047BC4553206265666F72652073636C3D25757B
S315080047CC207364613D25750D0A004932435F4C49D7
S315080047DC4E45532061667465722D7265636F7665F6
S315080047EC72792073636C3D2575207364613D25755C
S315080047FC0D0A004932435F5245414459206275738C
S3150800480C3D4932433020667265713D256C752073BF
S3150800481C636C3D50443032207364613D50443033F0
S3150800482C0D0A00535053333000424D453638780044
S3150800483C6F6B006E61636B006275732D6572726FB8
S3150800484C72006172622D6C6F73740074696D656F9A
S3150800485C757400003C4800083F48000844480008A6
S3150800486C4E4800085748000853574F0053574F5F98
S3150800487C424F4F54002573206261636B656E643D2D
S3150800488C257320706F72743D256C75207370656581
S3150800489C643D256C750D0A0053574F5F424F4F54B4
S315080048AC5F524541445900232D302B2000686C4C2F
S315080048BC006566674546470030313233343536373E
S315080048CC3839414243444546003031323334353663
S311080048DC373839616263646566000000C5
S30D080048E824B9FF7F010000005E
S311080048F0FC480008EC1200201E00000026
S315080048FCC0EA2101C0EA210100800000C01753025A
S3150800490C6813002000000000030000009C11002022
S3150800491C10130020000000009C1100200412002037
S3150800492C6C120020000000000000000000000000CF
S3150800493C000000000000000000000000000000005D
S3150800494C000000000000000000000000000000004D
S3150800495C000000000000000000000000000000003D
S30D0800496CE9010008C101000879
S705080002A54B
