:020000040800F2
:100000000010002089220008F3D00008F3D0000877
:10001000F3D00008F3D00008F3D00008F3D00008B4
:10002000F3D00008F3D00008F3D00008F3D00008A4
:10003000F3D00008F3D00008F3D00008F3D0000894
:10004000F3D00008F3D00008F3D00008F3D0000884
:10005000F3D00008F3D00008F3D00008F3D0000874
:10006000F3D00008F3D00008F3D00008F3D0000864
:10007000F3D00008F3D00008F3D00008F3D0000854
:10008000F3D00008F3D00008F3D00008F3D0000844
:10009000F3D00008F3D00008F3D00008F3D0000834
:1000A000F3D00008F3D0000819240008F923000851
:1000B000F3D00008F3D00008F3D00008F3D0000814
:1000C000F3D00008F3D00008F3D00008F3D0000804
:1000D000F3D00008F3D00008F3D00008F3D00008F4
:1000E000F3D00008F3D00008F3D00008F3D00008E4
:1000F000F3D00008F3D00008F3D00008F3D00008D4
:10010000F3D00008F3D00008F3D00008F3D00008C3
:10011000F3D00008F3D00008F3D00008F3D00008B3
:10012000F3D00008F3D00008F3D00008F3D00008A3
:10013000F3D00008F3D00008F3D00008F3D0000893
:10014000F3D00008F3D00008F3D00008F3D0000883
:10015000F3D00008F3D00008F3D00008F3D0000873
:10016000F3D00008F3D00008F3D00008F3D0000863
:0C017000F3D00008F3D00008F3D0000822
:100180002DE9F0470027164605460C4684B093F843
:1001900000A0DDF830901F7051469FED270B0D98A1
:1001A000984600F09DFF89F800703B462246314694
:1001B0002846CDF8009001F051FB99F9007017B175
:1001C00004B0BDE8F0872246314628460DF10F0302
:1001D0008DF80F7000F0FCF989F800006EB104EBA7
:1001E000061694ED020AD4E90023617B28460097A5
:1001F000103406F0C7FCB442F3D1284695F8AE148B
:1002000006F066F9BAF1000F0BD1022389F800302D
:1002100000232846C5F8E43200F0D4F904B0BDE864
:10022000F0875246414628460D9BCDF8009000F0DD
:100230006FFDEDE7AFF30080000000000000084014
:100240002DE9F04F0021002600278BB0159CCDE949
:100250000623C4E90067C4E9021184F839106187F4
:10026000A18784F83E10D0F8C634D0F8CA64D0F81C
:10027000CE14D0F8D22466612361A161E261D0F886
:10028000D634149E2362D0F8B234D0F8B674D0F8C5
:10029000BA14D0F8BE246362A762E1622263D0F888
:1002A000C2340546636390F8DA3484F8383090F845
:1002B000F234012B01D000F085F9DDE9062300219D
:1002C0000DF1250009AFB5F8ACA4039031702846B4
:1002D000CDE9002331462246029700F0EDFA9DF861
:1002E000243013B10BB0BDE8F08F21469DF82520D6
:1002F000284600F011FF0DF12609034680462246EC
:10030000012128460097CDF8049000F089F99DF866
:100310002430BDF826603BB195F8CE3384F83A30EE
:1003200095F8CC3384F83B304346224602212846D8
:10033000CDE9007900F074F99DF82430BDF826B0BD
:10034000002B6CD14346224603212846CDE9007993
:1003500000F066F9BDF826209DF824300592002BA8
:1003600071D14346224604212846CDE9007900F0A8
:1003700057F921469DF8243006AA2846BDF8267074
:1003800000F026FDDDE9062305F5A061C1E90023A3
:1003900095F8F234012B4BD05E4528BF5E46059B95
:1003A000B0469E4228BF9846B84528BFB846C245C9
:1003B00028BFC246B5F8C233B3FBFAF80AFB1838B7
:1003C000AAEB080A1FFA8AFAB5F8802353449BB2B5
:1003D000B3FBF2F102FB1133A5F8C6A3A5F8C233B3
:1003E0009FED1D0BADF8262008F090FF51EC100B8F
:1003F0000AF00EFA0B460026A0FB0A0103FB0A11C5
:10040000DDE90623821841EB0303C4E900232846F3
:1004100085F8C96300F0BCFD0BB0BDE8F08F95F81E
:10042000CD3384F83C3095F8CC3384F83B3089E701
:10043000B5F8C233B3FBF8F008FB1030A8EB0008A6
:100440001FFA88FAC0E795F8CC332146284684F88D
:100450003B3000F0F9FA84E700000000D01263415D
:100460002DE9F0470646414D06F02EFB404F002394
:1004700003E05C1C1E2C234610D045FA03F2D10782
:10048000F7D5DA5D5C1C02F2CB1336F81320304648
:10049000E1B206F0C9FB1E2C2346EED1304606F031
:1004A00097FA0025DFF8C490314FDFF8CC8002E0E6
:1004B00001351E2D35D049FA05F3DA07F8D5EB5D85
:1004C000334493F8B333002BF2D0002438F915A04D
:1004D00002E001340B2CEBD04AFA04F3DB07F8D529
:1004E000631E092B40D8DFE803F0051A1816141212
:1004F000100E0C0A0221304606F06CFBE9E70B21D6
:10050000F9E70A21F7E70921F5E70821F3E70721D1
:10051000F1E70621EFE70521EDE70421EBE70321F1
:10052000E9E700221349C6F8B423C978C6F8B8230E
:10053000C6F8BC23A6F8C02386F8C42301F27B11B9
:1005400036F81100134686F8C82306F5747232F89F
:10055000021B0133884203D0042BF8D1BDE8F08799
:1005600086F8C433BDE8F0870121C4E7EF791200B3
:1005700014ED000848EC0008D8EC0008F0B414684A
:10058000049F04EB030C8C4516D805998B4216D8B2
:10059000002B0CDD791ECE18C7F1010700E01468AE
:1005A0007B1811F8015F2344B142C554F7D10020F4
:1005B000C2F800C0F0BC70476FF02800FAE76FF097
:1005C0002500F7E790F8C83303B9704748E700BF44
:1005D0002DE9F041F1B14FF00008DFF840E002EB07
:1005E000011C517BD2E90045714411F8011C103205
:1005F00000EBC101D1E97067BD4208BFB44204D12C
:100600001978002908BF4FF004089445E9D1404605
:10061000BDE8F08188464046BDE8F08148EC00081E
:10062000F0B400271A4C0139645C049D04F27B1479
:1006300030F81440059E2F70348090F8F274012F2A
:100640001ED04FF6FF739C4213D0B0F8C263B6FBC6
:10065000F4F304FB1364A4B26CB901239068C9B22B
:1006600003FA01F101432B7082F83D3082F83E30ED
:100670009160F0BC704790F8C933002BF9D0ECE7DB
:100680004FF6FF77BC42F4D01C463380D9E700BF59
:1006900048EC00081AB3002210B4019C22701A79A9
:1006A000013A012A02D95DF8044B7047D3ED007A74
:1006B000F5EE407AF1EE10FA0CBF0123002323700F
:1006C000F1D147F230530A889A4209D04A889A42B7
:1006D00006D00B23029A13705DF8044B70477047E5
:1006E00090F9CA33002BF5D1012380F8C933DAE73A
:1006F0000023F0B56FF0004C1C464FF0010E4FF692
:10070000FF77684D684E05E0BA4218BF01240133F7
:100710001E2B0FD045FA03F2D207F8D59A5D62443A
:1007200031F81220B2F5E16FEED101331E2B80F8C3
:10073000CBE3EFD190F8CB33A3BBB0F8AC74594CFA
:100740003D46594E44FA03F2D20706D59A5D013A66
:1007500031F81220954228BF154601331E2BF1D1E6
:100760004FF6FF72954226D0B7FBF5F305FB1373E6
:100770009BB2A3B916464B4FDFF82CC147FA03F2E0
:10078000D20715D513F80C20013A31F81240B442C3
:100790000ED0B4FBF5F205FB124292B242B16FF0FB
:1007A0000F00F0BD002C0CBF00206FF00F00F0BD5B
:1007B00001331E2BE2D14FF6FF750023AC463B4AB6
:1007C000384EDFF8E4E052F8044B46FA03F724070A
:1007D00010D5FC070ED513F80E40013C31F814403B
:1007E000644507D0654504D0AC4203D06FF01000DB
:1007F000F0BD254601331E2BE5D14FF6FF739D4218
:100800004ED0002300F5747202E00133042B09D0AE
:1008100032F8024BAC42F8D103F5F67330F81330DE
:1008200004339BB200249FED226ADFED226A4FF66B
:10083000FF7C1C4E1C4F46FA04F2D2072BD590F8D1
:10084000CC5390F8CEE390F8CD236D004FEA4E0ED6
:10085000EDB25FFA8EFE52007544D2B22A441A44B9
:1008600092B207EE902AF8EE677A67EE867AE25D3A
:1008700087EEA67A013A31F8122007EE902AF8EEB8
:10088000E77AF4EEC77AF1EE10FA04D5624502D0A9
:100890006FF01100F0BD01341E2CCCD10020F0BD52
:1008A0000423BFE7EF79120014ED000860EC0008A4
:1008B0000000C84200007A442DE9F04F8346002032
:1008C0008BB0169B14460BF5A066179AD6E90089E3
:1008D0000D4658EA090118701070149B159A0AD138
:1008E0000BF59C610BF59D6BC1E90032CBE90089EA
:1008F0000BB0BDE8F08F9BF882130029F8D19BF86C
:10090000F214B3EB080A62EB0900022901900AD045
:10091000DBF8E004DBF8E4141B1A62EB0102CBF80D
:10092000EC24CBF8E834DBF8F034454A23F07F437D
:1009300093422FD09FED400BBBF8C68308F0E6FC36
:1009400051EC100B09F064FF8C46A0FB08010CFB76
:100950000811B0EB0A070297019F4FEA101261EBF2
:10096000070742EA01720397DDE902780B11BA42E8
:1009700073EB08073FDAD6E900324FF0640C012729
:100980001B1841EB0202C4E90032169B85F800C037
:100990001F70ADE747F23058BBF8C223294B9FEDDB
:1009A000260BA3FB02135B0B08FB1323A8EB030826
:1009B00008F0ACFC51EC100B09F02AFF8C461FFA32
:1009C00088F8A0FB08010CFB0811B0EB0A0706979A
:1009D000019F4FEA101261EB070742EA0172079785
:1009E000DDE906780B11974278EB030713DA012350
:1009F000179A13707CE7BAEB00040494019C64EB33
:100A000001010591DDE9040182428B41BFF670AF1F
:100A100064232B706CE7BAEB00070897019F67EB24
:100A200001010991DDE90801904271EB030381DACC
:100A3000DDE700BFAFF3008000000000D01263418B
:100A40003075010073B2E7454FF6FF72064B5B7BD2
:100A500003F27B1330F81330934203D08B6843F4D6
:100A600000538B60704700BF48EC00082DE9F04749
:100A70009FED2B6A0027DFED2B5ADFF8B0A02A4D3F
:100A8000DFF8ACE0DFF8AC8002E00137182F45D08A
:100A90000126BE4016EA0A0FF7D00C780137013460
:100AA000E4B204F1FF3C02EBCC0C0C7000234FF6D7
:100AB000FF798CED006A8CF804700CE04C4507D08F
:100AC00007EE904AF8EE677A85EEA77A8CED007A09
:100AD00001331E2BDAD045FA03F4E407F8D55EF8AB
:100AE00023402642F4D09CED007AB4EE467AF1EE33
:100AF00010FA13F8084004F2CB1430F81440DDD09B
:100B000007EE904AF8EE677AC5EEA76AB4EEE67A89
:100B1000F1EE10FA48BFCCED006AD9E7BDE8F087E6
:100B200000FF7F470000C842EF7912000F20E0006D
:100B300060EC000814ED00082DE9F0434FF03D088B
:100B40004FF0000987B004AA044600264FF0010EBA
:100B50004FF0060C022713460D46CDE90289DDE968
:100B6000020182E8030084F801E003CB84F802C0AC
:100B7000E77026706060A1602B682046103B2373ED
:100B8000C3F30721C3F30742C3F30763A273E373FD
:100B9000617301AA296808F053FC2B689DF80420B2
:100BA00023441A712B689DF8052023445A712B6841
:100BB00023449E7128680444E6712B6808332B6037
:100BC00007B0BDE8F08300BF2DE9F0470E2482B0E6
:100BD00006461746FE200DF103020D468DF8034030
:100BE00008F06AFB9DF803800190B8F1000F2AD04D
:100BF000012406F2C64A06F2B249E3B2013B0D2BCC
:100C00000FD8DFE803F02F273F374714665E564FB3
:100C1000766E7D073A46294696F8DC0401AB06F06D
:100C20006FF9A04504F101030CD01C46E5E701ABC8
:100C30003A46294606F5926006F098FBA04504F175
:100C40000103F2D10198C0F3072328706B7002B042
:100C5000BDE8F0873A46294696F8CD0301AB06F089
:100C60004FF9DEE73A46294696F8CC0301AB06F089
:100C700047F9D6E73A46294601AB06F5747006F007
:100C80000BFBCEE73A46294696F8CE0301AB06F0B9
:100C900037F9C6E73A46294601AB06F57A7006F001
:100CA00037FBBEE73A462946484601AB06F08EFBC5
:100CB000B7E73A46294601AB06F2AF4006F0C2F864
:100CC000AFE73A46294696F8AE0401AB06F018F9AC
:100CD000A7E73A462946B6F8AC0401AB06F08AF815
:100CE0009FE73A46294696F8DA0401AB06F008F980
:100CF00097E73A462946504601AB06F067FB90E776
:100D00003A46294696F8DB0401AB06F0F9F888E785
:100D10002DE9F04FD0F8F0442B4D24F07F44AC4245
:100D200089B03DD005F5881599460F4690460023B9
:100D30004FF6FF7BDFF894A005F2BF4503E05C1C93
:100D40001E2C23462CD045FA03F2D207F7D513F810
:100D50000A205C1C02F2831230F812205A45EFD0B0
:100D60000126D0F8E42206FA03F11142E8D09C19DA
:100D70000DF11303E1B2009305AA06AB03910290B3
:100D800005F004FEDDE902013A789319DBB203F1C4
:100D9000FF3C424509EB0C1C05D30323129A137048
:100DA00009B0BDE8F08F059A3B70CCF80820DDE96A
:100DB0000623CCE900239DF813308CF80D108CF835
:100DC0000C608CF80E30BBE73075010014ED0008A4
:100DD000002B00F0BD8070B501232DED028B81F852
:100DE000393090F8F2340446012B0D46164686B091
:100DF00006D090F8C43303F2EF1330F813308B8130
:100E000094F8CD23204685F83C2094F8CC130DF1BE
:100E10000B0385F83B1004AA03A905F0A7FDDDED3F
:100E2000037AF5EE407AF1EE10FA1DD194F8C93349
:100E3000D3B994F8F234012B08D094F8C423022BD0
:100E400002F2EB1234F81220EA8105D004F59D631A
:100E5000D3E90023134377D1D6E90023C4E9E22381
:100E600006B0BDEC028B70BDD4E9E223D4E9E40105
:100E7000824273EB010CCDE9042303DA02460B46F0
:100E8000CDE90401D6E90001801A61EB030109F004
:100E900069FCDFED377A07EE100A87EE270AF1EEDC
:100EA000000A8DED030A0AF0F3FBF0EE080AB0EE3B
:100EB000408A9DED030A0AF0EBFBDFED2E6ADFEDC1
:100EC0002E7A9DED037A28EE268A20EE270ADFEDA2
:100ED0002B6A67EE077A38EE008A67EEA67ADFEDB6
:100EE000286A78EE277A27EE267A9FED268A77EE13
:100EF000877A9FED257A77EE887A67EE877AF8FE13
:100F0000677AFCEEE77A17EE902A94F8C933EA8103
:100F1000FBB900939FED1D0AD6E900231621204658
:100F200005F030FE94F8F234022B05D004F59D63F1
:100F3000D3E90023134307D194F8C933002B8BD096
:100F4000D6E90023C4E9E42306B0BDEC028B70BDF2
:100F500070470021D6E90023B7EE000A0091204631
:100F6000162105F00FFEAB6843F40013AB60D9E720
:100F7000286B6E4E598207B0DFE0C2343767D9B8AC
:100F80005A8E863C6A92E43E00007A4400000000DB
:100F900070B50446D0F88803D4F88C13101A2DEDE0
:100FA000028B63EB010115461E4609F0DBFBDFED0A
:100FB000188A07EE900A9FED178AC7EEA87AF4EE1A
:100FC000C87AF1EE10FA06D49FED137AF4EEC77AE0
:100FD000F1EE10FA05DD652384F8CA33BDEC028B0F
:100FE00070BDD4E9E401281A66EB010109F0BAFBEF
:100FF00007EE900AC7EEA87AF4EEC87AF1EE10FA7E
:101000004CBF6623002384F8CA33BDEC028B70BD4D
:10101000286B6E4E0000704200007043F0B4002454
:1010200082B0DDE9066C34708CF800400D68471919
:101030007F78455D8DF805708DF80450BDF804701B
:10104000089D9F422F6004D9E023337002B0F0BCAA
:1010500070474FB12346541E0D68C618755D0133A5
:101060009F4204F8015FF7D193788CF800300B6849
:101070001F440F6002B0F0BC704700BF0B4B10B4B0
:10108000194411F8013C00EB4301B1F89643944236
:1010900004D00124013B034483F8B4430123A1F8A5
:1010A00096235DF8044B80F8C833704714ED0008B0
:1010B0000139032900D9704710B50446483006F0BD
:1010C000EDFF0121204605F085FD04F12C0007F01D
:1010D000D5FC2046BDE81040022105F07BBD00BFD5
:1010E000F8B5002204460D46002351EC100B09F020
:1010F000EFF978B175B120460023002200260027C1
:1011000004EB05114373826003738373E0E80467A3
:101110008842F7D1F8BD00BFF8B590F8F234044624
:10112000012B0D4608D0022B37D003B300234FF616
:10113000FF7084F8F234F8BD00F59F6300F59D61FF
:10114000D1E90001D3E90067B04271EB07032DDB61
:1011500047F230530221B4F8AC24B4F8F0049A42B8
:1011600084F8F214E7D10023A4F8C233F8BD0126B5
:1011700080F8C863FFF774F947F23052B4F8FE32D2
:101180009342A4F8F03478D0B3F5967F3DD0022393
:1011900084F8F2344FF6FF70F8BD00F59D63D3E993
:1011A00000231343C2D04FF6FF70F8BD002ACFD101
:1011B0003BA3D3E9002382428B411DDA3AA3D3E952
:1011C000002382428B4150DA39A3D3E900238242C3
:1011D0008B415CDA38A3D3E9002382428B4141DBA7
:1011E00047F23053B4F8F0249A423BD1C5224FF471
:1011F000A073EA81AB8135E04FF47A724FF4BE738D
:101200004FF49670EA81AB81F8BD04F59F6284F8D3
:10121000F2642BA1D1E90001C2E9000120A7D7E9BE
:10122000006704F59D64D4E90001864277EB010272
:10123000E2DA1DA7D7E90067864277EB010214DAEC
:101240001BA7D7E90067864277EB01021FDA1AA7CE
:10125000D7E90067864277EB010203DB47F23052A1
:101260009342C3D04FF49670F8BD4FF47A72962330
:101270004FF49670EA81AB81F8BD04F59F6284F863
:10128000F26411A1D1E90001C2E90001C6E74FF4FF
:101290007A72C8234FF49670EA81AB81F8BD00BF23
:1012A000FFE30B5402000000FFD5117E0300000095
:1012B000FFC717A804000000FFB91DD205000000F9
:1012C00000C817A80400000000BA1DD205000000E5
:1012D0002DE9F04706464FF6FF700022002300215B
:1012E0004FF001094FF481784FF0050E06F2E63415
:1012F0002546A6F8F0048446964F06F59C6006F550
:101300009F6A86F8F214CAE90023C0E9002306F5B3
:101310009D60C0E900238AB086F8DC1486F8DB946F
:101320000FCFA6F8CC83C6F8D003C6F8D413C6F8FE
:10133000D82303CFC6F8DC3386F8CEE306F28E4717
:10134000C6F8E003C6F8E41325F802CFBD42FBD18E
:101350004FF0641240F2DC517F48C6F8F023C6F823
:10136000FC23C6F80424C6F80824C6F81424C6F8DA
:101370001C24C6F87C04794A79487A4BC6E9FA22DB
:10138000C6F8F823C6F80024C6F80C24C6F81824BA
:10139000C6F81004744A7548754DDFF8E8E1A6F800
:1013A0008014A6F86C14C6F86034C6F86434C6F825
:1013B0003C34C6F84034C6F84C34C6F85034C6F84D
:1013C000F453C6F82024C6F82424C6F82824C6F806
:1013D0002C24C6F83024C6F83424C6F83824C6F8BD
:1013E0004404C6F848040EF14008C6F8543406F523
:1013F000507CA6F86E1475460FCD4545CCF800001C
:10140000CCF80410CCF80820CCF80C300EF1100EFB
:101410000CF1100CEFD108AB0120009304AA06AB2D
:1014200002A908F091F800230499C6F85433C6F8CD
:101430005833C6F85C33089B4FF08042C6F8481317
:10144000C6F840330799039BC6F86413C6F86C339B
:101450004FF6FF713B464748DDF818C0029DC6F8BD
:101460007423C6F87823C6F87C03099A0598C6F851
:101470006023C6F844C3C6F84C53C6F8680306F2A6
:10148000AA4223F8021F9342FBD14FF0000C0A2519
:10149000394B3A4886F882C386F8B054C6F8AC3463
:1014A0004FF4A071052200F10C0506F5966306F2D3
:1014B000C44C03E010F9012F35F8021F23F8022F66
:1014C00063459982F6D10A2200234FF6FF7186F810
:1014D000DA24A6F8803334F8023F8B4205D0B6F800
:1014E00080239A4238BFA6F88033BC42F3D1002350
:1014F0000127234CDFF890C044FA03F2D20711D53C
:1015000013F80C2006EB4201B1F88E04B1F89653A3
:10151000013A85421CBF921982F8B473A1F8960370
:1015200086F8C87301331E2BE6D1012106F2B333CE
:1015300006F2C13203F8011F9342FBD196F8C8337B
:1015400013B90AB0BDE8F0873046FEF789FF0AB04C
:10155000BDE8F08780EB0008DC05DC0530753075F0
:1015600030756400701770172C012C0108070807EC
:10157000640030750000104130750005D8EB00089C
:10158000EF79120098EB000814ED0008F0B4002188
:101590000022002347F230564FF6FF7400F5A06793
:1015A00080F8C413A0F8C2130D46C7E9002300F267
:1015B000B231C0E9E223C0E9E423A0F8C66300F237
:1015C000963300F2B33223F8024F8B4202F8015FE8
:1015D000F9D14FF4CC03F0BCC0F8C833704700BF5A
:1015E0002DE9F04F2DED048B87B0DDF854B0029358
:1015F00091B3002382460E4614460125DFED928A00
:101600009FED928A9FED929A924F01932279531EF9
:10161000DBB247FA03F1C90733D51D2B31D89AF84D
:10162000DC14D4ED007A01291BD01B3A032A1BD904
:101630009BF9002023320FD0012202FA03F3019A12
:1016400013422DD0F3238BF800302B469E4204F139
:10165000080405F10105D9DC07B0BDEC048BBDE839
:10166000F08F163A032AE3D8F4EE487AF1EE10FA36
:10167000DED0DD238BF8003007B0BDEC048BBDE875
:10168000F08F2B460A229E428BF8002004F10804BA
:1016900005F10105BADC07B0BDEC048BBDE8F08FA5
:1016A00088EEA77AF8FE477AFCEEE77A17EE902AE2
:1016B000019992B21943104691460392019108F0A4
:1016C000FDFB5FA3D3E9002308F072FC41EC100B93
:1016D000BAF8AC8407F01AFE51EC100B08F002FFC8
:1016E0004A4680B2131A9BB29845D4ED007A50D97D
:1016F00013189BB298454CD2F5EE407AF1EE10FAF1
:1017000040F08280F6238BF80030D4ED007AF5EEBD
:10171000407AF1EE10FAB0EE677A75D1B5EEC07A84
:10172000F1EE10FA3CDDB4EEC87AF1EE10FA37D5DE
:10173000227949490AF1A8030A4412F8012CCDE99B
:10174000045403EB42031D46039C0AEB4209B9F81B
:10175000E68309F11C09404608F0B0FB38A3D3E941
:10176000002308F025FC41EC100B07F0CFFD51ECF5
:10177000100B08F0B7FE80B2A8EB00039BB28044C8
:101780009C421FFA88F828D3444526D8DDE9045442
:1017900010E0F4EE487AF1EE10FA27D1B0EE677A55
:1017A000B5EE407AF1EE10FA14BF4FF0FF3300238C
:1017B0009BB203939BF90030002BFFF646AF2379D1
:1017C000254A0399134413F8013C149A03F100438A
:1017D000013B22F813102B4638E74D45B7D1F423CF
:1017E000DDE904548BF800302B462FE7029B002BD9
:1017F00082D1039BB3F5E16F3FF47EAF0E238BF8EC
:101800000030D4ED007A77E7F4EE487AF1EE10FA82
:10181000C4D0B2EE047AF4EEC77AF1EE10FA07DC27
:10182000F4EEC97AF1EE10FA02D4B0EE677A75E7F9
:10183000F2238BF8003094ED007A6FE7AFF300806D
:101840007B14AE47E17A843F0000C84200FF7F4727
:101850000E74DA3AEF79120014ED00082DE9F04326
:10186000DDF81CC0D9B100264FF0010E1F4FDFF884
:10187000808002F108056C79621ED2B2172A47FAFD
:1018800002F90ED819F0010F0EFA02F209D01A422D
:10189000444443EA020309D0FA238CF80030BDE83F
:1018A000F083FF238CF80030BDE8F08314F8012C9E
:1018B000D5ED007A00EB820292EDCF7AF4EEC77A92
:1018C000F1EE10FA0AD492EDD77AF4EEC77AF1EE7F
:1018D00010FA06F1010605F1100503DDFE238CF870
:1018E0000030DCE78E42C6D1D9E700BF0F20E00010
:1018F00048EC0008F0B50C46002189B00E9E172C6C
:10190000316003D8DB221A7009B0F0BD944203D9CC
:10191000DA221A7009B0F0BD05460278A9788DF870
:101920000C204078EA788DF80E108DF80D008DF8B7
:101930000F20039A2C498A4205D0013203D0DE22BF
:101940001A7009B0F0BD294606AF3A4651F8040FA7
:101950000DF1100C49688CE8030003C2DDE90401B5
:10196000002908BF3D2807D0002908BFB0F1FF3F7C
:1019700002D0DD221A70C7E72A7BA97B8DF80C20E4
:10198000687BEA7B8DF80D008DF80F208DF80E1026
:10199000039901F11802A24202D0D8221A70B3E7CB
:1019A000103102AA28462C44019307F049FD14F88F
:1019B000042C9DF80810019B914202D0DC221A7081
:1019C000A2E79DF8091014F8032C9142F6D114F8FF
:1019D000022C002AF2D114F8012C002AEED1102199
:1019E00031601A7090E700BF000106022DE9F04750
:1019F00086B005AB04AECDE9003604460DF10F0309
:101A0000FE200D4607F036FC9DF90F00002869D135
:101A10004FF0010A04F2C64904F2B24804F2AF479B
:101A20005FFA8AF3013B0C2B00F2B080DFE803F091
:101A3000A7A099928B847D76706A645D0700314619
:101A4000284605F057FA84F8DB040AF1010ABAF1D6
:101A50000F0FE5D19DF90F00002843D14FF6FF7617
:101A6000A4F8800304F2E63304F28E4533F8022F23
:101A7000B24205D0B4F88013914238BFA4F8802355
:101A80009D42F3D100234FF0010C444EDFF810E1EA
:101A900046FA03F2D20711D513F80E2004EB4201E7
:101AA000B1F88E54B1F89673013AAF421CBF1219C7
:101AB00082F8B4C3A1F8965384F8C8C301331E2B2F
:101AC000E6D1012104F2B33304F2C13203F8011F5D
:101AD0009342FBD194F8C83323B12046FEF7C0FCF3
:101AE0009DF90F0006B0BDE8F0873146284605F0A5
:101AF00001FA84F8DA04A8E74A463146284605F098
:101B000007FBA2E742463146284605F001FB9CE769
:101B10003A463146284605F081F996E7314628468F
:101B200005F0E8F984F8AE048FE73146284605F061
:101B30004FF9A4F8AC0488E73146284604F59262D0
:101B400005F098FA81E73146284604F57A7205F0E7
:101B50004FFA7AE73146284604F5747205F01EFA0A
:101B600073E73146284605F0C5F984F8CE036CE7E3
:101B70003146284605F0BEF984F8CD0365E73146C5
:101B8000284605F0B7F984F8CC035EE731462846CD
:101B900005F0B0F984F8DC0457E700BFEF791200D4
:101BA00014ED0008032906D98378FE2B0CBF002012
:101BB0006FF0630070476FF067007047000000002F
:101BC0002DE9F04F00224FF0090BDFED205A9FED79
:101BD000206ADFED206AB1EE047ADFED1F7A4FF064
:101BE000FF346FF00045DFF880A0DFF88090DFF869
:101BF0008080DFF880E0DFF880C0184F184E194968
:101C0000C0ED015A80ED046AC0ED056A80ED067AE8
:101C1000C0ED097AC0E9164580F800B0C0F828A0E8
:101C2000C0F82C90C0F83880C0F83CE0C0F840C044
:101C3000C764066501668260C260C26102620263B7
:101C4000426342648264BDE8F08F00BF07F0963DB6
:101C50001C7CE13D3480D73FCDCC0C3E5DFEE33EA5
:101C6000363C85BF0000404067D5273EE63F4CC06C
:101C700091ED3CBFFB3A403FB15083402DE9F04726
:101C800086B004AB05AE04460078CDE900360DF110
:101C90000F030D4607F0EEFA9DF90F00E0B94FF083
:101CA000010A04F1400904F12C0804F118075FFA55
:101CB0008AF3013B032B24D8DFE803F01D17110240
:101CC0004A463146284605F0C9FA0AF1010ABAF136
:101CD000060FECD19DF90F0006B0BDE8F087424633
:101CE0003146284605F0BAFAEFE73A46314628462B
:101CF00005F0B4FAE9E731462846221D05F0AEFAB0
:101D0000E3E73146284605F0BDF884ED180ADCE724
:101D10002DE9F0432DED048B83B0BDF8404005461E
:101D2000DDE90E89B4F5E16F17461E46B0EE408A34
:101D3000F0EE608A6BD028D941F270739C422ED0AD
:101D400047F230539C4208BF012408D1D5E916015F
:101D50004FF0FF326FF0004307F024FC08B39FED13
:101D6000309A4FF0FF326FF000433846314607F0AB
:101D700019FC08B9C5E9167638EE490A30EE680A4A
:101D800003B0BDEC048BBDE8F083642C05D0B4F542
:101D9000967F08BF0424D9D0E1E70524D6E70224C2
:101DA000D4E7D5E91601B8EB000069EB010108F0B2
:101DB000D1F819A3D3E9002308F024FA0B46024610
:101DC000CDE9002308F0AEFBDDE9002305EB840438
:101DD00007EE900AD4ED009A94ED057A67EEA99A81
:101DE00094ED0A9A1046194627EE899A79EE879A59
:101DF00008F0DEF808F096FB07EE900A94ED0F7AF3
:101E000079EE277A77EE877A89EEA79AA9E790ED9F
:101E1000189AA6E7AFF300800000000065CDCD4121
:101E2000000000002DE9F047052482B007469046E7
:101E300000780DF103020D468DF8034007F03CFADF
:101E40009DF80360019036B3012407F1400A07F1C1
:101E50002C09E3B2013B042B0BD8DFE803F031106F
:101E60002A2303004146284697ED180A01AA05F0E7
:101E700021F8A64204F101030CD01C46E9E701ABAE
:101E80004246294607F1180005F084F9A64204F1FC
:101E90000103F2D10198C0F3072328706B7002B0E0
:101EA000BDE8F08742462946504601AB05F072F97D
:101EB000DFE742462946484601AB05F06BF9D8E713
:101EC0004246294601AB381D05F064F9D1E700BF51
:101ED0002DE9F043012485B08046914600780DF14C
:101EE0000B020E468DF80B4007F0E6F99DF80B50FB
:101EF000039035B1002403AF54B10134A542FBD1A6
:101F00000398C0F307233070737005B0BDE8F08309
:101F1000D8E916014B463246009705F019F8ECE770
:101F200070B586B004AB05AE04460078CDE9003646
:101F30000DF10F030D4607F09DF99DF90F0008B153
:101F400006B070BD3146284604F0E6FFC4E916012C
:101F50009DF90F0006B070BD51EC100BC1F30A5390
:101F60002DE9F041A3F2FF350C460646132D34DC73
:101F7000002D20DB364B0F4643FA05F801EA080333
:101F800003432FD030A3D3E9002307F05BFE0022E8
:101F9000002308F09DFA40B1002C03DD4FF48013BC
:101FA0002B411F4427EA080400262346324643EC0F
:101FB000102BBDE8F08124A3D3E9002307F042FEF3
:101FC0000022002308F084FA0028EED0002C36DB33
:101FD0003443E9D000261F4CE7E7332D06DDB5F585
:101FE000806F25D041EC100BBDE8F081A3F21343C4
:101FF0004FF0FF37DF403842F4D013A3D3E900237A
:1020000007F020FE0022002308F062FA0028CCD05E
:10201000002C334609DD142D06D0C5F1340501220C
:10202000AA4013449E4200D9013423EA0706BCE7C4
:1020300002460B4607F006FE41EC100BD4E70026E3
:102040004FF00044B1E700BF9C7500883CE4377E48
:10205000FFFF0F000000F03F51EC100BC1F30A53DB
:102060002DE9F041A3F2FF350C460646132D32DC74
:10207000002D20DB384B0F4643FA05F801EA080330
:1020800003432DD032A3D3E9002307F0DBFD002268
:10209000002308F01DFA40B1002C03DA4FF480133E
:1020A0002B411F4427EA080400262346324643EC0E
:1020B000102BBDE8F08126A3D3E9002307F0C2FD71
:1020C0000022002308F004FA0028EED0002C2ADBBE
:1020D00000263446E9E7332D06DDB5F5806F1BD0C9
:1020E00041EC100BBDE8F081A3F213434FF0FF3732
:1020F000DF400742F4D016A3D3E9002307F0A2FD86
:102100000022002308F0E4F90028CED0002C33464A
:1021100010DB23EA0706C8E702460B4607F092FDEC
:1021200041EC100BDEE724F0004426430DD14FF0C4
:102130000044BAE7142D06D0C5F134050122AA40A7
:102140001344B342E5D20134E3E70026034CACE785
:102150009C7500883CE4377EFFFF0F000000F0BF55
:102160000348044B834202D0034B03B11847704726
:102170001C1900201C19002000000000064B074914
:10218000C91A891048BF0131491003D0044B0BB163
:1021900001481847704700BF1C1900201C19002077
:1021A0000000000010B5064C237843B9FFF7D8FFB4
:1021B000044B13B10448AFF300800123237010BD1A
:1021C000981800200000000074F3000808B5054BC3
:1021D0001BB105490548AFF30080BDE80840FFF793
:1021E000CDBF00BF00000000B015002074F3000850
:1021F000A3F5803A704700BF174B002B08BF134B65
:102200009D46FFF7F5FF00218B460F461348144A01
:10221000121A0BF023FC0E4B002B00D098470D4BED
:10222000002B00D098470020002104000D000D482D
:10223000002802D00C48AFF3008008F067FD2000B2
:1022400029000AF0DBFF08F091FC00BF0000080045
:10225000000000000000000000100020001000201E
:10226000A418002000000000000000000348044AF9
:102270000449121A92100AF03DBF00BF7C01000809
:102280007C010008A418002008B5154B83F30A88C8
:1022900000F030F8FFF7EAFF124B13498B4212D3DC
:1022A0000020124B12498B4218D3FFF7A5FF186884
:1022B00050F82240586840F8224001329868824223
:1022C000F5D30C33EAE70022F8E71C6844F8220053
:1022D00001325C68A242F8D30833E4E70022F8E751
:1022E000000000207CF3000888F3000888F3000851
:1022F00088F300084FF48041124B134A70B59A607E
:10230000D3F88820114D42F47002C3F88820104A97
:1023100005F5005491664FF0FF3222660D4A626661
:102320000222C3F8D020BFF34F8FBFF36F8F4FF45B
:102330004036002001F004FC0020E66001F0CEFBF6
:102340002E6170BD00ED00E0000000080080004438
:10235000009000507FFF7F03014B1860704700BF63
:10236000A81800202DE9F04104460C254FF0010883
:10237000124E0CB314F001000BD0002024F0010425
:1023800005FB00625768002FF3D09168C0B2B847D0
:10239000EFE72246013020284FEA520201D0D3074E
:1023A000F8D508FA00F20F2824EA0204E8D9103818
:1023B00005FB0062B432E5E7BDE8F081C8150020F6
:1023C00008B50C480BF079FE1A2001F0A1FB28B1EA
:1023D0001A2001F0B5FB1A2001F080FB1B2001F050
:1023E00097FB28B11B2001F0ABFB1B2001F076FB13
:1023F000002008BD3CE5000808B501F065FA054B72
:1024000000F0553020F0A040C3F82004BDE808409B
:10241000FFF7A8BF00E0035008B501F055FA054BDF
:1024200000F0AA3020F02040C3F82004BDE80840A6
:10243000FFF798BF00E00350044BD3F88420D20686
:10244000FBD4D3F88400C0F38110704700400050E3
:1024500038B5104B0546D3F800310C4603F00303A2
:10246000022B0BD0032B0DD0012B0FD10BF084FDD1
:10247000032305B1286004B1236038BD0BF0CEFD05
:102480000923F6E70BF07EFD0823F2E70123002085
:10249000EFE700BF0080005038B5104B0546D3F879
:1024A00040310C4603F00303022B0BD0032B0DD05D
:1024B000012B0FD10BF0F6FD0A2305B1286004B102
:1024C000236038BD0BF0AAFD0923F6E70BF0EDFD04
:1024D0000B23F2E701230020EFE700BF008000504C
:1024E00038B5104B0546D3F860310C4603F00303B2
:1024F000022B0BD0032B0DD0012B0FD10BF0D2FDF3
:102500000A2305B1286004B1236038BD0BF086FDB5
:102510000923F6E70BF0C9FD0B23F2E701230020A6
:10252000EFE700BF0080005038B5104B0546D3F8E8
:1025300040320C4603F00303022B0BD0032B0DD0CB
:10254000012B0FD10BF0AEFD0A2305B1286004B1B9
:10255000236038BD0BF062FD0923F6E70BF0A5FD03
:102560000B23F2E701230020EFE700BF00800050BB
:1025700038B5124B0546D3F880300C4603F0030300
:10258000022B0BD0032B0DD0012B0FD10BF0BAFC7B
:102590000D2305B1286004B1236038BD0BF0F6FCB3
:1025A0000723F6E70BF0A8FC0623F2E7044841F204
:1025B00014210AF091FD00231846EAE7008000503C
:1025C000B8E1000838B51A4B0546D3F820010C468F
:1025D00000F00700062821D8DFE800F028040C14DA
:1025E00010181C000BF088FC052305B1286004B10D
:1025F000236038BD0BF0C0FC0323F6E70BF0C6FCEC
:102600000723F2E70BF0B4FC0223EEE70BF074FCB7
:102610000623EAE70BF0B0FC0423E6E7054841F2A5
:1026200091210AF059FD00231846DEE70123DCE77B
:1026300000800050B8E1000838B5194B0546D3F8C2
:1026400028310C4603F00703013B052B20D8DFE8B7
:1026500003F003131B0F0B170BF04EFC052305B102
:10266000286004B1236038BD0BF046FC0623F6E772
:102670000BF08CFC0723F2E70BF07EFC0323EEE764
:102680000BF07AFC0423EAE70BF072FC0223E6E786
:10269000044841F299010AF01FFD00231846DEE7C5
:1026A00000800050B8E10008002337B50193194BB2
:1026B0000546D3F820320C4603F00703042B1FD83D
:1026C000DFE803F025030F141900002101A8FFF72C
:1026D000B3FF11230DB1019A2A6004B1236003B046
:1026E00030BD0BF053FC07230190F3E70BF0DAFC4D
:1026F0000A230190EEE70BF091FC09230190E9E732
:1027000041F2560104480AF0E7FC0023E2E7012306
:10271000E0E700BF00800050B8E10008F7B50027EF
:10272000144B0197D3F88041064604F00304022CB1
:102730000D4614D0032C0DD0012C14D1394601A81C
:10274000FFF740FF0F240EB1019B336005B12C60F1
:1027500003B0F0BD0BF01AFC07240190F3E70BF077
:1027600007FC0190EFE741F2E63103480AF0B4FCC0
:102770003C46E8E700800050B8E1000838B5164B49
:102780000546D3F800020C4600F00700042819D8CB
:10279000DFE800F020030B0F13000BF083FC0A238B
:1027A00005B1286004B1236038BD0BF037FC092364
:1027B000F6E70BF07AFC0B23F2E70BF0C3FB0E23DA
:1027C000800AEDE7054841F2A4410AF085FC0023A8
:1027D0001846E5E70123E3E700800050B8E1000870
:1027E00038B5164B0546D3F808020C4600F0070032
:1027F000042819D8DFE800F020030B0F13000BF0BA
:1028000051FC0A2305B1286004B1236038BD0BF0E8
:1028100005FC0923F6E70BF048FC0B23F2E70BF06D
:1028200091FB0E23800AEDE7054841F2DC410AF0F6
:1028300053FC00231846E5E70123E3E7008000503E
:10284000B8E1000838B5124B0546D3F850320C46B3
:1028500003F00303022B0FD0032B05D0012B0FD164
:102860000BF020FC0A2302E00BF01FFC0B2305B148
:10287000286004B1236038BD0BF0D0FB0923F6E7D4
:10288000044841F2C9010AF027FC00231846EEE78C
:1028900000800050B8E10008002337B50193184BC1
:1028A0000546D3F860320C4603F00703013B032BC7
:1028B0001FD8DFE803F0020E1914002101A8FFF76A
:1028C00081FE0F230DB1019A2A6004B1236003B089
:1028D00030BD002101A8FFF7DFFD1023F2E70BF068
:1028E00055FB07230190EDE70BF042FB022301901B
:1028F000E8E741F2FD0103480AF0EEFB0023E1E7BF
:1029000000800050B8E1000873B500240F4B01941B
:10291000D3F87032064603F00303012B0D4607D0AF
:10292000022B11D041F25B1109480AF0D5FB04E0FB
:10293000214601A8FFF7B0FD10240EB1019B3360C2
:1029400005B12C6002B070BD1424F6E70080005081
:10295000B8E1000838B50F4B0546D3F890320C4665
:1029600003F00303012B09D0022B0BD10BF00EFB5C
:10297000072305B1286004B1236038BD0BF0F8FAD5
:102980000223F6E7044841F285110AF0A5FB002373
:102990001846EEE700800050B8E1000808B5334B58
:1029A00098424FD027D8324B984245D017D8314B58
:1029B00098423ED00AD838B12F4B984239D041F2D4
:1029C000BB312E480AF088FB002034E02C4B9842A3
:1029D0002FD02C4B9842F2D12B4B586E2BE02B4B27
:1029E00098422CD003F5371303F5D8639842E6D10B
:1029F000254B986F1FE0264B98422FD00CD8254BC3
:102A0000984223D0244B984224D0244B9842D6D1CC
:102A10001D4BD3F884000EE0214B984222D003F5E1
:102A2000740303F510539842C9D1174BD3F898009B
:102A300001E0154B986D08BD134B186FFBE7124B67
:102A4000586FF8E7104BD3F88000F4E70E4BD3F83B
:102A50008800F0E70C4BD3F88C00ECE70A4BD3F876
:102A60009000E8E7084BD3F89400E4E780BA8C01C3
:102A7000405DC60080841E0040420F00B8E100089F
:102A800000093D00C0CF6A000080E00F0024F40080
:102A9000007E560380D54302006CDC020048E8014A
:102AA0000090D003B0F5207F10B52ED009D8B0F536
:102AB000007F24D003D868B1B0F5C07F0AD00024CD
:102AC0001BE0B0F5607FFAD1124BD3F88040C4F31D
:102AD000011412E00F4B1C6F230B13F00E0FC4F305
:102AE00003340AD0072C08D00F2C06D0032C04D0B6
:102AF0004FF4227108480AF0EFFA601C10BD054B34
:102B0000D3F89040C4F30464F7E7024B1C6FC4F39E
:102B10008024F2E700800050B8E100084FF48032D2
:102B200038B5104B04469A6600200D46FFF7BAFFF1
:102B300041F671320C4B6043DC69DA635A6804F485
:102B4000803422F440125DB90849884294BF0020C5
:102B50000120000502435A600CB10022DA6338BD3F
:102B60000349F2E70090005000000350005A62024F
:102B7000002D310138B5430904460D460ED140F20F
:102B800035310D480AF0A8FA002304F01F0485B17E
:102B900003F580530122A2401A6038BD012B04D0F6
:102BA000022B04D040F24331EBE7044BEDE7044B3A
:102BB000EBE703F50053EDE7B8E10008648000504F
:102BC00068800050002130B5B0F5807F85B00446A4
:102BD000CDE9001100F007816BD8002800F0DC80FF
:102BE000A0F12004602C75D8602C73D8DFE814F0B5
:102BF000D400E100D400E100F100F100F100F100A7
:102C0000F100E100F6007E00A1000C017E00E10071
:102C1000E100E10072007200720072007200720046
:102C20007200A100E100E100E10029011601E100CC
:102C30007200720072007200720072007200720004
:102C400072007200720072001B01F100D400D40007
:102C5000D40011017E007E002001BE009300C90057
:102C6000C90072007200720072007200720072007D
:102C700072007200720072007200720072007200C4
:102C800072007200720072007200720072007200B4
:102C900072007200720072007200720072007200A4
:102CA0007200720072007200720072007200720094
:102CB000CE00B0F5F06F00F0C4803FD8B0F5607F73
:102CC00000F082801DD8B0F5007F68D008D8B0F53C
:102CD000C07F61D040F2A4415C480AF0FDF958E0A1
:102CE000B0F5207F65D0B0F5407FF3D10BF02AF925
:102CF00004464FF42070FFF7D5FEB4FBF0F46408EF
:102D000060E0B0F5B06F69D00AD8B0F5806F60D0E0
:102D1000B0F5A06FDED100216846FFF7C5FC38E0B2
:102D2000B0F5D06F70D0B0F5E06F77D0B0F5C06F70
:102D3000D0D100216846FFF7AFFB2AE0B0F5206F45
:102D400076D00CD8B0F5106F63D0B0F5186F6AD09C
:102D5000B0F5086FBED16846FFF77AFB19E0B0F511
:102D6000306F6AD007D8B0F5286FB3D1002168461C
:102D7000FFF7CAFD0DE0B0F5386FDAD0B0F5406F5F
:102D8000A8D100216846FFF757FC02E00BF0BAF823
:102D90000090009805B030BD0BF0D4F8F8E70BF0C8
:102DA000B1F805462046FFF77DFEB5FBF0F500952E
:102DB000EFE70BF0C7F804464FF42070FFF772FE00
:102DC000B4FBF0F40094E4E701A8FFF7D1FB019D08
:102DD000E8E700216846FFF7F5FBDAE700216846DF
:102DE000FFF79CFCD5E74FF0E02302911B695B07DE
:102DF00005D50BF0A7F80290029B0093C9E703A941
:102E000002A8FFF749FBF7E700216846FFF7B6FC89
:102E1000BFE700216846FFF7E3FCBAE700216846F8
:102E2000FFF782FBB5E700216846FFF70BFDB0E72F
:102E300000216846FFF730FDABE76846FFF78AFDE3
:102E4000A7E700216846FFF74BFBA2E7B8E10008BF
:102E500008B58020FFF7B6FE034B98429EBF4FF4A3
:102E60008032024B1A6708BD005A620200A000506F
:102E70001FB503460020B3F5607F019000F0FC8091
:102E80007BD8582B68D8382B05D8243B092B49D937
:102E900040F28951D1E0393B1F2BF9D801A252F8F9
:102EA00023F000BF5D300008912E0008912E00082D
:102EB000912E0008673000088B300008912E000822
:102EC000912E0008912E0008912E0008912E0008E6
:102ED000912E0008912E0008912E0008912E0008D6
:102EE000912E0008912E0008912E0008912E0008C6
:102EF000953000089F2F0008912E0008912E0008A1
:102F0000912E0008E32F0008912E0008912E000852
:102F10009F300008A9300008813000080530000803
:102F200005300008092BB3D801A252F823F000BFE6
:102F30009F2F00089F2F00089F2F00089F2F000839
:102F40009F2F0008912E000843300008912E0008A2
:102F50005D300008BD2F0008802B58D0B3F5807F6E
:102F600096D14FF0E02302901B695B0771D50AF000
:102F7000E9FF0C230393039B55E0B3F5086F77D06B
:102F800021D8B3F5C06F69D00ED8B3F5A06F77D054
:102F9000B3F5B06F55D0B3F5806F7FF479AF0020F3
:102FA00001A9FFF70FFB50E0B3F5E06F6DD0B3F56B
:102FB000F06F58D0B3F5D06F7FF46AAF002001A94D
:102FC000FFF7DCFB41E0B3F5286F6DD00ED8B3F509
:102FD000186F5FD0B3F5206F61D0B3F5106F7FF439
:102FE00057AF002001A9FFF7FBFB2EE0B3F5306FD0
:102FF0005FD0FFF44DAFB3F5386F2FD0B3F5406F0E
:103000007FF446AF002001A9FFF716FB1DE02B4B14
:103010001B6F03F00703013B032B0CD8DFE803F021
:1030200009020507052301930FE00323FBE70823AB
:10303000F9E70223F7E740F2D64121480AF04CF8BD
:1030400003E0002001A9FFF769FB019805B05DF8D6
:1030500004FB03A902A8FFF71FFA8CE7002001A9CF
:10306000FFF71AFAF1E7002001A9FFF739FAECE7B8
:1030700001A9FFF7EDF9E8E701A9FFF779FAE4E71D
:10308000002001A9FFF710FBDFE7002001A9FFF7EF
:103090004BFADAE7002001A9FFF7D4FBD5E70020BF
:1030A00001A9FFF7F9FBD0E7002001A9FFF72CFCED
:1030B000CBE701A9FFF74EFCC7E700BF0080005037
:1030C000B8E100084FF48032074B0849586E03F509
:1030D00080535A664B6A23F001034B62C3035CBF03
:1030E000034B5A66704700BF0080005000C0075075
:1030F00000A00050B0F5207F38B577D00ED8B0F5DD
:10310000007F61D003D890B3B0F5C07F2FD04FF4CB
:103110004671BDE838403D4809F0DEBFB0F5607F3C
:10312000F5D13B4A4C1ED2F8FC5015F080751EBFFD
:10313000D2F8FC3023F08073C2F8FC30032C04D9A1
:1031400040F2F721314809F0C7FF324AD2F8803007
:1031500023F0300343EA0413C2F8803035B12C4A1F
:10316000D2F8FC3043F08073C2F8FC3038BD4C1EFE
:10317000012C0AD9102903D8274BCB40DB0704D4F4
:1031800040F2CB21214809F0A7FF09F0C0FF09F068
:10319000CCFF4FF48031214B1E4A1967136F23F483
:1031A000704343EA043313670AF0CCFE0446FFF78A
:1031B00043F9C0F10201204609F0B1FF00F048F8E0
:1031C000BDE83840FFF744BE4C1E1F2C04D94FF415
:1031D00043710E4809F080FF0E4AD2F8903023F078
:1031E000F85343EA0463C2F89030BFE74C1E012C49
:1031F00004D940F21231054809F06EFF054A136FF9
:1032000023F4806343EA84231367AFE7B8E100083F
:1032100000ED00E00080005010010100009000501F
:1032200008B50121022000F099F94FF42070FFF752
:1032300039FC054B187009F06AFF09F076FF4FF46E
:103240008032024B1A6708BD991800200090005088
:1032500008B54FF4C070FFF7B5FCBDE8084004495D
:10326000884294BF012102214FF42070FFF742BF32
:1032700080F0FA0238B504460AF064FE0546FFF70E
:10328000DBF8C0F10201284609F049FF01210020C6
:1032900000F0B8F92CB1FFF7DBFFBDE83840FFF7CD
:1032A000D7BD034B4FF420701978FFF723FFF4E7E5
:1032B000991800202DE9F0410546FFF76FFB431EEA
:1032C0000333044604D940F6E2113B4809F004FFF9
:1032D0004FF4C022394B5A6603F598335A68012AD5
:1032E00004D137494A605A689207FCD48020FFF71E
:1032F000BFFD052807D109F00AFF09F016FF4FF4BA
:1033000080322E4B1A672F4B24F040749D4239D0E7
:103310002D4B9D4239D00AF0EFFD8542064603D978
:103320000121284600F06EF9284FFB6813F0060FC4
:10333000FBD1D7F80880BC60BB68634013F4F81F6A
:1033400026D12846FFF708F88020FFF791FD0528D1
:1033500014D10AF0F7FDA842044604D940F63B21F7
:10336000154809F0B9FEFFF767F8C0F102012046E1
:1033700009F0D5FEFFF76CFFFFF76AFDAE4213D2EE
:10338000BDE8F08144F00074C5E744F08074C2E702
:1033900040F62A21084809F09FFE8020C7F80880DF
:1033A000FFF766FD052805D0BDE8F04101210020AA
:1033B00000F028B93546CCE7B8E10008009000508D
:1033C00000E0015040420F0080841E0000000150C8
:1033D0004E4B70B59842054673D041D8A3F5B7035C
:1033E000A3F55863984265D033D8494B494E98426B
:1033F00051D017D8002877D041F2DE11464809F0A5
:103400006BFE40F68671444809F066FE4FF40022D8
:10341000404B5A663E4B9D4276D000243F4A95422F
:1034200036D05DE03D4B984227D03D4B9842E3D1EA
:103430003C4BD3F8A040621E033224F040744CD9B8
:1034400040F68671344809F047FE4FF40023736656
:10345000E4E7354B9842CFD1324BD3F8BC402CE057
:10346000324B984231D0324B984232D0314B984255
:10347000C2D12C4BD3F8C8401FE02A4BD3F8A04050
:10348000621E033224F04074DAD84FF400237366CE
:1034900044F0807424E0234BD3F8A040621E033232
:1034A00024F040742AD84FF400237366234643F077
:1034B000007415E01B4BD3F8B840621E154E033262
:1034C000BBE7184BD3F8C040F7E7164BD3F8CC4016
:1034D000F3E7144BD3F8D040EFE74FF400237366C3
:1034E0004FF0B442946070BD40F686710A4809F00E
:1034F000F3FD4FF400232C467366F1E740F6867126
:10350000054809F0E9FDCEE70023D0E7C0EA210134
:1035100040420F0000900050B8E1000880841E0077
:1035200000093D000080E00F0024F4000048E8019D
:10353000005A620280BA8C01024A536B0342FCD1EA
:10354000704700BF00400950034A0179D36E23F051
:1035500030030B43D366704700400050F8B5044673
:10356000244BD3F88420D006FBD4D3F88430C3F3A3
:1035700081139C423CD00AF0C5FC012C05460BD1BE
:103580001D4B984204D940F29B711C4809F0A4FDE0
:103590000121284609F0C3FD0AF075FD4FF00072C5
:1035A000174B07465A66204609F0C4FD4FF4806366
:1035B000104E621E93403367736E9A0103D4D6F89F
:1035C00084309B060AD538460AF058FD022C0FD1EC
:1035D0002846BDE8F840002109F0A1BDD6F88430A6
:1035E0009906E9D540F2B371044809F075FDE3E7A7
:1035F000F8BD00BF00400050005A620227E20008F8
:103600000060005010B50C4608B90AF07BFC074B6F
:1036100021461B783BB1064B984204D80120BDE8F7
:103620001040FFF79BBF0220F9E700BF9A18002067
:10363000005A62024FF0004238B5244B244C5A66BF
:103640004AF6CD33656C014605F00105236428BBBD
:103650000120FFF771FF6368DB0715D51D4B58602C
:1036600008461D4B226BD2070CD4984208D1072480
:1036700015B1174B194A1A6409F05DFD204638BD93
:103680000130EFE79842F2D00024F1E70132236BDA
:1036900013F0080305D08A42F8D1E8E700220E496A
:1036A000F5E78A42E3D020210A4A91620121A2F57E
:1036B000805251600649084A886A800603D49342C2
:1036C000D5D00133F8E79342DDE700BF009000500A
:1036D000004009500060095040420F003254FFFF83
:1036E0004FF0004238B5164B01465A664AF6CD33C4
:1036F000144C154A656C236443780B205B0043F03F
:103700000103D363FFF718FF63688A7823F4F87323
:1037100043EA02136360CA784B7943EA0223A36049
:103720000A798B7943EA022323610878FFF782FF45
:10373000EB0744BF054B236409F0FDFC012038BDB5
:103740000090005000400950004000503254FFFFEC
:103750000F2870B5044605D940F67461124809F087
:10376000BBFC0F244FF00042104B11495D6E03F576
:1037700080535A664AF6CD334E6C80200B64FFF7B7
:10378000DBFE0B6A23F00F0323430B62F30744BFF6
:10379000084B0B64002DA2BF4FF00042064B5A6647
:1037A00009F0C9FC70BD00BF27E20008008000508E
:1037B000004009503254FFFF00A00050032838B5E4
:1037C00004460D4605D8094B33F81030CB40DB07D3
:1037D00004D440F28541064809F07EFC30230122E2
:1037E0005C43044BAA401A5138BD00BF84E3000873
:1037F00096E2000840D00350032838B504460D4631
:1038000005D8094B33F81030CB40DB0704D440F225
:103810005641064809F060FC302301225C43044B0A
:10382000AA401A5138BD00BF84E3000896E20008A0
:1038300040E0035003282DE9F04104460D461746A9
:10384000984605D81D4B33F81030CB40DB0704D425
:103850004FF4B0711A4809F03FFC37B129462046B1
:10386000B8F1000F20D0FFF7A9FF0F21072D04EBBF
:10387000440688BFA5F108034FEA0616114895BF14
:10388000AB009B0004360C3607FA03F29940304433
:1038900009F052FC7FB929462046B8F1000F06D046
:1038A000BDE8F041FFF78ABFFFF7A6FFDDE7BDE8FF
:1038B000F041FFF7A1BFBDE8F08100BF84E300083D
:1038C00013E3000830C00350034BD3F82424D3F88B
:1038D00020041040704700BF00C0035010B563487B
:1038E0000AF0EBFB20B14FF44E71614809F0F4FB94
:1038F0006048FFF7DFFC6048FFF76AFD5F480AF0A9
:10390000DCFB20B140F2CB11594809F0E5FB5C4CDF
:10391000FFF786FC236F002023F0070343F0020328
:103920002367FFF7A7FC236F564923F4744343F43E
:1039300080632367544BD3F8FC2012F080727CD153
:10394000D4F8803023F0030343F00103C4F880303F
:10395000C1F880204A4CD4F8203123F0070343F00B
:103960000103C4F82031D4F8283123F0070343F0D1
:103970000103C4F82831D4F8803123F0030343F065
:103980000103C4F88031D4F8903223F0030343F0EC
:103990000103C4F89032D4F8403123F0030343F01C
:1039A0000103C4F84031D4F8603123F0030343F03D
:1039B0000103C4F86031D4F8403223F0030343F02C
:1039C0000103C4F84032D4F8003223F0070343F077
:1039D0000103C4F80032D4F8083223F0070343F09F
:1039E0000103C4F80832D4F8503223F0030343F043
:1039F0000103C4F85032D4F8703223F0030343F0CB
:103A00000103C4F87032D4F8203223F0070343F0E6
:103A10000103C4F82032FFF755FB4FF0E022136991
:103A2000002043F004031361D4F8603223F007034D
:103A300043F00103C4F8603210BDD3F8FC2022F03B
:103A40008072C3F8FC20D4F8802022F0030242F0F8
:103A50000102C4F880200022C1F88020D3F8FC20A5
:103A600042F08072C3F8FC2074E700BF34E5000820
:103A700098E4000800B4C404C0EA210138E5000855
:103A8000008000500090005000ED00E007B5094BA9
:103A900018689A889B7900906846ADF804208DF8E4
:103AA0000630FFF71DFE0920FFF752FE002003B08D
:103AB0005DF804FB2DE5000813B50024064A6846AE
:103AC000536F43F00103536700948DF80440FFF7F0
:103AD0003BFD204602B010BD004000504F2810B5FD
:103AE000044608D801236109074A04F01F04A340D3
:103AF00042F8213010BD4FF49971044809F0ECFAF6
:103B0000002CF7DBEEE700BF00E100E040E5000835
:103B10004E2810B5044604D940F23D11064809F07C
:103B2000DBFA064B621153F8220004F01F04E04058
:103B3000C04300F0010010BD40E5000800E100E0D6
:103B4000002808DB01224309034900F01F008240DE
:103B5000603341F82320704700E100E038B500F100
:103B600010035F2B04460D4604D94FF4F0710E4844
:103B700009F0B2FA0F2D04D940F2E1110A4809F018
:103B8000ABFA60B20028ACBF00F16040074B4FEACF
:103B90000515EDB2ABBF00F5614000F00F0080F8F5
:103BA00000531D5438BD00BF40E5000814ED00E08F
:103BB00010B50AF071FA0A4B1A786AB901226FF04F
:103BC00004041A700AF063FA204605210134FFF755
:103BD000C5FF4F2CF8D110BDBDE810400AF057BA10
:103BE0009B1800200346054A0549106803448B4290
:103BF0008CBF4FF0FF301360704700BFB418002037
:103C00000000042070B52E4D8CB001A804AC00F06B
:103C1000F9FE0FCD0FC495E80F0084E80F000121D5
:103C20003A209DF80F60FEF7A5FF01215720FEF70F
:103C3000A1FF0123042219460220FFF7FBFD022207
:103C4000012310460021FFF7F5FD1E4B1E4A1F48B9
:103C5000C3F8FC240222C3F8F4241422C3F8E42499
:103C600000238DF810304FF4E13304A9069300F0DF
:103C700085FD0521154800F047FB00F03BFE31466D
:103C80009DF80E20124807F027F8A6B1114D7621B5
:103C9000284601F095FD104B187095F9020001F0CF
:103CA000FBFE044695F9010009F016FE2146024686
:103CB0000A4807F011F80CB0BDE8704002F020B8D7
:103CC00078E6000800C003500200010000000A501E
:103CD000D9E50008001000209C180020FCE5000831
:103CE000F0B58DB02022002104A809F0B7FE314BB9
:103CF0001B78002B5CD0304804A909F00EFE002888
:103D000056D0DFED2E6ADDED087A67EEA67AF5EE85
:103D1000C07AB6EE007AF1EE10FAACBF77EE877A91
:103D200077EEC77AFDEEE77A17EE902ADDED097A95
:103D300067EEA67AF5EEC07AF1EE10FAACBF77EE38
:103D4000877A77EEC77AFDEEE77ADFED1D6A17EE28
:103D5000900ADDED0A7A67EEA67AF5EEC07AF1EE0A
:103D600010FAACBF77EE877A77EEC77AFDEEE77A86
:103D70004FF47A7717EE904A642594FBF7F690FBA0
:103D8000F5F392FBF5F107FB164405FB130005FB69
:103D90001122002CB8BF64420028B8BF4042002A5C
:103DA0000090CDE901640748B8BF524206F094FF85
:103DB0000DB0F0BD9C180020001000200000C8428B
:103DC00000007A4434E60008B0F1B64F10B504465E
:103DD0000ED12E20FEF7F6FEA3680B49C3F3012394
:103DE000A269CB5C02FB03330833B0FBF3F010BDD8
:103DF000064B984201D12F20ECE70548DE2109F05F
:103E00006BF90020E8E700BFFBE6000800800650E1
:103E100098E60008F8B506460F461546002A6AD00F
:103E200003F00304836823F4407383600AF02BF9E2
:103E3000B26882EA042303F440735340B3600AF08B
:103E40001DF937B9B6F1B64F0DD12E20FEF7BAFEE7
:103E50000746B3689A0717D5012C1BD0022C27D030
:103E600064B9264B17E0264B9E4201D12F20EDE787
:103E700040F22F11234809F02FF9B3684FF4B271C3
:103E8000204809F029F908E0012C13D0022CE7D1D1
:103E90001D4B00E01D4B9F42F0D91D4B1B5D6B433A
:103EA0000AD140F27511BDE8F840164809F014B97E
:103EB000184BF0E7184BEEE7A3EBC504013C3C447C
:103EC000B4FBF3F4013C0CD540F27B110D4809F032
:103ED00003F94FF4BE710B4809F0FEF8B368B46102
:103EE000F8BDB4F5007FF4D2B3689B07F7D5002C7A
:103EF00008BF0124F3E740F21511D4E780841E00C7
:103F00000080065098E60008002D3101404B4C001F
:103F1000FBE60008809FD50040548900B0F1B64F01
:103F200038B504460D4607D0084B984204D040F2FD
:103F30009511074809F0D0F8043425B104F58054F0
:103F40000123236038BD04F50054F9E700800650D2
:103F500098E60008B0F1B64F38B504460D4607D0D4
:103F6000124B984204D04FF4D571114809F0B4F8BF
:103F70000023104A236404F50053DA636A7804F1DD
:103F800008037AB903F5805302221A602046D5E966
:103F900001122B7BFFF73EFF20462978BDE8384011
:103FA000FFF7BCBF03F50053EEE700BF00800650EB
:103FB00098E60008FFFF1F00E023C3600023836032
:103FC0008361C3610362036443604369DB0506D414
:103FD000202300F50050C363024BC3637047436A5C
:103FE000F3E700BFFFFF1F00B0F1B64F70B50AD076
:103FF000824B98421DD0824840F2012109F06CF8B2
:104000006FF0030070BD7F4B9968C26B12F4C06FF4
:1040100015D091050FD5FD225A7009221A70002281
:10402000026493F90110012900D15A7093F901003B
:10403000E8E7754BE8E75605EFD5FE22ECE71C787C
:10404000082C00F2D680DFE814F009001F004500BC
:10405000530070007E009C00A700CB004C880A88AB
:10406000E5060AD5120A02F0060242F0F00201212A
:1040700019704263C1600120C4E702F0FE02A1078B
:1040800048BF42F00102F2E7160608D5802100F58C
:104090000052D1634FF608721A80022318E05506C9
:1040A000E9D5402400F50052D4634A88D40604D5EB
:1040B00002221A700B784363DDE796076AD5072260
:1040C0001A701B7901EBC3031B89012BD3D1082381
:1040D000C360D0E71506D9D45406CCD5402400F5EA
:1040E0000052D4634A88920754D503221A708CE791
:1040F0004C880A88E60643BF120A02F0060242F024
:10410000F00202F0FE02650709D51C7942F00102B7
:1041100001EBC4010989012904BF0821C160042100
:1041200019700123C3604263A5E71406AED452069A
:10413000A1D5402400F50052D4634A88560729D5FA
:1041400007221A7097E71A795D8801EBC204268965
:10415000AE420FD800240132D2B21A715C804C8872
:104160006507C2D4E40702D4012A7FF64EAF0822C5
:104170001A7092E76268691C5980525D4263062298
:10418000DFE7160682D455067FF575AF402400F5AB
:104190000052D4630522A9E794067FF56CAF202670
:1041A0001A7900F5005401EBC2010A89456AE663F9
:1041B0005C88A24281BF4968661C5E800D555988A3
:1041C0008A42D4D90424012AC46004D0013A91421D
:1041D00001D10822C2601A78092A3FF420AF4AE7C9
:1041E000D2057FF548AF4FF4807100F50052D163DE
:1041F00013E74FF609321A8011E700BF008006501E
:1042000098E60008301700203C170020B0F1B64FA8
:1042100038B504460D4607D121B940F26A31264827
:1042200008F05AFF254B13E0254B98420DD040F281
:104230006931214808F050FF25B940F26A311E4823
:1042400008F04AFF6FF0030038BD00292BD01D4B4A
:104250002269D00744BF2022E2606A88910702D514
:1042600029890029EED0520702D52A8A002AE9D0EE
:104270004FF480721A6000229D601A71C023E360BF
:104280006369DB0515D4202204F50053DA630E4A76
:104290002046DA634FF4FC6204F580531A64BDE8EB
:1042A0003840FFF7A1BE40F26A31034808F014FF1E
:1042B000CDE7636AE4E700BF98E600083017002006
:1042C000008006503C170020FFFF1F0010B508F0CB
:1042D000A3FF202341F2020203610023C360836035
:1042E00042614FF4A02207498361426200F5005207
:1042F000C36103628362C36243630365D164036382
:1043000010BD00BFFF3F0D0338B5194B044698425E
:104310000D460BD0174B984208D003F580439842C6
:1043200004D040F26911144808F0D6FE25B92046A1
:10433000BDE8384008F070BF012204F580535A6090
:1043400040F6FF71204605F00F0208F061FFA263FE
:10435000782108F05DFF05F001036A0748BF43F0CC
:104360000203A26C02F003029A42FAD138BD00BFE8
:104370000000015B00000A50FFE60008F8B50546A2
:104380000C46164622B940F227216D4808F0A4FEDB
:104390006C4B9D4202D1BCB9562411E06A4B9D4240
:1043A0004FD003F580439D4247D040F22A21644814
:1043B00008F092FE44B940F27931614808F08CFE71
:1043C0002046FEF7FFFB0446AB68D90749D5B44247
:1043D00004D24FF40D715A4808F07EFEB4FBF6F497
:1043E0006F68013CFF2C07F0010704D94FF40F71EF
:1043F000534808F071FE24066FB32821284608F0C0
:1044000007FFAB6C9A0720D1AB6CDB071FD4AE6CF7
:1044100016F002061DD140F24921494808F05CFE21
:10442000284608F0F9FE2B69314623F07F432343E9
:104430002B61BDE8F840FFF767BF002CC4D15824BA
:10444000BEE7002CC0D15724BAE70526E8E70926C5
:10445000E6E70626E4E72B6923F07F4323432B613D
:10446000F8BD6B68012B04D04FF41771344808F085
:1044700033FEAB6803F0E003402B42D009D893B180
:10448000202B1AD040F29E21BDE8F8402C4808F0BD
:1044900023BE602B42D0802BF4D106EB4603A3420F
:1044A00047D801230DE0B6EB141F04D94FF4217156
:1044B000234808F011FE102303E0B6EBD40F1AD8FE
:1044C000082373436401B4FBF3F4204F203CB7EBA3
:1044D000C40F4FEAC40604D240F2A921184808F0DC
:1044E000FBFD28463E40012108F092FE2E63BDE808
:1044F000F84008F08DBE40F28921114808F0ECFD2B
:10450000DEE70623B4FBF3F3B34201D30623D8E777
:1045100040F28E210A4808F0DFFDF7E7B6EB940F72
:1045200001D80423CDE740F29321054808F0D4FDDB
:10453000F7E74FF42671024808F0CEFDB1E700BF5F
:10454000FFE600080000015B00000A50F8FF7F0052
:10455000F8B5436804460D4616461BB140F6FF7198
:1045600008F056FE2046FFF7B1FEE9896B7B6269D1
:104570000B43298A22F44C520B4322F00F021343BF
:104580006361A268297E2B7B22F080420B4322F0DC
:10459000E20213436A6904F580511343AA68A360D9
:1045A000EB69002A35D1A06840F00040A060002BE4
:1045B00034D166B396F82030E3B101230B624B602F
:1045C00020462978FFF7A0FEA36CDB4313F4405F7D
:1045D000FAD1F8BD96F8203063B101230B624B602D
:1045E00020466968FFF7CAFEEAE796F82030002BFC
:1045F00040F0B08096F82230E06996F8216020F013
:1046000009003343034343F00103CB617EE0012300
:10461000D5E71BB9002EDDD10123E0E7987A1F7A98
:104620004004D4F808C040EA87504C4F0CEA070712
:1046300038439F8807F4C04738435F7840EA8700D3
:104640005F7B40EAC7009F7B40EA07109F7840EA03
:104650008720A060D4F80CC0D3E904073843404F4A
:104660000CEA070738439F7940EA8720DF7940EA60
:104670004720E06018783B4F012812D1E06840F0F5
:104680000400E060BC424FD0374884424ED000F571
:10469000804084420CBF02204FF0FF30334F400176
:1046A00013E0032838D1E06840F00400E060BC4229
:1046B00036D02D48844235D000F5804084420CBF6E
:1046C00002204FF0FF302A4F40010744022078605B
:1046D000587A886218B1E06840F40060E060D87AE7
:1046E00058B1E06840F40040E0601E4884421FD1A9
:1046F000187B204F00F00F007866606ADB7B20F0AB
:10470000030003436362002E7FF46FAF01234B600D
:10471000002A3FF455AF63E702380128C7D9B1E753
:104720000020D0E70120CEE70020B7E70120B5E761
:104730000D48844205D1187B0E4F00F00F003867FA
:10474000DBE70D48844201BF187B0A4F00F00F00E1
:10475000F867D2E701230B62D8E700BFE39BBDFFF8
:10476000FFF9F0870000015B00000A50C0E403502D
:10477000C0D403500090035000400A5038B5154B88
:10478000044698420D460AD0134B984207D003F5D1
:104790008043984203D07021104808F09DFC1DB959
:1047A00072210E4808F098FC2B7B802B03D17621D8
:1047B0000A4808F091FC6B7B032B03D97921074849
:1047C00008F08AFC29462046BDE838400022FFF761
:1047D000BFBE00BF0000015B00000A50FFE60008FA
:1047E000034BD3F8D43023FA00F000F001007047F7
:1047F00000C003502DE9FF47E846384B04460FCB75
:1048000088E80F0001213A20FEF7B4F901212E209B
:10481000FEF7B0F90220FFF7E3FFB0F1000A4FF016
:10482000030018BF4FF0010AFFF7DAFF0A22B0F1C8
:1048300000094FF001034FF002014FF0030018BFD1
:104840004FF00109FEF7F6FF0321012308460A2273
:10485000FEF7F0FF092704202149224DC5F8D000BA
:1048600008F0F4FC204BC3F8D00008F0EFFC013F47
:10487000F4D10220FFF7B4FF06460320FFF7B0FF94
:104880001A4BC1F83875C1F83C354FF00313C1F825
:10489000403503230546C1F838354FF0B640FFF7E1
:1048A0008BFB134B41464FF0B6400293FFF752FB90
:1048B0004FF0B640FFF788FA003E18BF0126003DD2
:1048C00018BF01256060204684F800A084F801909C
:1048D000A670E57004B0BDE8F08700BF68E7000887
:1048E00000C0035000E0035000D00350030002005A
:1048F000A08601000B4A0020D2F8FC30002143F0D2
:104900008073C2F8FC30084B1A6842F001021A604A
:104910005A68064B1A600122054BC3E90001054B9A
:104920001A70704700ED00E0001000E0481700200A
:10493000A01000209D1800200B4B10B51B780BB960
:10494000FFF7D8FF094B0A4C586823688342094B8C
:1049500006D9D3E90021013241F10001C3E9002168
:104960001968206010BD00BF9D180020001000E0F5
:1049700048170020A010002038B5FFF7DDFF074BD7
:104980001A6842B1064C0023A0FB040504FB015148
:1049900005F026FF38BD00200146FBE7A4180020E3
:1049A00040420F0038B5FFF7C7FF074B1A6842B106
:1049B000064C0023A0FB040504FB015105F010FF89
:1049C00038BD00200146FBE7A418002000CA9A3B2E
:1049D00022B90A460146074806F07EB9042A96BF66
:1049E000054B064B53F822300A460146044806F0B0
:1049F00073B900BF81E700087CE8000878E7000889
:104A0000A4E700082DE9F04F87B0044603A8FFF79C
:104A1000F1FE9DF80CB09DF80DA09DF80E909DF84C
:104A20000F8052465946049F224806F055F94246E7
:104A30004946214806F050F93946204806F04CF91D
:104A4000692008F02BFC0646B0FA80F50246692181
:104A50001B48FFF7BDFF012E4FEA55150BD903A8E0
:104A6000FFF7C8FE9DF80CB09DF80DA09DF80E90C4
:104A70009DF80F80049F762008F010FC76210246F6
:104A800001901048FFF7A4FF019A20466272B2FA23
:104A900082F2520984F800B084F801A084F80290F0
:104AA00084F8038067602672A572E27207B0BDE8E1
:104AB000F08F00BFD1E70008F2E700081BE800080C
:104AC0004BE8000851E80008CB8B06EE900A07EE91
:104AD000903A9FED187AF8EE677AF8EEE66A27EEDC
:104AE000877A9FED156A16EE867A9FED146A67EE57
:104AF000867A9FED136AB1F9203056EE867A06EE7B
:104B0000903A91F92230B3EE006A00EE103AB8EE16
:104B1000C00A27EE077A20EE060AF8EEE66A20EED3
:104B2000070A07EEA60ADFED077A81ED0E0A80EE8E
:104B3000270A704700000039000000370000803A63
:104B4000000080380000A045D1ED0E6AF6EE007A34
:104B50009FED537A91F9283016EEA77A06EE903A37
:104B6000B1F92630F8EEE66A07EE903A66EE876A0B
:104B7000F8EEE77A66EE876A9FED4A6A67EE877A13
:104B800046EE867ADFED486A8B8C67EEA67A06EEF3
:104B9000103A9FED465AF7EE006AB8EE466A47EEC5
:104BA000856A26EE266AFDEEC67A17EE903A04EE86
:104BB000900A002B70D091F92E30DFED3D5A06EEB1
:104BC000903AB1F92C30F8EEE66A07EE903AF8EE3A
:104BD000E77A67EE877A66EEA56A27EE074A77EEF0
:104BE000A77A9FED347A46EE847AF8EEE46AB1F95A
:104BF0002A3037EE667A06EE903ADFED2F4AF8EE6D
:104C0000E66A66EEA46AF5EE004A47EEA46ADFEDB6
:104C10002B4AF0EE477A9FED2A7A46EEE47A67EE69
:104C2000877AB1F9323087EE860A07EE103AB1F989
:104C30003030B8EEC77A07EE903AF8EEE77A27EE12
:104C4000007A67EE857A27EE007A67EE807A9FED2C
:104C50001D6ADFED1D6A91F8343060EE266A47EE7A
:104C6000067A07EE103A26EEA66AB8EEC77A66EE26
:104C7000266A27EE257A91F92F3047EE267A07EE3D
:104C8000103ADFED126AB8EEC77A47EE267A9FED4A
:104C9000107A07EE870A70479FED0E0A704700BF33
:104CA00000007A470000803800000036000000381D
:104CB0000000003700008049000080470000803974
:104CC0000050C345000000300000803B000000435E
:104CD0000000803D0000000091ED0E6ADFED306ABB
:104CE00091F9153086EE267A06EE903ADFED2D5AD0
:104CF000F8EEE66AB7EE000A66EEA56A91F916309C
:104D000006EE870A06EE903AFAEEC66A66EE876A03
:104D10004B8A06EE870A06EE903A07EE900AFBEE03
:104D2000C76A91F9143020EE260A06EE103A0B8A73
:104D3000F8EE676A07EE903AB3EE005AF8EE677A3B
:104D4000BAEEEF6A67EE857A46EE077A76EEE77A94
:104D500091F9183020EE270A06EE903ACB7DFAEE54
:104D6000E56A07EE903AF8EE677A67EEA57A46EEC6
:104D7000877A67EE807A07EE800ADFED0B7AB4EE71
:104D8000E70AF1EE10FA07DCB5EEC00AF1EE10FA10
:104D900001D59FED060A7047B0EE670A704700BF65
:104DA0000000A045000080380000C842000000005C
:104DB000B1F91A30B0F5C87F07EE903A28BF4FF42A
:104DC000C870FAEEE87ADFED2B6A9FED2B7A07EEDA
:104DD000A67AF7EE006A07EE900AF0EE665AF8EE51
:104DE000677A91F9193047EE275A07EE103ADFED4E
:104DF000237ABAEECE7A91F91C3037EE277A07EE95
:104E0000903A91F90E30FAEECB7A06EE103AB8EEFF
:104E1000C66A67EE867A91F83C3045EE877A07EEEF
:104E2000103AB1EE006AB8EE477A37EE067A91F999
:104E30003D30C6EE075A07EE103A67EEA57AB8EE97
:104E4000C77A9FED0F6AF0EE665A47EE065AB3EE48
:104E5000097A86EEA56A17EE867ADFED0A7A67EEA2
:104E6000277AFCEEE77A82B0CDED017A9DF8040056
:104E700002B070476F12033A75021A3B00004442B9
:104E80006F12033B9A99594006EE900AF0B52B4CED
:104E9000A1B06D46264607EE902A9FED297AF8EEDE
:104EA000666A0F460FCE0FC50FCE76EEC76AF8EED4
:104EB000E77AB1EE046A9FED237A0FC50FCE0FC5D6
:104EC00096E80F00403485E80F000FCC10AD0FC5F9
:104ED0000FCC0FC50FCC0FC594E80F0085E80F006D
:104EE00020AB03EB870353ED205A07EE867A9FED44
:104EF000166AB7EE000AC5EE867A77EE807A27EE5C
:104F0000277AC6EE877A53ED106A37EE807AC6EEBE
:104F1000867A012377EE807ADFED0C6ABB4067EE7C
:104F2000A67A06EE903AF8EEE66A67EEA67A67EEA3
:104F3000277A80EE270A21B0F0BD00BF98E800086C
:104F4000000000440080A7440000C842BD3706347A
:104F5000F0B54C4B064618681B7987B08DF80C30BD
:104F6000002302900DF107000D4604938DF81430D4
:104F700008F0E1FB044628B10EB94FF0FF3420469B
:104F800007B0F0BD294608F099FB07460446002EFD
:104F9000F3D00028F3D12B460522712004A908F094
:104FA0009EFA85F84D7004460028E8D12A4607216C
:104FB000F01C08F0E6F904460028E0D10521701C39
:104FC00008F0DFF904460028D9D1B01C08F0D9F95F
:104FD00004460028D3D1304608F0D3F9044600280F
:104FE000CDD10821301D08F0CCF904460028C6D1E7
:104FF000F3789DF814209B0003F01C0322F01C02A0
:105000001A439DF81330717803F01F0343EA4113EC
:10501000B17823F01C03890001F01C010B438DF8CB
:10502000133031789DF8113001F0070123F00703A8
:105030000B4331798DF8113008290ABF0021002077
:10504000012002F01F0343EA41138DF814309DF84C
:105050001030052203F07F0343EAC0138DF81030AF
:1050600004A92B4602A808F0F0F904469DF80700B1
:10507000002884D0002C82D1294608F01FFB04466A
:105080007DE700BF90E8000837B51F4B0546D3F811
:105090008000B3F884300C460090ADF8043011B9AC
:1050A000002003B030BD0521601C08F06AF900281B
:1050B000F6D1A01C08F065F90028F1D1204608F0CF
:1050C00060F90028ECD16378022D03F108036B44EA
:1050D00013F8082CA37803F108036B4413F8083C79
:1050E0001344227802F108026A4412F8080C1844AA
:1050F00040F2AB7303FB00F00BBF00F5865000F5E8
:10510000A55040180D30CCE798E800082DE9F04F85
:10511000B5B01E4622AB009207460D4618464822FF
:10512000002108F09BFC28AB0A900B9330462EAB75
:105130000C9308F018F9044628B14FF0FF342046CC
:1051400035B0BDE8F08F002DF7D0012F40F0D480AE
:10515000014615900D2216A808F080FC4FF00508B6
:10516000334611221D2015A908F0B9F99DF85520E4
:105170009DF854C0AA709DF856200CF0800301924F
:105180009DF857200CF00F0C02929DF8582085F8DE
:1051900001C003929DF859209DF862B004929DF8D9
:1051A0005A209DF8649005929DF85C209DF85BA0C4
:1051B00006929DF85D2007929DF8612008929DF867
:1051C00063200992B268012A0CBF09F030020BF08B
:1051D000300213432B701B067FD5002840F09781C7
:1051E00033460122E91C0CF15A0008F078F9002836
:1051F00040F08D816878334650300122291DC0B2BD
:1052000008F06DF9002840F08281687833466430F8
:105210000122691DC0B208F062F9002840F07781D0
:10522000059B4FEA1A1040EA0310049B314640EAFE
:105230000330FFF749FC039B85ED020A1809029B26
:1052400040EA0310019B40EA0330FFF77DFCDDE9F3
:10525000062385ED030A43EA0220FFF73DFDB3680C
:1052600085ED040A012B2AD1099A4FEA991343EAE2
:1052700082034FF4802209F00F0922FA09F207EEA7
:10528000102ADFEDA47AB8EEC77A03EB430303F5E7
:10529000206327EE277A07EE903AF8EEE77AC7EE1A
:1052A000276AC5ED056A95F90030002B01DB002760
:1052B0000224009B002B3FF440AF1F703FE7089B88
:1052C0004FEA9B1096F93E200BF00F0140EA830055
:1052D000FFF7DAFD85ED050AE5E7002840F01781C4
:1052E00042F21070B36C716808F1FF38984718F0FB
:1052F000FF087FF435AFD6E7023F012F00F20481AB
:1053000001462F22159016A808F0A8FB1A22214664
:105310000EA80D9408F0A2FB334633221D2015A9D8
:1053200008F0DDF80028C2D133461E2250200DA916
:1053300008F0D5F80028BAD10DF12809CA468046F0
:10534000DFED743A15AC5AF8047B6378A278BB7031
:10535000E378A0791B0143EA02332279000143EA92
:10536000121301936379227A40EA0330E3792178BA
:1053700040EA1310637A94F80EB043EA02230293D2
:10538000637B227C0393E37B01F0800C0493B3687E
:1053900001F00F01012B0CBF02F0300E0BF0300EAC
:1053A000059301F1D0034CEA0E0C79700DEB03016B
:1053B00087F800C011F89CCC87F804C011F892CC93
:1053C00011F8881C87F803C079713146FFF77CFB20
:1053D000019887ED020AFFF7B7FB029887ED030AF1
:1053E000FFF77AFC059B87ED040A012B5AD104993B
:1053F000930943EA81034FF4802102F00F0221FA5E
:1054000002F207EE902A03EB430303F52063F8EE64
:10541000E77A07EE103A67EEA37AB8EEC77A87EE1E
:10542000870A08F10108B8F1030F87ED050A04F1B6
:10543000110488D100274A463B4652F8041B013329
:1054400091F90010DBB20029BCBF0137FFB2032B7A
:10545000F3D14A460023164603F1010C04321146EB
:10546000E646306851F8044B90F900B090F802A07D
:10547000BBF1000FA37894F9008022DAB8F1000F95
:1054800022DAA3EB0A039BB203F102081FFA88F8A1
:10549000B8F1010F02D91BB2022B15DD346041F8BF
:1054A000040C11E0039B4FEA9B1096F93E200BF091
:1054B0000F0140EA8300FFF7E7FCB2E74FF0020E6E
:1054C000CFE7B8F1000FE9DBBEF1010FF6D0BCF178
:1054D000020F4FF00103BED14FF0000C4FF0180E39
:1054E0000EFB0C5459F8046B0CF1010C0FCE0FC4D9
:1054F00096E80300BCF1030F84E80300F0D1B7FA8B
:1055000087F464096400D4E607460124D1E6044622
:105510000027CEE60024744947F270132DE9F04FBE
:1055200091B0074690460E46ADF80C3029B94FF0C1
:10553000FF34204611B0BDE8F08F1146002008F07E
:10554000BDF804460028F4D16E23874A8DF80B304D
:10555000D2F88600D2F88A1004AB03C3B2F88E20CA
:10556000022F1A8007AB03C31A800AAB03C31A8049
:105570000DAB03C30DF110091A800DF11C0A00F0E8
:105580009980032F61D0012F01D00124D1E75A2344
:10559000414670888DF81030FFF70AFC64238DF8BF
:1055A0002830B3888DF81C00B3F57C6F4BD23F2BAD
:1055B00004F1010244D803EB8413DBB200258DF81B
:1055C000343043463A465146484607F03EFF0446CB
:1055D0000028AED143463A460DA90AA807F035FF88
:1055E00004460028A5D14346022270200DA907F0E9
:1055F00076FF044600289CD13378012B40F0B1801F
:10560000D8F80820012A08BF02239DF834200DA9EC
:1056100022F0080242EAC4049DF8352003A822F0D3
:105620000F02154325F0300545EA031502224346D3
:105630008DF834408DF8355007F007FF044678E7C1
:1056400014469B08B3E7FF23B8E7F268002A3FF44B
:105650006EAFB568002D3FF46AAF377C5FFA84FB0C
:105660005F4501D83D46ACE70BF15A03414635F89A
:10567000140009F80430FFF79BFB0BF1640B0AAB35
:1056800003F804B032F814300AF80400B3F57C6F64
:105690000ED200213F2B01F1010006D803EB81134C
:1056A000DBB20DA90B550134D8E701469B08F1E7A1
:1056B000FF23F6E7F368002B3FF439AFB26800929E
:1056C000002A3FF434AF758A0022002D08BF03245E
:1056D000377C5FFA82FB5F4518D840F282739D42A7
:1056E00030D84FF47A735D4340F2DD13B5FBF3F528
:1056F0000023ADB23F2D03F1010220D805EB831545
:10570000EDB28DF80A50FCB1032412E70193009B1F
:105710000BF15A0133F8120009F802104146FFF765
:1057200047FB0BF1640B0AAB03F802B0019B0AF8CC
:10573000020033F812100DA881540132C9E7134654
:10574000AD08D7E7FF25DCE7434601220DF10A014A
:105750000DF10B0007F079FE044600287FF4E9AE56
:1057600080E70346012450E798E8000870B50D462D
:10577000164600215022044608F070F901232E70CD
:105780002373054B65602364044B6364044BA3647B
:105790001923A37370BD00BF99D7000863D7000811
:1057A0005FD700080530C0B208289ABF024B53F8F3
:1057B00020000248704700BF98E9000828E9000867
:1057C00030B504460D46A0220021A5B008F046F9E8
:1057D000294604F1100007F0EDFF0546607010B196
:1057E000002025B030BD00F0D5FA0028A070F7DB0E
:1057F00048220F490DEB020008F03BF940222946F0
:1058000002A808F02BF9082309218DF8073002AA15
:105810000DF1070312A800F0CBFA0028A070DFDB1F
:1058200001252570FFF7BEF8C4E902012846D8E734
:10583000F8EA0008F0B50025EFB004464022002148
:105840000EA808F00BF92022294606A8CDE9035539
:10585000ADF8145008F002F9602229461EA808F09D
:10586000FDF8E022294636A808F0F8F80E238DF856
:105870000B3023788DF80A50002B00F09480FFF74E
:1058800091F8D4E90223904271EB0303C0F28B80BC
:105890000EAA00F009FBA842A070C0F28480DDE9E6
:1058A0000E23C4E902239DF87530002B7BD09DF8B0
:1058B000733006AA8DF80C309DF8743003A98DF86A
:1058C0000D309DF8723004F110008DF80E30119BF0
:1058D0008DF80F5004939DF871305B1B18BF0123A6
:1058E0008DF8143007F07CFF607000285BD1DDED8F
:1058F000067A9DED077A109DC4ED1E7AEB0784EDC4
:105900001F7A40D4AF070DD5DDE90C23B0EE470A6E
:10591000CDE900230DF10A0102221EA807F0DEFFE7
:1059200000283ED06E0715D5DDE90C67B0EE670A9A
:105930000322CDE900670DF10A011EA807F0CEFF92
:1059400078B39FED530A0E22CDE900671EA807F039
:10595000C5FF30B3280729D429023AD49DF80A108C
:105960000DF10B0336AA1EA800F034FA0028A0702F
:1059700019DB00219DF80B0036ABCAB290423BD830
:1059800094F8680010E0DDE90C239DED080ACDE9EC
:1059900000230DF10A0101221EA807F09FFF002835
:1059A000B0D1FF23A37000206FB0F0BD9DF82A3066
:1059B0009A06D1D5DDE90C239DED090ACDE9002336
:1059C0000DF10A0104221EA807F088FF0028C3D1A8
:1059D000E7E79DF82A309B06C0D5DDE90C239FED53
:1059E0002D0ACDE900230DF10A0118221EA807F0A7
:1059F00075FF0028B2D1D4E75A7B013A142A16D891
:105A0000DFE802F01C152327151515152B15153386
:105A10003C0B1815151515152F009A68C4F8802031
:105A20000122D3E90067C4E91C6784F868200131CA
:105A30001033A2E79A68C4F88420F1E79A68C4F8A2
:105A400088209A7B84F89C20F1E79A68C4F88C201F
:105A5000EDE79A68C4F89020E9E79A68C4F89420C2
:105A6000E5E79A68C4F89820E1E7D3ED027AFCEE06
:105A7000E77A17EE902A84F89D20D8E7D3ED027AD2
:105A8000FCEEE77A17EE902A84F89E20CFE700BF5D
:105A90008D97EE3E000000000E28024622DC10F139
:105AA000230F49DB2332312A46D8DFE802F0434195
:105AB0003F45454545454545454545454545453DA4
:105AC0003B3937353331452F4545452D4545452B28
:105AD0002919452123472545454545454545452740
