:020000040800F2
:1000000000100020892200083BC400083BC40008FF
:100010003BC400083BC400083BC400083BC40008C4
:100020003BC400083BC400083BC400083BC40008B4
:100030003BC400083BC400083BC400083BC40008A4
:100040003BC400083BC400083BC400083BC4000894
:100050003BC400083BC400083BC400083BC4000884
:100060003BC400083BC400083BC400083BC4000874
:100070003BC400083BC400083BC400083BC4000864
:100080003BC400083BC400083BC400083BC4000854
:100090003BC400083BC400083BC400083BC4000844
:1000A0003BC400083BC4000819240008F9230008D9
:1000B0003BC400083BC400083BC400083BC4000824
:1000C0003BC400083BC400083BC400083BC4000814
:1000D0003BC400083BC400083BC400083BC4000804
:1000E0003BC400083BC400083BC400083BC40008F4
:1000F0003BC400083BC400083BC400083BC40008E4
:100100003BC400083BC400083BC400083BC40008D3
:100110003BC400083BC400083BC400083BC40008C3
:100120003BC400083BC400083BC400083BC40008B3
:100130003BC400083BC400083BC400083BC40008A3
:100140003BC400083BC400083BC400083BC4000893
:100150003BC400083BC400083BC400083BC4000883
:100160003BC400083BC400083BC400083BC4000873
:0C0170003BC400083BC400083BC400086E
:100180002DE9F0470027164605460C4684B093F843
:1001900000A0DDF830901F7051469FED270B0D98A1
:1001A000984600F09DFF89F800703B462246314694
:1001B0002846CDF8009001F051FB99F9007017B175
:1001C00004B0BDE8F0872246314628460DF10F0302
:1001D0008DF80F7000F0FCF989F800006EB104EBA7
:1001E000061694ED020AD4E90023617B28460097A5
:1001F000103405F01BFEB442F3D1284695F8AE1436
:1002000005F0BAFABAF1000F0BD1022389F80030D9
:1002100000232846C5F8E43200F0D4F904B0BDE864
:10022000F0875246414628460D9BCDF8009000F0DD
:100230006FFDEDE7AFF30080000000000000084014
:100240002DE9F04F0021002600278BB0159CCDE949
:100250000623C4E90067C4E9021184F839106187F4
:10026000A18784F83E10D0F8C634D0F8CA64D0F81C
:10027000CE14D0F8D22466612361A161E261D0F886
:10028000D634149E2362D0F8B234D0F8B674D0F8C5
:10029000BA14D0F8BE246362A762E1622263D0F888
:1002A000C2340546636390F8DA3484F8383090F845
:1002B000F234012B01D000F085F9DDE9062300219D
:1002C0000DF1250009AFB5F8ACA4039031702846B4
:1002D000CDE9002331462246029700F0EDFA9DF861
:1002E000243013B10BB0BDE8F08F21469DF82520D6
:1002F000284600F011FF0DF12609034680462246EC
:10030000012128460097CDF8049000F089F99DF866
:100310002430BDF826603BB195F8CE3384F83A30EE
:1003200095F8CC3384F83B304346224602212846D8
:10033000CDE9007900F074F99DF82430BDF826B0BD
:10034000002B6CD14346224603212846CDE9007993
:1003500000F066F9BDF826209DF824300592002BA8
:1003600071D14346224604212846CDE9007900F0A8
:1003700057F921469DF8243006AA2846BDF8267074
:1003800000F026FDDDE9062305F5A061C1E90023A3
:1003900095F8F234012B4BD05E4528BF5E46059B95
:1003A000B0469E4228BF9846B84528BFB846C245C9
:1003B00028BFC246B5F8C233B3FBFAF80AFB1838B7
:1003C000AAEB080A1FFA8AFAB5F8802353449BB2B5
:1003D000B3FBF2F102FB1133A5F8C6A3A5F8C233B3
:1003E0009FED1D0BADF8262008F0E4F851EC100B42
:1003F00009F0B2FB0B460026A0FB0A0103FB0A1121
:10040000DDE90623821841EB0303C4E900232846F3
:1004100085F8C96300F0BCFD0BB0BDE8F08F95F81E
:10042000CD3384F83C3095F8CC3384F83B3089E701
:10043000B5F8C233B3FBF8F008FB1030A8EB0008A6
:100440001FFA88FAC0E795F8CC332146284684F88D
:100450003B3000F0F9FA84E700000000D01263415D
:100460002DE9F0470646414D05F082FC404F002340
:1004700003E05C1C1E2C234610D045FA03F2D10782
:10048000F7D5DA5D5C1C02F2CB1336F81320304648
:10049000E1B205F01DFD1E2C2346EED1304605F0DD
:1004A000EBFB0025DFF8C490314FDFF8CC8002E091
:1004B00001351E2D35D049FA05F3DA07F8D5EB5D85
:1004C000334493F8B333002BF2D0002438F915A04D
:1004D00002E001340B2CEBD04AFA04F3DB07F8D529
:1004E000631E092B40D8DFE803F0051A1816141212
:1004F000100E0C0A0221304605F0C0FCE9E70B2182
:10050000F9E70A21F7E70921F5E70821F3E70721D1
:10051000F1E70621EFE70521EDE70421EBE70321F1
:10052000E9E700221349C6F8B423C978C6F8B8230E
:10053000C6F8BC23A6F8C02386F8C42301F27B11B9
:1005400036F81100134686F8C82306F5747232F89F
:10055000021B0133884203D0042BF8D1BDE8F08799
:1005600086F8C433BDE8F0870121C4E7EF791200B3
:10057000C4E50008F8E4000888E50008F0B4146851
:10058000049F04EB030C8C4516D805998B4216D8B2
:10059000002B0CDD791ECE18C7F1010700E01468AE
:1005A0007B1811F8015F2344B142C554F7D10020F4
:1005B000C2F800C0F0BC70476FF02800FAE76FF097
:1005C0002500F7E790F8C83303B9704748E700BF44
:1005D0002DE9F041F1B14FF00008DFF840E002EB07
:1005E000011C517BD2E90045714411F8011C103205
:1005F00000EBC101D1E97067BD4208BFB44204D12C
:100600001978002908BF4FF004089445E9D1404605
:10061000BDE8F08188464046BDE8F081F8E4000876
:10062000F0B400271A4C0139645C049D04F27B1479
:1006300030F81440059E2F70348090F8F274012F2A
:100640001ED04FF6FF739C4213D0B0F8C263B6FBC6
:10065000F4F304FB1364A4B26CB901239068C9B22B
:1006600003FA01F101432B7082F83D3082F83E30ED
:100670009160F0BC704790F8C933002BF9D0ECE7DB
:100680004FF6FF77BC42F4D01C463380D9E700BF59
:10069000F8E400081AB3002210B4019C22701A7901
:1006A000013A012A02D95DF8044B7047D3ED007A74
:1006B000F5EE407AF1EE10FA0CBF0123002323700F
:1006C000F1D147F230530A889A4209D04A889A42B7
:1006D00006D00B23029A13705DF8044B70477047E5
:1006E00090F9CA33002BF5D1012380F8C933DAE73A
:1006F0000023F0B56FF0004C1C464FF0010E4FF692
:10070000FF77684D684E05E0BA4218BF01240133F7
:100710001E2B0FD045FA03F2D207F8D59A5D62443A
:1007200031F81220B2F5E16FEED101331E2B80F8C3
:10073000CBE3EFD190F8CB33A3BBB0F8AC74594CFA
:100740003D46594E44FA03F2D20706D59A5D013A66
:1007500031F81220954228BF154601331E2BF1D1E6
:100760004FF6FF72954226D0B7FBF5F305FB1373E6
:100770009BB2A3B916464B4FDFF82CC147FA03F2E0
:10078000D20715D513F80C20013A31F81240B442C3
:100790000ED0B4FBF5F205FB124292B242B16FF0FB
:1007A0000F00F0BD002C0CBF00206FF00F00F0BD5B
:1007B00001331E2BE2D14FF6FF750023AC463B4AB6
:1007C000384EDFF8E4E052F8044B46FA03F724070A
:1007D00010D5FC070ED513F80E40013C31F814403B
:1007E000644507D0654504D0AC4203D06FF01000DB
:1007F000F0BD254601331E2BE5D14FF6FF739D4218
:100800004ED0002300F5747202E00133042B09D0AE
:1008100032F8024BAC42F8D103F5F67330F81330DE
:1008200004339BB200249FED226ADFED226A4FF66B
:10083000FF7C1C4E1C4F46FA04F2D2072BD590F8D1
:10084000CC5390F8CEE390F8CD236D004FEA4E0ED6
:10085000EDB25FFA8EFE52007544D2B22A441A44B9
:1008600092B207EE902AF8EE677A67EE867AE25D3A
:1008700087EEA67A013A31F8122007EE902AF8EEB8
:10088000E77AF4EEC77AF1EE10FA04D5624502D0A9
:100890006FF01100F0BD01341E2CCCD10020F0BD52
:1008A0000423BFE7EF791200C4E5000810E5000853
:1008B0000000C84200007A442DE9F04F8346002032
:1008C0008BB0169B14460BF5A066179AD6E90089E3
:1008D0000D4658EA090118701070149B159A0AD138
:1008E0000BF59C610BF59D6BC1E90032CBE90089EA
:1008F0000BB0BDE8F08F9BF882130029F8D19BF86C
:10090000F214B3EB080A62EB0900022901900AD045
:10091000DBF8E004DBF8E4141B1A62EB0102CBF80D
:10092000EC24CBF8E834DBF8F034454A23F07F437D
:1009300093422FD09FED400BBBF8C68307F03AFEE1
:1009400051EC100B09F008F98C46A0FB08010CFBD8
:100950000811B0EB0A070297019F4FEA101261EBF2
:10096000070742EA01720397DDE902780B11BA42E8
:1009700073EB08073FDAD6E900324FF0640C012729
:100980001B1841EB0202C4E90032169B85F800C037
:100990001F70ADE747F23058BBF8C223294B9FEDDB
:1009A000260BA3FB02135B0B08FB1323A8EB030826
:1009B00007F000FE51EC100B09F0CEF88C461FFA40
:1009C00088F8A0FB08010CFB0811B0EB0A0706979A
:1009D000019F4FEA101261EB070742EA0172079785
:1009E000DDE906780B11974278EB030713DA012350
:1009F000179A13707CE7BAEB00040494019C64EB33
:100A000001010591DDE9040182428B41BFF670AF1F
:100A100064232B706CE7BAEB00070897019F67EB24
:100A200001010991DDE90801904271EB030381DACC
:100A3000DDE700BFAFF3008000000000D01263418B
:100A40003075010073B2E7454FF6FF72064B5B7BD2
:100A500003F27B1330F81330934203D08B6843F4D6
:100A600000538B60704700BFF8E400082DE9F047A1
:100A70009FED2B6A0027DFED2B5ADFF8B0A02A4D3F
:100A8000DFF8ACE0DFF8AC8002E00137182F45D08A
:100A90000126BE4016EA0A0FF7D00C780137013460
:100AA000E4B204F1FF3C02EBCC0C0C7000234FF6D7
:100AB000FF798CED006A8CF804700CE04C4507D08F
:100AC00007EE904AF8EE677A85EEA77A8CED007A09
:100AD00001331E2BDAD045FA03F4E407F8D55EF8AB
:100AE00023402642F4D09CED007AB4EE467AF1EE33
:100AF00010FA13F8084004F2CB1430F81440DDD09B
:100B000007EE904AF8EE677AC5EEA76AB4EEE67A89
:100B1000F1EE10FA48BFCCED006AD9E7BDE8F087E6
:100B200000FF7F470000C842EF7912000F20E0006D
:100B300010E50008C4E500082DE9F0434FF03D083A
:100B40004FF0000987B004AA044600264FF0010EBA
:100B50004FF0060C022713460D46CDE90289DDE968
:100B6000020182E8030084F801E003CB84F802C0AC
:100B7000E77026706060A1602B682046103B2373ED
:100B8000C3F30721C3F30742C3F30763A273E373FD
:100B9000617301AA296807F0A7FD2B689DF804205E
:100BA00023441A712B689DF8052023445A712B6841
:100BB00023449E7128680444E6712B6808332B6037
:100BC00007B0BDE8F08300BF2DE9F0470E2482B0E6
:100BD00006461746FE200DF103020D468DF8034030
:100BE00007F0BEFC9DF803800190B8F1000F2AD0F9
:100BF000012406F2C64A06F2B249E3B2013B0D2BCC
:100C00000FD8DFE803F02F273F374714665E564FB3
:100C1000766E7D073A46294696F8DC0401AB05F06E
:100C2000C3FAA04504F101030CD01C46E5E701AB73
:100C30003A46294606F5926005F0ECFCA04504F121
:100C40000103F2D10198C0F3072328706B7002B042
:100C5000BDE8F0873A46294696F8CD0301AB05F08A
:100C6000A3FADEE73A46294696F8CC0301AB05F035
:100C70009BFAD6E73A46294601AB06F5747005F0B3
:100C80005FFCCEE73A46294696F8CE0301AB05F065
:100C90008BFAC6E73A46294601AB06F57A7005F0AD
:100CA0008BFCBEE73A462946484601AB05F0E2FC1C
:100CB000B7E73A46294601AB06F2AF4005F016FA0F
:100CC000AFE73A46294696F8AE0401AB05F06CFA58
:100CD000A7E73A462946B6F8AC0401AB05F0DEF9C1
:100CE0009FE73A46294696F8DA0401AB05F05CFA2C
:100CF00097E73A462946504601AB05F0BBFC90E722
:100D00003A46294696F8DB0401AB05F04DFA88E730
:100D10002DE9F04FD0F8F0442B4D24F07F44AC4245
:100D200089B03DD005F5881599460F4690460023B9
:100D30004FF6FF7BDFF894A005F2BF4503E05C1C93
:100D40001E2C23462CD045FA03F2D207F7D513F810
:100D50000A205C1C02F2831230F812205A45EFD0B0
:100D60000126D0F8E42206FA03F11142E8D09C19DA
:100D70000DF11303E1B2009305AA06AB03910290B3
:100D800004F058FFDDE902013A789319DBB203F170
:100D9000FF3C424509EB0C1C05D30323129A137048
:100DA00009B0BDE8F08F059A3B70CCF80820DDE96A
:100DB0000623CCE900239DF813308CF80D108CF835
:100DC0000C608CF80E30BBE730750100C4E50008FC
:100DD000002B00F0BD8070B501232DED028B81F852
:100DE000393090F8F2340446012B0D46164686B091
:100DF00006D090F8C43303F2EF1330F813308B8130
:100E000094F8CD23204685F83C2094F8CC130DF1BE
:100E10000B0385F83B1004AA03A904F0FBFEDDEDEB
:100E2000037AF5EE407AF1EE10FA1DD194F8C93349
:100E3000D3B994F8F234012B08D094F8C423022BD0
:100E400002F2EB1234F81220EA8105D004F59D631A
:100E5000D3E90023134377D1D6E90023C4E9E22381
:100E600006B0BDEC028B70BDD4E9E223D4E9E40105
:100E7000824273EB010CCDE9042303DA02460B46F0
:100E8000CDE90401D6E90001801A61EB030108F005
:100E9000BDFDDFED377A07EE100A87EE270AF1EE87
:100EA000000A8DED030A09F097FDF0EE080AB0EE96
:100EB000408A9DED030A09F08FFDDFED2E6ADFED1C
:100EC0002E7A9DED037A28EE268A20EE270ADFEDA2
:100ED0002B6A67EE077A38EE008A67EEA67ADFEDB6
:100EE000286A78EE277A27EE267A9FED268A77EE13
:100EF000877A9FED257A77EE887A67EE877AF8FE13
:100F0000677AFCEEE77A17EE902A94F8C933EA8103
:100F1000FBB900939FED1D0AD6E900231621204658
:100F200004F084FF94F8F234022B05D004F59D639D
:100F3000D3E90023134307D194F8C933002B8BD096
:100F4000D6E90023C4E9E42306B0BDEC028B70BDF2
:100F500070470021D6E90023B7EE000A0091204631
:100F6000162104F063FFAB6843F40013AB60D9E7CC
:100F7000286B6E4E598207B0DFE0C2343767D9B8AC
:100F80005A8E863C6A92E43E00007A4400000000DB
:100F900070B50446D0F88803D4F88C13101A2DEDE0
:100FA000028B63EB010115461E4608F02FFDDFEDB5
:100FB000188A07EE900A9FED178AC7EEA87AF4EE1A
:100FC000C87AF1EE10FA06D49FED137AF4EEC77AE0
:100FD000F1EE10FA05DD652384F8CA33BDEC028B0F
:100FE00070BDD4E9E401281A66EB010108F00EFD9A
:100FF00007EE900AC7EEA87AF4EEC87AF1EE10FA7E
:101000004CBF6623002384F8CA33BDEC028B70BD4D
:10101000286B6E4E0000704200007043F0B4002454
:1010200082B0DDE9066C34708CF800400D68471919
:101030007F78455D8DF805708DF80450BDF804701B
:10104000089D9F422F6004D9E023337002B0F0BCAA
:1010500070474FB12346541E0D68C618755D0133A5
:101060009F4204F8015FF7D193788CF800300B6849
:101070001F440F6002B0F0BC704700BF0B4B10B4B0
:10108000194411F8013C00EB4301B1F89643944236
:1010900004D00124013B034483F8B4430123A1F8A5
:1010A00096235DF8044B80F8C8337047C4E5000808
:1010B0000139032900D9704710B50446483006F0BD
:1010C00041F90121204604F0D9FE04F12C0006F07C
:1010D00029FE2046BDE81040022104F0CFBE00BF2B
:1010E000F8B5002204460D46002351EC100B08F021
:1010F00043FB78B175B1204600230022002600276B
:1011000004EB05114373826003738373E0E80467A3
:101110008842F7D1F8BD00BFF8B590F8F234044624
:10112000012B0D4608D0022B37D003B300234FF616
:10113000FF7084F8F234F8BD00F59F6300F59D61FF
:10114000D1E90001D3E90067B04271EB07032DDB61
:1011500047F230530221B4F8AC24B4F8F0049A42B8
:1011600084F8F214E7D10023A4F8C233F8BD0126B5
:1011700080F8C863FFF774F947F23052B4F8FE32D2
:101180009342A4F8F03478D0B3F5967F3DD0022393
:1011900084F8F2344FF6FF70F8BD00F59D63D3E993
:1011A00000231343C2D04FF6FF70F8BD002ACFD101
:1011B0003BA3D3E9002382428B411DDA3AA3D3E952
:1011C000002382428B4150DA39A3D3E900238242C3
:1011D0008B415CDA38A3D3E9002382428B4141DBA7
:1011E00047F23053B4F8F0249A423BD1C5224FF471
:1011F000A073EA81AB8135E04FF47A724FF4BE738D
:101200004FF49670EA81AB81F8BD04F59F6284F8D3
:10121000F2642BA1D1E90001C2E9000120A7D7E9BE
:10122000006704F59D64D4E90001864277EB010272
:10123000E2DA1DA7D7E90067864277EB010214DAEC
:101240001BA7D7E90067864277EB01021FDA1AA7CE
:10125000D7E90067864277EB010203DB47F23052A1
:101260009342C3D04FF49670F8BD4FF47A72962330
:101270004FF49670EA81AB81F8BD04F59F6284F863
:10128000F26411A1D1E90001C2E90001C6E74FF4FF
:101290007A72C8234FF49670EA81AB81F8BD00BF23
:1012A000FFE30B5402000000FFD5117E0300000095
:1012B000FFC717A804000000FFB91DD205000000F9
:1012C00000C817A80400000000BA1DD205000000E5
:1012D0002DE9F04706464FF6FF700022002300215B
:1012E0004FF001094FF481784FF0050E06F2E63415
:1012F0002546A6F8F0048446964F06F59C6006F550
:101300009F6A86F8F214CAE90023C0E9002306F5B3
:101310009D60C0E900238AB086F8DC1486F8DB946F
:101320000FCFA6F8CC83C6F8D003C6F8D413C6F8FE
:10133000D82303CFC6F8DC3386F8CEE306F28E4717
:10134000C6F8E003C6F8E41325F802CFBD42FBD18E
:101350004FF0641240F2DC517F48C6F8F023C6F823
:10136000FC23C6F80424C6F80824C6F81424C6F8DA
:101370001C24C6F87C04794A79487A4BC6E9FA22DB
:10138000C6F8F823C6F80024C6F80C24C6F81824BA
:10139000C6F81004744A7548754DDFF8E8E1A6F800
:1013A0008014A6F86C14C6F86034C6F86434C6F825
:1013B0003C34C6F84034C6F84C34C6F85034C6F84D
:1013C000F453C6F82024C6F82424C6F82824C6F806
:1013D0002C24C6F83024C6F83424C6F83824C6F8BD
:1013E0004404C6F848040EF14008C6F8543406F523
:1013F000507CA6F86E1475460FCD4545CCF800001C
:10140000CCF80410CCF80820CCF80C300EF1100EFB
:101410000CF1100CEFD108AB0120009304AA06AB2D
:1014200002A907F0E5F900230499C6F85433C6F879
:101430005833C6F85C33089B4FF08042C6F8481317
:10144000C6F840330799039BC6F86413C6F86C339B
:101450004FF6FF713B464748DDF818C0029DC6F8BD
:101460007423C6F87823C6F87C03099A0598C6F851
:101470006023C6F844C3C6F84C53C6F8680306F2A6
:10148000AA4223F8021F9342FBD14FF0000C0A2519
:10149000394B3A4886F882C386F8B054C6F8AC3463
:1014A0004FF4A071052200F10C0506F5966306F2D3
:1014B000C44C03E010F9012F35F8021F23F8022F66
:1014C00063459982F6D10A2200234FF6FF7186F810
:1014D000DA24A6F8803334F8023F8B4205D0B6F800
:1014E00080239A4238BFA6F88033BC42F3D1002350
:1014F0000127234CDFF890C044FA03F2D20711D53C
:1015000013F80C2006EB4201B1F88E04B1F89653A3
:10151000013A85421CBF921982F8B473A1F8960370
:1015200086F8C87301331E2BE6D1012106F2B333CE
:1015300006F2C13203F8011F9342FBD196F8C8337B
:1015400013B90AB0BDE8F0873046FEF789FF0AB04C
:10155000BDE8F08730E40008DC05DC053075307547
:1015600030756400701770172C012C0108070807EC
:1015700064003075000010413075000588E40008F3
:10158000EF79120048E40008C4E50008F0B4002137
:101590000022002347F230564FF6FF7400F5A06793
:1015A00080F8C413A0F8C2130D46C7E9002300F267
:1015B000B231C0E9E223C0E9E423A0F8C66300F237
:1015C000963300F2B33223F8024F8B4202F8015FE8
:1015D000F9D14FF4CC03F0BCC0F8C833704700BF5A
:1015E0002DE9F04F2DED048B87B0DDF854B0029358
:1015F00091B3002382460E4614460125DFED928A00
:101600009FED928A9FED929A924F01932279531EF9
:10161000DBB247FA03F1C90733D51D2B31D89AF84D
:10162000DC14D4ED007A01291BD01B3A032A1BD904
:101630009BF9002023320FD0012202FA03F3019A12
:1016400013422DD0F3238BF800302B469E4204F139
:10165000080405F10105D9DC07B0BDEC048BBDE839
:10166000F08F163A032AE3D8F4EE487AF1EE10FA36
:10167000DED0DD238BF8003007B0BDEC048BBDE875
:10168000F08F2B460A229E428BF8002004F10804BA
:1016900005F10105BADC07B0BDEC048BBDE8F08FA5
:1016A00088EEA77AF8FE477AFCEEE77A17EE902AE2
:1016B000019992B21943104691460392019107F0A5
:1016C00051FD5FA3D3E9002307F0C6FD41EC100BE9
:1016D000BAF8AC8406F06EFF51EC100B08F056F827
:1016E0004A4680B2131A9BB29845D4ED007A50D97D
:1016F00013189BB298454CD2F5EE407AF1EE10FAF1
:1017000040F08280F6238BF80030D4ED007AF5EEBD
:10171000407AF1EE10FAB0EE677A75D1B5EEC07A84
:10172000F1EE10FA3CDDB4EEC87AF1EE10FA37D5DE
:10173000227949490AF1A8030A4412F8012CCDE99B
:10174000045403EB42031D46039C0AEB4209B9F81B
:10175000E68309F11C09404607F004FD38A3D3E9EC
:10176000002307F079FD41EC100B06F023FF51EC4C
:10177000100B08F00BF880B2A8EB00039BB280447A
:101780009C421FFA88F828D3444526D8DDE9045442
:1017900010E0F4EE487AF1EE10FA27D1B0EE677A55
:1017A000B5EE407AF1EE10FA14BF4FF0FF3300238C
:1017B0009BB203939BF90030002BFFF646AF2379D1
:1017C000254A0399134413F8013C149A03F100438A
:1017D000013B22F813102B4638E74D45B7D1F423CF
:1017E000DDE904548BF800302B462FE7029B002BD9
:1017F00082D1039BB3F5E16F3FF47EAF0E238BF8EC
:101800000030D4ED007A77E7F4EE487AF1EE10FA82
:10181000C4D0B2EE047AF4EEC77AF1EE10FA07DC27
:10182000F4EEC97AF1EE10FA02D4B0EE677A75E7F9
:10183000F2238BF8003094ED007A6FE7AFF300806D
:101840007B14AE47E17A843F0000C84200FF7F4727
:101850000E74DA3AEF791200C4E500082DE9F0437E
:10186000DDF81CC0D9B100264FF0010E1F4FDFF884
:10187000808002F108056C79621ED2B2172A47FAFD
:1018800002F90ED819F0010F0EFA02F209D01A422D
:10189000444443EA020309D0FA238CF80030BDE83F
:1018A000F083FF238CF80030BDE8F08314F8012C9E
:1018B000D5ED007A00EB820292EDCF7AF4EEC77A92
:1018C000F1EE10FA0AD492EDD77AF4EEC77AF1EE7F
:1018D00010FA06F1010605F1100503DDFE238CF870
:1018E0000030DCE78E42C6D1D9E700BF0F20E00010
:1018F000F8E40008F0B50C46002189B00E9E172CC4
:10190000316003D8DB221A7009B0F0BD944203D9CC
:10191000DA221A7009B0F0BD05460278A9788DF870
:101920000C204078EA788DF80E108DF80D008DF8B7
:101930000F20039A2C498A4205D0013203D0DE22BF
:101940001A7009B0F0BD294606AF3A4651F8040FA7
:101950000DF1100C49688CE8030003C2DDE90401B5
:10196000002908BF3D2807D0002908BFB0F1FF3F7C
:1019700002D0DD221A70C7E72A7BA97B8DF80C20E4
:10198000687BEA7B8DF80D008DF80F208DF80E1026
:10199000039901F11802A24202D0D8221A70B3E7CB
:1019A000103102AA28462C44019306F09DFE14F83B
:1019B000042C9DF80810019B914202D0DC221A7081
:1019C000A2E79DF8091014F8032C9142F6D114F8FF
:1019D000022C002AF2D114F8012C002AEED1102199
:1019E00031601A7090E700BF000106022DE9F04750
:1019F00086B005AB04AECDE9003604460DF10F0309
:101A0000FE200D4606F08AFD9DF90F00002869D1E1
:101A10004FF0010A04F2C64904F2B24804F2AF479B
:101A20005FFA8AF3013B0C2B00F2B080DFE803F091
:101A3000A7A099928B847D76706A645D0700314619
:101A4000284604F0ABFB84F8DB040AF1010ABAF182
:101A50000F0FE5D19DF90F00002843D14FF6FF7617
:101A6000A4F8800304F2E63304F28E4533F8022F23
:101A7000B24205D0B4F88013914238BFA4F8802355
:101A80009D42F3D100234FF0010C444EDFF810E1EA
:101A900046FA03F2D20711D513F80E2004EB4201E7
:101AA000B1F88E54B1F89673013AAF421CBF1219C7
:101AB00082F8B4C3A1F8965384F8C8C301331E2B2F
:101AC000E6D1012104F2B33304F2C13203F8011F5D
:101AD0009342FBD194F8C83323B12046FEF7C0FCF3
:101AE0009DF90F0006B0BDE8F0873146284604F0A6
:101AF00055FB84F8DA04A8E74A463146284604F044
:101B00005BFCA2E742463146284604F055FC9CE7C0
:101B10003A463146284604F0D5FA96E7314628463B
:101B200004F03CFB84F8AE048FE73146284604F00D
:101B3000A3FAA4F8AC0488E73146284604F592627B
:101B400004F0ECFB81E73146284604F57A7204F094
:101B5000A3FB7AE73146284604F5747204F072FB61
:101B600073E73146284604F019FB84F8CE036CE78E
:101B70003146284604F012FB84F8CD0365E7314670
:101B8000284604F00BFB84F8CC035EE73146284678
:101B900004F004FB84F8DC0457E700BFEF7912007F
:101BA000C4E50008032906D98378FE2B0CBF00206A
:101BB0006FF0630070476FF067007047000000002F
:101BC0002DE9F04F00224FF0090BDFED205A9FED79
:101BD000206ADFED206AB1EE047ADFED1F7A4FF064
:101BE000FF346FF00045DFF880A0DFF88090DFF869
:101BF0008080DFF880E0DFF880C0184F184E194968
:101C0000C0ED015A80ED046AC0ED056A80ED067AE8
:101C1000C0ED097AC0E9164580F800B0C0F828A0E8
:101C2000C0F82C90C0F83880C0F83CE0C0F840C044
:101C3000C764066501668260C260C26102620263B7
:101C4000426342648264BDE8F08F00BF07F0963DB6
:101C50001C7CE13D3480D73FCDCC0C3E5DFEE33EA5
:101C6000363C85BF0000404067D5273EE63F4CC06C
:101C700091ED3CBFFB3A403FB15083402DE9F04726
:101C800086B004AB05AE04460078CDE900360DF110
:101C90000F030D4606F042FC9DF90F00E0B94FF02E
:101CA000010A04F1400904F12C0804F118075FFA55
:101CB0008AF3013B032B24D8DFE803F01D17110240
:101CC0004A463146284604F01DFC0AF1010ABAF1E1
:101CD000060FECD19DF90F0006B0BDE8F087424633
:101CE0003146284604F00EFCEFE73A4631462846D6
:101CF00004F008FCE9E731462846221D04F002FC06
:101D0000E3E73146284604F011FA84ED180ADCE7CF
:101D10002DE9F0432DED048B83B0BDF8404005461E
:101D2000DDE90E89B4F5E16F17461E46B0EE408A34
:101D3000F0EE608A6BD028D941F270739C422ED0AD
:101D400047F230539C4208BF012408D1D5E916015F
:101D50004FF0FF326FF0004306F078FD08B39FEDBF
:101D6000309A4FF0FF326FF000433846314606F0AC
:101D70006DFD08B9C5E9167638EE490A30EE680AF5
:101D800003B0BDEC048BBDE8F083642C05D0B4F542
:101D9000967F08BF0424D9D0E1E70524D6E70224C2
:101DA000D4E7D5E91601B8EB000069EB010107F0B3
:101DB00025FA19A3D3E9002307F078FB0B46024666
:101DC000CDE9002307F002FDDDE9002305EB8404E3
:101DD00007EE900AD4ED009A94ED057A67EEA99A81
:101DE00094ED0A9A1046194627EE899A79EE879A59
:101DF00007F032FA07F0EAFC07EE900A94ED0F7A4A
:101E000079EE277A77EE877A89EEA79AA9E790ED9F
:101E1000189AA6E7AFF300800000000065CDCD4121
:101E2000000000002DE9F047052482B007469046E7
:101E300000780DF103020D468DF8034006F090FB8B
:101E40009DF80360019036B3012407F1400A07F1C1
:101E50002C09E3B2013B042B0BD8DFE803F031106F
:101E60002A2303004146284697ED180A01AA04F0E8
:101E700075F9A64204F101030CD01C46E9E701AB59
:101E80004246294607F1180004F0D8FAA64204F1A8
:101E90000103F2D10198C0F3072328706B7002B0E0
:101EA000BDE8F08742462946504601AB04F0C6FA29
:101EB000DFE742462946484601AB04F0BFFAD8E7BF
:101EC0004246294601AB381D04F0B8FAD1E700BFFD
:101ED0002DE9F043012485B08046914600780DF14C
:101EE0000B020E468DF80B4006F03AFB9DF80B50A6
:101EF000039035B1002403AF54B10134A542FBD1A6
:101F00000398C0F307233070737005B0BDE8F08309
:101F1000D8E916014B463246009704F06DF9ECE71C
:101F200070B586B004AB05AE04460078CDE9003646
:101F30000DF10F030D4606F0F1FA9DF90F0008B1FF
:101F400006B070BD3146284604F03AF9C4E91601DE
:101F50009DF90F0006B070BD51EC100BC1F30A5390
:101F60002DE9F041A3F2FF350C460646132D34DC73
:101F7000002D20DB364B0F4643FA05F801EA080333
:101F800003432FD030A3D3E9002306F0AFFF002294
:101F9000002307F0F1FB40B1002C03DD4FF4801368
:101FA0002B411F4427EA080400262346324643EC0F
:101FB000102BBDE8F08124A3D3E9002306F096FF9F
:101FC0000022002307F0D8FB0028EED0002C36DBDF
:101FD0003443E9D000261F4CE7E7332D06DDB5F585
:101FE000806F25D041EC100BBDE8F081A3F21343C4
:101FF0004FF0FF37DF403842F4D013A3D3E900237A
:1020000006F074FF0022002307F0B6FB0028CCD0B6
:10201000002C334609DD142D06D0C5F1340501220C
:10202000AA4013449E4200D9013423EA0706BCE7C4
:1020300002460B4606F05AFF41EC100BD4E700268F
:102040004FF00044B1E700BF9C7500883CE4377E48
:10205000FFFF0F000000F03F51EC100BC1F30A53DB
:102060002DE9F041A3F2FF350C460646132D32DC74
:10207000002D20DB384B0F4643FA05F801EA080330
:1020800003432DD032A3D3E9002306F02FFF002213
:10209000002307F071FB40B1002C03DA4FF48013EA
:1020A0002B411F4427EA080400262346324643EC0E
:1020B000102BBDE8F08126A3D3E9002306F016FF1C
:1020C0000022002307F058FB0028EED0002C2ADB6A
:1020D00000263446E9E7332D06DDB5F5806F1BD0C9
:1020E00041EC100BBDE8F081A3F213434FF0FF3732
:1020F000DF400742F4D016A3D3E9002306F0F6FE32
:102100000022002307F038FB0028CED0002C3346F5
:1021100010DB23EA0706C8E702460B4606F0E6FE98
:1021200041EC100BDEE724F0004426430DD14FF0C4
:102130000044BAE7142D06D0C5F134050122AA40A7
:102140001344B342E5D20134E3E70026034CACE785
:102150009C7500883CE4377EFFFF0F000000F0BF55
:102160000348044B834202D0034B03B11847704726
:10217000D0290020D029002000000000064B07498C
:10218000C91A891048BF0131491003D0044B0BB163
:1021900001481847704700BFD0290020D0290020EF
:1021A0000000000010B5064C237843B9FFF7D8FFB4
:1021B000044B13B10448AFF300800123237010BD1A
:1021C0004C1900200000000024EC000808B5054B65
:1021D0001BB105490548AFF30080BDE80840FFF793
:1021E000CDBF00BF000000006816002024EC0008EE
:1021F000A3F5803A704700BF174B002B08BF134B65
:102200009D46FFF7F5FF00218B460F461348144A01
:10221000121A0AF04DFF0E4B002B00D098470D4BC1
:10222000002B00D098470020002104000D000D482D
:10223000002802D00C48AFF3008007F00BFF20000D
:10224000290002F02FF907F035FE00BF000008005A
:10225000000000000000000000100020001000201E
:102260005429002000000000000000000348044A38
:102270000449121A92100AF0E1B800BF7C0100086C
:102280007C0100085429002008B5154B83F30A8807
:1022900000F030F8FFF7EAFF124B13498B4212D3DC
:1022A0000020124B12498B4218D3FFF7A5FF186884
:1022B00050F82240586840F8224001329868824223
:1022C000F5D30C33EAE70022F8E71C6844F8220053
:1022D00001325C68A242F8D30833E4E70022F8E751
:1022E000000000202CEC000838EC000838EC000856
:1022F00038EC00084FF48041124B134A70B59A60D5
:10230000D3F88820114D42F47002C3F88820104A97
:1023100005F5005491664FF0FF3222660D4A626661
:102320000222C3F8D020BFF34F8FBFF36F8F4FF45B
:102330004036002001F004FC0020E66001F0CEFBF6
:102340002E6170BD00ED00E0000000080080004438
:10235000009000507FFF7F03014B1860704700BF63
:10236000582900202DE9F04104460C254FF00108C2
:10237000124E0CB314F001000BD0002024F0010425
:1023800005FB00625768002FF3D09168C0B2B847D0
:10239000EFE72246013020284FEA520201D0D3074E
:1023A000F8D508FA00F20F2824EA0204E8D9103818
:1023B00005FB0062B432E5E7BDE8F081801600203D
:1023C00008B50C480BF0A3F91A2001F0A1FB28B1C5
:1023D0001A2001F0B5FB1A2001F080FB1B2001F050
:1023E00097FB28B11B2001F0ABFB1B2001F076FB13
:1023F000002008BD10DB000808B501F065FA054BA8
:1024000000F0553020F0A040C3F82004BDE808409B
:10241000FFF7A8BF00E0035008B501F055FA054BDF
:1024200000F0AA3020F02040C3F82004BDE80840A6
:10243000FFF798BF00E00350044BD3F88420D20686
:10244000FBD4D3F88400C0F38110704700400050E3
:1024500038B5104B0546D3F800310C4603F00303A2
:10246000022B0BD0032B0DD0012B0FD10BF0AEF8AC
:10247000032305B1286004B1236038BD0BF0F8F8E0
:102480000923F6E70BF0A8F80823F2E70123002060
:10249000EFE700BF0080005038B5104B0546D3F879
:1024A00040310C4603F00303022B0BD0032B0DD05D
:1024B000012B0FD10BF020F90A2305B1286004B1DC
:1024C000236038BD0BF0D4F80923F6E70BF017F9B9
:1024D0000B23F2E701230020EFE700BF008000504C
:1024E00038B5104B0546D3F860310C4603F00303B2
:1024F000022B0BD0032B0DD0012B0FD10BF0FCF8CE
:102500000A2305B1286004B1236038BD0BF0B0F890
:102510000923F6E70BF0F3F80B23F2E70123002081
:10252000EFE700BF0080005038B5104B0546D3F8E8
:1025300040320C4603F00303022B0BD0032B0DD0CB
:10254000012B0FD10BF0D8F80A2305B1286004B194
:10255000236038BD0BF08CF80923F6E70BF0CFF8B9
:102560000B23F2E701230020EFE700BF00800050BB
:1025700038B5124B0546D3F880300C4603F0030300
:10258000022B0BD0032B0DD0012B0FD10AF0E4FF4F
:102590000D2305B1286004B1236038BD0BF020F88D
:1025A0000723F6E70AF0D2FF0623F2E7044841F2D8
:1025B000142109F035FF00231846EAE70080005097
:1025C000F8D7000838B51A4B0546D3F820010C4659
:1025D00000F00700062821D8DFE800F028040C14DA
:1025E00010181C000AF0B2FF052305B1286004B1E1
:1025F000236038BD0AF0EAFF0323F6E70AF0F0FF94
:102600000723F2E70AF0DEFF0223EEE70AF09EFF5F
:102610000623EAE70AF0DAFF0423E6E7054841F279
:10262000912109F0FDFE00231846DEE70123DCE7D7
:1026300000800050F8D7000838B5194B0546D3F88C
:1026400028310C4603F00703013B052B20D8DFE8B7
:1026500003F003131B0F0B170AF078FF052305B1D6
:10266000286004B1236038BD0AF070FF0623F6E746
:102670000AF0B6FF0723F2E70AF0A8FF0323EEE70C
:102680000AF0A4FF0423EAE70AF09CFF0223E6E72E
:10269000044841F2990109F0C3FE00231846DEE721
:1026A00000800050F8D70008002337B50193194B7C
:1026B0000546D3F820320C4603F00703042B1FD83D
:1026C000DFE803F025030F141900002101A8FFF72C
:1026D000B3FF11230DB1019A2A6004B1236003B046
:1026E00030BD0AF07DFF07230190F3E70BF004F8FB
:1026F0000A230190EEE70AF0BBFF09230190E9E706
:1027000041F25601044809F08BFE0023E2E7012361
:10271000E0E700BF00800050F8D70008F7B50027B9
:10272000144B0197D3F88041064604F00304022CB1
:102730000D4614D0032C0DD0012C14D1394601A81C
:10274000FFF740FF0F240EB1019B336005B12C60F1
:1027500003B0F0BD0AF044FF07240190F3E70AF04C
:1027600031FF0190EFE741F2E631034809F058FEEE
:102770003C46E8E700800050F8D7000838B5164B13
:102780000546D3F800020C4600F00700042819D8CB
:10279000DFE800F020030B0F13000AF0ADFF0A235F
:1027A00005B1286004B1236038BD0AF061FF092338
:1027B000F6E70AF0A4FF0B23F2E70AF0EDFE0E2382
:1027C000800AEDE7054841F2A44109F029FE002303
:1027D0001846E5E70123E3E700800050F8D700083A
:1027E00038B5164B0546D3F808020C4600F0070032
:1027F000042819D8DFE800F020030B0F13000AF0BB
:102800007BFF0A2305B1286004B1236038BD0AF0BC
:102810002FFF0923F6E70AF072FF0B23F2E70AF015
:10282000BBFE0E23800AEDE7054841F2DC4109F0CA
:10283000F7FD00231846E5E70123E3E70080005099
:10284000F8D7000838B5124B0546D3F850320C467D
:1028500003F00303022B0FD0032B05D0012B0FD164
:102860000AF04AFF0A2302E00AF049FF0B2305B1F0
:10287000286004B1236038BD0AF0FAFE0923F6E7A8
:10288000044841F2C90109F0CBFD00231846EEE7E8
:1028900000800050F8D70008002337B50193184B8B
:1028A0000546D3F860320C4603F00703013B032BC7
:1028B0001FD8DFE803F0020E1914002101A8FFF76A
:1028C00081FE0F230DB1019A2A6004B1236003B089
:1028D00030BD002101A8FFF7DFFD1023F2E70AF069
:1028E0007FFE07230190EDE70AF06CFE02230190C2
:1028F000E8E741F2FD01034809F092FD0023E1E71A
:1029000000800050F8D7000873B500240F4B0194E5
:10291000D3F87032064603F00303012B0D4607D0AF
:10292000022B11D041F25B11094809F079FD04E056
:10293000214601A8FFF7B0FD10240EB1019B3360C2
:1029400005B12C6002B070BD1424F6E70080005081
:10295000F8D7000838B50F4B0546D3F890320C462F
:1029600003F00303012B09D0022B0BD10AF038FE30
:10297000072305B1286004B1236038BD0AF022FEA8
:102980000223F6E7044841F2851109F049FD0023CE
:102990001846EEE700800050F8D7000808B5334B22
:1029A00098424FD027D8324B984245D017D8314B58
:1029B00098423ED00AD838B12F4B984239D041F2D4
:1029C000BB312E4809F02CFD002034E02C4B9842FE
:1029D0002FD02C4B9842F2D12B4B586E2BE02B4B27
:1029E00098422CD003F5371303F5D8639842E6D10B
:1029F000254B986F1FE0264B98422FD00CD8254BC3
:102A0000984223D0244B984224D0244B9842D6D1CC
:102A10001D4BD3F884000EE0214B984222D003F5E1
:102A2000740303F510539842C9D1174BD3F898009B
:102A300001E0154B986D08BD134B186FFBE7124B67
:102A4000586FF8E7104BD3F88000F4E70E4BD3F83B
:102A50008800F0E70C4BD3F88C00ECE70A4BD3F876
:102A60009000E8E7084BD3F89400E4E780BA8C01C3
:102A7000405DC60080841E0040420F00F8D7000869
:102A800000093D00C0CF6A000080E00F0024F40080
:102A9000007E560380D54302006CDC020048E8014A
:102AA0000090D003B0F5207F10B52ED009D8B0F536
:102AB000007F24D003D868B1B0F5C07F0AD00024CD
:102AC0001BE0B0F5607FFAD1124BD3F88040C4F31D
:102AD000011412E00F4B1C6F230B13F00E0FC4F305
:102AE00003340AD0072C08D00F2C06D0032C04D0B6
:102AF0004FF42271084809F093FC601C10BD054B8F
:102B0000D3F89040C4F30464F7E7024B1C6FC4F39E
:102B10008024F2E700800050F8D700084FF480329C
:102B200038B5104B04469A6600200D46FFF7BAFFF1
:102B300041F671320C4B6043DC69DA635A6804F485
:102B4000803422F440125DB90849884294BF0020C5
:102B50000120000502435A600CB10022DA6338BD3F
:102B60000349F2E70090005000000350005A62024F
:102B7000002D310138B5430904460D460ED140F20F
:102B800035310D4809F04CFC002304F01F0485B1D9
:102B900003F580530122A2401A6038BD012B04D0F6
:102BA000022B04D040F24331EBE7044BEDE7044B3A
:102BB000EBE703F50053EDE7F8D700086480005019
:102BC00068800050002130B5B0F5807F85B00446A4
:102BD000CDE9001100F007816BD8002800F0DC80FF
:102BE000A0F12004602C75D8602C73D8DFE814F0B5
:102BF000D400E100D400E100F100F100F100F100A7
:102C0000F100E100F6007E00A1000C017E00E10071
:102C1000E100E10072007200720072007200720046
:102C20007200A100E100E100E10029011601E100CC
:102C30007200720072007200720072007200720004
:102C400072007200720072001B01F100D400D40007
:102C5000D40011017E007E002001BE009300C90057
:102C6000C90072007200720072007200720072007D
:102C700072007200720072007200720072007200C4
:102C800072007200720072007200720072007200B4
:102C900072007200720072007200720072007200A4
:102CA0007200720072007200720072007200720094
:102CB000CE00B0F5F06F00F0C4803FD8B0F5607F73
:102CC00000F082801DD8B0F5007F68D008D8B0F53C
:102CD000C07F61D040F2A4415C4809F0A1FB58E0FC
:102CE000B0F5207F65D0B0F5407FF3D10AF054FCF9
:102CF00004464FF42070FFF7D5FEB4FBF0F46408EF
:102D000060E0B0F5B06F69D00AD8B0F5806F60D0E0
:102D1000B0F5A06FDED100216846FFF7C5FC38E0B2
:102D2000B0F5D06F70D0B0F5E06F77D0B0F5C06F70
:102D3000D0D100216846FFF7AFFB2AE0B0F5206F45
:102D400076D00CD8B0F5106F63D0B0F5186F6AD09C
:102D5000B0F5086FBED16846FFF77AFB19E0B0F511
:102D6000306F6AD007D8B0F5286FB3D1002168461C
:102D7000FFF7CAFD0DE0B0F5386FDAD0B0F5406F5F
:102D8000A8D100216846FFF757FC02E00AF0E4FBF7
:102D90000090009805B030BD0AF0FEFBF8E70AF09D
:102DA000DBFB05462046FFF77DFEB5FBF0F5009501
:102DB000EFE70AF0F1FB04464FF42070FFF772FED4
:102DC000B4FBF0F40094E4E701A8FFF7D1FB019D08
:102DD000E8E700216846FFF7F5FBDAE700216846DF
:102DE000FFF79CFCD5E74FF0E02302911B695B07DE
:102DF00005D50AF0D1FB0290029B0093C9E703A915
:102E000002A8FFF749FBF7E700216846FFF7B6FC89
:102E1000BFE700216846FFF7E3FCBAE700216846F8
:102E2000FFF782FBB5E700216846FFF70BFDB0E72F
:102E300000216846FFF730FDABE76846FFF78AFDE3
:102E4000A7E700216846FFF74BFBA2E7F8D7000889
:102E500008B58020FFF7B6FE034B98429EBF4FF4A3
:102E60008032024B1A6708BD005A620200A000506F
:102E70001FB503460020B3F5607F019000F0FC8091
:102E80007BD8582B68D8382B05D8243B092B49D937
:102E900040F28951D1E0393B1F2BF9D801A252F8F9
:102EA00023F000BF5D300008912E0008912E00082D
:102EB000912E0008673000088B300008912E000822
:102EC000912E0008912E0008912E0008912E0008E6
:102ED000912E0008912E0008912E0008912E0008D6
:102EE000912E0008912E0008912E0008912E0008C6
:102EF000953000089F2F0008912E0008912E0008A1
:102F0000912E0008E32F0008912E0008912E000852
:102F10009F300008A9300008813000080530000803
:102F200005300008092BB3D801A252F823F000BFE6
:102F30009F2F00089F2F00089F2F00089F2F000839
:102F40009F2F0008912E000843300008912E0008A2
:102F50005D300008BD2F0008802B58D0B3F5807F6E
:102F600096D14FF0E02302901B695B0771D50AF000
:102F700013FB0C230393039B55E0B3F5086F77D045
:102F800021D8B3F5C06F69D00ED8B3F5A06F77D054
:102F9000B3F5B06F55D0B3F5806F7FF479AF0020F3
:102FA00001A9FFF70FFB50E0B3F5E06F6DD0B3F56B
:102FB000F06F58D0B3F5D06F7FF46AAF002001A94D
:102FC000FFF7DCFB41E0B3F5286F6DD00ED8B3F509
:102FD000186F5FD0B3F5206F61D0B3F5106F7FF439
:102FE00057AF002001A9FFF7FBFB2EE0B3F5306FD0
:102FF0005FD0FFF44DAFB3F5386F2FD0B3F5406F0E
:103000007FF446AF002001A9FFF716FB1DE02B4B14
:103010001B6F03F00703013B032B0CD8DFE803F021
:1030200009020507052301930FE00323FBE70823AB
:10303000F9E70223F7E740F2D641214809F0F0F919
:1030400003E0002001A9FFF769FB019805B05DF8D6
:1030500004FB03A902A8FFF71FFA8CE7002001A9CF
:10306000FFF71AFAF1E7002001A9FFF739FAECE7B8
:1030700001A9FFF7EDF9E8E701A9FFF779FAE4E71D
:10308000002001A9FFF710FBDFE7002001A9FFF7EF
:103090004BFADAE7002001A9FFF7D4FBD5E70020BF
:1030A00001A9FFF7F9FBD0E7002001A9FFF72CFCED
:1030B000CBE701A9FFF74EFCC7E700BF0080005037
:1030C000F8D700084FF48032074B0849586E03F5D3
:1030D00080535A664B6A23F001034B62C3035CBF03
:1030E000034B5A66704700BF0080005000C0075075
:1030F00000A00050B0F5207F38B577D00ED8B0F5DD
:10310000007F61D003D890B3B0F5C07F2FD04FF4CB
:103110004671BDE838403D4809F082B9B0F5607F9E
:10312000F5D13B4A4C1ED2F8FC5015F080751EBFFD
:10313000D2F8FC3023F08073C2F8FC30032C04D9A1
:1031400040F2F721314809F06BF9324AD2F8803069
:1031500023F0300343EA0413C2F8803035B12C4A1F
:10316000D2F8FC3043F08073C2F8FC3038BD4C1EFE
:10317000012C0AD9102903D8274BCB40DB0704D4F4
:1031800040F2CB21214809F04BF909F064F909F02C
:1031900070F94FF48031214B1E4A1967136F23F4E5
:1031A000704343EA043313670AF0F6F90446FFF765
:1031B00043F9C0F10201204609F055F900F048F842
:1031C000BDE83840FFF744BE4C1E1F2C04D94FF415
:1031D00043710E4809F024F90E4AD2F8903023F0DA
:1031E000F85343EA0463C2F89030BFE74C1E012C49
:1031F00004D940F21231054809F012F9054A136F5B
:1032000023F4806343EA84231367AFE7F8D7000809
:1032100000ED00E00080005010010100009000501F
:1032200008B50121022000F099F94FF42070FFF752
:1032300039FC054B187009F00EF909F01AF94FF432
:103240008032024B1A6708BD4D19002000900050D3
:1032500008B54FF4C070FFF7B5FCBDE8084004495D
:10326000884294BF012102214FF42070FFF742BF32
:1032700080F0FA0238B504460AF08EF90546FFF7E9
:10328000DBF8C0F10201284609F0EDF80121002029
:1032900000F0B8F92CB1FFF7DBFFBDE83840FFF7CD
:1032A000D7BD034B4FF420701978FFF723FFF4E7E5
:1032B0004D1900202DE9F0410546FFF76FFB431E35
:1032C0000333044604D940F6E2113B4809F0A8F85C
:1032D0004FF4C022394B5A6603F598335A68012AD5
:1032E00004D137494A605A689207FCD48020FFF71E
:1032F000BFFD052807D109F0AEF809F0BAF84FF480
:1033000080322E4B1A672F4B24F040749D4239D0E7
:103310002D4B9D4239D00AF019F98542064603D952
:103320000121284600F06EF9284FFB6813F0060FC4
:10333000FBD1D7F80880BC60BB68634013F4F81F6A
:1033400026D12846FFF708F88020FFF791FD0528D1
:1033500014D10AF021F9A842044604D940F63B21D1
:10336000154809F05DF8FFF767F8C0F10201204643
:1033700009F079F8FFF76CFFFFF76AFDAE4213D250
:10338000BDE8F08144F00074C5E744F08074C2E702
:1033900040F62A21084809F043F88020C7F8088041
:1033A000FFF766FD052805D0BDE8F04101210020AA
:1033B00000F028B93546CCE7F8D700080090005057
:1033C00000E0015040420F0080841E0000000150C8
:1033D0004E4B70B59842054673D041D8A3F5B7035C
:1033E000A3F55863984265D033D8494B494E98426B
:1033F00051D017D8002877D041F2DE11464809F0A5
:103400000FF840F68671444809F00AF84FF400229C
:10341000404B5A663E4B9D4276D000243F4A95422F
:1034200036D05DE03D4B984227D03D4B9842E3D1EA
:103430003C4BD3F8A040621E033224F040744CD9B8
:1034400040F68671344808F0EBFF4FF400237366B2
:10345000E4E7354B9842CFD1324BD3F8BC402CE057
:10346000324B984231D0324B984232D0314B984255
:10347000C2D12C4BD3F8C8401FE02A4BD3F8A04050
:10348000621E033224F04074DAD84FF400237366CE
:1034900044F0807424E0234BD3F8A040621E033232
:1034A00024F040742AD84FF400237366234643F077
:1034B000007415E01B4BD3F8B840621E154E033262
:1034C000BBE7184BD3F8C040F7E7164BD3F8CC4016
:1034D000F3E7144BD3F8D040EFE74FF400237366C3
:1034E0004FF0B442946070BD40F686710A4808F00F
:1034F00097FF4FF400232C467366F1E740F6867180
:10350000054808F08DFFCEE70023D0E7C0EA21018F
:1035100040420F0000900050F8D7000880841E0041
:1035200000093D000080E00F0024F4000048E8019D
:10353000005A620280BA8C01024A536B0342FCD1EA
:10354000704700BF00400950034A0179D36E23F051
:1035500030030B43D366704700400050F8B5044673
:10356000244BD3F88420D006FBD4D3F88430C3F3A3
:1035700081139C423CD009F0EFFF012C05460BD192
:103580001D4B984204D940F29B711C4808F048FF3B
:103590000121284608F067FF0AF09FF84FF00072FB
:1035A000174B07465A66204608F068FF4FF48063C1
:1035B000104E621E93403367736E9A0103D4D6F89F
:1035C00084309B060AD538460AF082F8022C0FD1C7
:1035D0002846BDE8F840002108F045BFD6F8843001
:1035E0009906E9D540F2B371044808F019FFE3E702
:1035F000F8BD00BF00400050005A62025BD80008CE
:103600000060005010B50C4608B909F0A5FF074B43
:1036100021461B783BB1064B984204D80120BDE8F7
:103620001040FFF79BBF0220F9E700BF4E190020B2
:10363000005A62024FF0004238B5244B244C5A66BF
:103640004AF6CD33656C014605F00105236428BBBD
:103650000120FFF771FF6368DB0715D51D4B58602C
:1036600008461D4B226BD2070CD4984208D1072480
:1036700015B1174B194A1A6408F001FF204638BDEE
:103680000130EFE79842F2D00024F1E70132236BDA
:1036900013F0080305D08A42F8D1E8E700220E496A
:1036A000F5E78A42E3D020210A4A91620121A2F57E
:1036B000805251600649084A886A800603D49342C2
:1036C000D5D00133F8E79342DDE700BF009000500A
:1036D000004009500060095040420F003254FFFF83
:1036E0004FF0004238B5164B01465A664AF6CD33C4
:1036F000144C154A656C236443780B205B0043F03F
:103700000103D363FFF718FF63688A7823F4F87323
:1037100043EA02136360CA784B7943EA0223A36049
:103720000A798B7943EA022323610878FFF782FF45
:10373000EB0744BF054B236408F0A1FE012038BD10
:103740000090005000400950004000503254FFFFEC
:103750000F2870B5044605D940F67461124808F088
:103760005FFE0F244FF00042104B11495D6E03F5D0
:1037700080535A664AF6CD334E6C80200B64FFF7B7
:10378000DBFE0B6A23F00F0323430B62F30744BFF6
:10379000084B0B64002DA2BF4FF00042064B5A6647
:1037A00008F06DFE70BD00BF5BD8000800800050BF
:1037B000004009503254FFFF00A00050032838B5E4
:1037C00004460D4605D8094B33F81030CB40DB07D3
:1037D00004D440F28541064808F022FE302301223D
:1037E0005C43044BAA401A5138BD00BF86D900087B
:1037F000BED8000840D00350032838B504460D4613
:1038000005D8094B33F81030CB40DB0704D440F225
:103810005641064808F004FE302301225C43044B65
:10382000AA401A5138BD00BF86D90008BED800088A
:1038300040E0035003282DE9F04104460D461746A9
:10384000984605D81D4B33F81030CB40DB0704D425
:103850004FF4B0711A4808F0E3FD37B1294620460D
:10386000B8F1000F20D0FFF7A9FF0F21072D04EBBF
:10387000440688BFA5F108034FEA0616114895BF14
:10388000AB009B0004360C3607FA03F29940304433
:1038900008F0F6FD7FB929462046B8F1000F06D0A2
:1038A000BDE8F041FFF78ABFFFF7A6FFDDE7BDE8FF
:1038B000F041FFF7A1BFBDE8F08100BF86D9000845
:1038C00022D9000830C00350034BD3F82424D3F886
:1038D00020041040704700BF00C0035010B563487B
:1038E00009F015FF20B14FF44E71614808F098FDC2
:1038F0006048FFF7DFFC6048FFF76AFD5F4809F0AA
:1039000006FF20B140F2CB11594808F089FD5C4C0C
:10391000FFF786FC236F002023F0070343F0020328
:103920002367FFF7A7FC236F564923F4744343F43E
:1039300080632367544BD3F8FC2012F080727CD153
:10394000D4F8803023F0030343F00103C4F880303F
:10395000C1F880204A4CD4F8203123F0070343F00B
:103960000103C4F82031D4F8283123F0070343F0D1
:103970000103C4F82831D4F8803123F0030343F065
:103980000103C4F88031D4F8903223F0030343F0EC
:103990000103C4F89032D4F8403123F0030343F01C
:1039A0000103C4F84031D4F8603123F0030343F03D
:1039B0000103C4F86031D4F8403223F0030343F02C
:1039C0000103C4F84032D4F8003223F0070343F077
:1039D0000103C4F80032D4F8083223F0070343F09F
:1039E0000103C4F80832D4F8503223F0030343F043
:1039F0000103C4F85032D4F8703223F0030343F0CB
:103A00000103C4F87032D4F8203223F0070343F0E6
:103A10000103C4F82032FFF755FB4FF0E022136991
:103A2000002043F004031361D4F8603223F007034D
:103A300043F00103C4F8603210BDD3F8FC2022F03B
:103A40008072C3F8FC20D4F8802022F0030242F0F8
:103A50000102C4F880200022C1F88020D3F8FC20A5
:103A600042F08072C3F8FC2074E700BF08DB000856
:103A700075DA000800B4C404C0EA21010CDB0008B8
:103A8000008000500090005000ED00E007B5094BA9
:103A900018689A889B7900906846ADF804208DF8E4
:103AA0000630FFF71DFE0920FFF752FE002003B08D
:103AB0005DF804FBFEDA000813B50024064A6846E8
:103AC000536F43F00103536700948DF80440FFF7F0
:103AD0003BFD204602B010BD004000504F2810B5FD
:103AE000044608D801236109074A04F01F04A340D3
:103AF00042F8213010BD4FF49971044808F090FC51
:103B0000002CF7DBEEE700BF00E100E014DB00086B
:103B10004E2810B5044604D940F23D11064808F07D
:103B20007FFC064B621153F8220004F01F04E040B2
:103B3000C04300F0010010BD14DB000800E100E00C
:103B4000002808DB01224309034900F01F008240DE
:103B5000603341F82320704700E100E038B500F100
:103B600010035F2B04460D4604D94FF4F0710E4844
:103B700008F056FC0F2D04D940F2E1110A4808F074
:103B80004FFC60B20028ACBF00F16040074B4FEA29
:103B90000515EDB2ABBF00F5614000F00F0080F8F5
:103BA00000531D5438BD00BF14DB000814ED00E0C5
:103BB00010B509F09BFD0A4B1A786AB901226FF023
:103BC00004041A7009F08DFD204605210134FFF729
:103BD000C5FF4F2CF8D110BDBDE8104009F081BDE4
:103BE0004F1900200346054A0549106803448B42DB
:103BF0008CBF4FF0FF301360704700BF6429002076
:103C0000000004204FF0640CF0B581EAE174A4EBED
:103C1000E174B4FBFCF30CFB13444FF47A7C0E4FBD
:103C20000E4E82EAE275A5EBE27537EA220E28BF56
:103C3000B646B5FBFCF20CFB125585B0CDE902256A
:103C4000CDE9004E37EA210228BF3246014604483A
:103C500006F0E6F905B0F0BDC7DB0008A1DB0008FF
:103C6000A3DB000830B585B06C46174B174D0FCB62
:103C700084E80F0001213A20FEF77CFF01212F206C
:103C8000FEF778FF01230A2202210320FFF7D2FD6D
:103C90000321012308460A22FFF7CCFD0C4B0D4AF5
:103CA0002846C3F84C254FF00312C3F850250322D1
:103CB000C3F8482501F02EF8074B21462846029309
:103CC00000F0F6FF05B030BDCCE0000800800650E3
:103CD00000C0035003000200A0860100074B084A01
:103CE0001B68B3FBF2F35843012838BF0120054A93
:103CF000516853685B1A9842FBD8704754290020DA
:103D000040420F00001000E038B501460A4801F0BB
:103D10002BF947F23054084D012807D13CB9064829
:103D200000F0F8FFFFF79EFF6FF0040038BD284653
:103D300001F008F8013CEFE70080065070B5002460
:103D4000012686B04300054601A8CDF80E40CDF807
:103D50001240ADF81640ADF80430ADF8066002949C
:103D6000ADF80C40FFF7D0FF2946024628B90548B8
:103D700006F056F9304606B070BD034806F050F91B
:103D80002046F8E7C8DB0008E6DB00082DE9F04133
:103D900004460D46124F134EDFF84C80786800231E
:103DA000A0FB0601D8F8002005F0BEFEA04271EB92
:103DB000050312DA201A65EB01014FF47A72002331
:103DC00005F062FE41F28833984228BF1846012868
:103DD00038BF0120FFF782FFE0E7BDE8F08100BFB8
:103DE000001000E000CA9A3B542900202DE9F04F52
:103DF0000024C9B05022002134A809F059F9142236
:103E0000002107A809F054F92146402214A806947D
:103E100009F04EF98DF816407D4C7E4806F012F9F7
:103E20002078FFF78BFF18B97B4806F00BF914E0F8
:103E300001238DF8DC30794B34A84493784B3594CA
:103E40004593784B469319238DF8DE3008F0B8FD82
:103E5000014640B1744806F0E3F8744806F0F2F801
:103E600049B0BDE8F08F06A801F0DEF858B99DF81A
:103E70001B309DF8192000939DF818109DF81A30FA
:103E80006B4806F0CDF801F0D9F8014608B1694851
:103E9000E1E74FF4F6714FF48053674A674801F049
:103EA000FFF8014608B16648D5E7402224A809F08A
:103EB000FFF80822634B06210C93624B8DF8172004
:103EC000CDE90F230E22CDE90D13CDE911230F23E8
:103ED0000421139324AA0DF117030CA801F0BCF8D8
:103EE000014608B15848B6E70446064607468046EC
:103EF00082468346814601250390544B544A5868B4
:103F0000544900231268A0FB010105F00DFE0E22AA
:103F10008DF8172014AA01F01BF9011E4FF00003C1
:103F200001DA4D4897E79DF88D2012B19DF88E205B
:103F30006AB92946149A494806F072F8DDE9140175
:103F40000135FFF723FF052DD7D145486DE7194609
:103F5000142224A80C938DF8343009F0A9F834A960
:103F60000CA808F0C4FD002849D19DF88C3034A974
:103F70008DF830309DF88B300CA88DF831309DF8DD
:103F80008A308DF8323000F0E5FB002837D19DF8FB
:103F900089300120003B18BF01238DF89030BDF817
:103FA0005C3034AAADF89230BDF85E3024A9ADF88B
:103FB000943000F0ADFC10BB012034A908F0BEFD28
:103FC000E8B9012034AA0CA900F060FC9DF8893002
:103FD0002BB14FF47A72BDF85E3002FB03003599C5
:103FE000469B00F57A709847012034AB0DF116021C
:103FF00007A908F0F4FD10B99DF81630A3BB2946B7
:1040000002469DF81630174806F00AF896E700BFFA
:10401000C42900200DDC00081EDC000893C5000840
:1040200055C500084DC5000857DC000847DC0008EE
:104030007CDC00089DDC000850190020DCE1000851
:10404000C3DC00083BAAAA3EE6DC0008001000E042
:104050005429002000CA9A3B0CDD000837DD000817
:1040600061DE000866DD0008824B5968824B1A68E1
:1040700003468248A1FB000105F056FD169A0B4647
:1040800012F400510BD04FF0000C7D49C1F808C06C
:1040900040F6016CC1E90003A1F80CC0012112F047
:1040A000040F17D0BDF922E0DFED766A07EE90EA43
:1040B000F8EEE77A87EEA67ADFF8C4C140F2013E57
:1040C0000CEB011C8CED027ACCE900030131ACF859
:1040D0000CE0C9B212F0020F15D0DDED0A7ADFED67
:1040E0006A6AF8EE677A87EEA67ADFF894C140F242
:1040F000012E0CEB011C8CED027ACCE9000301319E
:10410000ACF80CE0C9B212F0010F11D0DDED097A64
:10411000F8EE677ADFF868C140F2011E0CEB011C73
:10412000CCED027ACCE900030131ACF80CE0C9B265
:1041300012F0080F16D09DF81CC01CF0200F11D0F3
:10414000DDED0B7AF8EE677ADFF834C140F2014E0C
:104150000CEB011CCCED027ACCE900030131ACF888
:104160000CE0C9B212020FD59DF81C2092060BD5A7
:10417000434A02EB0112C2E900030023936041F6B7
:10418000010301319381C9B2404A3D480DF1170343
:1041900000F074FF011E3D4A01DA3D485BE69DF8E0
:1041A000171002EB01139A4210D1B9F1000F07D09A
:1041B000039B2BB1BBF1000F02D0BAF1000F37D136
:1041C0000A469DF81C30294632481DE7507B0638C8
:1041D00009280ED8DFE800F0050D0F0D0D0D0D0DAF
:1041E0001922642092ED020A08F09AF94FF00109B1
:1041F00080461032D7E74FF47A7092ED020A08F049
:104200008FF9074601200390F3E7642092ED020A3C
:1042100008F086F94FF0010B0646EAE74FF47A7092
:1042200092ED020A08F07CF94FF0010A0446E0E73B
:104230000A9ABDF922101848FFF7E4FC3A464146B5
:104240001648FFF7DFFC224631461548FFF7DAFC37
:104250000A9ABDF92210BA1AA8EB01011148FFF71A
:10426000D1FC0A9ABDF922100F48A21A711AFFF761
:10427000C9FCF2E5001000E05429002000CA9A3B76
:10428000E01000200000C84200007A440010002026
:104290009EDD0008C3DD0008FDDD00080FDE00081C
:1042A00023DE000837DE00084CDE000808B500F009
:1042B0003DF9BDE80840014805F0C4BE81DE0008B4
:1042C00070B5A6B0FFF7CEFC6349644805F0A8FEC0
:1042D0007620FFF733FD04467720FFF72FFD1CB94A
:1042E00010B95F4805F0AEFE00245E4805F0AAFE56
:1042F0005022002112A808F0DBFE5B4D142221465B
:1043000008A806948DF81C4008F0D2FE142221461D
:104310000DA808F0CDFE28788DF81740FFF70EFDA8
:1043200018B9524805F08EFE14E0514B0124229337
:10433000504B12A82393504B8DF8544024931923CB
:1043400013958DF8563008F03BFB014650B14B48B1
:1043500005F066FE4A4805F075FE26B0BDE87040DF
:10436000FFF744BD149A9DF84810464805F058FEE2
:10437000454B12A9069308238DF81C304FF4967311
:10438000ADF82230642306A88DF82040ADF8243023
:1043900000F0E0F9014630B908A9204612AA00F061
:1043A000B7FA014608B13948D2E7394D012012A9C0
:1043B00008F0C4FB002842D112AA06A9012000F08F
:1043C00065FA00F5C3301399249BA030984701206B
:1043D00012AB0DF117020DA908F001FC78BB9DF896
:1043E000172062B321464FF47A752A4805F018FE6B
:1043F0009DF8341028480091C1F30013C1F3401216
:10440000C90905F00DFE6421109B119CBDF93A000D
:104410000294B3FBF5F480EAE072A2EBE07292B290
:10442000B2FBF1F605FB143301FB1622CDE9004384
:1044300090FBF1F10F9B194805F0F2FD8AE7024667
:10444000214628469DF81730013405F0E9FD042C7B
:10445000ACD1134866E700BFA0860100AEDE0008BD
:10446000E3DE000811DF0008C429002020DF000877
:1044700093C5000855C500084DC500085DDF00085C
:104480004BDF000880DF000802030300A7DF0008FD
:1044900079E00008CCDF0008F8DF00083CE0000805
:1044A000ADE0000807B508F00EF80B4805F0CAFDAE
:1044B00000230A4A0193019B934209D9084805F059
:1044C000C1FDFFF7FDFE08F020F808F081F8FAE7DB
:1044D000019B01330193EEE7DCE000083F0D030090
:1044E0000DE100080F4910B5D1F8FC30DC0116D5FC
:1044F0004FF06043D3F8802ED20710D50A4AD1F886
:10450000FC4044F08074C1F8FC40D3F8004E44F005
:104510000104C3F8004E1C6814B9013AEFD110BD74
:104520001870FCE700ED00E0FFFF0F0007B54FF04B
:104530008061334B334A5966334905204B6B23F472
:10454000704343F480434B633E21304BC3F8441423
:104550000121A3F58053C3F84414D2F8803023F02E
:1045600033030B43C2F88030002301A9019309F003
:10457000C9F8002841D10198254A00F5D52303F256
:10458000FC43934286BF0132B3FBF2F30123B0FB3D
:10459000F3F0204A20491060D1F8FC20013B42F0A2
:1045A0008072C1F8FC201D4A1D49116002F57C3261
:1045B00013610223C2F8F0304FF48073C2F8043361
:1045C0004FF06043174AC3F8B02F174AC3F8802E44
:1045D0000122C3F8002ED3F8002E42F48072C3F8F3
:1045E000002EFF2283F82020D3F8002E22F48072C0
:1045F000C3F8002E03B05DF804FB08F0ADFFBBE785
:10460000009000500080005000C0035000E00350B4
:10461000F7590D00E817002000ED00E0001000E061
:10462000FF03004055CEACC50900010030B564243D
:104630008A6B91F9163002EB8202803212125343D8
:1046400093FBF4F391F91550534355439B1195FB9C
:10465000F4F593FBF4F32B444D8A03F580436B434D
:104660000D8A9B12A0EB051091F91450554395FB50
:10467000F4F5A0EB6500584391F91830534393FBD0
:10468000F4F3CA7D03EBC213821352431B1192123F
:104690005A434FF47A7300EB620080125843044B84
:1046A000001320EAE0709842A8BF184630BD00BF52
:1046B000A0860100F0B5264CA1B06D462646964670
:1046C00007468C460FCE0FC50FCE0FC50FCE0FC5B8
:1046D00096E80F00403485E80F000FCC10AD0FC5F1
:1046E0000FCC0FC50FCC0FC594E80F0040F23C541F
:1046F00085E80F0005220023C2FB0E4320AA02EB2F
:104700008C0C5CF8802CA4FB024002FB0300240C00
:10471000FA0344EA004412F17F4263EB03031219E7
:1047200043EB204305145CF8400CA0FB044100FB64
:104730000511640A500844EAC15440EAC3705D1090
:10474000201845EB612105F09FF921B0F0BD00BFB5
:104750004CE10008F0B54C4B064618681B7987B051
:104760008DF80C30002302900DF107000D460493E4
:104770008DF8143008F01FFA044628B10EB94FF036
:10478000FF34204607B0F0BD294608F0D7F90746A8
:104790000446002EF3D00028F3D12B4605227120C9
:1047A00004A908F0B5F885F84D7004460028E8D152
:1047B0002A460721F01C07F0FDFF04460028E0D13F
:1047C0000521701C07F0F6FF04460028D9D1B01C63
:1047D00007F0F0FF04460028D3D1304607F0EAFF87
:1047E00004460028CDD10821301D07F0E3FF044620
:1047F0000028C6D1F3789DF814209B0003F01C0319
:1048000022F01C021A439DF81330717803F01F0345
:1048100043EA4113B17823F01C03890001F01C0125
:104820000B438DF8133031789DF8113001F00701FA
:1048300023F007030B4331798DF8113008290ABFA3
:1048400000210020012002F01F0343EA41138DF8EC
:1048500014309DF81030052203F07F0343EAC013A3
:104860008DF8103004A92B4602A808F007F804467A
:104870009DF80700002884D0002C82D1294608F03A
:104880005DF904467DE700BF44E1000837B51F4BE2
:104890000546D3F88000B3F884300C460090ADF89C
:1048A000043011B9002003B030BD0521601C07F0B1
:1048B00081FF0028F6D1A01C07F07CFF0028F1D171
:1048C000204607F077FF0028ECD16378022D03F132
:1048D00008036B4413F8082CA37803F108036B4416
:1048E00013F8083C1344227802F108026A4412F8D3
:1048F000080C184440F2AB7303FB00F00BBF00F54B
:10490000865000F5A55040180D30CCE74CE100086A
:1049100047F270132DE9F04F93B0074690460E46CC
:10492000ADF8143029B94FF0FF34204613B0BDE87C
:10493000F08F1146002008F001F904460028F4D158
:104940006E238A4A8DF81330D2F88600D2F88A1086
:1049500006AB03C3B2F88E20022F1A8009AB03C343
:104960001A800CAB03C31A800FAB03C30DF1180AF6
:104970001A800DF1240B00F09A80032F61D0012FD3
:1049800001D00124D1E75A23414670888DF81830B0
:1049900007F0C6FE64238DF83030B3888DF824000C
:1049A000B3F57C6F4BD23F2B04F1010244D803EBEB
:1049B0008413DBB200258DF83C3043463A46594615
:1049C000504607F05BFF04460028AED143463A4606
:1049D0000FA90CA807F052FF04460028A5D14346B2
:1049E000022270200FA907F093FF044600289CD1F3
:1049F0003378012B40F0B680D8F80820012A08BF90
:104A000002239DF83C200FA922F0080242EAC404C8
:104A10009DF83D2005A822F00F02154325F0300532
:104A200045EA0315022243468DF83C408DF83D507F
:104A300007F024FF044678E714469B08B3E7FF23FA
:104A4000B8E7F568002D3FF46EAFD6F80890B9F1DD
:104A5000000F3FF468AF377CE3B29F4201D83D4678
:104A6000ABE703F15A02414639F8140001930AF802
:104A7000042007F055FE019B0CAA6433135535F84A
:104A800014300BF80400B3F57C6F0ED200223F2BDC
:104A900002F1010106D803EB8213DBB20FAA135512
:104AA0000134D9E70A469B08F1E7FF23F6E7F268ED
:104AB000002A3FF438AFB3680193002B3FF433AFC3
:104AC000758A4FF00009002D08BF0324377C5FFA78
:104AD00089F39F4218D840F282739D4233D84FF435
:104AE0007A735D4340F2DD13B5FBF3F50023ADB2FD
:104AF0003F2D03F1010223D805EB8315EDB28DF8AC
:104B0000125014B3032410E703F15A010293019BDE
:104B10000AF8091033F819004146039207F000FE25
:104B2000029B0CAA643302F80930039A0FA932F8E9
:104B300019300BF8090001F8093009F10109C6E73D
:104B40001346AD08D4E7FF25D9E7434601220DF10E
:104B500012010DF1130007F091FE044600287FF4C6
:104B6000E4AE7CE7034601244BE700BF4CE10008BC
:104B7000F8B506460F461546002A6AD003F003042E
:104B8000836823F44073836008F0A7FDB26882EA6B
:104B9000042303F440735340B36008F099FD37B920
:104BA000B6F1B64F0DD12E20FEF70CF80746B368CC
:104BB0009A0717D5012C1BD0022C27D064B9264B9D
:104BC00017E0264B9E4201D12F20EDE740F22F1136
:104BD000234807F025FCB3684FF4B271204807F072
:104BE0001FFC08E0012C13D0022CE7D11D4B00E084
:104BF0001D4B9F42F0D91D4B1B5D6B430AD140F208
:104C00007511BDE8F840164807F00ABC184BF0E7EC
:104C1000184BEEE7A3EBC504013C3C44B4FBF3F4B2
:104C2000013C0CD540F27B110D4807F0F9FB4FF425
:104C3000BE710B4807F0F4FBB368B461F8BDB4F57E
:104C4000007FF4D2B3689B07F7D5002C08BF01247E
:104C5000F3E740F21511D4E780841E00008006506F
:104C6000C8E30008002D3101404B4C002BE4000844
:104C7000809FD50040548900B0F1B64F38B5044646
:104C80000D4607D0084B984204D040F295110748D2
:104C900007F0C6FB043425B104F5805401232360DA
:104CA00038BD04F50054F9E700800650C8E3000859
:104CB000B0F1B64F38B504460D4607D0124B9842B6
:104CC00004D04FF4D571114807F0AAFB0023104A15
:104CD000236404F50053DA636A7804F108037AB9AF
:104CE00003F5805302221A602046D5E901122B7B7E
:104CF000FFF73EFF20462978BDE83840FFF7BCBFEC
:104D000003F50053EEE700BF00800650C8E300083B
:104D1000FFFF1F00E023C360002383608361C36142
:104D20000362036443604369DB0506D4202300F576
:104D30000050C363024BC3637047436AF3E700BF8D
:104D4000FFFF1F00B0F1B64F70B50AD0824B9842FA
:104D50001DD0824840F2012107F062FB6FF0030092
:104D600070BD7F4B9968C26B12F4C06F15D091056E
:104D70000FD5FD225A7009221A700022026493F99D
:104D80000110012900D15A7093F90100E8E7754B31
:104D9000E8E75605EFD5FE22ECE71C78082C00F278
:104DA000D680DFE814F009001F00450053007000B2
:104DB0007E009C00A700CB004C880A88E5060AD537
:104DC000120A02F0060242F0F00201211970426359
:104DD000C1600120C4E702F0FE02A10748BF42F013
:104DE0000102F2E7160608D5802100F50052D163D2
:104DF0004FF608721A80022318E05506E9D54024C0
:104E000000F50052D4634A88D40604D502221A70F1
:104E10000B784363DDE796076AD507221A701B7982
:104E200001EBC3031B89012BD3D10823C360D0E757
:104E30001506D9D45406CCD5402400F50052D463CD
:104E40004A88920754D503221A708CE74C880A8846
:104E5000E60643BF120A02F0060242F0F00202F038
:104E6000FE02650709D51C7942F0010201EBC4017D
:104E70000989012904BF0821C16004211970012397
:104E8000C3604263A5E71406AED45206A1D5402400
:104E900000F50052D4634A88560729D507221A70B4
:104EA00097E71A795D8801EBC2042689AE420FD8D4
:104EB00000240132D2B21A715C804C886507C2D4DA
:104EC000E40702D4012A7FF64EAF08221A7092E757
:104ED0006268691C5980525D42630622DFE716064C
:104EE00082D455067FF575AF402400F50052D46397
:104EF0000522A9E794067FF56CAF20261A7900F504
:104F0000005401EBC2010A89456AE6635C88A2424B
:104F100081BF4968661C5E800D5559888A42D4D984
:104F20000424012AC46004D0013A914201D108222C
:104F3000C2601A78092A3FF420AF4AE7D2057FF50C
:104F400048AF4FF4807100F50052D16313E74FF67C
:104F500009321A8011E700BF00800650C8E300083C
:104F6000EC170020F8170020B0F1B64F38B5044612
:104F70000D4607D121B940F26A31264807F050FAB0
:104F8000254B13E0254B98420DD040F26931214862
:104F900007F046FA25B940F26A311E4807F040FA98
:104FA0006FF0030038BD00292BD01D4B2269D007BC
:104FB00044BF2022E2606A88910702D5298900292E
:104FC000EED0520702D52A8A002AE9D04FF4807227
:104FD0001A6000229D601A71C023E3606369DB05DB
:104FE00015D4202204F50053DA630E4A2046DA6312
:104FF0004FF4FC6204F580531A64BDE83840FFF7B3
:10500000A1BE40F26A31034807F00AFACDE7636AAD
:10501000E4E700BFC8E30008EC170020008006505A
:10502000F8170020FFFF1F0008B50146024800F0F6
:105030005DF9002008BD00BF6011002008B50248DE
:1050400000F060F9002008BD601100200146014811
:1050500000F05AB96011002030B50D4685B00DF151
:105060000F040146019204482A46009400F0EEF92C
:105070009DF90F0005B030BD6011002030B50D4620
:1050800085B00DF10F040146019204482A460094B0
:10509000FBF776F89DF90F0005B030BD60110020D8
:1050A00030B50D46144683B0014600932A46234688
:1050B000024800F02FF903B030BD00BF601100209E
:1050C00030B50D46144683B0014600932A46234668
:1050D000024800F071F903B030BD00BF601100203C
:1050E000F0B50F46164687B00C9D014605AC0DF194
:1050F0001300CDE9020400933A4633460548019572
:105100000D9C00F037F8059B9DF91300236007B054
:10511000F0BD00BF60110020F0B50F46164687B005
:105120000C9D014605AC0DF11300CDE9020400937E
:105130003A463346054801950D9C00F087F8059BDB
:105140009DF91300236007B0F0BD00BF601100207F
:1051500030B50D4685B00DF10F0101922B46024688
:1051600000910348FBF76CF89DF90F0005B030BDC6
:10517000601100202DE9F04F1D464FF0DF0C002399
:10518000102485B0DDF84080DDF844A0172D88F8A4
:1051900000C00394CAF800302AD91746002934D138
:1051A00006460C4640F217398B4688F8001001E09D
:1051B0000B2C20D049FA04F3DB0704F10104F7D5E6
:1051C000DDE90E233046CDF800B0E1B200F0BEFCC0
:1051D0000028EDD00F9B294601930E9B03AA009354
:1051E00003463846FBF7CAF988F800000028DFD0EC
:1051F00005B0BDE8F08F98F90030002BF8D1DDE95B
:105200000E123046FBF7E0FC78B998F90040002C0C
:10521000EED1039B38465146CAF80030FBF78CFCB0
:1052200088F8004005B0BDE8F08F0F9B2946019338
:105230000E9B03AA009303463846FBF79FF90446EA
:1052400088F80000002CD3D1E3E700BF2DE9F04F30
:105250001D464FF0DF0C0023102485B0DDF84080A0
:10526000DDF844A0182D88F800C00394CAF8003077
:1052700029D9174651BB06460C4640F217398B46D2
:1052800088F8001001E00B2C20D049FA04F3DB076A
:1052900004F10104F7D5DDE90E233046CDF800B066
:1052A000E1B200F085FC0028EDD00F9B2946019368
:1052B0000E9B03AA009303463846FBF75FF988F874
:1052C00000000028DFD005B0BDE8F08F98F900405D
:1052D000002CF8D1039B38465146CAF80030FBF742
:1052E0002BFC88F8004005B0BDE8F08F10B4062014
:1052F0000224012200230C7048705DF8044B8A7070
:10530000CB70704700F02CB908B5FBF7D1FE002038
:1053100008BD00BF2DE9F04F07460E4600200021D2
:1053200089B0DDF848801C460DF1160907F5A06329
:105330000DF1180AC3E900011546114630464246F0
:105340004B46CDF800A0FCF7D5FA9DF9160008BB36
:10535000083D0DF11C0B069BAB4228D20DF1170343
:105360003046CDE90093224643465146CDF808B079
:10537000FBF754FE9DF9160060B99DF81710FE2941
:105380000BD022463846079B00F0C4F98DF8160072
:105390000028E0D009B0BDE8F08F21463846079AD2
:1053A000FCF724FB8DF816000028D4D0F2E79DF915
:1053B000160009B0BDE8F08F2DE9F04F0E4689B018
:1053C000129F0DF116080DF1180911461546824677
:1053D0001C4630463A464346CDF80090FCF78AFA20
:1053E0009DF9160008BB083D0DF11C0B069BAB4256
:1053F00027D20DF117033046CDE9008322463B4604
:105400004946CDF808B0FBF709FE9DF9160060B9D2
:105410009DF81710FE290BD022465046079B00F03E
:10542000D3FC8DF816000028E0D009B0BDE8F08F5D
:1054300020460799FCF7B6FB8DF816000028D5D05A
:10544000F3E79DF9160009B0BDE8F08F4FF0000CAE
:105450002DE9F04F06460F46154693F800A083F855
:1054600000C08BB0D0F89803D6F89C13D6F8A023D0
:105470009846D6F8A43303AC0FC4DDF85090D6F8A4
:10548000A803D6F8AC13D6F8B0230DF10B0E07C461
:1054900089F800C03B462A463046CDF80490CDF846
:1054A00000E003A98DF80BC0FBF7F4F89DF80B3072
:1054B000002B42D186F8CB3365BB0C2389F8003032
:1054C000304603A9FBF714F9002839D199F90000F7
:1054D00000282CDB0024204FDFF880B003E0651C9F
:1054E0001E2D2C4623D047FA04F3DB07F7D514F81A
:1054F0000B200AAB03EB420102F2CB1336F8133058
:1055000031F81E2C651C9342E9B2E9D03046FBF716
:10551000B5FDE5E703AA009229463A463046CDF8A4
:105520000490FCF75DF899F90030002BC8DABAF165
:10553000070F08D8F12389F800300BB0BDE8F08FD1
:1055400089F80000C4E741463046159AFBF78EFA09
:105550000BB0BDE8F08F00BFEF791200C4E5000882
:1055600010B5044600F06AF82046FCF70FF8204614
:10557000FBF7AEFE204610BD034670B44FF6FF7435
:1055800018480139425C03EB4202B2F8EA52A542E4
:1055900007D000EB4104B4F90C50D3F8E842A5431E
:1055A00002D0002070BC704700EB8100406AD3F845
:1055B000D052A843F5D1B2F82E53B2F82263681C3A
:1055C00085B2B5FBF6F006FB105080B2A2F82E03B0
:1055D0000028E6D1012202FA01F10C431046C3F87B
:1055E000E842DFE7A8E40008F0B44FF6FF74124D7C
:1055F00001396D5C05F2831630F81670A74219D098
:10560000F8FE600AFCEEE07A17EE904A01276E1E63
:1056100000EB850C064400EBC5058CEDA50AC5E939
:10562000802386F8D442D0F8E43207FA01F10B4324
:10563000C0F8E432F0BC7047C4E50008F8B5044691
:1056400001F0B6FF04F59C7002F0C2FC04F12C00DE
:1056500002F0F6F904F1480001F090F904F1D000ED
:10566000FCF7AEFA0A2104F5D87002F0CFF8002654
:105670000020002704F51E7304F5E47204F526717A
:1056800043F8040B8B42E2E80267F9D100224FF0A5
:10569000000C002600271046C4F8D02204F5007143
:1056A00004F2D32204F5347543F804CBAB42E1E9AC
:1056B000026702F8010FF7D1012600254FF6FF72AD
:1056C000C4E9B90004F53B7304F53E711E87A3F8E5
:1056D000445023F8022B9942F8D14FF6FF71A4F8F9
:1056E000F822A4F8FA22A4F8FC22A4F8FE22A4F8D6
:1056F0000023A4F80223A4F80423A4F8062304F248
:10570000063304F2223223F8021F9342FBD12046D3
:10571000F8BD00BF10B44C1E11461A46092C06D81D
:10572000DFE804F00A0F1405180505051E236FF0C5
:1057300063005DF8044B70475DF8044B483001F09E
:1057400083B95DF8044B2C3002F08AB95DF8044B44
:1057500001F03ABF5DF8044B00F59C7002F0B6BE54
:105760005DF8044BD030FCF789BA5DF8044B00F5C6
:10577000D87002F057B800BF2DE9F04300252DED99
:10578000028B00230A469DB00521C0F8E85204466A
:1057900008EE102A8DF819508DF81A508DF81B500C
:1057A00007930893099316931793189319931A93D1
:1057B0001B930A930B93FFF7DFFE48B1F8EEC87A0C
:1057C00094EDA57AB4EE677AF1EE10FA00F0C3809A
:1057D0004FF0FF366FF0004703212046FFF7CCFE65
:1057E00048B1F8EEC87A94EDA57AB4EE677AF1EE96
:1057F00010FA00F0178101212046FFF7BDFE48B1E5
:10580000F8EEC87A94EDA57AB4EE677AF1EE10FA64
:1058100000F0158102212046FFF7AEFE48B1F8EEF8
:10582000C87A94EDA57AB4EE677AF1EE10FA00F03A
:10583000318109212046FFF79FFE48B1F8EEC87A72
:1058400094EDA57AB4EE677AF1EE10FA00F05E817D
:105850009FEDBC7A0A212046FFF78EFE40B1B8EEDC
:10586000C88AD4EDA57AF4EE487AF1EE10FA5BD04E
:105870004FF6FF73B4F810239A4203D0D4F8D03215
:10588000580746D44FF6FF73B4F812239A4203D058
:10589000D4F8D032D90731D44FF6FF73B4F81423BB
:1058A0009A4203D0D4F8D0329A071CD44FF6FF7333
:1058B000B4F816239A4203D0D4F8D0321B0707D489
:1058C0000023C4F8D0321DB0BDEC028BBDE8F083DC
:1058D000DFED9C0AD4E9782394EDA10A0921204642
:1058E000FFF782FEECE7DFED970AD4E9742394ED2D
:1058F0009F0A08212046FFF777FED7E7DFED910AE0
:10590000D4E9722394ED9E0A07212046FFF76CFE2E
:10591000C2E7DFED8C0AD4E9762394EDA00A0621D4
:105920002046FFF761FEADE7F0EE470AD4E976675F
:1059300004F5D87094ED9F1A94EDA00A01F08EFF43
:1059400032463B46DFED7F0A0F2120468DED070AE8
:10595000FFF74AFE8CE7D4EDA37AD4E97867F5EE39
:10596000407AF1EE10FA14BF4FF0010CAC460BA9CF
:105970000DF11B000DF11A020DF11903CDE9031011
:10598000CDE90132CDF800C032463B4604F59C70AB
:1059900094EDA10A02F04AFB4FF6FF706A4AD37AEF
:1059A00003F2831134F811C0591E844516D09DF8B6
:1059B0001900214407EE900AF8EE677A04EB8300A1
:1059C00004EBC303C0EDA57AC3E9806781F8D45224
:1059D000D4F8E43243F40063C4F8E4324FF6FF71C4
:1059E000137B03F2831234F812005A1E88423FF4EC
:1059F000F3AE9DF81A1004EB830007EE901A002115
:105A0000F8EE677A04EBC3032244C0EDA57AC3E93C
:105A1000806782F8D412D4F8E43243F48053C4F897
:105A2000E432D9E694ED9F1AD4EDA00A94EDA10AD0
:105A3000204609AB08AA07A901F0E2FDDBE6D4ED98
:105A4000A37AF5EE407AF1EE10FA14BF012100219D
:105A50000AAA16ABCDE901320091DDED080A9DEDF1
:105A6000070A9DF81B309DF81A209DF8191004F1C3
:105A70004800D4EDA41A9DED091A01F039F8DFEDC4
:105A8000310A9DED0A0A32463B4612212046FFF7B5
:105A9000ABFDBFE614A912AA10ABCDE90121DDEDE3
:105AA0000B0A9DED0A0A00930CAA0EAB16A904F18D
:105AB0002C0001F0F1FF32462046DDED0D0A9DED90
:105AC0000C0A3B460121FFF78FFDDDED0F0A9DED2E
:105AD0000E0A3B460221FFF787FDDDED110A9DED21
