:020000040800F2
:1000000000100020A5020008BB210008BB21000849
:10001000BB210008BB210008BB210008BB21000850
:10002000BB210008BB210008BB210008BB21000840
:10003000BB210008BB210008BB210008BB21000830
:10004000BB210008BB210008BB210008BB21000820
:10005000BB210008BB210008BB210008BB21000810
:10006000BB210008BB210008BB210008BB21000800
:10007000BB210008BB210008BB210008BB210008F0
:10008000BB210008BB210008BB210008BB210008E0
:10009000BB210008BB210008BB210008BB210008D0
:1000A000BB210008BB210008350400081504000826
:1000B000BB210008BB210008BB210008BB210008B0
:1000C000BB210008BB210008BB210008BB210008A0
:1000D000BB210008BB210008BB210008BB21000890
:1000E000BB210008BB210008BB210008BB21000880
:1000F000BB210008BB210008BB210008BB21000870
:10010000BB210008BB210008BB210008BB2100085F
:10011000BB210008BB210008BB210008BB2100084F
:10012000BB210008BB210008BB210008BB2100083F
:10013000BB210008BB210008BB210008BB2100082F
:10014000BB210008BB210008BB210008BB2100081F
:10015000BB210008BB210008BB210008BB2100080F
:10016000BB210008BB210008BB210008BB210008FF
:0C017000BB210008BB210008BB210008D7
:10017C000348044B834202D0034B03B1184770472A
:10018C004C1300204C13002000000000064B0749C4
:10019C00C91A891048BF0131491003D0044B0BB167
:1001AC0001481847704700BF4C1300204C13002027
:1001BC000000000010B5064C237843B9FFF7D8FFB8
:1001CC00044B13B10448AFF300800123237010BD1E
:1001DC00CC12002000000000082D000808B5054BCB
:1001EC001BB105490548AFF30080BDE80840FFF797
:1001FC00CDBF00BF0000000000100020082D00083B
:10020C00A3F5803A704700BF174B002B08BF134B68
:10021C009D46FFF7F5FF00218B460F461348144A05
:10022C00121A02F0C2F80E4B002B00D098470D4B5F
:10023C00002B00D098470020002104000D000D4831
:10024C00002802D00C48AFF3008001F0C1FD200063
:10025C00290001F03BFC01F0FDFC00BF0000080090
:10026C000000000000000000001000200010002022
:10027C00D412002000000000000000000348044AD3
:10028C000449121A921001F093BF00BF7C010008C0
:10029C007C010008D412002008B5154B83F30A88A2
:1002AC0000F030F8FFF7EAFF124B13498B4212D3E0
:1002BC000020124B12498B4218D3FFF7A5FF186888
:1002CC0050F82240586840F8224001329868824227
:1002DC00F5D30C33EAE70022F8E71C6844F8220057
:1002EC0001325C68A242F8D30833E4E70022F8E755
:1002FC0000000020102D00081C2D00081C2D0008EB
:10030C001C2D00084FF48041124B134A70B59A60B3
:10031C00D3F88820114D42F47002C3F88820104A9B
:10032C0005F5005491664FF0FF3222660D4A626665
:10033C000222C3F8D020BFF34F8FBFF36F8F4FF45F
:10034C004036002001F056FB0020E66001F020FB57
:10035C002E6170BD00ED00E000000008008000443C
:10036C00009000507FFF7F03014B1860704700BF67
:10037C00D81200202DE9F04104460C254FF001085D
:10038C00124E0CB314F001000BD0002024F0010429
:10039C0005FB00625768002FF3D09168C0B2B847D4
:1003AC00EFE72246013020284FEA520201D0D30752
:1003BC00F8D508FA00F20F2824EA0204E8D910381C
:1003CC0005FB0062B432E5E7BDE8F08118100020AF
:1003DC0008B50C4802F063FA1A2001F0F3FA28B1C0
:1003EC001A2001F007FB1A2001F0D2FA1B2001F0B1
:1003FC00E9FA28B11B2001F0FDFA1B2001F0C8FA24
:10040C00002008BDE02B000808B501F0B7F9054B3A
:10041C0000F0553020F0A040C3F82004BDE808409F
:10042C00FFF7A8BF00E0035008B501F0A7F9054B92
:10043C0000F0AA3020F02040C3F82004BDE80840AA
:10044C00FFF798BF00E00350044BD3F88420D2068A
:10045C00FBD4D3F88400C0F38110704700400050E7
:10046C0038B5104B0546D3F800310C4603F00303A6
:10047C00022B0BD0032B0DD0012B0FD102F06EF9F8
:10048C00032305B1286004B1236038BD02F0B8F92C
:10049C000923F6E702F068F90823F2E701230020AC
:1004AC00EFE700BF0080005038B5104B0546D3F87D
:1004BC0040310C4603F00303022B0BD0032B0DD061
:1004CC00012B0FD102F0E0F90A2305B1286004B129
:1004DC00236038BD02F094F90923F6E702F0D7F94E
:1004EC000B23F2E701230020EFE700BF0080005050
:1004FC0038B5104B0546D3F860310C4603F00303B6
:10050C00022B0BD0032B0DD0012B0FD102F0BCF919
:10051C000A2305B1286004B1236038BD02F070F9DC
:10052C000923F6E702F0B3F90B23F2E701230020CD
:10053C00EFE700BF0080005038B5104B0546D3F8EC
:10054C0040320C4603F00303022B0BD0032B0DD0CF
:10055C00012B0FD102F098F90A2305B1286004B1E0
:10056C00236038BD02F04CF90923F6E702F08FF94D
:10057C000B23F2E701230020EFE700BF00800050BF
:10058C0038B5124B0546D3F880300C4603F0030304
:10059C00022B0BD0032B0DD0012B0FD102F0A4F8A2
:1005AC000D2305B1286004B1236038BD02F0E0F8DA
:1005BC000723F6E702F092F80623F2E7044841F22B
:1005CC00142101F0E7FD00231846EAE700800050F3
:1005DC009829000838B51A4B0546D3F820010C466B
:1005EC0000F00700062821D8DFE800F028040C14DE
:1005FC0010181C0002F072F8052305B1286004B134
:10060C00236038BD02F0AAF80323F6E702F0B0F835
:10061C000723F2E702F09EF80223EEE702F05EF801
:10062C000623EAE702F09AF80423E6E7054841F2CC
:10063C00912101F0AFFD00231846DEE70123DCE732
:10064C00008000509829000838B5194B0546D3F89E
:10065C0028310C4603F00703013B052B20D8DFE8BB
:10066C0003F003131B0F0B1702F038F8052305B129
:10067C00286004B1236038BD02F030F80623F6E799
:10068C0002F076F80723F2E702F068F80323EEE7AE
:10069C0002F064F80423EAE702F05CF80223E6E7D0
:1006AC00044841F2990101F075FD00231846DEE77C
:1006BC000080005098290008002337B50193194B8E
:1006CC000546D3F820320C4603F00703042B1FD841
:1006DC00DFE803F025030F141900002101A8FFF730
:1006EC00B3FF11230DB1019A2A6004B1236003B04A
:1006FC0030BD02F03DF807230190F3E702F0C4F897
:10070C000A230190EEE702F07BF809230190E9E758
:10071C0041F25601044801F03DFD0023E2E70123BC
:10072C00E0E700BF0080005098290008F7B50027CB
:10073C00144B0197D3F88041064604F00304022CB5
:10074C000D4614D0032C0DD0012C14D1394601A820
:10075C00FFF740FF0F240EB1019B336005B12C60F5
:10076C0003B0F0BD02F004F807240190F3E701F0A8
:10077C00F1FF0190EFE741F2E631034801F00AFD89
:10078C003C46E8E7008000509829000838B5164B25
:10079C000546D3F800020C4600F00700042819D8CF
:1007AC00DFE800F020030B0F130002F06DF80A23B2
:1007BC0005B1286004B1236038BD02F021F809238B
:1007CC00F6E702F064F80B23F2E701F0ADFF0E231D
:1007DC00800AEDE7054841F2A44101F0DBFC00235F
:1007EC001846E5E70123E3E700800050982900084C
:1007FC0038B5164B0546D3F808020C4600F0070036
:10080C00042819D8DFE800F020030B0F130002F0C6
:10081C003BF80A2305B1286004B1236038BD01F010
:10082C00EFFF0923F6E702F032F80B23F2E701F0B1
:10083C007BFF0E23800AEDE7054841F2DC4101F015
:10084C00A9FC00231846E5E70123E3E700800050EC
:10085C009829000838B5124B0546D3F850320C468F
:10086C0003F00303022B0FD0032B05D0012B0FD168
:10087C0002F00AF80A2302E002F009F80B2305B192
:10088C00286004B1236038BD01F0BAFF0923F6E7F4
:10089C00044841F2C90101F07DFC00231846EEE743
:1008AC000080005098290008002337B50193184B9D
:1008BC000546D3F860320C4603F00703013B032BCB
:1008CC001FD8DFE803F0020E1914002101A8FFF76E
:1008DC0081FE0F230DB1019A2A6004B1236003B08D
:1008EC0030BD002101A8FFF7DFFD1023F2E701F076
:1008FC003FFF07230190EDE701F02CFF022301904D
:10090C00E8E741F2FD01034801F044FC0023E1E774
:10091C00008000509829000873B500240F4B0194F7
:10092C00D3F87032064603F00303012B0D4607D0B3
:10093C00022B11D041F25B11094801F02BFC04E0B1
:10094C00214601A8FFF7B0FD10240EB1019B3360C6
:10095C0005B12C6002B070BD1424F6E70080005085
:10096C009829000838B50F4B0546D3F890320C4641
:10097C0003F00303012B09D0022B0BD101F0F8FE7D
:10098C00072305B1286004B1236038BD01F0E2FEF5
:10099C000223F6E7044841F2851101F0FBFB00232A
:1009AC001846EEE7008000509829000808B5334B34
:1009BC0098424FD027D8324B984245D017D8314B5C
:1009CC0098423ED00AD838B12F4B984239D041F2D8
:1009DC00BB312E4801F0DEFB002034E02C4B98425A
:1009EC002FD02C4B9842F2D12B4B586E2BE02B4B2B
:1009FC0098422CD003F5371303F5D8639842E6D10F
:100A0C00254B986F1FE0264B98422FD00CD8254BC6
:100A1C00984223D0244B984224D0244B9842D6D1D0
:100A2C001D4BD3F884000EE0214B984222D003F5E5
:100A3C00740303F510539842C9D1174BD3F898009F
:100A4C0001E0154B986D08BD134B186FFBE7124B6B
:100A5C00586FF8E7104BD3F88000F4E70E4BD3F83F
:100A6C008800F0E70C4BD3F88C00ECE70A4BD3F87A
:100A7C009000E8E7084BD3F89400E4E780BA8C01C7
:100A8C00405DC60080841E0040420F00982900087B
:100A9C0000093D00C0CF6A000080E00F0024F40084
:100AAC00007E560380D54302006CDC020048E8014E
:100ABC000090D003B0F5207F10B52ED009D8B0F53A
:100ACC00007F24D003D868B1B0F5C07F0AD00024D1
:100ADC001BE0B0F5607FFAD1124BD3F88040C4F321
:100AEC00011412E00F4B1C6F230B13F00E0FC4F309
:100AFC0003340AD0072C08D00F2C06D0032C04D0BA
:100B0C004FF42271084801F045FB601C10BD054BE9
:100B1C00D3F89040C4F30464F7E7024B1C6FC4F3A2
:100B2C008024F2E700800050982900084FF48032AE
:100B3C0038B5104B04469A6600200D46FFF7BAFFF5
:100B4C0041F671320C4B6043DC69DA635A6804F489
:100B5C00803422F440125DB90849884294BF0020C9
:100B6C000120000502435A600CB10022DA6338BD43
:100B7C000349F2E70090005000000350005A620253
:100B8C00002D3101002130B5B0F5807F85B00446D1
:100B9C00CDE9001100F007816BD8002800F0DC8053
:100BAC00A0F12004602C75D8602C73D8DFE814F009
:100BBC00D400E100D400E100F100F100F100F100FB
:100BCC00F100E100F6007E00A1000C017E00E100C6
:100BDC00E100E1007200720072007200720072009B
:100BEC007200A100E100E100E10029011601E10021
:100BFC007200720072007200720072007200720059
:100C0C0072007200720072001B01F100D400D4005B
:100C1C00D40011017E007E002001BE009300C900AB
:100C2C00C9007200720072007200720072007200D1
:100C3C007200720072007200720072007200720018
:100C4C007200720072007200720072007200720008
:100C5C0072007200720072007200720072007200F8
:100C6C0072007200720072007200720072007200E8
:100C7C00CE00B0F5F06F00F0C4803FD8B0F5607FC7
:100C8C0000F082801DD8B0F5007F68D008D8B0F590
:100C9C00C07F61D040F2A4415C4801F07BFA58E07F
:100CAC00B0F5207F65D0B0F5407FF3D101F03CFD6D
:100CBC0004464FF42070FFF7FDFEB4FBF0F464081B
:100CCC0060E0B0F5B06F69D00AD8B0F5806F60D035
:100CDC00B0F5A06FDED100216846FFF7EDFC38E0DF
:100CEC00B0F5D06F70D0B0F5E06F77D0B0F5C06FC5
:100CFC00D0D100216846FFF7D7FB2AE0B0F5206F72
:100D0C0076D00CD8B0F5106F63D0B0F5186F6AD0F0
:100D1C00B0F5086FBED16846FFF7A2FB19E0B0F53D
:100D2C00306F6AD007D8B0F5286FB3D10021684670
:100D3C00FFF7F2FD0DE0B0F5386FDAD0B0F5406F8B
:100D4C00A8D100216846FFF77FFC02E001F0CCFC43
:100D5C000090009805B030BD01F0E6FCF8E701F01A
:100D6C00C3FC05462046FFF7A5FEB5FBF0F5009544
:100D7C00EFE701F0D9FC04464FF42070FFF79AFE20
:100D8C00B4FBF0F40094E4E701A8FFF7F9FB019D34
:100D9C00E8E700216846FFF71DFCDAE7002168460A
:100DAC00FFF7C4FCD5E74FF0E02302911B695B070A
:100DBC0005D501F0B9FC0290029B0093C9E703A989
:100DCC0002A8FFF771FBF7E700216846FFF7DEFC8E
:100DDC00BFE700216846FFF70BFDBAE70021684624
:100DEC00FFF7AAFBB5E700216846FFF733FDB0E734
:100DFC0000216846FFF758FDABE76846FFF7B2FDE8
:100E0C00A7E700216846FFF773FBA2E798290008C3
:100E1C0008B58020FFF7B6FE034B98429EBF4FF4F7
:100E2C008032024B1A6708BD005A620200A00050C3
:100E3C001FB503460020B3F5607F019000F0FC80E5
:100E4C007BD8582B68D8382B05D8243B092B49D98B
:100E5C0040F28951D1E0393B1F2BF9D801A252F84D
:100E6C0023F000BF291000085D0E00085D0E00087D
:100E7C005D0E000833100008571000085D0E0008C6
:100E8C005D0E00085D0E00085D0E00085D0E00088A
:100E9C005D0E00085D0E00085D0E00085D0E00087A
:100EAC005D0E00085D0E00085D0E00085D0E00086A
:100EBC00611000086B0F00085D0E00085D0E000845
:100ECC005D0E0008AF0F00085D0E00085D0E0008F7
:100EDC006B100008751000084D100008D10F0008A9
:100EEC00D10F0008092BB3D801A252F823F000BF90
:100EFC006B0F00086B0F00086B0F00086B0F0008DE
:100F0C006B0F00085D0E00080F1000085D0E000846
:100F1C0029100008890F0008802B58D0B3F5807F6A
:100F2C0096D14FF0E02302901B695B0771D501F05D
:100F3C00FBFB0C230393039B55E0B3F5086F77D0B1
:100F4C0021D8B3F5C06F69D00ED8B3F5A06F77D0A8
:100F5C00B3F5B06F55D0B3F5806F7FF479AF002047
:100F6C0001A9FFF737FB50E0B3F5E06F6DD0B3F597
:100F7C00F06F58D0B3F5D06F7FF46AAF002001A9A1
:100F8C00FFF704FC41E0B3F5286F6DD00ED8B3F534
:100F9C00186F5FD0B3F5206F61D0B3F5106F7FF48D
:100FAC0057AF002001A9FFF723FC2EE0B3F5306FFB
:100FBC005FD0FFF44DAFB3F5386F2FD0B3F5406F62
:100FCC007FF446AF002001A9FFF73EFB1DE02B4B41
:100FDC001B6F03F00703013B032B0CD8DFE803F076
:100FEC0009020507052301930FE00323FBE7082300
:100FFC00F9E70223F7E740F2D641214801F0CAF89D
:10100C0003E0002001A9FFF791FB019805B05DF802
:10101C0004FB03A902A8FFF747FA8CE7002001A9FB
:10102C00FFF742FAF1E7002001A9FFF761FAECE7BC
:10103C0001A9FFF715FAE8E701A9FFF7A1FAE4E720
:10104C00002001A9FFF738FBDFE7002001A9FFF71B
:10105C0073FADAE7002001A9FFF7FCFBD5E70020C3
:10106C0001A9FFF721FCD0E7002001A9FFF754FCF0
:10107C00CBE701A9FFF776FCC7E700BF0080005063
:10108C00982900084FF48032074B0849586E03F535
:10109C0080535A664B6A23F001034B62C3035CBF57
:1010AC00034B5A66704700BF0080005000C00750C9
:1010BC0000A00050B0F5207F38B577D00ED8B0F531
:1010CC00007F61D003D890B3B0F5C07F2FD04FF420
:1010DC004671BDE838403D4801F05CB8B0F5607F22
:1010EC00F5D13B4A4C1ED2F8FC5015F080751EBF52
:1010FC00D2F8FC3023F08073C2F8FC30032C04D9F6
:10110C0040F2F721314801F045F8324AD2F88030EC
:10111C0023F0300343EA0413C2F8803035B12C4A73
:10112C00D2F8FC3043F08073C2F8FC3038BD4C1E52
:10113C00012C0AD9102903D8274BCB40DB0704D448
:10114C0040F2CB21214801F025F801F03EF801F0E6
:10115C004AF84FF48031214B1E4A1967136F23F460
:10116C00704343EA0433136701F0DEFA0446FFF7D9
:10117C006BF9C0F10201204601F02FF800F048F89D
:10118C00BDE83840FFF744BE4C1E1F2C04D94FF469
:10119C0043710E4800F0FEFF0E4AD2F8903023F057
:1011AC00F85343EA0463C2F89030BFE74C1E012C9D
:1011BC0004D940F21231054800F0ECFF054A136FD8
:1011CC0023F4806343EA84231367AFE7982900086C
:1011DC0000ED00E000800050100101000090005074
:1011EC0008B50121022000F099F94FF42070FFF7A7
:1011FC0061FC054B187000F0E8FF00F0F4FF4FF4B1
:10120C008032024B1A6708BDCD12002000900050AE
:10121C0008B54FF4C070FFF7B5FCBDE808400449B1
:10122C00884294BF012102214FF42070FFF742BF86
:10123C0080F0FA0238B5044601F076FA0546FFF75D
:10124C0003F9C0F10201284600F0C7FF012100207C
:10125C0000F0B8F92CB1FFF7DBFFBDE83840FFF721
:10126C00D7BD034B4FF420701978FFF723FFF4E739
:10127C00CD1200202DE9F0410546FFF797FB431EE8
:10128C000333044604D940F6E2113B4800F082FFD8
:10129C004FF4C022394B5A6603F598335A68012A29
:1012AC0004D137494A605A689207FCD48020FFF772
:1012BC00BFFD052807D100F088FF00F094FF4FF424
:1012CC0080322E4B1A672F4B24F040749D4239D03C
:1012DC002D4B9D4239D001F001FA8542064603D9C7
:1012EC000121284600F06EF9284FFB6813F0060F19
:1012FC00FBD1D7F80880BC60BB68634013F4F81FBF
:10130C0026D12846FFF730F88020FFF791FD0528FD
:10131C0014D101F009FAA842044604D940F63B2145
:10132C00154800F037FFFFF78FF8C0F10201204697
:10133C0000F053FFFFF76CFFFFF76AFDAE4213D2CC
:10134C00BDE8F08144F00074C5E744F08074C2E756
:10135C0040F62A21084800F01DFF8020C7F80880BD
:10136C00FFF766FD052805D0BDE8F04101210020FE
:10137C0000F028B93546CCE79829000800900050B9
:10138C0000E0015040420F0080841E00000001501C
:10139C004E4B70B59842054673D041D8A3F5B703B0
:1013AC00A3F55863984265D033D8494B494E9842BF
:1013BC0051D017D8002877D041F2DE11464800F002
:1013CC00E9FE40F68671444800F0E4FE4FF400223A
:1013DC00404B5A663E4B9D4276D000243F4A954284
:1013EC0036D05DE03D4B984227D03D4B9842E3D13F
:1013FC003C4BD3F8A040621E033224F040744CD90D
:10140C0040F68671344800F0C5FE4FF40023736635
:10141C00E4E7354B9842CFD1324BD3F8BC402CE0AB
:10142C00324B984231D0324B984232D0314B9842A9
:10143C00C2D12C4BD3F8C8401FE02A4BD3F8A040A4
:10144C00621E033224F04074DAD84FF40023736622
:10145C0044F0807424E0234BD3F8A040621E033286
:10146C0024F040742AD84FF400237366234643F0CB
:10147C00007415E01B4BD3F8B840621E154E0332B6
:10148C00BBE7184BD3F8C040F7E7164BD3F8CC406A
:10149C00F3E7144BD3F8D040EFE74FF40023736617
:1014AC004FF0B442946070BD40F686710A4800F06B
:1014BC0071FE4FF400232C467366F1E740F68671FB
:1014CC00054800F067FECEE70023D0E7C0EA210113
:1014DC0040420F00009000509829000880841E00A4
:1014EC0000093D000080E00F0024F4000048E801F2
:1014FC00005A620280BA8C01024A536B0342FCD13F
:10150C00704700BF00400950034A0179D36E23F0A5
:10151C0030030B43D366704700400050F8B50446C7
:10152C00244BD3F88420D006FBD4D3F88430C3F3F7
:10153C0081139C423CD001F0D7F8012C05460BD10D
:10154C001D4B984204D940F29B711C4800F022FEBE
:10155C000121284600F041FE01F087F94FF000729E
:10156C00174B07465A66204600F042FE4FF4806344
:10157C00104E621E93403367736E9A0103D4D6F8F3
:10158C0084309B060AD5384601F06AF9022C0FD13B
:10159C002846BDE8F840002100F01FBED6F8843084
:1015AC009906E9D540F2B371044800F0F3FDE3E786
:1015BC00F8BD00BF00400050005A6202FB29000831
:1015CC000060005010B50C4608B901F08DF8074BBF
:1015DC0021461B783BB1064B984204D80120BDE84C
:1015EC001040FFF79BBF0220F9E700BFCE1200208E
:1015FC00005A62024FF0004238B5244B244C5A6614
:10160C004AF6CD33656C014605F00105236428BB11
:10161C000120FFF771FF6368DB0715D51D4B586080
:10162C0008461D4B226BD2070CD4984208D10724D4
:10163C0015B1174B194A1A6400F0DBFD204638BD72
:10164C000130EFE79842F2D00024F1E70132236B2E
:10165C0013F0080305D08A42F8D1E8E700220E49BE
:10166C00F5E78A42E3D020210A4A91620121A2F5D2
:10167C00805251600649084A886A800603D4934216
:10168C00D5D00133F8E79342DDE700BF009000505E
:10169C00004009500060095040420F003254FFFFD7
:1016AC004FF0004238B5164B01465A664AF6CD3318
:1016BC00144C154A656C236443780B205B0043F093
:1016CC000103D363FFF718FF63688A7823F4F87378
:1016DC0043EA02136360CA784B7943EA0223A3609E
:1016EC000A798B7943EA022323610878FFF782FF9A
:1016FC00EB0744BF054B236400F07BFD012038BD94
:10170C000090005000400950004000503254FFFF40
:10171C000F2870B5044605D940F67461124800F0E4
:10172C0039FD0F244FF00042104B11495D6E03F54B
:10173C0080535A664AF6CD334E6C80200B64FFF70B
:10174C00DBFE0B6A23F00F0323430B62F30744BF4A
:10175C00084B0B64002DA2BF4FF00042064B5A669B
:10176C0000F047FD70BD00BFFB2900080080005051
:10177C00004009503254FFFF00A00050034BD3F837
:10178C002424D3F820041040704700BF00C003503D
:10179C0010B5634801F083F820B14FF44E716148E5
:1017AC0000F0F8FC6048FFF765FD6048FFF7F0FDBE
:1017BC005F4801F074F820B140F2CB11594800F0A9
:1017CC00E9FC5C4CFFF70CFD236F002023F00703B2
:1017DC0043F002032367FFF72DFD236F564923F4D3
:1017EC00744343F480632367544BD3F8FC2012F00A
:1017FC0080727CD1D4F8803023F0030343F00103D2
:10180C00C4F88030C1F880204A4CD4F8203123F041
:10181C00070343F00103C4F82031D4F8283123F036
:10182C00070343F00103C4F82831D4F8803123F0C6
:10183C00030343F00103C4F88031D4F8903223F051
:10184C00030343F00103C4F89032D4F8403123F081
:10185C00030343F00103C4F84031D4F8603123F0A2
:10186C00030343F00103C4F86031D4F8403223F091
:10187C00030343F00103C4F84032D4F8003223F0E0
:10188C00070343F00103C4F80032D4F8083223F004
:10189C00070343F00103C4F80832D4F8503223F0A4
:1018AC00030343F00103C4F85032D4F8703223F030
:1018BC00030343F00103C4F87032D4F8203223F050
:1018CC00070343F00103C4F82032FFF7DBFB4FF0B2
:1018DC00E0221369002043F004031361D4F8603252
:1018EC0023F0070343F00103C4F8603210BDD3F8B2
:1018FC00FC2022F08072C3F8FC20D4F8802022F067
:10190C00030242F00102C4F880200022C1F88020BA
:10191C00D3F8FC2042F08072C3F8FC2074E700BFBF
:10192C00D82B0008452B000800B4C404C0EA2101E0
:10193C00DC2B0008008000500090005000ED00E00F
:10194C0007B5094B18689A889B7900906846ADF8E2
:10195C0004208DF80630FFF7A3FE0920FFF7D8FE10
:10196C00002003B05DF804FBCE2B000813B5002457
:10197C00064A6846536F43F00103536700948DF891
:10198C000440FFF7C1FD204602B010BD00400050DE
:10199C004F2810B5044608D801236109074A04F002
:1019AC001F04A34042F8213010BD4FF49971044834
:1019BC0000F0F0FB002CF7DBEEE700BF00E100E0ED
:1019CC00E42B00084E2810B5044604D940F23D1112
:1019DC00064800F0DFFB064B621153F8220004F0BE
:1019EC001F04E040C04300F0010010BDE42B0008D0
:1019FC0000E100E0002808DB01224309034900F064
:101A0C001F008240603341F82320704700E100E062
:101A1C0038B500F110035F2B04460D4604D94FF482
:101A2C00F0710E4800F0B6FB0F2D04D940F2E11115
:101A3C000A4800F0AFFB60B20028ACBF00F1604078
:101A4C00074B4FEA0515EDB2ABBF00F5614000F056
:101A5C000F0080F800531D5438BD00BFE42B000864
:101A6C0014ED00E010B500F009FF0A4B1A786AB9C2
:101A7C0001226FF004041A7000F0FBFE20460521D1
:101A8C000134FFF7C5FF4F2CF8D110BDBDE8104055
:101A9C0000F0EFBECF1200200346054A054910683E
:101AAC0003448B428CBF4FF0FF301360704700BF74
:101ABC00E41200200000042008B500F04BF8BDE84B
:101ACC000840014800F07CB9712C000807B500F003
:101ADC00A5FB0B4800F074F900230A4A0193019B03
:101AEC00934209D9084800F06BF900F0C4FB00F0F0
:101AFC00B7FB00F0C1FBFAE7019B01330193EEE762
:101B0C009E2C00083F0D0300CF2C00080F4910B588
:101B1C00D1F8FC30DC0116D54FF06043D3F8802EA1
:101B2C00D20710D50A4AD1F8FC4044F08074C1F8B1
:101B3C00FC40D3F8004E44F00104C3F8004E1C687E
:101B4C0014B9013AEFD110BD1870FCE700ED00E0BC
:101B5C00FFFF0F0007B54FF08061334B334A5966D6
:101B6C00334905204B6B23F4704343F480434B63A0
:101B7C003E21304BC3F844140121A3F58053C3F824
:101B8C004414D2F8803023F033030B43C2F8803076
:101B9C00002301A9019300F07DFE002841D101989A
:101BAC00254A00F5D52303F2FC43934286BF01324C
:101BBC00B3FBF2F30123B0FBF3F0204A2049106091
:101BCC00D1F8FC20013B42F08072C1F8FC201D4A88
:101BDC001D49116002F57C3213610223C2F8F0300A
:101BEC004FF48073C2F804334FF06043174AC3F8C4
:101BFC00B02F174AC3F8802E0122C3F8002ED3F859
:101C0C00002E42F48072C3F8002EFF2283F82020AD
:101C1C00D3F8002E22F48072C3F8002E03B05DF8C6
:101C2C0004FB00F061FDBBE7009000500080005009
:101C3C0000C0035000E00350F7590D008011002044
:101C4C0000ED00E0001000E0FF03004055CEACC5F5
:101C5C000900010008B5064B044613B10021AFF38F
:101C6C000080044B1B6803B19847204600F096FA9D
:101C7C0000000000BC120020002310B50446836055
:101C8C00818119464366C28108228361C0E9003311
:101C9C00C0E904335C3000F088FB0D4B24626362B6
:101CAC000C4BA3620C4BE3620C4B23630C4B9C421E
:101CBC0006D003F16802944202D0D0339C4205D185
:101CCC0004F15800BDE8104000F077BB10BD00BF18
:101CDC0023250008452500087D250008A1250008BE
:101CEC0084110020024A0349034800F0EBBA00BFFC
:101CFC00E8120020D3240008F812002041680C4B95
:101D0C00994210B5044601D000F0DDFBA168094BE7
:101D1C00994202D0204600F0D6FBE168064B99426E
:101D2C0004D02046BDE8104000F0CDBB10BD00BF74
:101D3C0084110020EC1100205412002010B50B4B24
:101D4C0004210B4C0B4A20461A600022FFF794FF2B
:101D5C0004F1680001220921FFF78EFF04F1D00085
:101D6C0002221221BDE81040FFF786BFBC120020F2
:101D7C0084110020F11C0008014800F01FBB00BFBB
:101D8C00D1120020014800F01ABB00BFD112002074
:101D9C0010B50446FFF7F0FF236A1BB1BDE81040F5
:101DAC00FFF7F0BF044B2362044B1B68002BF5D1EB
:101DBC00FFF7C4FFF2E700BF091D0008BC120020AA
:101DCC00024B0146186800F09BBA00BFF4120020C9
:101DDC0070B50D4D00260D4C641BA410A64209D104
:101DEC000B4D00260B4C00F0C5FD641BA410A64245
:101DFC0005D170BD55F8043B01369847EEE755F810
:101E0C00043B01369847F2E74413002044130020AA
:101E1C00441300204813002070B50F4E0C460546A5
:101E2C00316811B900F04AF930602146284600F0BB
:101E3C0045F9431C03D14FF0FF34204670BDC41C40
:101E4C0024F00304A042F8D0211A284600F036F9F9
:101E5C000130F2D1EFE700BFC01200202DE9F041B4
:101E6C00CD1C064625F0030508350C2D38BF0C2576
:101E7C00002D01DBA94204D90C2333600020BDE8FE
:101E8C00F081314F00F062F83B681C4644BB294698
:101E9C003046FFF7C1FF431C044650D13C68214635
:101EAC00002941D1002C44D02368304604EB0308B0
:101EBC0000F004F980453CD1216830466D1A294662
:101ECC00FFF7AAFF013034D023682B4423603B6812
:101EDC00002B36D05A68A24229D100225A600EE05B
:101EEC002268521B1DD40B2A16D96119A3422560F6
:101EFC0018BF5960636808BF396062514B60304647
:101F0C0000F02AF804F10B00231D20F00700C21A80
:101F1C00B5D01B1AA350B2E7A3426268DED13A6077
:101F2C00EDE723466468B1E70C464968B8E7134609
:101F3C00CEE70C233046336000F00EF89EE70560C8
:101F4C00DDE75B60FFDE00BFC4120020014800F03B
:101F5C0035BA00BFD0120020014800F030BA00BFE3
:101F6C00D012002038B5294B05460C46186818B11C
:101F7C00036A0BB9FFF70CFFB4F90C30190722D424
:101F8C00DA0607D409222A6043F040034FF0FF30F1
:101F9C00A38133E0580712D5616B41B104F14403BE
:101FAC00994202D0284600F0ABF800236363A38962
:101FBC0023F02403A3810023636023692360A38996
:101FCC0043F00803A38123694BB9A38903F420735D
:101FDC00B3F5007F03D02146284600F042FBB4F94C
:101FEC000C3013F001020AD00022A2606269524246
:101FFC00A261226942B913F08000C5D138BD99079E
:10200C0058BF6269A260F4E70020F7E7F4120020E1
:10201C0038B50023054D044608462B6000F0BBF88C
:10202C00431C02D12B6803B1236038BDC8120020B9
:10203C0038B50023064D0446084611462B6000F0C7
:10204C00AEF8431C02D12B6803B1236038BD00BF2E
:10205C00C812002038B50023054D044608462B60F5
:10206C0000F09FF8431C02D12B6803B1236038BDEC
:10207C00C812002038B50446064D08461146002209
:10208C002A601A4600F08FF8431C02D12B6803B16A
:10209C00236038BDC812002038B50446064D0846EA
:1020AC00114600222A601A4600F07FF8431C02D128
:1020BC002B6803B1236038BDC812002038B500234B
:1020CC00054D044608462B60FFF7E6FC431C02D185
:1020DC002B6803B1236038BDC812002038B5044604
:1020EC00064D0846114600222A601A4600F0D5F823
:1020FC00431C02D12B6803B1236038BDC8120020E9
:10210C0038B50546002941D051F8043C0C1F002B72
:10211C00B8BFE418FFF71AFF1D4A136833B96360A0
:10212C0014602846BDE83840FFF716BFA34208D913
:10213C00206821188B4201BF19685B68091821605F
:10214C00EDE71A465B680BB1A342FAD91168501837
:10215C00A0420BD120680144501811608342E0D199
:10216C0018685B68084453601060DAE702D90C23E6
:10217C002B60D6E7206821188B4202BF19685B6878
:10218C000918636008BF21605460CAE738BD00BFFE
:10219C00C4120020FEE74FF0FF307047FEE700202E
:1021AC007047012070470020704700207047FEE701
:1021BC0000239A4200D1704710B550F8234041F8E3
:1021CC00234001339A42F8D110BD08B500F0BEFA95
:1021DC00BDE808400021FEF7A9BC0029CCBF0121B5
:1021EC000021FEF7A3BC02214FF42070FEF762BF62
:1021FC007047704700F000B800207047FFF7C8BA6E
:10220C00704708B500F03DF800F03EF800F03EF8DD
:10221C0000F03DF8BDE8084000F03AB808B5FFF70B
:10222C00EFFFFFF71FFCFFF78BFBFFF7E7FFFFF755
:10223C009DFBFFF741FC00F007F800F024F8BDE827
:10224C000840FFF7DEBF704708B500F016F800F045
:10225C0015F800F014F800F013F8FFF7F4FF08BDC0
:10226C0008B500F016F800F015F800F014F8BDE809
:10227C00084000F011B870477047704770477047BE
:10228C007047FFF7B7BF7047FEF7A2B870477047AB
:10229C007047704770477047704770B515464E1EB3
:1022AC00C1F10104A3199D4201DC284670BD73786D
:1022BC000A2B02D10D20FFF729FC16F8010FFFF7AE
:1022CC0025FCEFE72DE9F84307468846144600261F
:1022DC00D4E90195B9F1010905D52468002CF7D191
:1022EC003046BDE8F883AB89012B07D9B5F90E3020
:1022FC00013303D029463846C04706436835E9E721
:10230C00036A70B505460E4684680BB9FFF740FDAD
:10231C00636EDB0705D4A389980502D4A06D00F089
:10232C004DF8A389190702D52369002B35D1214615
:10233C002846FFF717FE80B34FF0FF35636EDA07C0
:10234C0005D4A3899B0502D4A06D00F038F828466B
:10235C0070BD002B15DB23685A1C22601970A36812
:10236C0016F8011F013BA3600029F2D1002B16DAED
:10237C0022460A21284600F011F90130DCD00A254A
:10238C00DCE7A2699A4201DC0A29E4D122462846FC
:10239C0000F004F90130E2D1CEE7013EDFE723681B
:1023AC005A1C22600A221A70E9E70244034693423F
:1023BC0000D1704703F8011BF9E77047704770476D
:1023CC00B1F90C202DE9F041170705460C4656D4FF
:1023DC004B68002B02DC0B6C002B3DDDE66A002EFB
:1023EC003AD0002312F480522F68216A2B6025D03A
:1023FC00626DA389580705D56368D21A636B0BB15C
:10240C00236CD21A216A0023E66A2846B047411C85
:10241C0024D00023636023692360A389DA0400D5E8
:10242C006065616B2F60B9B104F14403994202D02D
:10243C002846FFF765FE002363630DE00123284661
:10244C00B047461C0246D4D12B68002BD1D01D2B93
:10245C0001D0162B2AD12F6000202EE02A68B4F967
:10246C000C3042B11D2A01D0162A21D10023636001
:10247C0023692360D5E7626022692260CEE70F6989
:10248C00002FE9D093070E680F600CBF4B69002337
:10249C00A6EB07088B60B8F1000FDDDD43463A462A
:1024AC00216A2846A66AB047002808DCB4F90C302B
:1024BC0043F040034FF0FF30A381BDE8F0810744A7
:1024CC00A8EB0008E7E738B50B6905460C4613B9CD
:1024DC000025284638BD18B1036A0BB9FFF758FC24
:1024EC00B4F90C30002BF3D0626ED00704D49905EC
:1024FC0002D4A06DFFF762FF28462146FFF760FF6C
:10250C00636E0546DA07E4D4A3899B05E1D4A06D7C
:10251C00FFF755FFDDE710B50C46B1F90E10FFF7CC
:10252C00BBFD0028ABBF636DA3891B1823F480533C
:10253C00ACBF6365A38110BD2DE9F0411F468B89AB
:10254C0005460C46DB05164605D502230022B1F9DB
:10255C000E10FFF78FFDA3893246B4F90E102846F2
:10256C0023F48053A3813B46BDE8F041FFF7B6BD91
:10257C0010B50C46B1F90E10FFF77CFD431CA38976
:10258C0015BF606523F4805343F48053A38118BFB7
:10259C00A38110BDB1F90E10FFF73ABDF8B50E4688
:1025AC001446054618B1036A0BB9FFF7F1FBA36992
:1025BC00A360A3891A0701D5236943B9214628468C
:1025CC00FFF7D0FC18B14FF0FF373846F8BD236841
:1025DC00F6B222693746981A6369834205DC2146B4
:1025EC002846FFF770FF0028EDD1A368013BA360DC
:1025FC0023685A1C22601E70431C62699A4204D0E4
:10260C00A389DB07E1D50A2EDFD121462846FFF747
:10261C005AFF0028D9D0D6E770B50C46B1F90E1088
:10262C0096B0154600291E460CDAA389002113F03A
:10263C00800F14BF40234FF48063002031602B6067
:10264C0016B070BD6A46FFF7F3FC0028EDDB01996C
:10265C0001F47041A1F50053594259414FF4806384
:10266C00EBE78B89F7B59D0706460C4607D504F1B9
:10267C004703236023610123636103B0F0BD01AB09
:10268C006A46FFF7C9FF009F054630463946FFF7FB
:10269C00E5FB48B9B4F90C309A05EED423F00303EA
:1026AC0043F00203A381E2E7A389206043F0800397
:1026BC00A381019BC4E904075BB1B4F90E10304649
:1026CC00FFF7C8FC28B1A38923F0030343F00103EF
:1026DC00A381A3891D43A581CFE70000014B186896
:1026EC00704700BFD81200200A4B1B6F03F0070382
:1026FC00013B032B03D8DFE803F00A030608FEE7CF
:10270C00054B18687047054BFBE7054870470548B3
:10271C00704700BF00800050D8120020E01200204B
:10272C0080D54302002D310108B5FFF7DDFF054BC5
:10273C001B6FC3F303330133B0FBF3F0024B186090
:10274C0008BD00BF00800050D41200200048704724
:10275C0000B4C40400487047002D3101014B1868C7
:10276C00704700BFE01200200048704780D543023C
:10277C004FF40022184B5A664FF0B4439868C0F3DC
:10278C0004400C280AD8DFE800F00B0909090909F4
:10279C00072119091B1D1F001048704700207047A6
:1027AC009B6803F04073B3F1807F11D0B3F1007FCD
:1027BC0010D00B4A002B08BF1046704709487047D1
:1027CC0009487047094870470948704709487047DD
:1027DC00094870470948704700900050405DC6009A
:1027EC0000093D00C0EA210180BA8C010048E801D3
:1027FC00005A62020024F40080841E0040420F0044
:10280C00014B1868704700BFDC12002070B50D46F4
:10281C00E8B1036813F4E07F03F03F06C3F38212C0
:10282C0010D0012A13D10B4C9B0603D591210A48D9
:10283C00FFF7B0FC45B104F5805401230020B340F0
:10284C00236070BD054CEFE704F50054F5E70E204E
:10285C00F7E700BF688000505E2A000864800050D3
:10286C0010B962B6BFF36F8F7047EFF3108072B67A
:10287C00704780F31188BFF36F8F7047EFF31180AF
:10288C00302383F3118870474FF4004070474FF4A6
:10289C007A70704709B100F005B822207047012109
:1028AC00FFF7B4BF70B506460D46FFF7E7FF0446C9
:1028BC001F2E58D8DFE806F01019571E2124572771
:1028CC002A572D5730335736393C573F57425754B8
:1028DC0057455748574B4E51FFF706FF00262860C7
:1028EC002046FFF7C6FF304670BD4FF4C070FEF7B0
:1028FC0049F9F3E74FF42070F9E74FF44070F6E72D
:10290C004FF46070F3E74FF40070F0E74FF4806021
:10291C00EDE74FF44060EAE74FF4C060E7E74FF4AF
:10292C00F060E4E74FF4B060E1E74FF4D060DEE72D
:10293C004FF41060DBE74FF4E060D8E74FF4A06091
:10294C00D5E74FF41860D2E74FF42860CFE74FF487
:10295C008070CCE74FF43060C9E74FF42060C6E7D5
:10296C004FF40860C3E700202126B8E70000000000
:10297C0000000000F8B500BFF8BC08BC9E467047CC
:10298C00F8B500BFF8BC08BC9E4670472F55736560
:10299C0072732F646965676F736D6163626F6F6BC0
:1029AC002F2E73696C6162732F736C742F696E7345
:1029BC0074616C6C732F636F6E616E2F702F736903
:1029CC006D706C6562353236393938663461346411
:1029DC002F702F706C6174666F726D2F656D6C69E2
:1029EC00622F7372632F656D5F636D752E63002F9D
:1029FC0055736572732F646965676F736D6163627C
:102A0C006F6F6B2F2E73696C6162732F736C742FE5
:102A1C00696E7374616C6C732F636F6E616E2F7063
:102A2C002F73696D706C656235323639393866349E
:102A3C006134642F702F706C6174666F726D2F65CA
:102A4C006D6C69622F7372632F656D5F656D752E8A
:102A5C0063002F55736572732F646965676F736DAF
:102A6C006163626F6F6B2F2E73696C6162732F736E
:102A7C006C742F696E7374616C6C732F636F6E6101
:102A8C006E2F702F73696D706C6562353236393903
:102A9C003866346134642F702F706C6174666F7299
:102AAC006D2F656D6C69622F696E632F656D5F624A
:102ABC0075732E68002F55736572732F6469656783
:102ACC006F736D6163626F6F6B2F2E73696C6162D4
:102ADC00732F736C742F696E7374616C6C732F63CA
:102AEC006F6E616E2F702F73696D706C656235320D
:102AFC003639393866346134642F702F706C6174D8
:102B0C00666F726D2F736572766963652F636C6F78
:102B1C00636B5F6D616E616765722F7372632F7388
:102B2C006C5F636C6F636B5F6D616E616765725F29
:102B3C0068616C5F73322E63002F55736572732F4F
:102B4C00646965676F736D6163626F6F6B2F2E7352
:102B5C00696C6162732F736C742F696E7374616C22
:102B6C006C732F636F6E616E2F702F73696D706C49
:102B7C00656235323639393866346134642F702FDA
:102B8C00706C6174666F726D2F73657276696365B4
:102B9C002F636C6F636B5F6D616E616765722F7312
:102BAC0072632F736C5F636C6F636B5F6D616E61CF
:102BBC006765725F696E69745F68616C5F73322EF2
:102BCC006300010310010109030000001E00000056
:102BDC00160000001A0000002F55736572732F64E5
:102BEC006965676F736D6163626F6F6B2F2E7369AD
:102BFC006C6162732F736C742F696E7374616C6C7F
:102C0C00732F636F6E616E2F702F73696D706C65AF
:102C1C006235323639393866346134642F702F702E
:102C2C006C6174666F726D2F736572766963652F54
:102C3C00696E746572727570745F6D616E616765D3
:102C4C00722F7372632F736C5F696E746572727519
:102C5C0070745F6D616E616765725F636F727465CE
:102C6C00786D2E630053574F5F53454C465F544568
:102C7C0053543A20464732385F504130335F495401
:102C8C004D5F4348302070686173653D4541524C3F
:102C9C00590053574F5F53454C465F544553543A74
:102CAC0020464732385F504130335F49544D5F43C3
:102CBC0048302070686173653D504F53545F494EE6
:102CCC0049540053574F5F53454C465F544553543A
:102CDC003A20464732385F504130335F49544D5F9C
:102CEC004348302070686173653D504F53545F49C1
:0C2CFC004E49545F5245545259000000EC
:082D080004D5FF7F010000006B
:0C2D10001C2D0008D41200201E00000042
:102D1C00C0EA2101C0EA210100800000C017530263
:102D2C00501300200000000003000000841100205C
:102D3C00F81200200000000084110020EC1100208B
:102D4C0054120020000000000000000000000000F1
:102D5C000000000000000000000000000000000067
:102D6C000000000000000000000000000000000057
:102D7C000000000000000000000000000000000047
:082D8C00E9010008C101000883
:04000005080002A548
:00000001FF
