:020000040800F2
:1000000000100020A5020008E3330008E3330008D5
:10001000E3330008E3330008E3330008E333000868
:10002000E3330008E3330008E3330008E333000858
:10003000E3330008E3330008E3330008E333000848
:10004000E3330008E3330008E3330008E333000838
:10005000E3330008E3330008E3330008E333000828
:10006000E3330008E3330008E3330008E333000818
:10007000E3330008E3330008E3330008E333000808
:10008000E3330008E3330008E3330008E3330008F8
:10009000E3330008E3330008E3330008E3330008E8
:1000A000E3330008E33300083504000815040008B2
:1000B000E3330008E3330008E3330008E3330008C8
:1000C000E3330008E3330008E3330008E3330008B8
:1000D000E3330008E3330008E3330008E3330008A8
:1000E000E3330008E3330008E3330008E333000898
:1000F000E3330008E3330008E3330008E333000888
:10010000E3330008E3330008E3330008E333000877
:10011000E3330008E3330008E3330008E333000867
:10012000E3330008E3330008E3330008E333000857
:10013000E3330008E3330008E3330008E333000847
:10014000E3330008E3330008E3330008E333000837
:10015000E3330008E3330008E3330008E333000827
:10016000E3330008E3330008E3330008E333000817
:0C017000E3330008E3330008E333000829
:10017C000348044B834202D0034B03B1184770472A
:10018C00A0130020A013002000000000064B07491C
:10019C00C91A891048BF0131491003D0044B0BB167
:1001AC0001481847704700BFA0130020A01300207F
:1001BC000000000010B5064C237843B9FFF7D8FFB8
:1001CC00044B13B10448AFF300800123237010BD1E
:1001DC00E4120020000000006C47000808B5054B35
:1001EC001BB105490548AFF30080BDE80840FFF797
:1001FC00CDBF00BF00000000001000206C470008BD
:10020C00A3F5803A704700BF174B002B08BF134B68
:10021C009D46FFF7F5FF00218B460F461348144A05
:10022C00121A03F0ADFA0E4B002B00D098470D4B71
:10023C00002B00D098470020002104000D000D4831
:10024C00002802D00C48AFF3008002F091FC200093
:10025C00290001F015FF02F0B3FB00BF00000800FD
:10026C000000000000000000001000200010002022
:10027C002813002000000000000000000348044A7E
:10028C000449121A921003F0A7B800BF7C010008B1
:10029C007C0100082813002008B5154B83F30A884D
:1002AC0000F030F8FFF7EAFF124B13498B4212D3E0
:1002BC000020124B12498B4218D3FFF7A5FF186888
:1002CC0050F82240586840F8224001329868824227
:1002DC00F5D30C33EAE70022F8E71C6844F8220057
:1002EC0001325C68A242F8D30833E4E70022F8E755
:1002FC000000002074470008804700088047000871
:10030C00804700084FF48041124B134A70B59A6035
:10031C00D3F88820114D42F47002C3F88820104A9B
:10032C0005F5005491664FF0FF3222660D4A626665
:10033C000222C3F8D020BFF34F8FBFF36F8F4FF45F
:10034C004036002001F004FC0020E66001F0CEFBFA
:10035C002E6170BD00ED00E000000008008000443C
:10036C00009000507FFF7F03014B1860704700BF67
:10037C002C1300202DE9F04104460C254FF0010808
:10038C00124E0CB314F001000BD0002024F0010429
:10039C0005FB00625768002FF3D09168C0B2B847D4
:1003AC00EFE72246013020284FEA520201D0D30752
:1003BC00F8D508FA00F20F2824EA0204E8D910381C
:1003CC0005FB0062B432E5E7BDE8F08118100020AF
:1003DC0008B50C4803F02BFD1A2001F0A1FB28B145
:1003EC001A2001F0B5FB1A2001F080FB1B2001F054
:1003FC0097FB28B11B2001F0ABFB1B2001F076FB17
:10040C00002008BD5042000808B501F065FA054B04
:10041C0000F0553020F0A040C3F82004BDE808409F
:10042C00FFF7A8BF00E0035008B501F055FA054BE3
:10043C0000F0AA3020F02040C3F82004BDE80840AA
:10044C00FFF798BF00E00350044BD3F88420D2068A
:10045C00FBD4D3F88400C0F38110704700400050E7
:10046C0038B5104B0546D3F800310C4603F00303A6
:10047C00022B0BD0032B0DD0012B0FD103F036FC2C
:10048C00032305B1286004B1236038BD03F080FC60
:10049C000923F6E703F030FC0823F2E701230020E0
:1004AC00EFE700BF0080005038B5104B0546D3F87D
:1004BC0040310C4603F00303022B0BD0032B0DD061
:1004CC00012B0FD103F0A8FC0A2305B1286004B15D
:1004DC00236038BD03F05CFC0923F6E703F09FFCB6
:1004EC000B23F2E701230020EFE700BF0080005050
:1004FC0038B5104B0546D3F860310C4603F00303B6
:10050C00022B0BD0032B0DD0012B0FD103F084FC4D
:10051C000A2305B1286004B1236038BD03F038FC10
:10052C000923F6E703F07BFC0B23F2E70123002001
:10053C00EFE700BF0080005038B5104B0546D3F8EC
:10054C0040320C4603F00303022B0BD0032B0DD0CF
:10055C00012B0FD103F060FC0A2305B1286004B114
:10056C00236038BD03F014FC0923F6E703F057FCB5
:10057C000B23F2E701230020EFE700BF00800050BF
:10058C0038B5124B0546D3F880300C4603F0030304
:10059C00022B0BD0032B0DD0012B0FD103F06CFBD6
:1005AC000D2305B1286004B1236038BD03F0A8FB0E
:1005BC000723F6E703F05AFB0623F2E7044841F25F
:1005CC00142102F0FBFE00231846EAE700800050DD
:1005DC00383F000838B51A4B0546D3F820010C46B5
:1005EC0000F00700062821D8DFE800F028040C14DE
:1005FC0010181C0003F03AFB052305B1286004B168
:10060C00236038BD03F072FB0323F6E703F078FB9D
:10061C000723F2E703F066FB0223EEE703F026FB69
:10062C000623EAE703F062FB0423E6E7054841F200
:10063C00912102F0C3FE00231846DEE70123DCE71C
:10064C0000800050383F000838B5194B0546D3F8E8
:10065C0028310C4603F00703013B052B20D8DFE8BB
:10066C0003F003131B0F0B1703F000FB052305B15D
:10067C00286004B1236038BD03F0F8FA0623F6E7CE
:10068C0003F03EFB0723F2E703F030FB0323EEE716
:10069C0003F02CFB0423EAE703F024FB0223E6E738
:1006AC00044841F2990102F089FE00231846DEE766
:1006BC0000800050383F0008002337B50193194BD8
:1006CC000546D3F820320C4603F00703042B1FD841
:1006DC00DFE803F025030F141900002101A8FFF730
:1006EC00B3FF11230DB1019A2A6004B1236003B04A
:1006FC0030BD03F005FB07230190F3E703F08CFBFF
:10070C000A230190EEE703F043FB09230190E9E78C
:10071C0041F25601044802F051FE0023E2E70123A6
:10072C00E0E700BF00800050383F0008F7B5002715
:10073C00144B0197D3F88041064604F00304022CB5
:10074C000D4614D0032C0DD0012C14D1394601A820
:10075C00FFF740FF0F240EB1019B336005B12C60F5
:10076C0003B0F0BD03F0CCFA07240190F3E703F0DB
:10077C00B9FA0190EFE741F2E631034802F01EFEB0
:10078C003C46E8E700800050383F000838B5164B6F
:10079C000546D3F800020C4600F00700042819D8CF
:1007AC00DFE800F020030B0F130003F035FB0A23E6
:1007BC0005B1286004B1236038BD03F0E9FA0923C0
:1007CC00F6E703F02CFB0B23F2E703F075FA0E238C
:1007DC00800AEDE7054841F2A44102F0EFFD002349
:1007EC001846E5E70123E3E700800050383F000896
:1007FC0038B5164B0546D3F808020C4600F0070036
:10080C00042819D8DFE800F020030B0F130003F0C5
:10081C0003FB0A2305B1286004B1236038BD03F043
:10082C00B7FA0923F6E703F0FAFA0B23F2E703F021
:10083C0043FA0E23800AEDE7054841F2DC4102F051
:10084C00BDFD00231846E5E70123E3E700800050D7
:10085C00383F000838B5124B0546D3F850320C46D9
:10086C0003F00303022B0FD0032B05D0012B0FD168
:10087C0003F0D2FA0A2302E003F0D1FA0B2305B1FC
:10088C00286004B1236038BD03F082FA0923F6E72F
:10089C00044841F2C90102F091FD00231846EEE72D
:1008AC0000800050383F0008002337B50193184BE7
:1008BC000546D3F860320C4603F00703013B032BCB
:1008CC001FD8DFE803F0020E1914002101A8FFF76E
:1008DC0081FE0F230DB1019A2A6004B1236003B08D
:1008EC0030BD002101A8FFF7DFFD1023F2E703F074
:1008FC0007FA07230190EDE703F0F4F902230190C6
:10090C00E8E741F2FD01034802F058FD0023E1E75E
:10091C0000800050383F000873B500240F4B019441
:10092C00D3F87032064603F00303012B0D4607D0B3
:10093C00022B11D041F25B11094802F03FFD04E09B
:10094C00214601A8FFF7B0FD10240EB1019B3360C6
:10095C0005B12C6002B070BD1424F6E70080005085
:10096C00383F000838B50F4B0546D3F890320C468B
:10097C0003F00303012B09D0022B0BD103F0C0F9B8
:10098C00072305B1286004B1236038BD03F0AAF930
:10099C000223F6E7044841F2851102F00FFD002313
:1009AC001846EEE700800050383F000808B5334B7E
:1009BC0098424FD027D8324B984245D017D8314B5C
:1009CC0098423ED00AD838B12F4B984239D041F2D8
:1009DC00BB312E4802F0F2FC002034E02C4B984244
:1009EC002FD02C4B9842F2D12B4B586E2BE02B4B2B
:1009FC0098422CD003F5371303F5D8639842E6D10F
:100A0C00254B986F1FE0264B98422FD00CD8254BC6
:100A1C00984223D0244B984224D0244B9842D6D1D0
:100A2C001D4BD3F884000EE0214B984222D003F5E5
:100A3C00740303F510539842C9D1174BD3F898009F
:100A4C0001E0154B986D08BD134B186FFBE7124B6B
:100A5C00586FF8E7104BD3F88000F4E70E4BD3F83F
:100A6C008800F0E70C4BD3F88C00ECE70A4BD3F87A
:100A7C009000E8E7084BD3F89400E4E780BA8C01C7
:100A8C00405DC60080841E0040420F00383F0008C5
:100A9C0000093D00C0CF6A000080E00F0024F40084
:100AAC00007E560380D54302006CDC020048E8014E
:100ABC000090D003B0F5207F10B52ED009D8B0F53A
:100ACC00007F24D003D868B1B0F5C07F0AD00024D1
:100ADC001BE0B0F5607FFAD1124BD3F88040C4F321
:100AEC00011412E00F4B1C6F230B13F00E0FC4F309
:100AFC0003340AD0072C08D00F2C06D0032C04D0BA
:100B0C004FF42271084802F059FC601C10BD054BD3
:100B1C00D3F89040C4F30464F7E7024B1C6FC4F3A2
:100B2C008024F2E700800050383F00084FF48032F8
:100B3C0038B5104B04469A6600200D46FFF7BAFFF5
:100B4C0041F671320C4B6043DC69DA635A6804F489
:100B5C00803422F440125DB90849884294BF0020C9
:100B6C000120000502435A600CB10022DA6338BD43
:100B7C000349F2E70090005000000350005A620253
:100B8C00002D310138B5430904460D460ED140F213
:100B9C0035310D4802F012FC002304F01F0485B11E
:100BAC0003F580530122A2401A6038BD012B04D0FA
:100BBC00022B04D040F24331EBE7044BEDE7044B3E
:100BCC00EBE703F50053EDE7383F00086480005075
:100BDC0068800050002130B5B0F5807F85B00446A8
:100BEC00CDE9001100F007816BD8002800F0DC8003
:100BFC00A0F12004602C75D8602C73D8DFE814F0B9
:100C0C00D400E100D400E100F100F100F100F100AA
:100C1C00F100E100F6007E00A1000C017E00E10075
:100C2C00E100E1007200720072007200720072004A
:100C3C007200A100E100E100E10029011601E100D0
:100C4C007200720072007200720072007200720008
:100C5C0072007200720072001B01F100D400D4000B
:100C6C00D40011017E007E002001BE009300C9005B
:100C7C00C900720072007200720072007200720081
:100C8C0072007200720072007200720072007200C8
:100C9C0072007200720072007200720072007200B8
:100CAC0072007200720072007200720072007200A8
:100CBC007200720072007200720072007200720098
:100CCC00CE00B0F5F06F00F0C4803FD8B0F5607F77
:100CDC0000F082801DD8B0F5007F68D008D8B0F540
:100CEC00C07F61D040F2A4415C4802F067FB58E041
:100CFC00B0F5207F65D0B0F5407FF3D102F0DCFF7A
:100D0C0004464FF42070FFF7D5FEB4FBF0F46408F2
:100D1C0060E0B0F5B06F69D00AD8B0F5806F60D0E4
:100D2C00B0F5A06FDED100216846FFF7C5FC38E0B6
:100D3C00B0F5D06F70D0B0F5E06F77D0B0F5C06F74
:100D4C00D0D100216846FFF7AFFB2AE0B0F5206F49
:100D5C0076D00CD8B0F5106F63D0B0F5186F6AD0A0
:100D6C00B0F5086FBED16846FFF77AFB19E0B0F515
:100D7C00306F6AD007D8B0F5286FB3D10021684620
:100D8C00FFF7CAFD0DE0B0F5386FDAD0B0F5406F63
:100D9C00A8D100216846FFF757FC02E002F06CFF77
:100DAC000090009805B030BD02F086FFF8E702F025
:100DBC0063FF05462046FFF77DFEB5FBF0F5009579
:100DCC00EFE702F079FF04464FF42070FFF772FE54
:100DDC00B4FBF0F40094E4E701A8FFF7D1FB019D0C
:100DEC00E8E700216846FFF7F5FBDAE700216846E3
:100DFC00FFF79CFCD5E74FF0E02302911B695B07E2
:100E0C0005D502F059FF0290029B0093C9E703A994
:100E1C0002A8FFF749FBF7E700216846FFF7B6FC8D
:100E2C00BFE700216846FFF7E3FCBAE700216846FC
:100E3C00FFF782FBB5E700216846FFF70BFDB0E733
:100E4C0000216846FFF730FDABE76846FFF78AFDE7
:100E5C00A7E700216846FFF74BFBA2E7383F0008E5
:100E6C0008B58020FFF7B6FE034B98429EBF4FF4A7
:100E7C008032024B1A6708BD005A620200A0005073
:100E8C001FB503460020B3F5607F019000F0FC8095
:100E9C007BD8582B68D8382B05D8243B092B49D93B
:100EAC0040F28951D1E0393B1F2BF9D801A252F8FD
:100EBC0023F000BF79100008AD0E0008AD0E00083D
:100ECC00AD0E000883100008A7100008AD0E000836
:100EDC00AD0E0008AD0E0008AD0E0008AD0E0008FA
:100EEC00AD0E0008AD0E0008AD0E0008AD0E0008EA
:100EFC00AD0E0008AD0E0008AD0E0008AD0E0008DA
:100F0C00B1100008BB0F0008AD0E0008AD0E0008B4
:100F1C00AD0E0008FF0F0008AD0E0008AD0E000866
:100F2C00BB100008C51000089D1000082110000817
:100F3C0021100008092BB3D801A252F823F000BFEE
:100F4C00BB0F0008BB0F0008BB0F0008BB0F00084D
:100F5C00BB0F0008AD0E00085F100008AD0E0008B6
:100F6C0079100008D90F0008802B58D0B3F5807F7A
:100F7C0096D14FF0E02302901B695B0771D502F00C
:100F8C009BFE0C230393039B55E0B3F5086F77D0BE
:100F9C0021D8B3F5C06F69D00ED8B3F5A06F77D058
:100FAC00B3F5B06F55D0B3F5806F7FF479AF0020F7
:100FBC0001A9FFF70FFB50E0B3F5E06F6DD0B3F56F
:100FCC00F06F58D0B3F5D06F7FF46AAF002001A951
:100FDC00FFF7DCFB41E0B3F5286F6DD00ED8B3F50D
:100FEC00186F5FD0B3F5206F61D0B3F5106F7FF43D
:100FFC0057AF002001A9FFF7FBFB2EE0B3F5306FD4
:10100C005FD0FFF44DAFB3F5386F2FD0B3F5406F11
:10101C007FF446AF002001A9FFF716FB1DE02B4B18
:10102C001B6F03F00703013B032B0CD8DFE803F025
:10103C0009020507052301930FE00323FBE70823AF
:10104C00F9E70223F7E740F2D641214802F0B6F95E
:10105C0003E0002001A9FFF769FB019805B05DF8DA
:10106C0004FB03A902A8FFF71FFA8CE7002001A9D3
:10107C00FFF71AFAF1E7002001A9FFF739FAECE7BC
:10108C0001A9FFF7EDF9E8E701A9FFF779FAE4E721
:10109C00002001A9FFF710FBDFE7002001A9FFF7F3
:1010AC004BFADAE7002001A9FFF7D4FBD5E70020C3
:1010BC0001A9FFF7F9FBD0E7002001A9FFF72CFCF1
:1010CC00CBE701A9FFF74EFCC7E700BF008000503B
:1010DC00383F00084FF48032074B0849586E03F52F
:1010EC0080535A664B6A23F001034B62C3035CBF07
:1010FC00034B5A66704700BF0080005000C0075079
:10110C0000A00050B0F5207F38B577D00ED8B0F5E0
:10111C00007F61D003D890B3B0F5C07F2FD04FF4CF
:10112C004671BDE838403D4802F048B9B0F5607FE3
:10113C00F5D13B4A4C1ED2F8FC5015F080751EBF01
:10114C00D2F8FC3023F08073C2F8FC30032C04D9A5
:10115C0040F2F721314802F031F9324AD2F88030AE
:10116C0023F0300343EA0413C2F8803035B12C4A23
:10117C00D2F8FC3043F08073C2F8FC3038BD4C1E02
:10118C00012C0AD9102903D8274BCB40DB0704D4F8
:10119C0040F2CB21214802F011F902F02AF902F0B9
:1011AC0036F94FF48031214B1E4A1967136F23F423
:1011BC00704343EA0433136702F07EFD0446FFF7E5
:1011CC0043F9C0F10201204602F01BF900F048F887
:1011DC00BDE83840FFF744BE4C1E1F2C04D94FF419
:1011EC0043710E4802F0EAF80E4AD2F8903023F020
:1011FC00F85343EA0463C2F89030BFE74C1E012C4D
:10120C0004D940F21231054802F0D8F8054A136FA0
:10121C0023F4806343EA84231367AFE7383F000865
:10122C0000ED00E000800050100101000090005023
:10123C0008B50121022000F099F94FF42070FFF756
:10124C0039FC054B187002F0D4F802F0E0F84FF4BA
:10125C008032024B1A6708BDE51200200090005046
:10126C0008B54FF4C070FFF7B5FCBDE80840044961
:10127C00884294BF012102214FF42070FFF742BF36
:10128C0080F0FA0238B5044602F016FD0546FFF769
:10129C00DBF8C0F10201284602F0B3F8012100206E
:1012AC0000F0B8F92CB1FFF7DBFFBDE83840FFF7D1
:1012BC00D7BD034B4FF420701978FFF723FFF4E7E9
:1012CC00E51200202DE9F0410546FFF76FFB431EA8
:1012DC000333044604D940F6E2113B4802F06EF8A1
:1012EC004FF4C022394B5A6603F598335A68012AD9
:1012FC0004D137494A605A689207FCD48020FFF722
:10130C00BFFD052807D102F074F802F080F84FF405
:10131C0080322E4B1A672F4B24F040749D4239D0EB
:10132C002D4B9D4239D002F0A1FC8542064603D9D3
:10133C000121284600F06EF9284FFB6813F0060FC8
:10134C00FBD1D7F80880BC60BB68634013F4F81F6E
:10135C0026D12846FFF708F88020FFF791FD0528D5
:10136C0014D102F0A9FCA842044604D940F63B2152
:10137C00154802F023F8FFF767F8C0F10201204688
:10138C0002F03FF8FFF76CFFFFF76AFDAE4213D295
:10139C00BDE8F08144F00074C5E744F08074C2E706
:1013AC0040F62A21084802F009F88020C7F8088086
:1013BC00FFF766FD052805D0BDE8F04101210020AE
:1013CC0000F028B93546CCE7383F000800900050B3
:1013DC0000E0015040420F0080841E0000000150CC
:1013EC004E4B70B59842054673D041D8A3F5B70360
:1013FC00A3F55863984265D033D8494B494E98426F
:10140C0051D017D8002877D041F2DE11464801F0B0
:10141C00D5FF40F68671444801F0D0FF4FF400220E
:10142C00404B5A663E4B9D4276D000243F4A954233
:10143C0036D05DE03D4B984227D03D4B9842E3D1EE
:10144C003C4BD3F8A040621E033224F040744CD9BC
:10145C0040F68671344801F0B1FF4FF400237366F7
:10146C00E4E7354B9842CFD1324BD3F8BC402CE05B
:10147C00324B984231D0324B984232D0314B984259
:10148C00C2D12C4BD3F8C8401FE02A4BD3F8A04054
:10149C00621E033224F04074DAD84FF400237366D2
:1014AC0044F0807424E0234BD3F8A040621E033236
:1014BC0024F040742AD84FF400237366234643F07B
:1014CC00007415E01B4BD3F8B840621E154E033266
:1014DC00BBE7184BD3F8C040F7E7164BD3F8CC401A
:1014EC00F3E7144BD3F8D040EFE74FF400237366C7
:1014FC004FF0B442946070BD40F686710A4801F01A
:10150C005DFF4FF400232C467366F1E740F68671BD
:10151C00054801F053FFCEE70023D0E7C0EA2101D4
:10152C0040420F0000900050383F000880841E009D
:10153C0000093D000080E00F0024F4000048E801A1
:10154C00005A620280BA8C01024A536B0342FCD1EE
:10155C00704700BF00400950034A0179D36E23F055
:10156C0030030B43D366704700400050F8B5044677
:10157C00244BD3F88420D006FBD4D3F88430C3F3A7
:10158C0081139C423CD002F077FB012C05460BD119
:10159C001D4B984204D940F29B711C4801F00EFF80
:1015AC000121284601F02DFF02F027FC4FF00072BC
:1015BC00174B07465A66204601F02EFF4FF4806306
:1015CC00104E621E93403367736E9A0103D4D6F8A3
:1015DC0084309B060AD5384602F00AFC022C0FD147
:1015EC002846BDE8F840002101F00BBFD6F8843046
:1015FC009906E9D540F2B371044801F0DFFEE3E748
:10160C00F8BD00BF00400050005A62029B3F00082A
:10161C000060005010B50C4608B902F02DFB074BCA
:10162C0021461B783BB1064B984204D80120BDE8FB
:10163C001040FFF79BBF0220F9E700BFE612002025
:10164C00005A62024FF0004238B5244B244C5A66C3
:10165C004AF6CD33656C014605F00105236428BBC1
:10166C000120FFF771FF6368DB0715D51D4B586030
:10167C0008461D4B226BD2070CD4984208D1072484
:10168C0015B1174B194A1A6401F0C7FE204638BD34
:10169C000130EFE79842F2D00024F1E70132236BDE
:1016AC0013F0080305D08A42F8D1E8E700220E496E
:1016BC00F5E78A42E3D020210A4A91620121A2F582
:1016CC00805251600649084A886A800603D49342C6
:1016DC00D5D00133F8E79342DDE700BF009000500E
:1016EC00004009500060095040420F003254FFFF87
:1016FC004FF0004238B5164B01465A664AF6CD33C8
:10170C00144C154A656C236443780B205B0043F042
:10171C000103D363FFF718FF63688A7823F4F87327
:10172C0043EA02136360CA784B7943EA0223A3604D
:10173C000A798B7943EA022323610878FFF782FF49
:10174C00EB0744BF054B236401F067FE012038BD55
:10175C000090005000400950004000503254FFFFF0
:10176C000F2870B5044605D940F67461124801F093
:10177C0025FE0F244FF00042104B11495D6E03F50E
:10178C0080535A664AF6CD334E6C80200B64FFF7BB
:10179C00DBFE0B6A23F00F0323430B62F30744BFFA
:1017AC00084B0B64002DA2BF4FF00042064B5A664B
:1017BC0001F033FE70BD00BF9B3F0008008000505D
:1017CC00004009503254FFFF00A00050032838B5E8
:1017DC0004460D4605D8094B33F81030CB40DB07D7
:1017EC0004D440F28541064801F0E8FD3023012283
:1017FC005C43044BAA401A5138BD00BFC6400008D8
:10180C00FE3F000840D00350032838B504460D466F
:10181C0005D8094B33F81030CB40DB0704D440F229
:10182C005641064801F0CAFD302301225C43044BAB
:10183C00AA401A5138BD00BFC6400008FE3F000840
:10184C0040E0035003282DE9F04104460D461746AD
:10185C00984605D81D4B33F81030CB40DB0704D429
:10186C004FF4B0711A4801F0A9FD37B12946204652
:10187C00B8F1000F20D0FFF7A9FF0F21072D04EBC3
:10188C00440688BFA5F108034FEA0616114895BF18
:10189C00AB009B0004360C3607FA03F29940304437
:1018AC0001F0BCFD7FB929462046B8F1000F06D0E7
:1018BC00BDE8F041FFF78ABFFFF7A6FFDDE7BDE803
:1018CC00F041FFF7A1BFBDE8F08100BFC6400008A2
:1018DC006240000830C00350034BD3F82424D3F8E3
:1018EC0020041040704700BF00C0035010B563487F
:1018FC0002F09DFA20B14FF44E71614801F05EFD8B
:10190C006048FFF7DFFC6048FFF76AFD5F4802F0B4
:10191C008EFA20B140F2CB11594801F04FFD5C4CCE
:10192C00FFF786FC236F002023F0070343F002032C
:10193C002367FFF7A7FC236F564923F4744343F442
:10194C0080632367544BD3F8FC2012F080727CD157
:10195C00D4F8803023F0030343F00103C4F8803043
:10196C00C1F880204A4CD4F8203123F0070343F00F
:10197C000103C4F82031D4F8283123F0070343F0D5
:10198C000103C4F82831D4F8803123F0030343F069
:10199C000103C4F88031D4F8903223F0030343F0F0
:1019AC000103C4F89032D4F8403123F0030343F020
:1019BC000103C4F84031D4F8603123F0030343F041
:1019CC000103C4F86031D4F8403223F0030343F030
:1019DC000103C4F84032D4F8003223F0070343F07B
:1019EC000103C4F80032D4F8083223F0070343F0A3
:1019FC000103C4F80832D4F8503223F0030343F047
:101A0C000103C4F85032D4F8703223F0030343F0CE
:101A1C000103C4F87032D4F8203223F0070343F0EA
:101A2C000103C4F82032FFF755FB4FF0E022136995
:101A3C00002043F004031361D4F8603223F0070351
:101A4C0043F00103C4F8603210BDD3F8FC2022F03F
:101A5C008072C3F8FC20D4F8802022F0030242F0FC
:101A6C000102C4F880200022C1F88020D3F8FC20A9
:101A7C0042F08072C3F8FC2074E700BF48420008B3
:101A8C00B541000800B4C404C0EA21014C4200086E
:101A9C00008000500090005000ED00E007B5094BAD
:101AAC0018689A889B7900906846ADF804208DF8E8
:101ABC000630FFF71DFE0920FFF752FE002003B091
:101ACC005DF804FB3E42000813B50024064A684644
:101ADC00536F43F00103536700948DF80440FFF7F4
:101AEC003BFD204602B010BD004000504F2810B501
:101AFC00044608D801236109074A04F01F04A340D7
:101B0C0042F8213010BD4FF49971044801F056FC95
:101B1C00002CF7DBEEE700BF00E100E054420008C8
:101B2C004E2810B5044604D940F23D11064801F088
:101B3C0045FC064B621153F8220004F01F04E040F0
:101B4C00C04300F0010010BD5442000800E100E069
:101B5C00002808DB01224309034900F01F008240E2
:101B6C00603341F82320704700E100E038B500F104
:101B7C0010035F2B04460D4604D94FF4F0710E4848
:101B8C0001F01CFC0F2D04D940F2E1110A4801F0C0
:101B9C0015FC60B20028ACBF00F16040074B4FEA67
:101BAC000515EDB2ABBF00F5614000F00F0080F8F9
:101BBC0000531D5438BD00BF5442000814ED00E022
:101BCC0010B502F023F90A4B1A786AB901226FF0AA
:101BDC0004041A7002F015F9204605210134FFF7B0
:101BEC00C5FF4F2CF8D110BDBDE8104002F009B96B
:101BFC00E71200200346054A0549106803448B424E
:101C0C008CBF4FF0FF301360704700BF38130020BB
:101C1C0000000420064AD2F8FC3043F08073C2F86E
:101C2C00FC30A2F55D42136843F00103136070476A
:101C3C0000ED00E008B580B1FFF7ECFF074B084A58
:101C4C001B68B3FBF2F35843012838BF0120054A47
:101C5C00516853685B1A8342FBD308BD28130020DC
:101C6C0040420F00001000E030B585B06C46174BB9
:101C7C00174D0FCB84E80F0001213A20FEF782FFAD
:101C8C0001212F20FEF77EFF01230A2202210320CF
:101C9C00FFF7D8FD0321012308460A22FFF7D2FDE6
:101CAC000C4B0D4A2846C3F84C254FF00312C3F8D1
:101CBC0050250322C3F8482500F0F8FC074B2146B9
:101CCC002846029300F0C0FC05B030BD5446000815
:101CDC000080065000C0035003000200A0860100E3
:101CEC000A460146014800F021BF00BFE14200084E
:101CFC0038B501460A4800F003FE47F23054084D4F
:101D0C00012807D13CB9064800F0D0FCFFF7ACFF26
:101D1C006FF0040038BD284600F0E0FC013CEFE712
:101D2C0000800650DFED0D7A20EE270AB5EEC00AD2
:101D3C00F1EE10FA83BFF6EE007A30EE270AFCEED5
:101D4C00C07A002388BF17EE903A01466420B3FB9B
:101D5C00F0F200FB1233024800F0E8BE0000C8426B
:101D6C000043000808B500F0CFF9BDE80840014871
:101D7C0000F0F6BE0D43000870B50024A4B0282274
:101D8C0000211AA801F0FCFC1D22214612A8CDE965
:101D9C0009448DF82C40119401F0F2FC96488DF812
:101DAC001C408DF81D400894ADF81E4000F0D8FE84
:101DBC0000F02AFA054600F02BFA294602468F4815
:101DCC0000F0B4FE01F07AFB8D498E4800F0AEFEB7
:101DDC00D223ADF8303001230CA8CDF83A40CDF821
:101DEC003E40ADF84240ADF832300D94ADF838407D
:101DFC00FFF77EFF6921024690B9834800F096FEFA
:101E0C00824800F0ADFE692000F008FA082109A80C
:101E1C0000F0D6FA014678B17D48FFF761FF06E085
:101E2C007C4800F083FE69217B4800F07FFE7B48F4
:101E3C0000F096FE24B070BD202111A800F0E4FA49
:101E4C00014608B17648E8E70DF11D0107A800F03E
:101E5C00FFFA014608B17348DFE708A800F018FB49
:101E6C00014608B17048D8E7089B704801939DF86B
:101E7C001D3011AA009309A99DF81C3000F056FEE4
:101E8C00089B83B100F026FB014608B16848C4E703
:101E9C0008A800F0FDFA014608B16648BDE70899AC
:101EAC00654800F043FE4FF4407000F0BDF9014668
:101EBC0008B16248B1E75248FFF7BCFE0124604DFF
:101ECC00604E2846FFF7B6FE0DF11E0000F0E4F957
:101EDC00014618B15C48FFF703FF0BE02146304682
:101EEC00BDF81E2000F022FEBDF81E306BB9013487
:101EFC000B2CE6D100F0B6F9014610B15348FFF7B0
:101F0C00EFFE534800F02CFE91E723AB059322AB78
:101F1C00049321AB039320AB02931FAB01931EAB35
:101F2C0000931BA91DAB1CAA1AA800F0D7F90146F7
:101F3C0008B14848CFE7484800F0F8FD9DED1A0A73
:101F4C004648FFF7EFFE202000F002FE9DED1B0A35
:101F5C004348FFF7E7FE202000F0FAFD9DED1C0A38
:101F6C004048FFF7DFFE202000F0F2FD9DED1D0A3A
:101F7C003D48FFF7D7FE3D4800F0F2FD3C4800F02D
:101F8C00D5FD9DED1E0A3B48FFF7CCFE202000F04E
:101F9C00DFFD9DED1F0A3148FFF7C4FE202000F045
:101FAC00D7FD9DED200A2E48FFF7BCFE202000F047
:101FBC00CFFD9DED210A2B48FFF7B4FE202000F049
:101FCC00C7FD9DED220A2848FFF7ACFE274800F01C
:101FDC00C7FD294800F0AAFD9DED230A2748FFF70D
:101FEC00A1FE224800F0BCFD00F03CF9014600289F
:101FFC003FF41DAF154810E73A4300084C43000866
:10200C00A086010070430008A5430008C3430008E4
:10201C0038440008D2430008F9430008274400085C
:10202C004A4400085D440008734400088F440008CB
:10203C00CA440008E74400080F450008384500086A
:10204C0040420F00704500084A4500085F450008F3
:10205C003046000898450008B6450008CE450008F3
:10206C00D4450008DA450008E0450008E7450008BB
:10207C00E9450008044600080A46000828460008FE
:10208C0007B501F0EEF90B4800F06AFD00230A4A8F
:10209C000193019B934209D9084800F061FDFFF7B9
:1020AC006BFE01F000FA01F04AFAFAE7019B0133EA
:1020BC000193EEE7644600083F0D030095460008C7
:1020CC000F4910B5D1F8FC30DC0116D54FF0604348
:1020DC00D3F8802ED20710D50A4AD1F8FC4044F030
:1020EC008074C1F8FC40D3F8004E44F00104C3F8EE
:1020FC00004E1C6814B9013AEFD110BD1870FCE702
:10210C0000ED00E0FFFF0F0007B54FF08061334B8F
:10211C00334A5966334905204B6B23F4704343F41F
:10212C0080434B633E21304BC3F844140121A3F58B
:10213C008053C3F84414D2F8803023F033030B439C
:10214C00C2F88030002301A9019301F06BFE002836
:10215C0041D10198254A00F5D52303F2FC43934263
:10216C0086BF0132B3FBF2F30123B0FBF3F0204A3C
:10217C0020491060D1F8FC20013B42F08072C1F87C
:10218C00FC201D4A1D49116002F57C3213610223AB
:10219C00C2F8F0304FF48073C2F804334FF0604350
:1021AC00174AC3F8B02F174AC3F8802E0122C3F880
:1021BC00002ED3F8002E42F48072C3F8002EFF22BA
:1021CC0083F82020D3F8002E22F48072C3F8002E5E
:1021DC0003B05DF804FB01F04FFDBBE7009000502D
:1021EC000080005000C0035000E00350F7590D0070
:1021FC008011002000ED00E0001000E0FF03004023
:10220C0055CEACC50900010000487047CC4600080B
:10221C00014B1868704700BF80110020014B1870EB
:10222C00704700BFE812002010B5102204460021B0
:10223C000A4801F0E9F922460146084801F0E6F99E
:10224C00074B02460549187801F0F3F9044618B912
:10225C0044F6206001F071F9204610BDE91200200F
:10226C00E812002010B54FF482720021084801F0EA
:10227C00CBF9084B02460649187801F0DAF9044606
:10228C0018B944F6206001F058F9204610BD00BF83
:10229C00E9120020E812002070B540F20222002161
:1022AC0005460C4801F0B0F90B4E0246094930784E
:1022BC0001F0BFF9044650B902220649307801F00A
:1022CC00BDF9044618B9034801F05FF9288020468F
:1022DC0070BD00BFE9120020E81200202DE9F84380
:1022EC0080460F46164600214FF4407229481D4681
:1022FC0001F08AF9DFF8C4900246264999F80000EB
:10230C0001F097F90446002840D12822214999F878
:10231C00000001F093F90446002837D11D4801F064
:10232C003BF91D4888ED000A01F036F91B4887ED92
:10233C00000A01F031F91A4886ED000A01F02CF977
:10234C00184885ED000A01F027F9089B164883ED23
:10235C00000A01F021F9099B144883ED000A01F0F1
:10236C001BF90A9B124883ED000A01F015F90B9B2F
:10237C00104883ED000A01F00FF90C9B0E4883ED19
:10238C00000A01F009F90D9B83ED000A2046BDE817
:10239C00F88300BFE9120020ED120020F11200209A
:1023AC00F5120020F9120020FD120020011300206C
:1023BC0005130020091300200D130020E812002043
:1023CC00F8B54DF2020205460E460D48002101F00B
:1023DC001BF90C4F02460A49387801F02AF90446D9
:1023EC0058B908220649387801F028F9044620B972
:1023FC0032462946024801F0D5F82046F8BD00BF08
:10240C00E9120020E8120020F8B54DF2330205461F
:10241C000E460D48002101F0F7F80C4F02460A4910
:10242C00387801F006F9044658B920220649387864
:10243C0001F004F9044620B932462946024801F05D
:10244C00B1F82046F8BD00BFE9120020E8120020C8
:10245C00F8B50D4C4FF4514206460D46204600216E
:10246C0001F0D2F8094F02462146387801F0E1F824
:10247C0048B902222146387801F0E0F818B92378DF
:10248C00337063782B70F8BDE9120020E81200203D
:10249C0070B54DF20622002105460C4801F0B4F847
:1024AC000B4E02460949307801F0C3F8044650B986
:1024BC0004220649307801F0C1F8044618B90348E3
:1024CC0001F067F82860204670BD00BFE9120020BB
:1024DC00E812002010B54DF210220021084801F03E
:1024EC0093F8084B02460649187801F0A2F8044606
:1024FC0018B941F2883001F020F8204610BD00BF19
:10250C00E9120020E8120020F8B506460F461546E1
:10251C00002A6AD003F00304836823F440738360B9
:10252C0001F06BFCB26882EA042303F4407353405D
:10253C00B36001F05DFC37B9B6F1B64F0DD12E206A
:10254C00FEF748FB0746B3689A0717D5012C1BD03A
:10255C00022C27D064B9264B17E0264B9E4201D1A2
:10256C002F20EDE740F22F11234800F027FFB3682E
:10257C004FF4B271204800F021FF08E0012C13D079
:10258C00022CE7D11D4B00E01D4B9F42F0D91D4B97
:10259C001B5D6B430AD140F27511BDE8F84016483B
:1025AC0000F00CBF184BF0E7184BEEE7A3EBC5049B
:1025BC00013C3C44B4FBF3F4013C0CD540F27B11E0
:1025CC000D4800F0FBFE4FF4BE710B4800F0F6FE18
:1025DC00B368B461F8BDB4F5007FF4D2B3689B075F
:1025EC00F7D5002C08BF0124F3E740F21511D4E70E
:1025FC0080841E0000800650D0460008002D31015A
:10260C00404B4C0033470008809FD5004054890054
:10261C00B0F1B64F38B504460D4607D0084B98427A
:10262C0004D040F29511074800F0C8FE043425B1DF
:10263C0004F580540123236038BD04F50054F9E7F8
:10264C0000800650D0460008B0F1B64F38B50446AD
:10265C000D4607D0124B984204D04FF4D571114857
:10266C0000F0ACFE0023104A236404F50053DA6337
:10267C006A7804F108037AB903F5805302221A60D0
:10268C002046D5E901122B7BFFF73EFF2046297827
:10269C00BDE83840FFF7BCBF03F50053EEE700BFC1
:1026AC0000800650D0460008FFFF1F00E023C360E7
:1026BC00002383608361C3610362036443604369E5
:1026CC00DB0506D4202300F50050C363024BC36323
:1026DC007047436AF3E700BFFFFF1F00B0F1B64F2E
:1026EC0070B50AD0824B98421DD0824840F201212D
:1026FC0000F064FE6FF0030070BD7F4B9968C26BF5
:10270C0012F4C06F15D091050FD5FD225A70092215
:10271C001A700022026493F90110012900D15A7039
:10272C0093F90100E8E7754BE8E75605EFD5FE2273
:10273C00ECE71C78082C00F2D680DFE814F00900D6
:10274C001F004500530070007E009C00A700CB00CA
:10275C004C880A88E5060AD5120A02F0060242F0F5
:10276C00F002012119704263C1600120C4E702F03C
:10277C00FE02A10748BF42F00102F2E7160608D597
:10278C00802100F50052D1634FF608721A800223A3
:10279C0018E05506E9D5402400F50052D4634A8868
:1027AC00D40604D502221A700B784363DDE7960732
:1027BC006AD507221A701B7901EBC3031B89012B05
:1027CC00D3D10823C360D0E71506D9D45406CCD591
:1027DC00402400F50052D4634A88920754D5032252
:1027EC001A708CE74C880A88E60643BF120A02F07E
:1027FC00060242F0F00202F0FE02650709D51C79D0
:10280C0042F0010201EBC4010989012904BF08212E
:10281C00C160042119700123C3604263A5E714064B
:10282C00AED45206A1D5402400F50052D4634A8898
:10283C00560729D507221A7097E71A795D8801EB9C
:10284C00C2042689AE420FD800240132D2B21A71CA
:10285C005C804C886507C2D4E40702D4012A7FF659
:10286C004EAF08221A7092E76268691C5980525D5B
:10287C0042630622DFE7160682D455067FF575AF54
:10288C00402400F50052D4630522A9E794067FF595
:10289C006CAF20261A7900F5005401EBC2010A89AD
:1028AC00456AE6635C88A24281BF4968661C5E800B
:1028BC000D5559888A42D4D90424012AC46004D005
:1028CC00013A914201D10822C2601A78092A3FF4D8
:1028DC0020AF4AE7D2057FF548AF4FF4807100F581
:1028EC000052D16313E74FF609321A8011E700BF8B
:1028FC0000800650D0460008841100209011002062
:10290C00B0F1B64F38B504460D4607D121B940F2A7
:10291C006A31264800F052FD254B13E0254B9842B6
:10292C000DD040F26931214800F048FD25B940F244
:10293C006A311E4800F042FD6FF0030038BD0029DB
:10294C002BD01D4B2269D00744BF2022E2606A883D
:10295C00910702D529890029EED0520702D52A8A7F
:10296C00002AE9D04FF480721A6000229D601A711F
:10297C00C023E3606369DB0515D4202204F5005302
:10298C00DA630E4A2046DA634FF4FC6204F5805396
:10299C001A64BDE83840FFF7A1BE40F26A31034823
:1029AC0000F00CFDCDE7636AE4E700BFD0460008F9
:1029BC00841100200080065090110020FFFF1F00A2
:1029CC0008B5064B044613B10021AFF30080044B4D
:1029DC001B6803B19847204600F0F4FC000000008F
:1029EC00D4120020002310B504468360818119465F
:1029FC004366C28108228361C0E90033C0E9043315
:102A0C005C3000F0BDFE0D4B246263620C4BA36284
:102A1C000C4BE3620C4B23630C4B9C4206D003F132
:102A2C006802944202D0D0339C4205D104F1580084
:102A3C00BDE8104000F0ACBE10BD00BF2F3A00083E
:102A4C00513A0008893A0008AD3A00089C11002060
:102A5C00024A0349034800F020BE00BF3C1300208B
:102A6C00DF3900084C13002041680C4B994210B51B
:102A7C00044601D000F0ADFFA168094B994202D089
:102A8C00204600F0A6FFE168064B994204D0204690
:102A9C00BDE8104000F09DBF10BD00BF9C11002090
:102AAC00041200206C12002010B50B4B04210B4CAF
:102ABC000B4A20461A600022FFF794FF04F16800CD
:102ACC0001220921FFF78EFF04F1D000022212210E
:102ADC00BDE81040FFF786BFD41200209C110020E7
:102AEC005D2A0008014800F054BE00BF26130020E8
:102AFC00014800F04FBE00BF2613002010B504465D
:102B0C00FFF7F0FF236A1BB1BDE81040FFF7F0BFE1
:102B1C00044B2362044B1B68002BF5D1FFF7C4FF59
:102B2C00F2E700BF752A0008D41200200FB407B5D5
:102B3C00064904AB086853F8042B8168019300F034
:102B4C003BF803B05DF804EB04B070474813002069
:102B5C00024B01461868826801F045B84813002002
:102B6C00024B0146186800F0B6BD00BF48130020A8
:102B7C0070B50D4D00260D4C641BA410A64209D156
:102B8C000B4D00260B4C01F0C5F9641BA410A6429A
:102B9C0005D170BD55F8043B01369847EEE755F862
:102BAC00043B01369847F2E7981300209813002055
:102BBC00981300209C1300202DE9F04F0D469DB07A
:102BCC0014469846064618B1036A0BB9FFF796FFF0
:102BDC006B6ED90705D4AB899A0502D4A86D00F0A9
:102BEC00D8FDAB891B0701D52B699BB9294630460B
:102BFC0000F0CCFA70B16B6EDC0704D54FF0FF30EF
:102C0C001DB0BDE8F08FAB899805F7D4A86D00F026
:102C1C00C1FDF3E70023CDF80C804FF00109DFF87C
:102C2C00B481099320238DF8293030238DF82A3074
:102C3C0023469A4613F8012B0AB1252AF9D1BAEB8F
:102C4C00040B0BD05B4622462946304600F0BAFDF9
:102C5C00013000F0A780099A5A4409929AF8003082
:102C6C00002B00F09F8000234FF0FF320AF1010A85
:102C7C00049307938DF853301A93CDE905235446EA
:102C8C000522544814F8011B00F0E1FF049AD8B94E
:102C9C00D10644BF20238DF85330130744BF2B2398
:102CAC008DF853309AF800302A2B15D0079A5446D9
:102CBC0000204FF00A0C214611F8013B303B092B48
:102CCC004BD9B0B1079214E0A0EB0803A24609FA65
:102CDC0003F313430493D2E7039B191D1B68002BCA
:102CEC000391BBBF5B4242F0020207930793B8BF4C
:102CFC00049223782E2B0AD163782A2B32D1039B92
:102D0C0002341A1D1B6843EAE37303920593DFF840
:102D1C00D4A003222178504600F099FF38B1A0EBE3
:102D2C000A004022049B013482401343049314F89C
:102D3C00011B062228488DF8281000F088FF002877
:102D4C003FD0264B1BBB039B073323F007030833F1
:102D5C000393099B3B4409936AE70CFB02320C4634
:102D6C000120A8E7002301344FF00A0C1946059303
:102D7C00204610F8012B303A092A03D9002BC6D073
:102D8C000591C4E70CFB012104460123F0E703ABDA
:102D9C002A4604A930460093114BAFF30080074636
:102DAC00781CD6D16B6ED90705D4AB899A0502D4A1
:102DBC00A86D00F0EFFCAB895B063FF51FAF0998DF
:102DCC001EE703AB2A4604A930460093044B00F0DF
:102DDC00A5F8E4E737470008414700080000000069
:102DEC00D13700083D47000870B50F4E0C4605461C
:102DFC00316811B900F076FA30602146284600F0AF
:102E0C0071FA431C03D14FF0FF34204670BDC41C33
:102E1C0024F00304A042F8D0211A284600F062FAEC
:102E2C000130F2D1EFE700BFD81200202DE9F041BC
:102E3C00CD1C064625F0030508350C2D38BF0C2596
:102E4C00002D01DBA94204D90C2333600020BDE81E
:102E5C00F081314F00F08EF93B681C4644BB29468B
:102E6C003046FFF7C1FF431C044650D13C68214655
:102E7C00002941D1002C44D02368304604EB0308D0
:102E8C0000F030FA80453CD1216830466D1A294655
:102E9C00FFF7AAFF013034D023682B4423603B6832
:102EAC00002B36D05A68A24229D100225A600EE07B
:102EBC002268521B1DD40B2A16D96119A342256016
:102ECC0018BF5960636808BF396062514B60304667
:102EDC0000F056F904F10B00231D20F00700C21A74
:102EEC00B5D01B1AA350B2E7A3426268DED13A6098
:102EFC00EDE723466468B1E70C464968B8E713462A
:102F0C00CEE70C233046336000F03AF99EE70560BB
:102F1C00DDE75B60FFDE00BFDC1200202DE9FF4720
:102F2C000F7E914680460C46782F9A460C9E01F1F6
:102F3C00430207D8622F0AD8002F00F0DD80582FEB
:102F4C0000F0C38004F1420684F842703AE0A7F125
:102F5C006303152BF6D801A151F823F0C12F0008FB
:102F6C00D52F0008512F0008512F0008512F0008B1
:102F7C00512F0008D52F0008512F0008512F0008A1
:102F8C00512F0008512F0008EB3000086330000867
:102F9C00A3300008512F0008512F00080D310008F4
:102FAC00512F000863300008512F0008512F0008E2
:102FBC00AB30000833681A1D1B68326004F14206FE
:102FCC0084F842300123A8E031682368081D306082
:102FDC001E0601D50D6803E05D06FBD5B1F9005066
:102FEC00002D616878DA2D200029A16084F8430057
:102FFC002DDA6D425D480A231646B5FBF3F103FB4F
:10300C001157C75D06F8017D2F460D46BB42F4D91A
:10301C00082B0BD12368DF0708D523696168994217
:10302C00DEBF302306F8013C06F1FF36921B22610D
:10303C004B4603AA21464046CDF800A000F0D4FB35
:10304C0001306FD14FF0FF3004B0BDE8F08723F0B2
:10305C0004032360CDE721683368080653F8045B4A
:10306C0002D4490648BFADB26F2F33603F4814BF3E
:10307C000A230823002184F843106668002EA660FA
:10308C00BADB216821F004012160002DB4D1002E9F
:10309C00B2D11646BCE7236843F02003236078279F
:1030AC003348236884F845701F06316851F8045B77
:1030BC0002D45F0648BFADB23160D90744BF43F0BC
:1030CC00200323601DB11023D4E72848E9E72368C7
:1030DC0023F020032360F6E724480A23CDE7336866
:1030EC002568181D616930602E061B6801D51960B2
:1030FC0002E06806FBD5198000231646236197E78A
:10310C00336800211A1D32601E686268304600F078
:10311C009EFD08B1801B606063682361002384F806
:10312C00433085E72369324649464046D047013053
:10313C0088D023689B0714D4E068039B9842B8BFDF
:10314C00184681E70123324649464046D0470130B4
:10315C003FF478AF0135E36803995B1AAB42F1DCBD
:10316C00EAE7002504F11906F5E700BF4847000817
:10317C0059470008014800F00CBB00BF2513002084
:10318C00014800F007BB00BF2513002038B5294BC0
:10319C0005460C46186818B1036A0BB9FFF7AEFC6C
:1031AC00B4F90C30190722D4DA0607D409222A60A4
:1031BC0043F040034FF0FF30A38133E0580712D5A2
:1031CC00616B41B104F14403994202D0284600F0EE
:1031DC00ABF800236363A38923F02403A3810023AA
:1031EC00636023692360A38943F00803A3812369E7
:1031FC004BB9A38903F42073B3F5007F03D02146A8
:10320C00284600F0B4FCB4F90C3013F001020AD0DB
:10321C000022A26062695242A261226942B913F093
:10322C008000C5D138BD990758BF6269A260F4E728
:10323C000020F7E74813002038B50023054D04465D
:10324C0008462B6000F0BBF8431C02D12B6803B17D
:10325C00236038BDE012002038B50023064D04462B
:10326C00084611462B6000F0AEF8431C02D12B68C7
:10327C0003B1236038BD00BFE012002038B5002335
:10328C00054D044608462B6000F09FF8431C02D104
:10329C002B6803B1236038BDE012002038B504461A
:1032AC00064D0846114600222A601A4600F08FF897
:1032BC00431C02D12B6803B1236038BDE0120020FF
:1032CC0038B50446064D0846114600222A601A46B7
:1032DC0000F07FF8431C02D12B6803B1236038BD8A
:1032EC00E012002038B50023054D044608462B603B
:1032FC00FEF780FC431C02D12B6803B1236038BD60
:10330C00E012002038B50446064D0846114600224E
:10331C002A601A4600F024F9431C02D12B6803B131
:10332C00236038BDE012002038B50546002941D095
:10333C0051F8043C0C1F002BB8BFE418FFF71AFF20
:10334C001D4A136833B9636014602846BDE83840E1
:10335C00FFF716BFA34208D9206821188B4201BF82
:10336C0019685B6809182160EDE71A465B680BB1B8
:10337C00A342FAD911685018A0420BD1206801441D
:10338C00501811608342E0D118685B6808445360A0
:10339C001060DAE702D90C232B60D6E720682118DD
:1033AC008B4202BF19685B680918636008BF216013
:1033BC005460CAE738BD00BFDC120020FEE74FF0B6
:1033CC00FF307047FEE70020704701207047002057
:1033DC00704700207047FEE700239A4200D17047E7
:1033EC0010B550F8234041F8234001339A42F8D1EC
:1033FC0010BD08B500F072FCBDE808400021FDF7D7
:10340C0095BB0029CCBF01210021FDF78FBB022108
:10341C004FF42070FDF776BE7047704770B50546C7
:10342C0014460E4600F0E9FC2B685C4034405C40CE
:10343C002C60BDE8704000F0DBBC00F000B8002050
:10344C007047FEF753BA704708B500F07DF800F0EE
:10345C007EF800F07EF800F07DF8BDE8084000F042
:10346C007AB808B5FFF7EFFFFEF7AAFBFEF716FBDD
:10347C00FFF7E7FFFEF728FBFEF774FC00F007F8F8
:10348C0000F064F8BDE80840FFF7DEBF704708B5F0
:10349C0000F056F800F055F800F054F800F053F82E
:1034AC00FFF7F4FF08BD08B500F056F800F055F82A
:1034BC0000F054F8BDE8084000F051B808B5FEF72C
:1034CC00A9FBBDE80840FEF7CFBB7FB50023CDF8C4
:1034DC000E30CDF81230ADF8163002234000ADF8A6
:1034EC00040001A8ADF806300291ADF80C20FEF7EF
:1034FC00FFFB18B1431C0CBF0320022007B05DF882
:10350C0004FB7FB50023CDF80E30CDF81230ADF8AA
:10351C00163001234000ADF8040001A8ADF80630C8
:10352C000291ADF80C20FEF7E3FB18B1431C0CBF65
:10353C000320022007B05DF804FBFEF77BBB70474D
:10354C007047704770477047FFF777BF7047FCF7BD
:10355C003FBF704770477047704770477047704760
:10356C0070B515464E1EC1F10104A3199D4201DC34
:10357C00284670BD73780A2B02D10D20FEF7A0FDF2
:10358C0016F8010FFEF79CFDEFE7008840BA80B2F9
:10359C007047006800BA704708B5FFF7FAFF00EEF5
:1035AC00100A08BD002310B59CB2A24200D810BD71
:1035BC00C45CCC540133F7E702460144FF2010B53C
:1035CC008A4200D110BD082412F8013B584010F07B
:1035DC00800F4FEA400318BF83F03103D8B2631E4B
:1035EC0013F0FF04F3D1EBE710B51446FFF7E4FF3B
:1035FC00001B18BF012010BD130A43544B1C9BB277
:10360C000231C25488B27047FFF7F6BF70B5054659
:10361C00130A43548E1C4B1C9BB2B6B2C254B01E40
:10362C000C4628440221FFF7C7FFA855E01C80B2C6
:10363C0070BD08B5D2B2FFF764FF08BD2DE9F843A1
:10364C0012F001060F4624D1520802EB42021FFA77
:10365C0082F8D2B2FFF739FF044610B9054645454A
:10366C0002D32046BDE8F88307EB05090221484642
:10367C0099F80220FFF7B8FF68B97A5D731CBA5548
:10368C0099F801209BB202360335B6B2FA54ADB2AA
:10369C00E5E70424E5E70446E3E72DE9F8430746AC
:1036AC00884614460026D4E90195B9F1010905D5DF
:1036BC002468002CF7D13046BDE8F883AB89012B88
:1036CC0007D9B5F90E30013303D029463846C04727
:1036DC0006436835E9E7036A70B505460E4684680B
:1036EC000BB9FFF70BFA636EDB0705D4A3899805BA
:1036FC0002D4A06D00F04DF8A389190702D52369F7
:10370C00002B35D121462846FFF740FD80B34FF002
:10371C00FF35636EDA0705D4A3899B0502D4A06D2F
:10372C0000F038F8284670BD002B15DB23685A1CB6
:10373C0022601970A36816F8011F013BA3600029D1
:10374C00F2D1002B16DA22460A21284600F0ACF9F9
:10375C000130DCD00A25DCE7A2699A4201DC0A2997
:10376C00E4D12246284600F09FF90130E2D1CEE7A1
:10377C00013EDFE723685A1C22600A221A70E9E72F
:10378C0002440346934200D1704703F8011BF9E74A
:10379C007047704770479368013B002B936010B4DF
:1037AC0008DA9469A34201DB0A2903D15DF8044BC2
:1037BC0000F07AB91368581C1060084619705DF84F
:1037CC00044B7047F8B506460F461446D518AC4264
:1037DC0001D1002007E03A4614F8011B3046FFF7F0
:1037EC00DAFF431CF3D1F8BD2DE9F0471646984695
:1037FC008A6807460B690C46DDF820909342B8BFE7
:10380C001346336091F843200AB1013333602368C7
:10381C00990642BF336802333360256815F00605FC
:10382C0006D104F1190AE36832689B1AAB422BDC0F
:10383C0094F843302268003B18BF0123920630D421
:10384C0004F1430241463846C847013023D023686F
:10385C001A3454F80A2C03F00603042B0ABF54F84C
:10386C000E5C002533684FF0000608BFED1A54F8C3
:10387C00123C08BF25EAE5759342C4BF9B1AED18AC
:10388C00B5421AD1002008E0012352464146384681
:10389C00C847013003D14FF0FF30BDE8F087013548
:1038AC00C1E7E1185A1C30200233224481F843004E
:1038BC0094F8451082F84310C2E701232246414692
:1038CC003846C8470130E6D00136D9E7B1F90C20AB
:1038DC002DE9F041170705460C4656D44B68002BD2
:1038EC0002DC0B6C002B3DDDE66A002E3AD0002387
:1038FC0012F480522F68216A2B6025D0626DA38947
:10390C00580705D56368D21A636B0BB1236CD21AB6
:10391C00216A0023E66A2846B047411C24D00023C4
:10392C00636023692360A389DA0400D56065616B49
:10393C002F60B9B104F14403994202D02846FFF735
:10394C00F3FC002363630DE001232846B047461CBB
:10395C000246D4D12B68002BD1D01D2B01D0162BB5
:10396C002AD12F6000202EE02A68B4F90C3042B125
:10397C001D2A01D0162A21D10023636023692360FC
:10398C00D5E7626022692260CEE70F69002FE9D08B
:10399C0093070E680F600CBF4B690023A6EB07085A
:1039AC008B60B8F1000FDDDD43463A46216A2846AC
:1039BC00A66AB047002808DCB4F90C3043F0400389
:1039CC004FF0FF30A381BDE8F0810744A8EB00085D
:1039DC00E7E738B50B6905460C4613B900252846B0
:1039EC0038BD18B1036A0BB9FFF788F8B4F90C307D
:1039FC00002BF3D0626ED00704D4990502D4A06DCD
:103A0C00FFF7C7FE28462146FFF760FF636E0546A9
:103A1C00DA07E4D4A3899B05E1D4A06DFFF7BAFEC5
:103A2C00DDE710B50C46B1F90E10FFF749FC002884
:103A3C00ABBF636DA3891B1823F48053ACBF6365C4
:103A4C00A38110BD2DE9F0411F468B8905460C461C
:103A5C00DB05164605D502230022B1F90E10FFF73F
:103A6C001DFCA3893246B4F90E10284623F480536A
:103A7C00A3813B46BDE8F041FFF744BC10B50C46B2
:103A8C00B1F90E10FFF70AFC431CA38915BF606542
:103A9C0023F4805343F48053A38118BFA38110BD3A
:103AAC00B1F90E10FFF7C8BBF8B50E461446054623
:103ABC0018B1036A0BB9FFF721F8A369A360A389B6
:103ACC001A0701D5236943B921462846FFF75EFB47
:103ADC0018B14FF0FF373846F8BD2368F6B22269AB
:103AEC003746981A6369834205DC21462846FFF75E
:103AFC0070FF0028EDD1A368013BA36023685A1C1A
:103B0C0022601E70431C62699A4204D0A389DB07B1
:103B1C00E1D50A2EDFD121462846FFF75AFF0028AF
:103B2C00D9D0D6E770B50C46B1F90E1096B0154643
:103B3C0000291E460CDAA389002113F0800F14BF54
:103B4C0040234FF48063002031602B6016B070BDB1
:103B5C006A46FFF781FB0028EDDB019901F4704107
:103B6C00A1F50053594259414FF48063EBE78B891F
:103B7C00F7B59D0706460C4607D504F147032360AD
:103B8C0023610123636103B0F0BD01AB6A46FFF70B
:103B9C00C9FF009F054630463946FFF747F948B93B
:103BAC00B4F90C309A05EED423F0030343F002036E
:103BBC00A381E2E7A389206043F08003A381019BEA
:103BCC00C4E904075BB1B4F90E103046FFF756FB9D
:103BDC0028B1A38923F0030343F00103A381A38934
:103BEC001D43A581CFE770B50D461446064618B1A6
:103BFC00036A0BB9FEF782FF636ED80705D4A3895D
:103C0C00990502D4A06DFFF7C4FDA368013B002BFE
:103C1C00A36005DAA269934212DBEBB20A2B0FD038
:103C2C0023685A1C22601D70EDB2636EDA0705D44E
:103C3C00A3899B0502D4A06DFFF7ACFD284670BD8F
:103C4C00294622463046FFF72FFF0546EDE7C9B25D
:103C5C000346024410B59342184601D1002003E0FC
:103C6C00047801338C42F6D110BD0000014B18686A
:103C7C00704700BF2C1300200A4B1B6F03F0070387
:103C8C00013B032B03D8DFE803F00A030608FEE729
:103C9C00054B18687047054BFBE70548704705480E
:103CAC00704700BF008000502C13002034130020FC
:103CBC0080D54302002D310108B5FFF7DDFF054B20
:103CCC001B6FC3F303330133B0FBF3F0024B1860EB
:103CDC0008BD00BF0080005028130020004870472A
:103CEC0000B4C40400487047002D3101014B186822
:103CFC00704700BF341300200048704780D5430242
:103D0C004FF40022184B5A664FF0B4439868C0F336
:103D1C0004400C280AD8DFE800F00B09090909094E
:103D2C00072119091B1D1F00104870470020704700
:103D3C009B6803F04073B3F1807F11D0B3F1007F27
:103D4C0010D00B4A002B08BF10467047094870472B
:103D5C000948704709487047094870470948704737
:103D6C00094870470948704700900050405DC600F4
:103D7C0000093D00C0EA210180BA8C010048E8012D
:103D8C00005A62020024F40080841E0040420F009E
:103D9C00014B1868704700BF3013002070B50D46FA
:103DAC00E8B1036813F4E07F03F03F06C3F382121B
:103DBC0010D0012A13D10B4C9B0603D591210A4834
:103DCC00FFF7FCFA45B104F5805401230020B34001
:103DDC00236070BD054CEFE704F50054F5E70E20A9
:103DEC00F7E700BF68800050CE40000864800050A8
:103DFC0010B962B6BFF36F8F7047EFF3108072B6D5
:103E0C00704780F31188BFF36F8F7047EFF3118009
:103E1C00302383F3118870474FF4004070474FF400
:103E2C007A70704709B100F005B822207047012163
:103E3C00FFF7B4BF70B506460D46FFF7E7FF044623
:103E4C001F2E58D8DFE806F01019571E21245727CB
:103E5C002A572D5730335736393C573F5742575412
:103E6C0057455748574B4E51FFF706FF0026286021
:103E7C002046FFF7C6FF304670BD4FF4C070FCF70C
:103E8C00A9FEF3E74FF42070F9E74FF44070F6E722
:103E9C004FF46070F3E74FF40070F0E74FF480607C
:103EAC00EDE74FF44060EAE74FF4C060E7E74FF40A
:103EBC00F060E4E74FF4B060E1E74FF4D060DEE788
:103ECC004FF41060DBE74FF4E060D8E74FF4A060EC
:103EDC00D5E74FF41860D2E74FF42860CFE74FF4E2
:103EEC008070CCE74FF43060C9E74FF42060C6E730
:103EFC004FF40860C3E700202126B8E7000000005B
:103F0C0000000000000000000000000000000000A5
:103F1C0000000000F8B500BFF8BC08BC9E46704716
:103F2C00F8B500BFF8BC08BC9E4670472F557365AA
:103F3C0072732F646965676F736D6163626F6F6B0A
:103F4C002F2E73696C6162732F736C742F696E738F
:103F5C0074616C6C732F636F6E616E2F702F73694D
:103F6C006D706C656235323639393866346134645B
:103F7C002F702F706C6174666F726D2F656D6C692C
:103F8C00622F7372632F656D5F636D752E63002FE7
:103F9C0055736572732F646965676F736D616362C6
:103FAC006F6F6B2F2E73696C6162732F736C742F30
:103FBC00696E7374616C6C732F636F6E616E2F70AE
:103FCC002F73696D706C65623532363939386634E9
:103FDC006134642F702F706C6174666F726D2F6515
:103FEC006D6C69622F7372632F656D5F656D752ED5
:103FFC0063002F55736572732F646965676F736DFA
:10400C006163626F6F6B2F2E73696C6162732F73B8
:10401C006C742F696E7374616C6C732F636F6E614B
:10402C006E2F702F73696D706C656235323639394D
:10403C003866346134642F702F706C6174666F72E3
:10404C006D2F656D6C69622F696E632F656D5F678F
:10405C0070696F2E68002F55736572732F646965D4
:10406C00676F736D6163626F6F6B2F2E73696C6119
:10407C0062732F736C742F696E7374616C6C732F15
:10408C00636F6E616E2F702F73696D706C65623526
:10409C00323639393866346134642F702F706C6164
:1040AC0074666F726D2F656D6C69622F7372632FFE
:1040BC00656D5F6770696F2E6300FF070F00FF036C
:1040CC003F002F55736572732F646965676F736D4D
:1040DC006163626F6F6B2F2E73696C6162732F73E8
:1040EC006C742F696E7374616C6C732F636F6E617B
:1040FC006E2F702F73696D706C656235323639397D
:10410C003866346134642F702F706C6174666F7212
:10411C006D2F656D6C69622F696E632F656D5F62C3
:10412C0075732E68002F55736572732F64696567FC
:10413C006F736D6163626F6F6B2F2E73696C61624D
:10414C00732F736C742F696E7374616C6C732F6343
:10415C006F6E616E2F702F73696D706C6562353286
:10416C003639393866346134642F702F706C617451
:10417C00666F726D2F736572766963652F636C6FF2
:10418C00636B5F6D616E616765722F7372632F7302
:10419C006C5F636C6F636B5F6D616E616765725FA3
:1041AC0068616C5F73322E63002F55736572732FC9
:1041BC00646965676F736D6163626F6F6B2F2E73CC
:1041CC00696C6162732F736C742F696E7374616C9C
:1041DC006C732F636F6E616E2F702F73696D706CC3
:1041EC00656235323639393866346134642F702F54
:1041FC00706C6174666F726D2F736572766963652E
:10420C002F636C6F636B5F6D616E616765722F738B
:10421C0072632F736C5F636C6F636B5F6D616E6148
:10422C006765725F696E69745F68616C5F73322E6B
:10423C006300010310010109030000001E000000CF
:10424C00160000001A0000002F55736572732F645E
:10425C006965676F736D6163626F6F6B2F2E736926
:10426C006C6162732F736C742F696E7374616C6CF8
:10427C00732F636F6E616E2F702F73696D706C6529
:10428C006235323639393866346134642F702F70A8
:10429C006C6174666F726D2F736572766963652FCE
:1042AC00696E746572727570745F6D616E6167654D
:1042BC00722F7372632F736C5F696E746572727593
:1042CC0070745F6D616E616765725F636F72746548
:1042DC00786D2E630053505333305F544553543A2A
:1042EC00202573206661696C6564206572723D25BA
:1042FC00640D0A0025733D256C752E2530326C75C6
:10430C000053574F5F53454C465F544553543A2026
:10431C00464732385F504130335F49544D5F434814
:10432C00302070686173653D4541524C59005350C3
:10433C005333305F544553543A2073746172740094
:10434C0053574F5F434F4E534F4C453A2062616376
:10435C006B656E643D25732073706565643D256CDB
:10436C00750D0A004932435F5343414E3A20696E42
:10437C006974206275733D493243312073636C3D1F
:10438C0050443032207364613D50443033206672A7
:10439C0065713D256C750D0A004932435F534341ED
:1043AC004E3A20666F756E6420616464723D30789D
:1043BC00253032580D0A004932435F5343414E3A7F
:1043CC0020646F6E65004932435F5343414E3A207F
:1043DC006D69737320616464723D30782530325896
:1043EC00207374617475733D25640D0A005350532A
:1043FC0033305F544553543A2073656E736F72209B
:10440C006E6F7420726573706F6E64696E67206175
:10441C0074203078253032580D0A00535053333005
:10442C005F544553543A20646F6E65007265616445
:10443C005F70726F647563745F7479706500726518
:10444C0061645F73657269616C5F6E756D626572D4
:10445C0000726561645F6669726D776172655F7623
:10446C00657273696F6E00726561645F646576690D
:10447C0063655F7374617475735F72656769737478
:10448C0065720053505333305F544553543A207087
:10449C00726F647563743D25732073657269616C0A
:1044AC003D25732066773D25752E25752073746127
:1044BC007475733D30782530386C580D0A00636C78
:1044CC006561725F6465766963655F737461747549
:1044DC00735F726567697374657200726561645F9E
:1044EC006465766963655F7374617475735F726517
:1044FC006769737465725F61667465725F636C651E
:10450C0061720053505333305F544553543A207307
:10451C0074617475735F61667465725F636C6561F9
:10452C00723D30782530386C580D0A007374617206
:10453C00745F6D6561737572656D656E740072651F
:10454C0061645F646174615F72656164795F666CFC
:10455C0061670073746F705F6D6561737572656D03
:10456C00656E740053505333305F544553543A20A6
:10457C00726561647920617474656D70743D256C2D
:10458C007520666C61673D25750D0A007265616466
:10459C005F6D6561737572656D656E745F76616C68
:1045AC007565735F666C6F61740053505333305F85
:1045BC00544553543A206D6173735F75675F6D3367
:1045CC002000706D31703000706D32703500706D80
:1045DC0034703000706D31307030000D005350531A
:1045EC0033305F544553543A20636F756E745F706B
:1045FC0065725F636D332000706D30703500535001
:10460C005333305F544553543A207061727469636C
:10461C006C655F73697A655F756D2000747970697C
:10462C0063616C0053505333305F544553543A20FC
:10463C006E6F206D6561737572656D656E74206348
:10464C006170747572656400010100000000000067
:10465C00A08601000000000053574F5F53454C46A5
:10466C005F544553543A20464732385F50413033FB
:10467C005F49544D5F4348302070686173653D500D
:10468C004F53545F494E49540053574F5F53454C59
:10469C00465F544553543A20464732385F504130B8
:1046AC00335F49544D5F4348302070686173653DFA
:1046BC00504F53545F494E49545F52455452590020
:1046CC0053574F002F55736572732F646965676F6D
:1046DC00736D6163626F6F6B2F2E73696C616273A4
:1046EC002F736C742F696E7374616C6C732F636FA2
:1046FC006E616E2F702F73696D706C65623532361A
:10470C0039393866346134642F702F706C6174667B
:10471C006F726D2F656D6C69622F7372632F656D8F
:10472C005F6932632E630008091108232D302B209A
:10473C0000686C4C00656667454647003031323383
:10474C0034353637383941424344454600303132EE
:10475C00333435363738396162636465660000007E
:08476C00A0BAFF7F010000006C
:0C47740080470008281300201E000000F1
:10478000C0EA2101C0EA210100800000C0175302E5
:10479000A013002000000000030000009C11002076
:1047A0004C130020000000009C1100200412002087
:1047B0006C1200200000000000000000000000005B
:1047C00000000000000000000000000000000000E9
:1047D00000000000000000000000000000000000D9
:1047E00000000000000000000000000000000000C9
:0847F000E9010008C101000805
:04000005080002A548
:00000001FF
