S02B00002F55736572732F646965676F736D6163626F6F6B2F446F63756D656E74732F5079726F4E65742F6697
S3150800000000100020B92200080BDA00080BDA0008F5
S315080000100BDA00080BDA00080BDA00080BDA00081E
S315080000200BDA00080BDA00080BDA00080BDA00080E
S315080000300BDA00080BDA00080BDA00080BDA0008FE
S315080000400BDA00080BDA00080BDA00080BDA0008EE
S315080000500BDA00080BDA00080BDA00080BDA0008DE
S315080000600BDA00080BDA00080BDA00080BDA0008CE
S315080000700BDA00080BDA00080BDA00080BDA0008BE
S315080000800BDA00080BDA00080BDA00080BDA0008AE
S315080000900BDA00080BDA00080BDA00080BDA00089E
S315080000A00BDA00080BDA000849240008292400089E
S315080000B00BDA00080BDA00080BDA00080BDA00087E
S315080000C00BDA00080BDA00080BDA00080BDA00086E
S315080000D00BDA00080BDA00080BDA00080BDA00085E
S315080000E00BDA00080BDA00080BDA00080BDA00084E
S315080000F00BDA00080BDA00080BDA00080BDA00083E
S315080001000BDA00080BDA00080BDA00080BDA00082D
S315080001100BDA00080BDA00080BDA00080BDA00081D
S315080001200BDA00080BDA00080BDA00080BDA00080D
S315080001300BDA00080BDA00080BDA00080BDA0008FD
S315080001400BDA00080BDA00080BDA00080BDA0008ED
S315080001500BDA00080BDA00080BDA00080BDA0008DD
S315080001600BDA00080BDA00080BDA00080BDA0008CD
S311080001700BDA00080BDA00080BDA0008AE
S3150800018008B51046194607A3D3E900230AF064FF09
S31508000190BDE80840014602480BF02ABAAFF30080D2
S315080001A024FB0008005847F80D0000000000000076
S315080001B02DE9F0470027164605460C4684B093F805
S315080001C000A0DDF830901F7051469FED270B0D9863
S315080001D0984600F09DFF89F800703B462246314656
S315080001E02846CDF8009001F051FB99F9007017B137
S315080001F004B0BDE8F0872246314628460DF10F03C4
S315080002008DF80F7000F0FCF989F800006EB104EB68
S31508000210061694ED020AD4E90023617B2846009766
S31508000220103407F0EBF8B442F3D1284695F8AE142B
S3150800023006F08AFDBAF1000F0BD1022389F80030C7
S3150800024000232846C5F8E43200F0D4F904B0BDE826
S31508000250F0875246414628460D9BCDF8009000F09F
S315080002606FFDEDE7AFF300800000000000000840D6
S315080002702DE9F04F0021002600278BB0159CCDE90B
S315080002800623C4E90067C4E9021184F839106187B6
S31508000290A18784F83E10D0F8C634D0F8CA64D0F8DE
S315080002A0CE14D0F8D22466612361A161E261D0F848
S315080002B0D634149E2362D0F8B234D0F8B674D0F887
S315080002C0BA14D0F8BE246362A762E1622263D0F84A
S315080002D0C2340546636390F8DA3484F8383090F807
S315080002E0F234012B01D000F085F9DDE9062300215F
S315080002F00DF1250009AFB5F8ACA403903170284676
S31508000300CDE9002331462246029700F0EDFA9DF822
S31508000310243013B10BB0BDE8F08F21469DF8252097
S31508000320284600F011FF0DF12609034680462246AD
S31508000330012128460097CDF8049000F089F99DF828
S315080003402430BDF826603BB195F8CE3384F83A30B0
S3150800035095F8CC3384F83B3043462246022128469A
S31508000360CDE9007900F074F99DF82430BDF826B07F
S31508000370002B6CD14346224603212846CDE9007955
S3150800038000F066F9BDF826209DF824300592002B6A
S3150800039071D14346224604212846CDE9007900F06A
S315080003A057F921469DF8243006AA2846BDF8267036
S315080003B000F026FDDDE9062305F5A061C1E9002365
S315080003C095F8F234012B4BD05E4528BF5E46059B57
S315080003D0B0469E4228BF9846B84528BFB846C2458B
S315080003E028BFC246B5F8C233B3FBFAF80AFB183879
S315080003F0AAEB080A1FFA8AFAB5F8802353449BB277
S31508000400B3FBF2F102FB1133A5F8C6A3A5F8C23374
S315080004109FED1D0BADF8262009F0B4FB51EC100B2F
S315080004200AF082FE0B460026A0FB0A0103FB0A110E
S31508000430DDE90623821841EB0303C4E900232846B5
S3150800044085F8C96300F0BCFD0BB0BDE8F08F95F8E0
S31508000450CD3384F83C3095F8CC3384F83B3089E7C3
S31508000460B5F8C233B3FBF8F008FB1030A8EB000868
S315080004701FFA88FAC0E795F8CC332146284684F84F
S315080004803B3000F0F9FA84E700000000D01263411F
S315080004902DE9F0470646414D06F052FF404F00232E
S315080004A003E05C1C1E2C234610D045FA03F2D10744
S315080004B0F7D5DA5D5C1C02F2CB1336F8132030460A
S315080004C0E1B206F0EDFF1E2C2346EED1304606F0CB
S315080004D0BBFE0025DFF8C490314FDFF8CC8002E080
S315080004E001351E2D35D049FA05F3DA07F8D5EB5D47
S315080004F0334493F8B333002BF2D0002438F915A00F
S3150800050002E001340B2CEBD04AFA04F3DB07F8D5EA
S31508000510631E092B40D8DFE803F0051A18161412D3
S31508000520100E0C0A0221304606F090FFE9E70B216F
S31508000530F9E70A21F7E70921F5E70821F3E7072193
S31508000540F1E70621EFE70521EDE70421EBE70321B3
S31508000550E9E700221349C6F8B423C978C6F8B823D0
S31508000560C6F8BC23A6F8C02386F8C42301F27B117B
S3150800057036F81100134686F8C82306F5747232F861
S31508000580021B0133884203D0042BF8D1BDE8F0875B
S3150800059086F8C433BDE8F0870121C4E7EF79120075
S315080005A030FE000864FD0008F4FD0008F0B4146885
S315080005B0049F04EB030C8C4516D805998B4216D874
S315080005C0002B0CDD791ECE18C7F1010700E0146870
S315080005D07B1811F8015F2344B142C554F7D10020B6
S315080005E0C2F800C0F0BC70476FF02800FAE76FF059
S315080005F02500F7E790F8C83303B9704748E700BF06
S315080006002DE9F041F1B14FF00008DFF840E002EBC8
S31508000610011C517BD2E90045714411F8011C1032C6
S3150800062000EBC101D1E97067BD4208BFB44204D1ED
S315080006301978002908BF4FF004089445E9D14046C7
S31508000640BDE8F08188464046BDE8F08164FD0008B3
S31508000650F0B400271A4C0139645C049D04F27B143B
S3150800066030F81440059E2F70348090F8F274012FEC
S315080006701ED04FF6FF739C4213D0B0F8C263B6FB88
S31508000680F4F304FB1364A4B26CB901239068C9B2ED
S3150800069003FA01F101432B7082F83D3082F83E30AF
S315080006A09160F0BC704790F8C933002BF9D0ECE79D
S315080006B04FF6FF77BC42F4D01C463380D9E700BF1B
S315080006C064FD00081AB3002210B4019C22701A793E
S315080006D0013A012A02D95DF8044B7047D3ED007A36
S315080006E0F5EE407AF1EE10FA0CBF012300232370D1
S315080006F0F1D147F230530A889A4209D04A889A4279
S3150800070006D00B23029A13705DF8044B70477047A6
S3150800071090F9CA33002BF5D1012380F8C933DAE7FB
S315080007200023F0B56FF0004C1C464FF0010E4FF653
S31508000730FF77684D684E05E0BA4218BF01240133B9
S315080007401E2B0FD045FA03F2D207F8D59A5D6244FC
S3150800075031F81220B2F5E16FEED101331E2B80F885
S31508000760CBE3EFD190F8CB33A3BBB0F8AC74594CBC
S315080007703D46594E44FA03F2D20706D59A5D013A28
S3150800078031F81220954228BF154601331E2BF1D1A8
S315080007904FF6FF72954226D0B7FBF5F305FB1373A8
S315080007A09BB2A3B916464B4FDFF82CC147FA03F2A2
S315080007B0D20715D513F80C20013A31F81240B44285
S315080007C00ED0B4FBF5F205FB124292B242B16FF0BD
S315080007D00F00F0BD002C0CBF00206FF00F00F0BD1D
S315080007E001331E2BE2D14FF6FF750023AC463B4A78
S315080007F0384EDFF8E4E052F8044B46FA03F72407CC
S3150800080010D5FC070ED513F80E40013C31F81440FC
S31508000810644507D0654504D0AC4203D06FF010009C
S31508000820F0BD254601331E2BE5D14FF6FF739D42D9
S315080008304ED0002300F5747202E00133042B09D070
S3150800084032F8024BAC42F8D103F5F67330F81330A0
S3150800085004339BB200249FED226ADFED226A4FF62D
S31508000860FF7C1C4E1C4F46FA04F2D2072BD590F893
S31508000870CC5390F8CEE390F8CD236D004FEA4E0E98
S31508000880EDB25FFA8EFE52007544D2B22A441A447B
S3150800089092B207EE902AF8EE677A67EE867AE25DFC
S315080008A087EEA67A013A31F8122007EE902AF8EE7A
S315080008B0E77AF4EEC77AF1EE10FA04D5624502D06B
S315080008C06FF01100F0BD01341E2CCCD10020F0BD14
S315080008D00423BFE7EF79120030FE00087CFD00080C
S315080008E00000C84200007A442DE9F04F83460020F4
S315080008F08BB0169B14460BF5A066179AD6E90089A5
S315080009000D4658EA090118701070149B159A0AD1F9
S315080009100BF59C610BF59D6BC1E90032CBE90089AB
S315080009200BB0BDE8F08F9BF882130029F8D19BF82D
S31508000930F214B3EB080A62EB0900022901900AD007
S31508000940DBF8E004DBF8E4141B1A62EB0102CBF8CF
S31508000950EC24CBF8E834DBF8F034454A23F07F433F
S3150800096093422FD09FED400BBBF8C68309F00AF9D6
S3150800097051EC100B0AF0D8FB8C46A0FB08010CFBC7
S315080009800811B0EB0A070297019F4FEA101261EBB4
S31508000990070742EA01720397DDE902780B11BA42AA
S315080009A073EB08073FDAD6E900324FF0640C0127EB
S315080009B01B1841EB0202C4E90032169B85F800C0F9
S315080009C01F70ADE747F23058BBF8C223294B9FED9D
S315080009D0260BA3FB02135B0B08FB1323A8EB0308E8
S315080009E009F0D0F851EC100B0AF09EFB8C461FFA62
S315080009F088F8A0FB08010CFB0811B0EB0A0706975C
S31508000A00019F4FEA101261EB070742EA0172079746
S31508000A10DDE906780B11974278EB030713DA012311
S31508000A20179A13707CE7BAEB00040494019C64EBF4
S31508000A3001010591DDE9040182428B41BFF670AFE1
S31508000A4064232B706CE7BAEB00070897019F67EBE6
S31508000A5001010991DDE90801904271EB030381DA8E
S31508000A60DDE700BFAFF3008000000000D01263414D
S31508000A703075010073B2E7454FF6FF72064B5B7B94
S31508000A8003F27B1330F81330934203D08B6843F498
S31508000A9000538B60704700BF64FD00082DE9F047DE
S31508000AA09FED2B6A0027DFED2B5ADFF8B0A02A4D01
S31508000AB0DFF8ACE0DFF8AC8002E00137182F45D04C
S31508000AC00126BE4016EA0A0FF7D00C780137013422
S31508000AD0E4B204F1FF3C02EBCC0C0C7000234FF699
S31508000AE0FF798CED006A8CF804700CE04C4507D051
S31508000AF007EE904AF8EE677A85EEA77A8CED007ACB
S31508000B0001331E2BDAD045FA03F4E407F8D55EF86C
S31508000B1023402642F4D09CED007AB4EE467AF1EEF4
S31508000B2010FA13F8084004F2CB1430F81440DDD05C
S31508000B3007EE904AF8EE677AC5EEA76AB4EEE67A4B
S31508000B40F1EE10FA48BFCCED006AD9E7BDE8F087A8
S31508000B5000FF7F470000C842EF7912000F20E0002F
S31508000B607CFD000830FE00082DE9F0434FF03D08F3
S31508000B704FF0000987B004AA044600264FF0010E7C
S31508000B804FF0060C022713460D46CDE90289DDE92A
S31508000B90020182E8030084F801E003CB84F802C06E
S31508000BA0E77026706060A1602B682046103B2373AF
S31508000BB0C3F30721C3F30742C3F30763A273E373BF
S31508000BC0617301AA296809F077F82B689DF8042053
S31508000BD023441A712B689DF8052023445A712B6803
S31508000BE023449E7128680444E6712B6808332B60F9
S31508000BF007B0BDE8F08300BF2DE9F0470E2482B0A8
S31508000C0006461746FE200DF103020D468DF80340F1
S31508000C1008F08EFF9DF803800190B8F1000F2AD0E6
S31508000C20012406F2C64A06F2B249E3B2013B0D2B8D
S31508000C300FD8DFE803F02F273F374714665E564F75
S31508000C40766E7D073A46294696F8DC0401AB06F02F
S31508000C5093FDA04504F101030CD01C46E5E701AB62
S31508000C603A46294606F5926006F0BCFFA04504F10F
S31508000C700103F2D10198C0F3072328706B7002B004
S31508000C80BDE8F0873A46294696F8CD0301AB06F04B
S31508000C9073FDDEE73A46294696F8CC0301AB06F023
S31508000CA06BFDD6E73A46294601AB06F5747006F0A1
S31508000CB02FFFCEE73A46294696F8CE0301AB06F053
S31508000CC05BFDC6E73A46294601AB06F57A7006F09B
S31508000CD05BFFBEE73A462946484601AB06F0B2FF37
S31508000CE0B7E73A46294601AB06F2AF4006F0E6FCFE
S31508000CF0AFE73A46294696F8AE0401AB06F03CFD46
S31508000D00A7E73A462946B6F8AC0401AB06F0AEFCAE
S31508000D109FE73A46294696F8DA0401AB06F02CFD19
S31508000D2097E73A462946504601AB06F08BFF90E70F
S31508000D303A46294696F8DB0401AB06F01DFD88E71E
S31508000D402DE9F04FD0F8F0442B4D24F07F44AC4207
S31508000D5089B03DD005F5881599460F46904600237B
S31508000D604FF6FF7BDFF894A005F2BF4503E05C1C55
S31508000D701E2C23462CD045FA03F2D207F7D513F8D2
S31508000D800A205C1C02F2831230F812205A45EFD072
S31508000D900126D0F8E42206FA03F11142E8D09C199C
S31508000DA00DF11303E1B2009305AA06AB0391029075
S31508000DB006F028FADDE902013A789319DBB203F165
S31508000DC0FF3C424509EB0C1C05D30323129A13700A
S31508000DD009B0BDE8F08F059A3B70CCF80820DDE92C
S31508000DE00623CCE900239DF813308CF80D108CF8F7
S31508000DF00C608CF80E30BBE73075010030FE000839
S31508000E00002B00F0BD8070B501232DED028B81F813
S31508000E10393090F8F2340446012B0D46164686B052
S31508000E2006D090F8C43303F2EF1330F813308B81F1
S31508000E3094F8CD23204685F83C2094F8CC130DF180
S31508000E400B0385F83B1004AA03A906F0CBF9DDEDE0
S31508000E50037AF5EE407AF1EE10FA1DD194F8C9330B
S31508000E60D3B994F8F234012B08D094F8C423022B92
S31508000E7002F2EB1234F81220EA8105D004F59D63DC
S31508000E80D3E90023134377D1D6E90023C4E9E22343
S31508000E9006B0BDEC028B70BDD4E9E223D4E9E401C7
S31508000EA0824273EB010CCDE9042303DA02460B46B2
S31508000EB0CDE90401D6E90001801A61EB03010AF0C5
S31508000EC08DF8DFED377A07EE100A87EE270AF1EE7E
S31508000ED0000A8DED030A0BF067F8F0EE080AB0EE8B
S31508000EE0408A9DED030A0BF05FF8DFED2E6ADFED11
S31508000EF02E7A9DED037A28EE268A20EE270ADFED64
S31508000F002B6A67EE077A38EE008A67EEA67ADFED77
S31508000F10286A78EE277A27EE267A9FED268A77EED4
S31508000F20877A9FED257A77EE887A67EE877AF8FED4
S31508000F30677AFCEEE77A17EE902A94F8C933EA81C5
S31508000F40FBB900939FED1D0AD6E90023162120461A
S31508000F5006F054FA94F8F234022B05D004F59D6392
S31508000F60D3E90023134307D194F8C933002B8BD058
S31508000F70D6E90023C4E9E42306B0BDEC028B70BDB4
S31508000F8070470021D6E90023B7EE000A00912046F3
S31508000F90162106F033FAAB6843F40013AB60D9E7C1
S31508000FA0286B6E4E598207B0DFE0C2343767D9B86E
S31508000FB05A8E863C6A92E43E00007A44000000009D
S31508000FC070B50446D0F88803D4F88C13101A2DEDA2
S31508000FD0028B63EB010115461E4609F0FFFFDFEDA4
S31508000FE0188A07EE900A9FED178AC7EEA87AF4EEDC
S31508000FF0C87AF1EE10FA06D49FED137AF4EEC77AA2
S31508001000F1EE10FA05DD652384F8CA33BDEC028BD0
S3150800101070BDD4E9E401281A66EB010109F0DEFF88
S3150800102007EE900AC7EEA87AF4EEC87AF1EE10FA3F
S315080010304CBF6623002384F8CA33BDEC028B70BD0F
S31508001040286B6E4E0000704200007043F0B4002416
S3150800105082B0DDE9066C34708CF800400D684719DB
S315080010607F78455D8DF805708DF80450BDF80470DD
S31508001070089D9F422F6004D9E023337002B0F0BC6C
S3150800108070474FB12346541E0D68C618755D013367
S315080010909F4204F8015FF7D193788CF800300B680B
S315080010A01F440F6002B0F0BC704700BF0B4B10B472
S315080010B0194411F8013C00EB4301B1F896439442F8
S315080010C004D00124013B034483F8B4430123A1F867
S315080010D096235DF8044B80F8C833704730FE000845
S315080010E00139032900D9704710B50446483007F07E
S315080010F011FC0121204606F0A9F904F12C0008F09C
S31508001100F9F82046BDE81040022106F09FB900BF55
S31508001110F8B5002204460D46002351EC100B09F0E1
S3150800112013FE78B175B12046002300220026002759
S3150800113004EB05114373826003738373E0E8046765
S315080011408842F7D1F8BD00BFF8B590F8F2340446E6
S31508001150012B0D4608D0022B37D003B300234FF6D8
S31508001160FF7084F8F234F8BD00F59F6300F59D61C1
S31508001170D1E90001D3E90067B04271EB07032DDB23
S3150800118047F230530221B4F8AC24B4F8F0049A427A
S3150800119084F8F214E7D10023A4F8C233F8BD012677
S315080011A080F8C863FFF774F947F23052B4F8FE3294
S315080011B09342A4F8F03478D0B3F5967F3DD0022355
S315080011C084F8F2344FF6FF70F8BD00F59D63D3E955
S315080011D000231343C2D04FF6FF70F8BD002ACFD1C3
S315080011E03BA3D3E9002382428B411DDA3AA3D3E914
S315080011F0002382428B4150DA39A3D3E90023824285
S315080012008B415CDA38A3D3E9002382428B4141DB68
S3150800121047F23053B4F8F0249A423BD1C5224FF432
S31508001220A073EA81AB8135E04FF47A724FF4BE734E
S315080012304FF49670EA81AB81F8BD04F59F6284F895
S31508001240F2642BA1D1E90001C2E9000120A7D7E980
S31508001250006704F59D64D4E90001864277EB010234
S31508001260E2DA1DA7D7E90067864277EB010214DAAE
S315080012701BA7D7E90067864277EB01021FDA1AA790
S31508001280D7E90067864277EB010203DB47F2305263
S315080012909342C3D04FF49670F8BD4FF47A729623F2
S315080012A04FF49670EA81AB81F8BD04F59F6284F825
S315080012B0F26411A1D1E90001C2E90001C6E74FF4C1
S315080012C07A72C8234FF49670EA81AB81F8BD00BFE5
S315080012D0FFE30B5402000000FFD5117E0300000057
S315080012E0FFC717A804000000FFB91DD205000000BB
S315080012F000C817A80400000000BA1DD205000000A7
S315080013002DE9F04706464FF6FF700022002300211C
S315080013104FF001094FF481784FF0050E06F2E634D6
S315080013202546A6F8F0048446964F06F59C6006F511
S315080013309F6A86F8F214CAE90023C0E9002306F575
S315080013409D60C0E900238AB086F8DC1486F8DB9431
S315080013500FCFA6F8CC83C6F8D003C6F8D413C6F8C0
S31508001360D82303CFC6F8DC3386F8CEE306F28E47D9
S31508001370C6F8E003C6F8E41325F802CFBD42FBD150
S315080013804FF0641240F2DC517F48C6F8F023C6F8E5
S31508001390FC23C6F80424C6F80824C6F81424C6F89C
S315080013A01C24C6F87C04794A79487A4BC6E9FA229D
S315080013B0C6F8F823C6F80024C6F80C24C6F818247C
S315080013C0C6F81004744A7548754DDFF8E8E1A6F8C2
S315080013D08014A6F86C14C6F86034C6F86434C6F8E7
S315080013E03C34C6F84034C6F84C34C6F85034C6F80F
S315080013F0F453C6F82024C6F82424C6F82824C6F8C8
S315080014002C24C6F83024C6F83424C6F83824C6F87E
S315080014104404C6F848040EF14008C6F8543406F5E4
S31508001420507CA6F86E1475460FCD4545CCF80000DD
S31508001430CCF80410CCF80820CCF80C300EF1100EBD
S315080014400CF1100CEFD108AB0120009304AA06ABEF
S3150800145002A908F0B5FC00230499C6F85433C6F867
S315080014605833C6F85C33089B4FF08042C6F84813D9
S31508001470C6F840330799039BC6F86413C6F86C335D
S315080014804FF6FF713B464748DDF818C0029DC6F87F
S315080014907423C6F87823C6F87C03099A0598C6F813
S315080014A06023C6F844C3C6F84C53C6F8680306F268
S315080014B0AA4223F8021F9342FBD14FF0000C0A25DB
S315080014C0394B3A4886F882C386F8B054C6F8AC3425
S315080014D04FF4A071052200F10C0506F5966306F295
S315080014E0C44C03E010F9012F35F8021F23F8022F28
S315080014F063459982F6D10A2200234FF6FF7186F8D2
S31508001500DA24A6F8803334F8023F8B4205D0B6F8C1
S3150800151080239A4238BFA6F88033BC42F3D1002311
S315080015200127234CDFF890C044FA03F2D20711D5FD
S3150800153013F80C2006EB4201B1F88E04B1F8965365
S31508001540013A85421CBF921982F8B473A1F8960332
S3150800155086F8C87301331E2BE6D1012106F2B33390
S3150800156006F2C13203F8011F9342FBD196F8C8333D
S3150800157013B90AB0BDE8F0873046FEF789FF0AB00E
S31508001580BDE8F0879CFC0008DC05DC053075307585
S3150800159030756400701770172C012C0108070807AE
S315080015A0640030750000104130750005F4FC000831
S315080015B0EF791200B4FC000830FE0008F0B40021F0
S315080015C00022002347F230564FF6FF7400F5A06755
S315080015D080F8C413A0F8C2130D46C7E9002300F229
S315080015E0B231C0E9E223C0E9E423A0F8C66300F2F9
S315080015F0963300F2B33223F8024F8B4202F8015FAA
S31508001600F9D14FF4CC03F0BCC0F8C833704700BF1B
S315080016102DE9F04F2DED048B87B0DDF854B0029319
S3150800162091B3002382460E4614460125DFED928AC1
S315080016309FED928A9FED929A924F01932279531EBB
S31508001640DBB247FA03F1C90733D51D2B31D89AF80F
S31508001650DC14D4ED007A01291BD01B3A032A1BD9C6
S315080016609BF9002023320FD0012202FA03F3019AD4
S3150800167013422DD0F3238BF800302B469E4204F1FB
S31508001680080405F10105D9DC07B0BDEC048BBDE8FB
S31508001690F08F163A032AE3D8F4EE487AF1EE10FAF8
S315080016A0DED0DD238BF8003007B0BDEC048BBDE837
S315080016B0F08F2B460A229E428BF8002004F108047C
S315080016C005F10105BADC07B0BDEC048BBDE8F08F67
S315080016D088EEA77AF8FE477AFCEEE77A17EE902AA4
S315080016E0019992B21943104691460392019109F065
S315080016F021F85FA3D3E9002309F096F841EC100B13
S31508001700BAF8AC8408F03EFA51EC100B09F026FB47
S315080017104A4680B2131A9BB29845D4ED007A50D93E
S3150800172013189BB298454CD2F5EE407AF1EE10FAB2
S3150800173040F08280F6238BF80030D4ED007AF5EE7F
S31508001740407AF1EE10FAB0EE677A75D1B5EEC07A46
S31508001750F1EE10FA3CDDB4EEC87AF1EE10FA37D5A0
S31508001760227949490AF1A8030A4412F8012CCDE95D
S31508001770045403EB42031D46039C0AEB4209B9F8DD
S31508001780E68309F11C09404608F0D4FF38A3D3E9DB
S31508001790002309F049F841EC100B08F0F3F951EC75
S315080017A0100B09F0DBFA80B2A8EB00039BB2804469
S315080017B09C421FFA88F828D3444526D8DDE9045404
S315080017C010E0F4EE487AF1EE10FA27D1B0EE677A17
S315080017D0B5EE407AF1EE10FA14BF4FF0FF3300234E
S315080017E09BB203939BF90030002BFFF646AF237993
S315080017F0254A0399134413F8013C149A03F100434C
S31508001800013B22F813102B4638E74D45B7D1F42390
S31508001810DDE904548BF800302B462FE7029B002B9A
S3150800182082D1039BB3F5E16F3FF47EAF0E238BF8AD
S315080018300030D4ED007A77E7F4EE487AF1EE10FA44
S31508001840C4D0B2EE047AF4EEC77AF1EE10FA07DCE9
S31508001850F4EEC97AF1EE10FA02D4B0EE677A75E7BB
S31508001860F2238BF8003094ED007A6FE7AFF300802F
S315080018707B14AE47E17A843F0000C84200FF7F47E9
S315080018800E74DA3AEF79120030FE00082DE9F043BB
S31508001890DDF81CC0D9B100264FF0010E1F4FDFF846
S315080018A0808002F108056C79621ED2B2172A47FABF
S315080018B002F90ED819F0010F0EFA02F209D01A42EF
S315080018C0444443EA020309D0FA238CF80030BDE801
S315080018D0F083FF238CF80030BDE8F08314F8012C60
S315080018E0D5ED007A00EB820292EDCF7AF4EEC77A54
S315080018F0F1EE10FA0AD492EDD77AF4EEC77AF1EE41
S3150800190010FA06F1010605F1100503DDFE238CF831
S315080019100030DCE78E42C6D1D9E700BF0F20E000D1
S3150800192064FD0008F0B50C46002189B00E9E172C00
S31508001930316003D8DB221A7009B0F0BD944203D98E
S31508001940DA221A7009B0F0BD05460278A9788DF832
S315080019500C204078EA788DF80E108DF80D008DF879
S315080019600F20039A2C498A4205D0013203D0DE2281
S315080019701A7009B0F0BD294606AF3A4651F8040F69
S315080019800DF1100C49688CE8030003C2DDE9040177
S31508001990002908BF3D2807D0002908BFB0F1FF3F3E
S315080019A002D0DD221A70C7E72A7BA97B8DF80C20A6
S315080019B0687BEA7B8DF80D008DF80F208DF80E10E8
S315080019C0039901F11802A24202D0D8221A70B3E78D
S315080019D0103102AA28462C44019308F06DF914F830
S315080019E0042C9DF80810019B914202D0DC221A7043
S315080019F0A2E79DF8091014F8032C9142F6D114F8C1
S31508001A00022C002AF2D114F8012C002AEED110215A
S31508001A1031601A7090E700BF000106022DE9F04711
S31508001A2086B005AB04AECDE9003604460DF10F03CA
S31508001A30FE200D4608F05AF89DF90F00002869D1D6
S31508001A404FF0010A04F2C64904F2B24804F2AF475D
S31508001A505FFA8AF3013B0C2B00F2B080DFE803F053
S31508001A60A7A099928B847D76706A645D07003146DB
S31508001A70284605F07BFE84F8DB040AF1010ABAF170
S31508001A800F0FE5D19DF90F00002843D14FF6FF76D9
S31508001A90A4F8800304F2E63304F28E4533F8022FE5
S31508001AA0B24205D0B4F88013914238BFA4F8802317
S31508001AB09D42F3D100234FF0010C444EDFF810E1AC
S31508001AC046FA03F2D20711D513F80E2004EB4201A9
S31508001AD0B1F88E54B1F89673013AAF421CBF121989
S31508001AE082F8B4C3A1F8965384F8C8C301331E2BF1
S31508001AF0E6D1012104F2B33304F2C13203F8011F1F
S31508001B009342FBD194F8C83323B12046FEF7C0FCB4
S31508001B109DF90F0006B0BDE8F0873146284605F066
S31508001B2025FE84F8DA04A8E74A463146284605F031
S31508001B302BFFA2E742463146284605F025FF9CE7DB
S31508001B403A463146284605F0A5FD96E73146284629
S31508001B5005F00CFE84F8AE048FE73146284605F0FA
S31508001B6073FDA4F8AC0488E73146284604F592626A
S31508001B7005F0BCFE81E73146284604F57A7205F081
S31508001B8073FE7AE73146284604F5747205F042FE7C
S31508001B9073E73146284605F0E9FD84F8CE036CE77D
S31508001BA03146284605F0E2FD84F8CD0365E731465F
S31508001BB0284605F0DBFD84F8CC035EE73146284667
S31508001BC005F0D4FD84F8DC0457E700BFEF7912006E
S31508001BD030FE0008032906D98378FE2B0CBF0020A7
S31508001BE06FF0630070476FF06700704700000000F1
S31508001BF02DE9F04F00224FF0090BDFED205A9FED3B
S31508001C00206ADFED206AB1EE047ADFED1F7A4FF025
S31508001C10FF346FF00045DFF880A0DFF88090DFF82A
S31508001C208080DFF880E0DFF880C0184F184E194929
S31508001C30C0ED015A80ED046AC0ED056A80ED067AAA
S31508001C40C0ED097AC0E9164580F800B0C0F828A0AA
S31508001C50C0F82C90C0F83880C0F83CE0C0F840C006
S31508001C60C764066501668260C260C2610262026379
S31508001C70426342648264BDE8F08F00BF07F0963D78
S31508001C801C7CE13D3480D73FCDCC0C3E5DFEE33E67
S31508001C90363C85BF0000404067D5273EE63F4CC02E
S31508001CA091ED3CBFFB3A403FB15083402DE9F047E8
S31508001CB086B004AB05AE04460078CDE900360DF1D2
S31508001CC00F030D4607F012FF9DF90F00E0B94FF01C
S31508001CD0010A04F1400904F12C0804F118075FFA17
S31508001CE08AF3013B032B24D8DFE803F01D17110202
S31508001CF04A463146284605F0EDFE0AF1010ABAF1D0
S31508001D00060FECD19DF90F0006B0BDE8F0874246F4
S31508001D103146284605F0DEFEEFE73A4631462846C4
S31508001D2005F0D8FEE9E731462846221D05F0D2FE21
S31508001D30E3E73146284605F0E1FC84ED180ADCE7BE
S31508001D402DE9F0432DED048B83B0BDF840400546E0
S31508001D50DDE90E89B4F5E16F17461E46B0EE408AF6
S31508001D60F0EE608A6BD028D941F270739C422ED06F
S31508001D7047F230539C4208BF012408D1D5E9160121
S31508001D804FF0FF326FF0004308F048F808B39FEDB4
S31508001D90309A4FF0FF326FF000433846314608F06C
S31508001DA03DF808B9C5E9167638EE490A30EE680AEC
S31508001DB003B0BDEC048BBDE8F083642C05D0B4F504
S31508001DC0967F08BF0424D9D0E1E70524D6E7022484
S31508001DD0D4E7D5E91601B8EB000069EB010108F074
S31508001DE0F5FC19A3D3E9002308F048FE0B46024682
S31508001DF0CDE9002308F0D2FFDDE9002305EB8404D2
S31508001E0007EE900AD4ED009A94ED057A67EEA99A42
S31508001E1094ED0A9A1046194627EE899A79EE879A1A
S31508001E2008F002FD08F0BAFF07EE900A94ED0F7A63
S31508001E3079EE277A77EE877A89EEA79AA9E790ED61
S31508001E40189AA6E7AFF300800000000065CDCD41E3
S31508001E50000000002DE9F047052482B007469046A9
S31508001E6000780DF103020D468DF8034007F060FE79
S31508001E709DF80360019036B3012407F1400A07F183
S31508001E802C09E3B2013B042B0BD8DFE803F0311031
S31508001E902A2303004146284697ED180A01AA05F0A9
S31508001EA045FCA64204F101030CD01C46E9E701AB48
S31508001EB04246294607F1180005F0A8FDA64204F196
S31508001EC00103F2D10198C0F3072328706B7002B0A2
S31508001ED0BDE8F08742462946504601AB05F096FD17
S31508001EE0DFE742462946484601AB05F08FFDD8E7AD
S31508001EF04246294601AB381D05F088FDD1E700BFEB
S31508001F002DE9F043012485B08046914600780DF10D
S31508001F100B020E468DF80B4007F00AFE9DF80B5093
S31508001F20039035B1002403AF54B10134A542FBD167
S31508001F300398C0F307233070737005B0BDE8F083CB
S31508001F40D8E916014B463246009705F03DFCECE70A
S31508001F5070B586B004AB05AE04460078CDE9003608
S31508001F600DF10F030D4607F0C1FD9DF90F0008B1ED
S31508001F7006B070BD3146284605F00AFCC4E91601CC
S31508001F809DF90F0006B070BD51EC100BC1F30A5352
S31508001F902DE9F041A3F2FF350C460646132D34DC35
S31508001FA0002D20DB364B0F4643FA05F801EA0803F5
S31508001FB003432FD030A3D3E9002308F07FFA002289
S31508001FC0002308F0C1FE40B1002C03DD4FF4801356
S31508001FD02B411F4427EA080400262346324643ECD1
S31508001FE0102BBDE8F08124A3D3E9002308F066FA94
S31508001FF00022002308F0A8FE0028EED0002C36DBCD
S315080020003443E9D000261F4CE7E7332D06DDB5F546
S31508002010806F25D041EC100BBDE8F081A3F2134385
S315080020204FF0FF37DF403842F4D013A3D3E900233B
S3150800203008F044FA0022002308F086FE0028CCD0D7
S31508002040002C334609DD142D06D0C5F134050122CE
S31508002050AA4013449E4200D9013423EA0706BCE786
S3150800206002460B4608F02AFA41EC100BD4E7002684
S315080020704FF00044B1E700BF9C7500883CE4377E0A
S31508002080FFFF0F000000F03F51EC100BC1F30A539D
S315080020902DE9F041A3F2FF350C460646132D32DC36
S315080020A0002D20DB384B0F4643FA05F801EA0803F2
S315080020B003432DD032A3D3E9002308F0FFF9002209
S315080020C0002308F041FE40B1002C03DA4FF48013D8
S315080020D02B411F4427EA080400262346324643ECD0
S315080020E0102BBDE8F08126A3D3E9002308F0E6F912
S315080020F00022002308F028FE0028EED0002C2ADB58
S3150800210000263446E9E7332D06DDB5F5806F1BD08A
S3150800211041EC100BBDE8F081A3F213434FF0FF37F3
S31508002120DF400742F4D016A3D3E9002308F0C6F926
S315080021300022002308F008FE0028CED0002C3346E3
S3150800214010DB23EA0706C8E702460B4608F0B6F98D
S3150800215041EC100BDEE724F0004426430DD14FF086
S315080021600044BAE7142D06D0C5F134050122AA4069
S315080021701344B342E5D20134E3E70026034CACE747
S315080021809C7500883CE4377EFFFF0F000000F0BF17
S315080021900348044B834202D0034B03B118477047E8
S315080021A0101A0020101A002000000000064B0749EC
S315080021B0C91A891048BF0131491003D0044B0BB125
S315080021C001481847704700BF101A0020101A00204F
S315080021D00000000010B5064C237843B9FFF7D8FF76
S315080021E0044B13B10448AFF300800123237010BDDC
S315080021F050190020000000009004010808B5054B9E
S315080022001BB105490548AFF30080BDE80840FFF754
S31508002210CDBF00BF0000000068160020900401082A
S31508002220A3F5803A704700BF174B002B08BF134B26
S315080022309D46FFF7F5FF00218B460F461348144AC3
S31508002240121A0CF018FB0E4B002B00D098470D4BBA
S31508002250002B00D098470020002104000D000D48EF
S31508002260002802D00C48AFF3008009F0DBF9200003
S3150800227029000BF04FFC09F005F900BF0000080023
S3150800228000000000000000000010002000100020E0
S315080022909819002000000000000000000348044AC6
S315080022A00449121A92100BF0B1BB00BF7C0100085A
S315080022B07C0100089819002008B5154B83F30A8895
S315080022C000F030F8FFF7EAFF124B13498B4212D39E
S315080022D00020124B12498B4218D3FFF7A5FF186846
S315080022E050F82240586840F82240013298688242E5
S315080022F0F5D30C33EAE70022F8E71C6844F8220015
S3150800230001325C68A242F8D30833E4E70022F8E712
S315080023100000002098040108A4040108A404010888
S31508002320A40401084FF48041124B134A70B59A6011
S31508002330D3F88820114D42F47002C3F88820104A59
S3150800234005F5005491664FF0FF3222660D4A626623
S315080023500222C3F8D020BFF34F8FBFF36F8F4FF41D
S315080023604036002001F004FC0020E66001F0CEFBB8
S315080023702E6170BD00ED00E00000000800800044FA
S31508002380009000507FFF7F03014B1860704700BF25
S315080023909C1900202DE9F04104460C254FF0010850
S315080023A0124E0CB314F001000BD0002024F00104E7
S315080023B005FB00625768002FF3D09168C0B2B84792
S315080023C0EFE72246013020284FEA520201D0D30710
S315080023D0F8D508FA00F20F2824EA0204E8D91038DA
S315080023E005FB0062B432E5E7BDE8F08180160020FF
S315080023F008B50C480CF06FFD1A2001F0A1FB28B1B6
S315080024001A2001F0B5FB1A2001F080FB1B2001F011
S3150800241097FB28B11B2001F0ABFB1B2001F076FBD4
S31508002420002008BD5CF3000808B501F065FA054B05
S3150800243000F0553020F0A040C3F82004BDE808405D
S31508002440FFF7A8BF00E0035008B501F055FA054BA1
S3150800245000F0AA3020F02040C3F82004BDE8084068
S31508002460FFF798BF00E00350044BD3F88420D20648
S31508002470FBD4D3F88400C0F38110704700400050A5
S3150800248038B5104B0546D3F800310C4603F0030364
S31508002490022B0BD0032B0DD0012B0FD10CF07AFC9D
S315080024A0032305B1286004B1236038BD0CF0C4FCD1
S315080024B00923F6E70CF074FC0823F2E70123002051
S315080024C0EFE700BF0080005038B5104B0546D3F83B
S315080024D040310C4603F00303022B0BD0032B0DD01F
S315080024E0012B0FD10CF0ECFC0A2305B1286004B1CE
S315080024F0236038BD0CF0A0FC0923F6E70CF0E3FCDA
S315080025000B23F2E701230020EFE700BF008000500D
S3150800251038B5104B0546D3F860310C4603F0030373
S31508002520022B0BD0032B0DD0012B0FD10CF0C8FCBE
S315080025300A2305B1286004B1236038BD0CF07CFC81
S315080025400923F6E70CF0BFFC0B23F2E70123002072
S31508002550EFE700BF0080005038B5104B0546D3F8AA
S3150800256040320C4603F00303022B0BD0032B0DD08D
S31508002570012B0FD10CF0A4FC0A2305B1286004B185
S31508002580236038BD0CF058FC0923F6E70CF09BFCD9
S315080025900B23F2E701230020EFE700BF008000507D
S315080025A038B5124B0546D3F880300C4603F00303C2
S315080025B0022B0BD0032B0DD0012B0FD10CF0B0FB47
S315080025C00D2305B1286004B1236038BD0CF0ECFB7F
S315080025D00723F6E70CF09EFB0623F2E7044841F2D0
S315080025E014210BF005FA00231846EAE7008000508C
S315080025F0D8EF000838B51A4B0546D3F820010C4623
S3150800260000F00700062821D8DFE800F028040C149B
S3150800261010181C000CF07EFB052305B1286004B1D8
S31508002620236038BD0CF0B6FB0323F6E70CF0BCFBC1
S315080026300723F2E70CF0AAFB0223EEE70CF06AFB8D
S315080026400623EAE70CF0A6FB0423E6E7054841F271
S3150800265091210BF0CDF900231846DEE70123DCE7CC
S3150800266000800050D8EF000838B5194B0546D3F856
S3150800267028310C4603F00703013B052B20D8DFE879
S3150800268003F003131B0F0B170CF044FB052305B1CE
S31508002690286004B1236038BD0CF03CFB0623F6E73E
S315080026A00CF082FB0723F2E70CF074FB0323EEE73A
S315080026B00CF070FB0423EAE70CF068FB0223E6E75C
S315080026C0044841F299010BF093F900231846DEE716
S315080026D000800050D8EF0008002337B50193194B46
S315080026E00546D3F820320C4603F00703042B1FD8FF
S315080026F0DFE803F025030F141900002101A8FFF7EE
S31508002700B3FF11230DB1019A2A6004B1236003B007
S3150800271030BD0CF049FB07230190F3E70CF0D0FB22
S315080027200A230190EEE70CF087FB09230190E9E7FD
S3150800273041F2560104480BF05BF90023E2E7012356
S31508002740E0E700BF00800050D8EF0008F7B5002783
S31508002750144B0197D3F88041064604F00304022C73
S315080027600D4614D0032C0DD0012C14D1394601A8DE
S31508002770FFF740FF0F240EB1019B336005B12C60B3
S3150800278003B0F0BD0CF010FB07240190F3E70CF042
S31508002790FDFA0190EFE741F2E63103480BF028F91C
S315080027A03C46E8E700800050D8EF000838B5164BDD
S315080027B00546D3F800020C4600F00700042819D88D
S315080027C0DFE800F020030B0F13000CF079FB0A2357
S315080027D005B1286004B1236038BD0CF02DFB092330
S315080027E0F6E70CF070FB0B23F2E70CF0B9FA0E23B0
S315080027F0800AEDE7054841F2A4410BF0F9F80023F9
S315080028001846E5E70123E3E700800050D8EF000803
S3150800281038B5164B0546D3F808020C4600F00700F3
S31508002820042819D8DFE800F020030B0F13000CF07A
S3150800283047FB0A2305B1286004B1236038BD0CF0B4
S31508002840FBFA0923F6E70CF03EFB0B23F2E70CF044
S3150800285087FA0E23800AEDE7054841F2DC410BF0C2
S31508002860C7F800231846E5E70123E3E70080005090
S31508002870D8EF000838B5124B0546D3F850320C4647
S3150800288003F00303022B0FD0032B05D0012B0FD126
S315080028900CF016FB0A2302E00CF015FB0B2305B11E
S315080028A0286004B1236038BD0CF0C6FA0923F6E7A0
S315080028B0044841F2C9010BF09BF800231846EEE7DD
S315080028C000800050D8EF0008002337B50193184B55
S315080028D00546D3F860320C4603F00703013B032B89
S315080028E01FD8DFE803F0020E1914002101A8FFF72C
S315080028F081FE0F230DB1019A2A6004B1236003B04B
S3150800290030BD002101A8FFF7DFFD1023F2E70CF028
S315080029104BFA07230190EDE70CF038FA02230190F1
S31508002920E8E741F2FD0103480BF062F80023E1E70E
S3150800293000800050D8EF000873B500240F4B0194AF
S31508002940D3F87032064603F00303012B0D4607D071
S31508002950022B11D041F25B1109480BF049F804E04B
S31508002960214601A8FFF7B0FD10240EB1019B336084
S3150800297005B12C6002B070BD1424F6E70080005043
S31508002980D8EF000838B50F4B0546D3F890320C46F9
S3150800299003F00303012B09D0022B0BD10CF004FA28
S315080029A0072305B1286004B1236038BD0CF0EEF9A1
S315080029B00223F6E7044841F285110BF019F80023C3
S315080029C01846EEE700800050D8EF000808B5334BEC
S315080029D098424FD027D8324B984245D017D8314B1A
S315080029E098423ED00AD838B12F4B984239D041F296
S315080029F0BB312E480AF0FCFF002034E02C4B9842ED
S31508002A002FD02C4B9842F2D12B4B586E2BE02B4BE8
S31508002A1098422CD003F5371303F5D8639842E6D1CC
S31508002A20254B986F1FE0264B98422FD00CD8254B84
S31508002A30984223D0244B984224D0244B9842D6D18E
S31508002A401D4BD3F884000EE0214B984222D003F5A3
S31508002A50740303F510539842C9D1174BD3F898005D
S31508002A6001E0154B986D08BD134B186FFBE7124B29
S31508002A70586FF8E7104BD3F88000F4E70E4BD3F8FD
S31508002A808800F0E70C4BD3F88C00ECE70A4BD3F838
S31508002A909000E8E7084BD3F89400E4E780BA8C0185
S31508002AA0405DC60080841E0040420F00D8EF000833
S31508002AB000093D00C0CF6A000080E00F0024F40042
S31508002AC0007E560380D54302006CDC020048E8010C
S31508002AD00090D003B0F5207F10B52ED009D8B0F5F8
S31508002AE0007F24D003D868B1B0F5C07F0AD000248F
S31508002AF01BE0B0F5607FFAD1124BD3F88040C4F3DF
S31508002B00011412E00F4B1C6F230B13F00E0FC4F3C6
S31508002B1003340AD0072C08D00F2C06D0032C04D077
S31508002B204FF4227108480AF063FF601C10BD054B7C
S31508002B30D3F89040C4F30464F7E7024B1C6FC4F360
S31508002B408024F2E700800050D8EF00084FF4803266
S31508002B5038B5104B04469A6600200D46FFF7BAFFB3
S31508002B6041F671320C4B6043DC69DA635A6804F447
S31508002B70803422F440125DB90849884294BF002087
S31508002B800120000502435A600CB10022DA6338BD01
S31508002B900349F2E70090005000000350005A620211
S31508002BA0002D310138B5430904460D460ED140F2D1
S31508002BB035310D480AF01CFF002304F01F0485B1C7
S31508002BC003F580530122A2401A6038BD012B04D0B8
S31508002BD0022B04D040F24331EBE7044BEDE7044BFC
S31508002BE0EBE703F50053EDE7D8EF000864800050E3
S31508002BF068800050002130B5B0F5807F85B0044666
S31508002C00CDE9001100F007816BD8002800F0DC80C0
S31508002C10A0F12004602C75D8602C73D8DFE814F076
S31508002C20D400E100D400E100F100F100F100F10068
S31508002C30F100E100F6007E00A1000C017E00E10033
S31508002C40E100E10072007200720072007200720008
S31508002C507200A100E100E100E10029011601E1008E
S31508002C6072007200720072007200720072007200C6
S31508002C7072007200720072001B01F100D400D400C9
S31508002C80D40011017E007E002001BE009300C90019
S31508002C90C90072007200720072007200720072003F
S31508002CA07200720072007200720072007200720086
S31508002CB07200720072007200720072007200720076
S31508002CC07200720072007200720072007200720066
S31508002CD07200720072007200720072007200720056
S31508002CE0CE00B0F5F06F00F0C4803FD8B0F5607F35
S31508002CF000F082801DD8B0F5007F68D008D8B0F5FE
S31508002D00C07F61D040F2A4415C480AF071FE58E0E9
S31508002D10B0F5207F65D0B0F5407FF3D10CF020F8F0
S31508002D2004464FF42070FFF7D5FEB4FBF0F46408B0
S31508002D3060E0B0F5B06F69D00AD8B0F5806F60D0A2
S31508002D40B0F5A06FDED100216846FFF7C5FC38E074
S31508002D50B0F5D06F70D0B0F5E06F77D0B0F5C06F32
S31508002D60D0D100216846FFF7AFFB2AE0B0F5206F07
S31508002D7076D00CD8B0F5106F63D0B0F5186F6AD05E
S31508002D80B0F5086FBED16846FFF77AFB19E0B0F5D3
S31508002D90306F6AD007D8B0F5286FB3D100216846DE
S31508002DA0FFF7CAFD0DE0B0F5386FDAD0B0F5406F21
S31508002DB0A8D100216846FFF757FC02E00BF0B0FFE8
S31508002DC00090009805B030BD0BF0CAFFF8E70BF08D
S31508002DD0A7FF05462046FFF77DFEB5FBF0F50095F3
S31508002DE0EFE70BF0BDFF04464FF42070FFF772FEC5
S31508002DF0B4FBF0F40094E4E701A8FFF7D1FB019DCA
S31508002E00E8E700216846FFF7F5FBDAE700216846A0
S31508002E10FFF79CFCD5E74FF0E02302911B695B079F
S31508002E2005D50BF09DFF0290029B0093C9E703A905
S31508002E3002A8FFF749FBF7E700216846FFF7B6FC4B
S31508002E40BFE700216846FFF7E3FCBAE700216846BA
S31508002E50FFF782FBB5E700216846FFF70BFDB0E7F1
S31508002E6000216846FFF730FDABE76846FFF78AFDA5
S31508002E70A7E700216846FFF74BFBA2E7D8EF000853
S31508002E8008B58020FFF7B6FE034B98429EBF4FF465
S31508002E908032024B1A6708BD005A620200A0005031
S31508002EA01FB503460020B3F5607F019000F0FC8053
S31508002EB07BD8582B68D8382B05D8243B092B49D9F9
S31508002EC040F28951D1E0393B1F2BF9D801A252F8BB
S31508002ED023F000BF8D300008C12E0008C12E00085F
S31508002EE0C12E000897300008BB300008C12E000824
S31508002EF0C12E0008C12E0008C12E0008C12E0008E8
S31508002F00C12E0008C12E0008C12E0008C12E0008D7
S31508002F10C12E0008C12E0008C12E0008C12E0008C7
S31508002F20C5300008CF2F0008C12E0008C12E0008A2
S31508002F30C12E000813300008C12E0008C12E000853
S31508002F40CF300008D9300008B13000083530000805
S31508002F5035300008092BB3D801A252F823F000BF78
S31508002F60CF2F0008CF2F0008CF2F0008CF2F00083B
S31508002F70CF2F0008C12E000873300008C12E0008A4
S31508002F808D300008ED2F0008802B58D0B3F5807FD0
S31508002F9096D14FF0E02302901B695B0771D50BF0C1
S31508002FA0DFFE0C230393039B55E0B3F5086F77D038
S31508002FB021D8B3F5C06F69D00ED8B3F5A06F77D016
S31508002FC0B3F5B06F55D0B3F5806F7FF479AF0020B5
S31508002FD001A9FFF70FFB50E0B3F5E06F6DD0B3F52D
S31508002FE0F06F58D0B3F5D06F7FF46AAF002001A90F
S31508002FF0FFF7DCFB41E0B3F5286F6DD00ED8B3F5CB
S31508003000186F5FD0B3F5206F61D0B3F5106F7FF4FA
S3150800301057AF002001A9FFF7FBFB2EE0B3F5306F91
S315080030205FD0FFF44DAFB3F5386F2FD0B3F5406FCF
S315080030307FF446AF002001A9FFF716FB1DE02B4BD6
S315080030401B6F03F00703013B032B0CD8DFE803F0E3
S3150800305009020507052301930FE00323FBE708236D
S31508003060F9E70223F7E740F2D64121480AF0C0FC07
S3150800307003E0002001A9FFF769FB019805B05DF898
S3150800308004FB03A902A8FFF71FFA8CE7002001A991
S31508003090FFF71AFAF1E7002001A9FFF739FAECE77A
S315080030A001A9FFF7EDF9E8E701A9FFF779FAE4E7DF
S315080030B0002001A9FFF710FBDFE7002001A9FFF7B1
S315080030C04BFADAE7002001A9FFF7D4FBD5E7002081
S315080030D001A9FFF7F9FBD0E7002001A9FFF72CFCAF
S315080030E0CBE701A9FFF74EFCC7E700BF00800050F9
S315080030F0D8EF00084FF48032074B0849586E03F59D
S3150800310080535A664B6A23F001034B62C3035CBFC4
S31508003110034B5A66704700BF0080005000C0075036
S3150800312000A00050B0F5207F38B577D00ED8B0F59E
S31508003130007F61D003D890B3B0F5C07F2FD04FF48D
S315080031404671BDE838403D480AF052BCB0F5607F8C
S31508003150F5D13B4A4C1ED2F8FC5015F080751EBFBF
S31508003160D2F8FC3023F08073C2F8FC30032C04D963
S3150800317040F2F72131480AF03BFC324AD2F8803057
S3150800318023F0300343EA0413C2F8803035B12C4AE1
S31508003190D2F8FC3043F08073C2F8FC3038BD4C1EC0
S315080031A0012C0AD9102903D8274BCB40DB0704D4B6
S315080031B040F2CB2121480AF01BFC0AF034FC0AF045
S315080031C040FC4FF48031214B1E4A1967136F23F4D4
S315080031D0704343EA043313670BF0C2FD0446FFF756
S315080031E043F9C0F1020120460AF025FC00F048F830
S315080031F0BDE83840FFF744BE4C1E1F2C04D94FF4D7
S3150800320043710E480AF0F4FB0E4AD2F8903023F0C8
S31508003210F85343EA0463C2F89030BFE74C1E012C0A
S3150800322004D940F2123105480AF0E2FB054A136F49
S3150800323023F4806343EA84231367AFE7D8EF0008D3
S3150800324000ED00E0008000501001010000900050E1
S3150800325008B50121022000F099F94FF42070FFF714
S3150800326039FC054B18700AF0DEFB0AF0EAFB4FF44E
S315080032708032024B1A6708BD511900200090005091
S3150800328008B54FF4C070FFF7B5FCBDE8084004491F
S31508003290884294BF012102214FF42070FFF742BFF4
S315080032A080F0FA0238B504460BF05AFD0546FFF7DA
S315080032B0DBF8C0F1020128460AF0BDFB0121002017
S315080032C000F0B8F92CB1FFF7DBFFBDE83840FFF78F
S315080032D0D7BD034B4FF420701978FFF723FFF4E7A7
S315080032E0511900202DE9F0410546FFF76FFB431EF3
S315080032F00333044604D940F6E2113B480AF078FB4A
S315080033004FF4C022394B5A6603F598335A68012A96
S3150800331004D137494A605A689207FCD48020FFF7DF
S31508003320BFFD052807D10AF07EFB0AF08AFB4FF499
S3150800333080322E4B1A672F4B24F040749D4239D0A9
S315080033402D4B9D4239D00BF0E5FC8542064603D944
S315080033500121284600F06EF9284FFB6813F0060F86
S31508003360FBD1D7F80880BC60BB68634013F4F81F2C
S3150800337026D12846FFF708F88020FFF791FD052893
S3150800338014D10BF0EDFCA842044604D940F63B21C3
S3150800339015480AF02DFBFFF767F8C0F10201204631
S315080033A00AF049FBFFF76CFFFFF76AFDAE4213D23E
S315080033B0BDE8F08144F00074C5E744F08074C2E7C4
S315080033C040F62A2108480AF013FB8020C7F808802F
S315080033D0FFF766FD052805D0BDE8F041012100206C
S315080033E000F028B93546CCE7D8EF00080090005021
S315080033F000E0015040420F0080841E00000001508A
S315080034004E4B70B59842054673D041D8A3F5B7031D
S31508003410A3F55863984265D033D8494B494E98422C
S3150800342051D017D8002877D041F2DE1146480AF065
S31508003430DFFA40F6867144480AF0DAFA4FF40022B9
S31508003440404B5A663E4B9D4276D000243F4A9542F1
S3150800345036D05DE03D4B984227D03D4B9842E3D1AC
S315080034603C4BD3F8A040621E033224F040744CD97A
S3150800347040F6867134480AF0BBFA4FF400237366A7
S31508003480E4E7354B9842CFD1324BD3F8BC402CE019
S31508003490324B984231D0324B984232D0314B984217
S315080034A0C2D12C4BD3F8C8401FE02A4BD3F8A04012
S315080034B0621E033224F04074DAD84FF40023736690
S315080034C044F0807424E0234BD3F8A040621E0332F4
S315080034D024F040742AD84FF400237366234643F039
S315080034E0007415E01B4BD3F8B840621E154E033224
S315080034F0BBE7184BD3F8C040F7E7164BD3F8CC40D8
S31508003500F3E7144BD3F8D040EFE74FF40023736684
S315080035104FF0B442946070BD40F686710A480AF0CE
S3150800352067FA4FF400232C467366F1E740F6867176
S3150800353005480AF05DFACEE70023D0E7C0EA210184
S3150800354040420F0000900050D8EF000880841E000B
S3150800355000093D000080E00F0024F4000048E8015F
S31508003560005A620280BA8C01024A536B0342FCD1AC
S31508003570704700BF00400950034A0179D36E23F013
S3150800358030030B43D366704700400050F8B5044635
S31508003590244BD3F88420D006FBD4D3F88430C3F365
S315080035A081139C423CD00BF0BBFB012C05460BD18A
S315080035B01D4B984204D940F29B711C480AF018FA30
S315080035C0012128460AF037FA0BF06BFC4FF000721F
S315080035D0174B07465A6620460AF038FA4FF48063B6
S315080035E0104E621E93403367736E9A0103D4D6F861
S315080035F084309B060AD538460BF04EFC022C0FD1B8
S315080036002846BDE8F84000210AF015BAD6F88430F5
S315080036109906E9D540F2B37104480AF0E9F9E3E7F7
S31508003620F8BD00BF00400050005A620247F000088B
S315080036300060005010B50C4608B90BF071FB074B3B
S3150800364021461B783BB1064B984204D80120BDE8B9
S315080036501040FFF79BBF0220F9E700BF5219002070
S31508003660005A62024FF0004238B5244B244C5A6681
S315080036704AF6CD33656C014605F00105236428BB7F
S315080036800120FFF771FF6368DB0715D51D4B5860EE
S3150800369008461D4B226BD2070CD4984208D1072442
S315080036A015B1174B194A1A640AF0D1F9204638BDE4
S315080036B00130EFE79842F2D00024F1E70132236B9C
S315080036C013F0080305D08A42F8D1E8E700220E492C
S315080036D0F5E78A42E3D020210A4A91620121A2F540
S315080036E0805251600649084A886A800603D4934284
S315080036F0D5D00133F8E79342DDE700BF00900050CC
S31508003700004009500060095040420F003254FFFF44
S315080037104FF0004238B5164B01465A664AF6CD3385
S31508003720144C154A656C236443780B205B0043F000
S315080037300103D363FFF718FF63688A7823F4F873E5
S3150800374043EA02136360CA784B7943EA0223A3600B
S315080037500A798B7943EA022323610878FFF782FF07
S31508003760EB0744BF054B23640AF071F9012038BD05
S315080037700090005000400950004000503254FFFFAE
S315080037800F2870B5044605D940F6746112480AF048
S315080037902FF90F244FF00042104B11495D6E03F5C7
S315080037A080535A664AF6CD334E6C80200B64FFF779
S315080037B0DBFE0B6A23F00F0323430B62F30744BFB8
S315080037C0084B0B64002DA2BF4FF00042064B5A6609
S315080037D00AF03DF970BD00BF47F0000800800050B0
S315080037E0004009503254FFFF00A00050032838B5A6
S315080037F004460D4605D8094B33F81030CB40DB0795
S3150800380004D440F2854106480AF0F2F83023012232
S315080038105C43044BAA401A5138BD00BFA4F1000806
S31508003820B6F0000840D00350032838B504460D46C4
S3150800383005D8094B33F81030CB40DB0704D440F2E7
S31508003840564106480AF0D4F8302301225C43044B5B
S31508003850AA401A5138BD00BFA4F10008B6F0000806
S3150800386040E0035003282DE9F04104460D4617466B
S31508003870984605D81D4B33F81030CB40DB0704D4E7
S315080038804FF4B0711A480AF0B3F837B12946204602
S31508003890B8F1000F20D0FFF7A9FF0F21072D04EB81
S315080038A0440688BFA5F108034FEA0616114895BFD6
S315080038B0AB009B0004360C3607FA03F299403044F5
S315080038C00AF0C6F87FB929462046B8F1000F06D097
S315080038D0BDE8F041FFF78ABFFFF7A6FFDDE7BDE8C1
S315080038E0F041FFF7A1BFBDE8F08100BFA4F10008D1
S315080038F033F1000830C00350034BD3F82424D3F81F
S3150800390020041040704700BF00C0035010B563483C
S315080039100BF0E1FA20B14FF44E7161480AF068F8ED
S315080039206048FFF7DFFC6048FFF76AFD5F480BF069
S31508003930D2FA20B140F2CB1159480AF059F85C4C3A
S31508003940FFF786FC236F002023F0070343F00203EA
S315080039502367FFF7A7FC236F564923F4744343F400
S3150800396080632367544BD3F8FC2012F080727CD115
S31508003970D4F8803023F0030343F00103C4F8803001
S31508003980C1F880204A4CD4F8203123F0070343F0CD
S315080039900103C4F82031D4F8283123F0070343F093
S315080039A00103C4F82831D4F8803123F0030343F027
S315080039B00103C4F88031D4F8903223F0030343F0AE
S315080039C00103C4F89032D4F8403123F0030343F0DE
S315080039D00103C4F84031D4F8603123F0030343F0FF
S315080039E00103C4F86031D4F8403223F0030343F0EE
S315080039F00103C4F84032D4F8003223F0070343F039
S31508003A000103C4F80032D4F8083223F0070343F060
S31508003A100103C4F80832D4F8503223F0030343F004
S31508003A200103C4F85032D4F8703223F0030343F08C
S31508003A300103C4F87032D4F8203223F0070343F0A8
S31508003A400103C4F82032FFF755FB4FF0E022136953
S31508003A50002043F004031361D4F8603223F007030F
S31508003A6043F00103C4F8603210BDD3F8FC2022F0FD
S31508003A708072C3F8FC20D4F8802022F0030242F0BA
S31508003A800102C4F880200022C1F88020D3F8FC2067
S31508003A9042F08072C3F8FC2074E700BF54F30008B4
S31508003AA0B8F2000800B4C404C0EA210158F30008BB
S31508003AB0008000500090005000ED00E007B5094B6B
S31508003AC018689A889B7900906846ADF804208DF8A6
S31508003AD00630FFF71DFE0920FFF752FE002003B04F
S31508003AE05DF804FB4DF3000813B50024064A684642
S31508003AF0536F43F00103536700948DF80440FFF7B2
S31508003B003BFD204602B010BD004000504F2810B5BE
S31508003B10044608D801236109074A04F01F04A34094
S31508003B2042F8213010BD4FF49971044809F060FF3E
S31508003B30002CF7DBEEE700BF00E100E060F30008C9
S31508003B404E2810B5044604D940F23D11064809F03E
S31508003B504FFF064B621153F8220004F01F04E040A1
S31508003B60C04300F0010010BD60F3000800E100E06A
S31508003B70002808DB01224309034900F01F008240A0
S31508003B80603341F82320704700E100E038B500F1C2
S31508003B9010035F2B04460D4604D94FF4F0710E4806
S31508003BA009F026FF0F2D04D940F2E1110A4809F061
S31508003BB01FFF60B20028ACBF00F16040074B4FEA18
S31508003BC00515EDB2ABBF00F5614000F00F0080F8B7
S31508003BD000531D5438BD00BF60F3000814ED00E023
S31508003BE010B50BF067F90A4B1A786AB901226FF01B
S31508003BF004041A700BF059F9204605210134FFF721
S31508003C00C5FF4F2CF8D110BDBDE810400BF04DB9DB
S31508003C10531900200346054A0549106803448B4298
S31508003C208CBF4FF0FF301360704700BFA819002003
S31508003C3000000420F0B5484D8DB001A804AC00F092
S31508003C407FFF0FCD0FC495E80F0084E80F00012110
S31508003C503A209DF80F709DF80E60FEF7A3FF01212C
S31508003C605720FEF79FFF0123042219460220FFF77B
S31508003C70F9FD0222012310460021FFF7F3FD374B19
S31508003C80374A3848C3F8FC240222C3F8F42414221D
S31508003C90C3F8E42400238DF810304FF4E13304A967
S31508003CA0069300F009FE05212E4800F0CBFB00F034
S31508003CB0BFFE00F015FF02460B462B4802F07CFBC0
S31508003CC032463946294807F093FCA7B1284D762194
S31508003CD0284601F0F7FE274B187095F9020002F006
S31508003CE05DF8044695F901000AF017FB21460246DD
S31508003CF0214807F07DFCEEB1002369211F488DF8A5
S31508003D0003308DF8103002F0C9F81D4B04AA18705C
S31508003D100DF1030119480AF0D2FB18480AF0C9FB4D
S31508003D2001F0C4FE9DF8103001469DF803201548A1
S31508003D3007F05EFC0C480AF00DFD04460A480AF036
S31508003D400EFD21460268104807F052FC0DB0BDE88A
S31508003D50F04002F011BC00BFF4F4000800C00350A4
S31508003D600200010000000A5000100020F9F30008C4
S31508003D70B8100020551900201CF40008A0100020D7
S31508003D805419002054F4000874F40008F0B58FB0F4
S31508003D902022002106A80AF06EFD00230593504B49
S31508003DA01B78002B60D04F4806A90AF069FB00284B
S31508003DB05AD0DFED4D6ADDED0A7A67EEA67AF5EEA2
S31508003DC0C07AB6EE007AF1EE10FAACBF77EE877AD3
S31508003DD077EEC77AFDEEE77A17EE902ADDED0B7AD5
S31508003DE067EEA67AF5EEC07AF1EE10FAACBF77EE7A
S31508003DF0877A77EEC77AFDEEE77ADFED3C6A17EE4B
S31508003E00900ADDED0C7A67EEA67AF5EEC07AF1EE49
S31508003E1010FAACBF77EE877A77EEC77AFDEEE77AC7
S31508003E204FF47A7717EE904A642594FBF7F690FBE1
S31508003E30F5F392FBF5F107FB164405FB130005FBAA
S31508003E401122002CB8BF64420028B8BF4042002A9D
S31508003E500090CDE901642648B8BF524207F0C8FB76
S31508003E60244806A90AF061FC234B1B7873B3234840
S31508003E7005A902F03BF848B3DDED057A9FED1B7AFC
S31508003E8067EE877AF5EEC07AB6EE007AF1EE10FAAA
S31508003E90ACBF77EE877A77EEC77AFDEEE77A4FF40E
S31508003EA07A7317EE902A92FBF3F103FB1122002A8C
S31508003EB0B8BF5242124807F09BFB00F011FE9DED79
S31508003EC0050A02460B460B480AF03CFC00F008FEC1
S31508003ED002460B4607480AF039FC0FB0F0BD00BF92
S31508003EE055190020B81000200000C84200007A4486
S31508003EF097F400080010002054190020A010002094
S31508003F00DAF40008B0F1B64F10B504460ED12E20EB
S31508003F10FEF770FEA3680B49C3F30123A269CB5CC5
S31508003F2002FB03330833B0FBF3F010BD064B98428F
S31508003F3001D12F20ECE70548DE2109F059FD0020C4
S31508003F40E8E700BF77F500080080065014F500087A
S31508003F50F8B506460F461546002A6AD003F003044C
S31508003F60836823F4407383600AF09BFFB26882EA91
S31508003F70042303F440735340B3600AF08DFF37B946
S31508003F80B6F1B64F0DD12E20FEF734FE0746B368BC
S31508003F909A0717D5012C1BD0022C27D064B9264BBB
S31508003FA017E0264B9E4201D12F20EDE740F22F1154
S31508003FB0234809F01DFDB3684FF4B271204809F093
S31508003FC017FD08E0012C13D0022CE7D11D4B00E0A9
S31508003FD01D4B9F42F0D91D4B1B5D6B430AD140F226
S31508003FE07511BDE8F840164809F002BD184BF0E710
S31508003FF0184BEEE7A3EBC504013C3C44B4FBF3F4D1
S31508004000013C0CD540F27B110D4809F0F1FC4FF448
S31508004010BE710B4809F0ECFCB368B461F8BDB4F5A1
S31508004020007FF4D2B3689B07F7D5002C08BF01249C
S31508004030F3E740F21511D4E780841E00008006508D
S3150800404014F50008002D3101404B4C0077F50008A7
S31508004050809FD50040548900B0F1B64F38B5044664
S315080040600D4607D0084B984204D040F295110748F0
S3150800407009F0BEFC043425B104F5805401232360FD
S3150800408038BD04F50054F9E70080065014F5000819
S31508004090B0F1B64F38B504460D4607D0124B9842D4
S315080040A004D04FF4D571114809F0A2FC0023104A38
S315080040B0236404F50053DA636A7804F108037AB9CD
S315080040C003F5805302221A602046D5E901122B7B9C
S315080040D0FFF73EFF20462978BDE83840FFF7BCBF0A
S315080040E003F50053EEE700BF0080065014F50008FC
S315080040F0FFFF1F00E023C360002383608361C36161
S315080041000362036443604369DB0506D4202300F594
S315080041100050C363024BC3637047436AF3E700BFAB
S31508004120FFFF1F00B0F1B64F70B50AD0824B984218
S315080041301DD0824840F2012109F05AFC6FF00300B5
S3150800414070BD7F4B9968C26B12F4C06F15D091058C
S315080041500FD5FD225A7009221A700022026493F9BB
S315080041600110012900D15A7093F90100E8E7754B4F
S31508004170E8E75605EFD5FE22ECE71C78082C00F296
S31508004180D680DFE814F009001F00450053007000D0
S315080041907E009C00A700CB004C880A88E5060AD555
S315080041A0120A02F0060242F0F00201211970426377
S315080041B0C1600120C4E702F0FE02A10748BF42F031
S315080041C00102F2E7160608D5802100F50052D163F0
S315080041D04FF608721A80022318E05506E9D54024DE
S315080041E000F50052D4634A88D40604D502221A7010
S315080041F00B784363DDE796076AD507221A701B79A1
S3150800420001EBC3031B89012BD3D10823C360D0E775
S315080042101506D9D45406CCD5402400F50052D463EB
S315080042204A88920754D503221A708CE74C880A8864
S31508004230E60643BF120A02F0060242F0F00202F056
S31508004240FE02650709D51C7942F0010201EBC4019B
S315080042500989012904BF0821C160042119700123B5
S31508004260C3604263A5E71406AED45206A1D540241E
S3150800427000F50052D4634A88560729D507221A70D2
S3150800428097E71A795D8801EBC2042689AE420FD8F2
S3150800429000240132D2B21A715C804C886507C2D4F8
S315080042A0E40702D4012A7FF64EAF08221A7092E775
S315080042B06268691C5980525D42630622DFE716066A
S315080042C082D455067FF575AF402400F50052D463B5
S315080042D00522A9E794067FF56CAF20261A7900F522
S315080042E0005401EBC2010A89456AE6635C88A2426A
S315080042F081BF4968661C5E800D5559888A42D4D9A3
S315080043000424012AC46004D0013A914201D108224A
S31508004310C2601A78092A3FF420AF4AE7D2057FF52A
S3150800432048AF4FF4807100F50052D16313E74FF69A
S3150800433009321A8011E700BF0080065014F50008FC
S31508004340E8170020F4170020B0F1B64F38B5044638
S315080043500D4607D121B940F26A31264809F048FBD3
S31508004360254B13E0254B98420DD040F26931214880
S3150800437009F03EFB25B940F26A311E4809F038FBC0
S315080043806FF0030038BD00292BD01D4B2269D007DA
S3150800439044BF2022E2606A88910702D5298900294C
S315080043A0EED0520702D52A8A002AE9D04FF4807245
S315080043B01A6000229D601A71C023E3606369DB05F9
S315080043C015D4202204F50053DA630E4A2046DA6330
S315080043D04FF4FC6204F580531A64BDE83840FFF7D1
S315080043E0A1BE40F26A31034809F002FBCDE7636AD1
S315080043F0E4E700BF14F50008E8170020008006501F
S31508004400F4170020FFFF1F0010B509F091FB2023C9
S3150800441041F2020203610023C360836042614FF4E4
S31508004420A02207498361426200F50052C361036214
S315080044308362C36243630365D164036310BD00BF2F
S31508004440FF3F0D0338B5194B044698420D460BD06D
S31508004450174B984208D003F58043984204D040F29F
S315080044606911144809F0C4FA25B92046BDE8384050
S3150800447009F05EBB012204F580535A6040F6FF71CD
S31508004480204605F00F0209F04FFBA263782109F0D8
S315080044904BFB05F001036A0748BF43F00203A26C11
S315080044A002F003029A42FAD138BD00BF0000015B50
S315080044B000000A507BF50008F8B505460C46164676
S315080044C022B940F227216D4809F092FA6C4B9D42B9
S315080044D002D1BCB9562411E06A4B9D424FD003F570
S315080044E080439D4247D040F22A21644809F080FA69
S315080044F044B940F27931614809F07AFA2046FEF764
S3150800450079FB0446AB68D90749D5B44204D24FF4BF
S315080045100D715A4809F06CFAB4FBF6F46F68013C61
S31508004520FF2C07F0010704D94FF40F71534809F01F
S315080045305FFA24066FB32821284609F0F5FAAB6C12
S315080045409A0720D1AB6CDB071FD4AE6C16F00206B7
S315080045501DD140F24921494809F04AFA284609F08E
S31508004560E7FA2B69314623F07F4323432B61BDE8E5
S31508004570F840FFF767BF002CC4D15824BEE7002CCB
S31508004580C0D15724BAE70526E8E70926E6E706264E
S31508004590E4E72B6923F07F4323432B61F8BD6B685F
S315080045A0012B04D04FF41771344809F021FAAB688F
S315080045B003F0E003402B42D009D893B1202B1AD040
S315080045C040F29E21BDE8F8402C4809F011BA602B4C
S315080045D042D0802BF4D106EB4603A34247D80123E9
S315080045E00DE0B6EB141F04D94FF42171234809F0E6
S315080045F0FFF9102303E0B6EBD40F1AD80823734348
S315080046006401B4FBF3F4204F203CB7EBC40F4FEA28
S31508004610C40604D240F2A921184809F0E9F9284647
S315080046203E40012109F080FA2E63BDE8F84009F002
S315080046307BBA40F28921114809F0DAF9DEE7062348
S31508004640B4FBF3F3B34201D30623D8E740F28E2135
S315080046500A4809F0CDF9F7E7B6EB940F01D8042319
S31508004660CDE740F29321054809F0C2F9F7E74FF480
S315080046702671024809F0BCF9B1E700BF7BF50008CE
S315080046800000015B00000A50F8FF7F00F8B5436898
S3150800469004460D4616461BB140F6FF7109F044FA6A
S315080046A02046FFF7B1FEE9896B7B62690B43298ACD
S315080046B022F44C520B4322F00F0213436361A268A3
S315080046C0297E2B7B22F080420B4322F0E202134321
S315080046D06A6904F580511343AA68A360EB69002A46
S315080046E035D1A06840F00040A060002B34D166B3F5
S315080046F096F82030E3B101230B624B6020462978F7
S31508004700FFF7A0FEA36CDB4313F4405FFAD1F8BDB4
S3150800471096F8203063B101230B624B602046696826
S31508004720FFF7CAFEEAE796F82030002B40F0B08083
S3150800473096F82230E06996F8216020F009003343A4
S31508004740034343F00103CB617EE00123D5E71BB9A0
S31508004750002EDDD10123E0E7987A1F7A4004D4F8C9
S3150800476008C040EA87504C4F0CEA070738439F8831
S3150800477007F4C04738435F7840EA87005F7B40EA22
S31508004780C7009F7B40EA07109F7840EA8720A06011
S31508004790D4F80CC0D3E904073843404F0CEA07079E
S315080047A038439F7940EA8720DF7940EA4720E0606E
S315080047B018783B4F012812D1E06840F00400E06009
S315080047C0BC424FD0374884424ED000F580408442E0
S315080047D00CBF02204FF0FF30334F400113E003288F
S315080047E038D1E06840F00400E060BC4236D02D487D
S315080047F0844235D000F5804084420CBF02204FF039
S31508004800FF302A4F4001074402207860587A8862B0
S3150800481018B1E06840F40060E060D87A58B1E06802
S3150800482040F40040E0601E4884421FD1187B204FA8
S3150800483000F00F007866606ADB7B20F00300034314
S315080048406362002E7FF46FAF01234B60002A3FF4AA
S3150800485055AF63E702380128C7D9B1E70020D0E78A
S315080048600120CEE70020B7E70120B5E70D488442CE
S3150800487005D1187B0E4F00F00F003867DBE70D48AF
S31508004880844201BF187B0A4F00F00F00F867D2E791
S3150800489001230B62D8E700BFE39BBDFFFFF9F08752
S315080048A00000015B00000A50C0E40350C0D4035066
S315080048B00090035000400A5038B5154B04469842FC
S315080048C00D460AD0134B984207D003F58043984209
S315080048D003D07021104809F08BF81DB972210E48D3
S315080048E009F086F82B7B802B03D176210A4809F03C
S315080048F07FF86B7B032B03D97921074809F078F8F1
S3150800490029462046BDE838400022FFF7BFBE00BF53
S315080049100000015B00000A507BF50008034BD3F842
S31508004920D43023FA00F000F00100704700C00350AD
S315080049302DE9FF47E846384B04460FCB88E80F00B9
S3150800494001213A20FEF72EF901212E20FEF72AF939
S315080049500220FFF7E3FFB0F1000A4FF0030018BF8B
S315080049604FF0010AFFF7DAFF0A22B0F100094FF00B
S3150800497001034FF002014FF0030018BF4FF0010981
S31508004980FEF770FF0321012308460A22FEF76AFF95
S31508004990092704202149224DC5F8D00009F0E2F87C
S315080049A0204BC3F8D00009F0DDF8013FF4D102200E
S315080049B0FFF7B4FF06460320FFF7B0FF1A4BC1F80E
S315080049C03875C1F83C354FF00313C1F84035032359
S315080049D00546C1F838354FF0B640FFF78BFB134B49
S315080049E041464FF0B6400293FFF752FB4FF0B640F0
S315080049F0FFF788FA003E18BF0126003D18BF0125BB
S31508004A006060204684F800A084F80190A670E570DE
S31508004A1004B0BDE8F08700BFE4F5000800C0035005
S31508004A2000E0035000D0035003000200A0860100F6
S31508004A300B4A0020D2F8FC30002143F08073C2F8FC
S31508004A40FC30084B1A6842F001021A605A68064B95
S31508004A501A600122054BC3E90001054B1A7070471D
S31508004A6000ED00E0001000E00018002058110020BA
S31508004A70561900200B4B10B51B780BB9FFF7D8FF5A
S31508004A80094B0A4C586823688342094B06D9D3E96F
S31508004A900021013241F10001C3E9002119682060B3
S31508004AA010BD00BF56190020001000E000180020B5
S31508004AB05811002038B5FFF7DDFF074B1A6842B1D9
S31508004AC0064C0023A0FB040504FB015106F014FB69
S31508004AD038BD00200146FBE79819002040420F0028
S31508004AE038B5FFF7C7FF074B1A6842B1064C0023D3
S31508004AF0A0FB040504FB015106F0FEFA38BD0020B0
S31508004B000146FBE79819002000CA9A3B22B90A46D3
S31508004B100146074806F06CBD042A96BF054B064BAE
S31508004B2053F822300A460146044806F061BD00BF24
S31508004B30FDF50008E8F60008F4F5000820F6000878
S31508004B402DE9F04F87B0044603A8FFF7F1FE9DF85C
S31508004B500CB09DF80DA09DF80E909DF80F8052465A
S31508004B605946049F224806F043FD424649462148D5
S31508004B7006F03EFD3946204806F03AFD692009F060
S31508004B8019F80646B0FA80F5024669211B48FFF770
S31508004B90BDFF012E4FEA55150BD903A8FFF7C8FE2E
S31508004BA09DF80CB09DF80DA09DF80E909DF80F800D
S31508004BB0049F762008F0FEFF7621024601901048F1
S31508004BC0FFF7A4FF019A20466272B2FA82F25209EE
S31508004BD084F800B084F801A084F8029084F8038071
S31508004BE067602672A572E27207B0BDE8F08F00BF53
S31508004BF04DF600086EF6000897F60008C7F6000896
S31508004C00CDF60008014B1870704700BF57190020F1
S31508004C1010B51022044600210A4809F07CF82246FD
S31508004C200146084809F079F8074B024605491878FD
S31508004C3009F086F8044618B944F6206009F088FB9E
S31508004C40204610BD581900205719002070B540F2AB
S31508004C500222002105460C4809F05DF80B4E024673
S31508004C600949307809F06CF8044650B90222064919
S31508004C70307809F06AF8044618B9034809F016F8B6
S31508004C802880204670BD00BF5819002057190020FB
S31508004C902DE9F84380460F46164600214FF4407228
S31508004CA029481D4609F037F8DFF8C4900246264918
S31508004CB099F8000009F044F80446002840D1282253
S31508004CC0214999F8000009F040F80446002837D130
S31508004CD01D4808F0F2FF1D4888ED000A08F0EDFFB0
S31508004CE01B4887ED000A08F0E8FF1A4886ED000A17
S31508004CF008F0E3FF184885ED000A08F0DEFF089B78
S31508004D00164883ED000A08F0D8FF099B144883ED7E
S31508004D10000A08F0D2FF0A9B124883ED000A08F041
S31508004D20CCFF0B9B104883ED000A08F0C6FF0C9BCE
S31508004D300E4883ED000A08F0C0FF0D9B83ED000ABC
S31508004D402046BDE8F88300BF581900205C190020EA
S31508004D506019002064190020681900206C190020C9
S31508004D607019002074190020781900207C19002079
S31508004D7057190020F8B50D4C4FF4514206460D461A
S31508004D802046002108F0C7FF094F02462146387819
S31508004D9008F0D6FF48B902222146387808F0D5FF30
S31508004DA018B92378337063782B70F8BD581900202A
S31508004DB057190020CB8B06EE900A07EE903A9FED26
S31508004DC0187AF8EE677AF8EEE66A27EE877A9FEDA4
S31508004DD0156A16EE867A9FED146A67EE867A9FED57
S31508004DE0136AB1F9203056EE867A06EE903A91F9B2
S31508004DF02230B3EE006A00EE103AB8EEC00A27EE8B
S31508004E00077A20EE060AF8EEE66A20EE070A07EEAB
S31508004E10A60ADFED077A81ED0E0A80EE270A7047AB
S31508004E2000000039000000370000803A0000803892
S31508004E300000A045D1ED0E6AF6EE007A9FED537A92
S31508004E4091F9283016EEA77A06EE903AB1F926308F
S31508004E50F8EEE66A07EE903A66EE876AF8EEE77AC3
S31508004E6066EE876A9FED4A6A67EE877A46EE867A25
S31508004E70DFED486A8B8C67EEA67A06EE103A9FED50
S31508004E80465AF7EE006AB8EE466A47EE856A26EE97
S31508004E90266AFDEEC67A17EE903A04EE900A002BC3
S31508004EA070D091F92E30DFED3D5A06EE903AB1F901
S31508004EB02C30F8EEE66A07EE903AF8EEE77A67EEF7
S31508004EC0877A66EEA56A27EE074A77EEA77A9FEDF8
S31508004ED0347A46EE847AF8EEE46AB1F92A3037EE87
S31508004EE0667A06EE903ADFED2F4AF8EEE66A66EE47
S31508004EF0A46AF5EE004A47EEA46ADFED2B4AF0EE07
S31508004F00477A9FED2A7A46EEE47A67EE877AB1F910
S31508004F10323087EE860A07EE103AB1F93030B8EE2D
S31508004F20C77A07EE903AF8EEE77A27EE007A67EE48
S31508004F30857A27EE007A67EE807A9FED1D6ADFEDA7
S31508004F401D6A91F8343060EE266A47EE067A07EE57
S31508004F50103A26EEA66AB8EEC77A66EE266A27EEF5
S31508004F60257A91F92F3047EE267A07EE103ADFEDCB
S31508004F70126AB8EEC77A47EE267A9FED107A07EEE0
S31508004F80870A70479FED0E0A704700BF00007A47F0
S31508004F9000008038000000360000003800000037A6
S31508004FA00000804900008047000080390050C34552
S31508004FB0000000300000803B000000430000803DF8
S31508004FC00000000091ED0E6ADFED306A91F91530A8
S31508004FD086EE267A06EE903ADFED2D5AF8EEE66A68
S31508004FE0B7EE000A66EEA56A91F9163006EE870A4C
S31508004FF006EE903AFAEEC66A66EE876A4B8A06EEBF
S31508005000870A06EE903A07EE900AFBEEC76A91F910
S31508005010143020EE260A06EE103A0B8AF8EE676A76
S3150800502007EE903AB3EE005AF8EE677ABAEEEF6AF0
S3150800503067EE857A46EE077A76EEE77A91F91830C2
S3150800504020EE270A06EE903ACB7DFAEEE56A07EEE1
S31508005050903AF8EE677A67EEA57A46EE877A67EEB3
S31508005060807A07EE800ADFED0B7AB4EEE70AF1EEF6
S3150800507010FA07DCB5EEC00AF1EE10FA01D59FED7D
S31508005080060A7047B0EE670A704700BF0000A045E1
S31508005090000080380000C84200000000B1F91A304C
S315080050A0B0F5C87F07EE903A28BF4FF4C870FAEEFD
S315080050B0E87ADFED2B6A9FED2B7A07EEA67AF7EEF4
S315080050C0006A07EE900AF0EE665AF8EE677A91F9EA
S315080050D0193047EE275A07EE103ADFED237ABAEE73
S315080050E0CE7A91F91C3037EE277A07EE903A91F985
S315080050F00E30FAEECB7A06EE103AB8EEC66A67EECE
S31508005100867A91F83C3045EE877A07EE103AB1EE8A
S31508005110006AB8EE477A37EE067A91F93D30C6EE60
S31508005120075A07EE103A67EEA57AB8EEC77A9FEDEA
S315080051300F6AF0EE665A47EE065AB3EE097A86EE1D
S31508005140A56A17EE867ADFED0A7A67EE277AFCEE0D
S31508005150E77A82B0CDED017A9DF8040002B0704777
S315080051606F12033A75021A3B000044426F12033B62
S315080051709A99594006EE900AF0B52B4CA1B06D46A7
S31508005180264607EE902A9FED297AF8EE666A0F46BC
S315080051900FCE0FC50FCE76EEC76AF8EEE77AB1EEF8
S315080051A0046A9FED237A0FC50FCE0FC596E80F0048
S315080051B0403485E80F000FCC10AD0FC50FCC0FC5D6
S315080051C00FCC0FC594E80F0085E80F0020AB03EB62
S315080051D0870353ED205A07EE867A9FED166AB7EED7
S315080051E0000AC5EE867A77EE807A27EE277AC6EE2B
S315080051F0877A53ED106A37EE807AC6EE867A0123EF
S3150800520077EE807ADFED0C6ABB4067EEA67A06EE8B
S31508005210903AF8EEE66A67EEA67A67EE277A80EEA7
S31508005220270A21B0F0BD00BF04F7000800000044BB
S315080052300080A7440000C842BD370634F0B54C4B81
S31508005240064618681B7987B08DF80C300023029043
S315080052500DF107000D4604938DF8143008F08CFF05
S31508005260044628B10EB94FF0FF34204607B0F0BD0A
S31508005270294608F044FF07460446002EF3D00028C6
S31508005280F3D12B460522712004A908F049FE85F8BA
S315080052904D7004460028E8D12A460721F01C08F07C
S315080052A091FD04460028E0D10521701C08F08AFD0E
S315080052B004460028D9D1B01C08F084FD044600280D
S315080052C0D3D1304608F07EFD04460028CDD108210A
S315080052D0301D08F077FD04460028C6D1F3789DF8FE
S315080052E014209B0003F01C0322F01C021A439DF8AD
S315080052F01330717803F01F0343EA4113B17823F0A2
S315080053001C03890001F01C010B438DF8133031781A
S315080053109DF8113001F0070123F007030B4331799B
S315080053208DF8113008290ABF00210020012002F05B
S315080053301F0343EA41138DF814309DF810300522F7
S3150800534003F07F0343EAC0138DF8103004A92B46F7
S3150800535002A808F09BFD04469DF80700002884D0A3
S31508005360002C82D1294608F0CAFE04467DE700BF14
S31508005370FCF6000837B51F4B0546D3F88000B3F88E
S3150800538084300C460090ADF8043011B9002003B003
S3150800539030BD0521601C08F015FD0028F6D1A01CBB
S315080053A008F010FD0028F1D1204608F00BFD002872
S315080053B0ECD16378022D03F108036B4413F8082C2B
S315080053C0A37803F108036B4413F8083C13442278C6
S315080053D002F108026A4412F8080C184440F2AB734A
S315080053E003FB00F00BBF00F5865000F5A5504018EA
S315080053F00D30CCE704F700082DE9F04FB5B01E468E
S3150800540022AB009207460D4618464822002109F0AD
S3150800541032FA28AB0A900B9330462EAB0C9308F061
S31508005420C3FC044628B14FF0FF34204635B0BDE82A
S31508005430F08F002DF7D0012F40F0D480014615904B
S315080054400D2216A809F017FA4FF00508334611225F
S315080054501D2015A908F064FD9DF855209DF854C037
S31508005460AA709DF856200CF0800301929DF85720EB
S315080054700CF00F0C02929DF8582085F801C0039293
S315080054809DF859209DF862B004929DF85A209DF81F
S31508005490649005929DF85C209DF85BA006929DF8A5
S315080054A05D2007929DF8612008929DF86320099275
S315080054B0B268012A0CBF09F030020BF03002134320
S315080054C02B701B067FD5002840F0978133460122B2
S315080054D0E91C0CF15A0008F023FD002840F08D81E4
S315080054E06878334650300122291DC0B208F018FDED
