:020000040800F2
:1000000000100020A5020008E91C0008E91C0008F7
:10001000E91C0008E91C0008E91C0008E91C0008AC
:10002000E91C0008E91C0008E91C0008E91C00089C
:10003000E91C0008E91C0008E91C0008D11B0008A5
:10004000E91C0008E91C0008E91C0008E91C00087C
:10005000E91C0008E91C0008E91C0008E91C00086C
:10006000E91C0008E91C0008E91C0008E91C00085C
:10007000E91C0008E91C0008E91C0008E91C00084C
:10008000E91C0008E91C0008E91C0008E91C00083C
:10009000E91C0008E91C0008E91C0008E91C00082C
:1000A000E91C0008E91C00083504000815040008D4
:1000B000E91C0008E91C0008E91C0008E91C00080C
:1000C000E91C0008E91C0008E91C0008E91C0008FC
:1000D000E91C0008E91C0008E91C0008E91C0008EC
:1000E000E91C0008E91C0008E91C0008E91C0008DC
:1000F000E91C0008E91C0008E91C0008E91C0008CC
:10010000E91C0008E91C0008E91C0008E91C0008BB
:10011000E91C0008E91C0008E91C0008E91C0008AB
:10012000E91C0008E91C0008E91C0008E91C00089B
:10013000E91C0008E91C0008E91C0008E91C00088B
:10014000E91C0008E91C0008E91C0008E91C00087B
:10015000E91C0008E91C0008E91C0008E91C00086B
:10016000E91C0008E91C0008E91C0008E91C00085B
:0C017000E91C0008E91C0008E91C00085C
:10017C000348044B834202D0034B03B1184770472A
:10018C00AC110020AC11002000000000064B074908
:10019C00C91A891048BF0131491003D0044B0BB167
:1001AC0001481847704700BFAC110020AC1100206B
:1001BC000000000010B5064C237843B9FFF7D8FFB8
:1001CC00044B13B10448AFF300800123237010BD1E
:1001DC008C11002000000000E423000808B5054B3A
:1001EC001BB105490548AFF30080BDE80840FFF797
:1001FC00CDBF00BF0000000000100020E423000869
:10020C00A3F5803A704700BF174B002B08BF134B68
:10021C009D46FFF7F5FF00218B460F461348144A05
:10022C00121A01F009FE0E4B002B00D098470D4B13
:10023C00002B00D098470020002104000D000D4831
:10024C00002802D00C48AFF3008001F021FD200003
:10025C00290001F0E7FD01F009FD00BF00000800D6
:10026C000000000000000000001000200010002022
:10027C009411002000000000000000000348044A14
:10028C000449121A921001F02ABD00BF7C0100082B
:10029C007C0100089411002008B5154B83F30A88E3
:1002AC0000F030F8FFF7EAFF124B13498B4212D3E0
:1002BC000020124B12498B4218D3FFF7A5FF186888
:1002CC0050F82240586840F8224001329868824227
:1002DC00F5D30C33EAE70022F8E71C6844F8220057
:1002EC0001325C68A242F8D30833E4E70022F8E755
:1002FC0000000020EC230008F8230008F823000875
:10030C00F82300084FF48041124B134A70B59A60E1
:10031C00D3F88820114D42F47002C3F88820104A9B
:10032C0005F5005491664FF0FF3222660D4A626665
:10033C000222C3F8D020BFF34F8FBFF36F8F4FF45F
:10034C004036002001F0DCFB0020E66001F0A6FB4B
:10035C002E6170BD00ED00E000000008008000443C
:10036C00009000507FFF7F03014B1860704700BF67
:10037C00981100202DE9F04104460C254FF001089E
:10038C00124E0CB314F001000BD0002024F0010429
:10039C0005FB00625768002FF3D09168C0B2B847D4
:1003AC00EFE72246013020284FEA520201D0D30752
:1003BC00F8D508FA00F20F2824EA0204E8D910381C
:1003CC0005FB0062B432E5E7BDE8F08118100020AF
:1003DC0008B50C4801F014FE1A2001F079FB28B185
:1003EC001A2001F08DFB1A2001F058FB1B2001F0A4
:1003FC006FFB28B11B2001F083FB1B2001F04EFB8F
:10040C00002008BD5023000808B501F03DFA054B4B
:10041C0000F0553020F0A040C3F82004BDE808409F
:10042C00FFF7A8BF00E0035008B501F02DFA054B0B
:10043C0000F0AA3020F02040C3F82004BDE80840AA
:10044C00FFF798BF00E00350044BD3F88420D2068A
:10045C00FBD4D3F88400C0F38110704700400050E7
:10046C0038B5104B0546D3F800310C4603F00303A6
:10047C00022B0BD0032B0DD0012B0FD101F024FD3F
:10048C00032305B1286004B1236038BD01F06EFD73
:10049C000923F6E701F01EFD0823F2E701230020F3
:1004AC00EFE700BF0080005038B5104B0546D3F87D
:1004BC0040310C4603F00303022B0BD0032B0DD061
:1004CC00012B0FD101F096FD0A2305B1286004B170
:1004DC00236038BD01F04AFD0923F6E701F08DFDDC
:1004EC000B23F2E701230020EFE700BF0080005050
:1004FC0038B5104B0546D3F860310C4603F00303B6
:10050C00022B0BD0032B0DD0012B0FD101F072FD60
:10051C000A2305B1286004B1236038BD01F026FD23
:10052C000923F6E701F069FD0B23F2E70123002014
:10053C00EFE700BF0080005038B5104B0546D3F8EC
:10054C0040320C4603F00303022B0BD0032B0DD0CF
:10055C00012B0FD101F04EFD0A2305B1286004B127
:10056C00236038BD01F002FD0923F6E701F045FDDB
:10057C000B23F2E701230020EFE700BF00800050BF
:10058C0038B5124B0546D3F880300C4603F0030304
:10059C00022B0BD0032B0DD0012B0FD101F05AFCE9
:1005AC000D2305B1286004B1236038BD01F096FC21
:1005BC000723F6E701F048FC0623F2E7044841F272
:1005CC00142101F089FB00231846EAE70080005053
:1005DC003820000838B51A4B0546D3F820010C46D4
:1005EC0000F00700062821D8DFE800F028040C14DE
:1005FC0010181C0001F028FC052305B1286004B17B
:10060C00236038BD01F060FC0323F6E701F066FCC3
:10061C000723F2E701F054FC0223EEE701F014FC8F
:10062C000623EAE701F050FC0423E6E7054841F213
:10063C00912101F051FB00231846DEE70123DCE792
:10064C00008000503820000838B5194B0546D3F807
:10065C0028310C4603F00703013B052B20D8DFE8BB
:10066C0003F003131B0F0B1701F0EEFB052305B171
:10067C00286004B1236038BD01F0E6FB0623F6E7E1
:10068C0001F02CFC0723F2E701F01EFC0323EEE73C
:10069C0001F01AFC0423EAE701F012FC0223E6E75E
:1006AC00044841F2990101F017FB00231846DEE7DC
:1006BC000080005038200008002337B50193194BF7
:1006CC000546D3F820320C4603F00703042B1FD841
:1006DC00DFE803F025030F141900002101A8FFF730
:1006EC00B3FF11230DB1019A2A6004B1236003B04A
:1006FC0030BD01F0F3FB07230190F3E701F07AFC26
:10070C000A230190EEE701F031FC09230190E9E79F
:10071C0041F25601044801F0DFFA0023E2E701231D
:10072C00E0E700BF0080005038200008F7B5002734
:10073C00144B0197D3F88041064604F00304022CB5
:10074C000D4614D0032C0DD0012C14D1394601A820
:10075C00FFF740FF0F240EB1019B336005B12C60F5
:10076C0003B0F0BD01F0BAFB07240190F3E701F0F0
:10077C00A7FB0190EFE741F2E631034801F0ACFA38
:10078C003C46E8E7008000503820000838B5164B8E
:10079C000546D3F800020C4600F00700042819D8CF
:1007AC00DFE800F020030B0F130001F023FC0A23F9
:1007BC0005B1286004B1236038BD01F0D7FB0923D3
:1007CC00F6E701F01AFC0B23F2E701F063FB0E23B2
:1007DC00800AEDE7054841F2A44101F07DFA0023BF
:1007EC001846E5E70123E3E70080005038200008B5
:1007FC0038B5164B0546D3F808020C4600F0070036
:10080C00042819D8DFE800F020030B0F130001F0C7
:10081C00F1FB0A2305B1286004B1236038BD01F057
:10082C00A5FB0923F6E701F0E8FB0B23F2E701F047
:10083C0031FB0E23800AEDE7054841F2DC4101F063
:10084C004BFA00231846E5E70123E3E7008000504C
:10085C003820000838B5124B0546D3F850320C46F8
:10086C0003F00303022B0FD0032B05D0012B0FD168
:10087C0001F0C0FB0A2302E001F0BFFB0B2305B122
:10088C00286004B1236038BD01F070FB0923F6E742
:10089C00044841F2C90101F01FFA00231846EEE7A3
:1008AC000080005038200008002337B50193184B06
:1008BC000546D3F860320C4603F00703013B032BCB
:1008CC001FD8DFE803F0020E1914002101A8FFF76E
:1008DC0081FE0F230DB1019A2A6004B1236003B08D
:1008EC0030BD002101A8FFF7DFFD1023F2E701F076
:1008FC00F5FA07230190EDE701F0E2FA02230190EB
:10090C00E8E741F2FD01034801F0E6F90023E1E7D5
:10091C00008000503820000873B500240F4B019460
:10092C00D3F87032064603F00303012B0D4607D0B3
:10093C00022B11D041F25B11094801F0CDF904E012
:10094C00214601A8FFF7B0FD10240EB1019B3360C6
:10095C0005B12C6002B070BD1424F6E70080005085
:10096C003820000838B50F4B0546D3F890320C46AA
:10097C0003F00303012B09D0022B0BD101F0AEFACB
:10098C00072305B1286004B1236038BD01F098FA43
:10099C000223F6E7044841F2851101F09DF900238A
:1009AC001846EEE7008000503820000808B5334B9D
:1009BC0098424FD027D8324B984245D017D8314B5C
:1009CC0098423ED00AD838B12F4B984239D041F2D8
:1009DC00BB312E4801F080F9002034E02C4B9842BA
:1009EC002FD02C4B9842F2D12B4B586E2BE02B4B2B
:1009FC0098422CD003F5371303F5D8639842E6D10F
:100A0C00254B986F1FE0264B98422FD00CD8254BC6
:100A1C00984223D0244B984224D0244B9842D6D1D0
:100A2C001D4BD3F884000EE0214B984222D003F5E5
:100A3C00740303F510539842C9D1174BD3F898009F
:100A4C0001E0154B986D08BD134B186FFBE7124B6B
:100A5C00586FF8E7104BD3F88000F4E70E4BD3F83F
:100A6C008800F0E70C4BD3F88C00ECE70A4BD3F87A
:100A7C009000E8E7084BD3F89400E4E780BA8C01C7
:100A8C00405DC60080841E0040420F0038200008E4
:100A9C0000093D00C0CF6A000080E00F0024F40084
:100AAC00007E560380D54302006CDC020048E8014E
:100ABC000090D003B0F5207F10B52ED009D8B0F53A
:100ACC00007F24D003D868B1B0F5C07F0AD00024D1
:100ADC001BE0B0F5607FFAD1124BD3F88040C4F321
:100AEC00011412E00F4B1C6F230B13F00E0FC4F309
:100AFC0003340AD0072C08D00F2C06D0032C04D0BA
:100B0C004FF42271084801F0E7F8601C10BD054B4A
:100B1C00D3F89040C4F30464F7E7024B1C6FC4F3A2
:100B2C008024F2E700800050382000084FF4803217
:100B3C0038B5104B04469A6600200D46FFF7BAFFF5
:100B4C0041F671320C4B6043DC69DA635A6804F489
:100B5C00803422F440125DB90849884294BF0020C9
:100B6C000120000502435A600CB10022DA6338BD43
:100B7C000349F2E70090005000000350005A620253
:100B8C00002D3101002130B5B0F5807F85B00446D1
:100B9C00CDE9001100F007816BD8002800F0DC8053
:100BAC00A0F12004602C75D8602C73D8DFE814F009
:100BBC00D400E100D400E100F100F100F100F100FB
:100BCC00F100E100F6007E00A1000C017E00E100C6
:100BDC00E100E1007200720072007200720072009B
:100BEC007200A100E100E100E10029011601E10021
:100BFC007200720072007200720072007200720059
:100C0C0072007200720072001B01F100D400D4005B
:100C1C00D40011017E007E002001BE009300C900AB
:100C2C00C9007200720072007200720072007200D1
:100C3C007200720072007200720072007200720018
:100C4C007200720072007200720072007200720008
:100C5C0072007200720072007200720072007200F8
:100C6C0072007200720072007200720072007200E8
:100C7C00CE00B0F5F06F00F0C4803FD8B0F5607FC7
:100C8C0000F082801DD8B0F5007F68D008D8B0F590
:100C9C00C07F61D040F2A4415C4801F01DF858E0DF
:100CAC00B0F5207F65D0B0F5407FF3D101F0F2F8BC
:100CBC0004464FF42070FFF7FDFEB4FBF0F464081B
:100CCC0060E0B0F5B06F69D00AD8B0F5806F60D035
:100CDC00B0F5A06FDED100216846FFF7EDFC38E0DF
:100CEC00B0F5D06F70D0B0F5E06F77D0B0F5C06FC5
:100CFC00D0D100216846FFF7D7FB2AE0B0F5206F72
:100D0C0076D00CD8B0F5106F63D0B0F5186F6AD0F0
:100D1C00B0F5086FBED16846FFF7A2FB19E0B0F53D
:100D2C00306F6AD007D8B0F5286FB3D10021684670
:100D3C00FFF7F2FD0DE0B0F5386FDAD0B0F5406F8B
:100D4C00A8D100216846FFF77FFC02E001F082F891
:100D5C000090009805B030BD01F09CF8F8E701F068
:100D6C0079F805462046FFF7A5FEB5FBF0F5009592
:100D7C00EFE701F08FF804464FF42070FFF79AFE6E
:100D8C00B4FBF0F40094E4E701A8FFF7F9FB019D34
:100D9C00E8E700216846FFF71DFCDAE7002168460A
:100DAC00FFF7C4FCD5E74FF0E02302911B695B070A
:100DBC0005D501F06FF80290029B0093C9E703A9D7
:100DCC0002A8FFF771FBF7E700216846FFF7DEFC8E
:100DDC00BFE700216846FFF70BFDBAE70021684624
:100DEC00FFF7AAFBB5E700216846FFF733FDB0E734
:100DFC0000216846FFF758FDABE76846FFF7B2FDE8
:100E0C00A7E700216846FFF773FBA2E7382000082C
:100E1C0008B58020FFF7B6FE034B98429EBF4FF4F7
:100E2C008032024B1A6708BD005A620200A00050C3
:100E3C001FB503460020B3F5607F019000F0FC80E5
:100E4C007BD8582B68D8382B05D8243B092B49D98B
:100E5C0040F28951D1E0393B1F2BF9D801A252F84D
:100E6C0023F000BF291000085D0E00085D0E00087D
:100E7C005D0E000833100008571000085D0E0008C6
:100E8C005D0E00085D0E00085D0E00085D0E00088A
:100E9C005D0E00085D0E00085D0E00085D0E00087A
:100EAC005D0E00085D0E00085D0E00085D0E00086A
:100EBC00611000086B0F00085D0E00085D0E000845
:100ECC005D0E0008AF0F00085D0E00085D0E0008F7
:100EDC006B100008751000084D100008D10F0008A9
:100EEC00D10F0008092BB3D801A252F823F000BF90
:100EFC006B0F00086B0F00086B0F00086B0F0008DE
:100F0C006B0F00085D0E00080F1000085D0E000846
:100F1C0029100008890F0008802B58D0B3F5807F6A
:100F2C0096D14FF0E02302901B695B0771D500F05E
:100F3C00B1FF0C230393039B55E0B3F5086F77D0F7
:100F4C0021D8B3F5C06F69D00ED8B3F5A06F77D0A8
:100F5C00B3F5B06F55D0B3F5806F7FF479AF002047
:100F6C0001A9FFF737FB50E0B3F5E06F6DD0B3F597
:100F7C00F06F58D0B3F5D06F7FF46AAF002001A9A1
:100F8C00FFF704FC41E0B3F5286F6DD00ED8B3F534
:100F9C00186F5FD0B3F5206F61D0B3F5106F7FF48D
:100FAC0057AF002001A9FFF723FC2EE0B3F5306FFB
:100FBC005FD0FFF44DAFB3F5386F2FD0B3F5406F62
:100FCC007FF446AF002001A9FFF73EFB1DE02B4B41
:100FDC001B6F03F00703013B032B0CD8DFE803F076
:100FEC0009020507052301930FE00323FBE7082300
:100FFC00F9E70223F7E740F2D641214800F06CFEF6
:10100C0003E0002001A9FFF791FB019805B05DF802
:10101C0004FB03A902A8FFF747FA8CE7002001A9FB
:10102C00FFF742FAF1E7002001A9FFF761FAECE7BC
:10103C0001A9FFF715FAE8E701A9FFF7A1FAE4E720
:10104C00002001A9FFF738FBDFE7002001A9FFF71B
:10105C0073FADAE7002001A9FFF7FCFBD5E70020C3
:10106C0001A9FFF721FCD0E7002001A9FFF754FCF0
:10107C00CBE701A9FFF776FCC7E700BF0080005063
:10108C00382000084FF48032074B0849586E03F59E
:10109C0080535A664B6A23F001034B62C3035CBF57
:1010AC00034B5A66704700BF0080005000C00750C9
:1010BC0000A00050B0F5207F38B577D00ED8B0F531
:1010CC00007F61D003D890B3B0F5C07F2FD04FF420
:1010DC004671BDE838403D4800F0FEBDB0F5607F7C
:1010EC00F5D13B4A4C1ED2F8FC5015F080751EBF52
:1010FC00D2F8FC3023F08073C2F8FC30032C04D9F6
:10110C0040F2F721314800F0E7FD324AD2F8803046
:10111C0023F0300343EA0413C2F8803035B12C4A73
:10112C00D2F8FC3043F08073C2F8FC3038BD4C1E52
:10113C00012C0AD9102903D8274BCB40DB0704D448
:10114C0040F2CB21214800F0C7FD00F0D5FD00F0A6
:10115C00E1FD4FF48031214B1E4A1967136F23F4C4
:10116C00704343EA0433136700F094FE0446FFF720
:10117C006BF9C0F10201204600F0C6FD00F048F802
:10118C00BDE83840FFF744BE4C1E1F2C04D94FF469
:10119C0043710E4800F0A0FD0E4AD2F8903023F0B7
:1011AC00F85343EA0463C2F89030BFE74C1E012C9D
:1011BC0004D940F21231054800F08EFD054A136F38
:1011CC0023F4806343EA84231367AFE738200008D5
:1011DC0000ED00E000800050100101000090005074
:1011EC0008B50121022000F099F94FF42070FFF7A7
:1011FC0061FC054B187000F07FFD00F08BFD4FF487
:10120C008032024B1A6708BD8D11002000900050EF
:10121C0008B54FF4C070FFF7B5FCBDE808400449B1
:10122C00884294BF012102214FF42070FFF742BF86
:10123C0080F0FA0238B5044600F02CFE0546FFF7A4
:10124C0003F9C0F10201284600F05EFD01210020E7
:10125C0000F0B8F92CB1FFF7DBFFBDE83840FFF721
:10126C00D7BD034B4FF420701978FFF723FFF4E739
:10127C008D1100202DE9F0410546FFF797FB431E29
:10128C000333044604D940F6E2113B4800F024FD38
:10129C004FF4C022394B5A6603F598335A68012A29
:1012AC0004D137494A605A689207FCD48020FFF772
:1012BC00BFFD052807D100F01FFD00F02BFD4FF4FA
:1012CC0080322E4B1A672F4B24F040749D4239D03C
:1012DC002D4B9D4239D000F0B7FD8542064603D90F
:1012EC000121284600F06EF9284FFB6813F0060F19
:1012FC00FBD1D7F80880BC60BB68634013F4F81FBF
:10130C0026D12846FFF730F88020FFF791FD0528FD
:10131C0014D100F0BFFDA842044604D940F63B218D
:10132C00154800F0D9FCFFF78FF8C0F102012046F8
:10133C0000F0EAFCFFF76CFFFFF76AFDAE4213D238
:10134C00BDE8F08144F00074C5E744F08074C2E756
:10135C0040F62A21084800F0BFFC8020C7F808801E
:10136C00FFF766FD052805D0BDE8F04101210020FE
:10137C0000F028B93546CCE7382000080090005022
:10138C0000E0015040420F0080841E00000001501C
:10139C004E4B70B59842054673D041D8A3F5B703B0
:1013AC00A3F55863984265D033D8494B494E9842BF
:1013BC0051D017D8002877D041F2DE11464800F002
:1013CC008BFC40F68671444800F086FC4FF40022FA
:1013DC00404B5A663E4B9D4276D000243F4A954284
:1013EC0036D05DE03D4B984227D03D4B9842E3D13F
:1013FC003C4BD3F8A040621E033224F040744CD90D
:10140C0040F68671344800F067FC4FF40023736695
:10141C00E4E7354B9842CFD1324BD3F8BC402CE0AB
:10142C00324B984231D0324B984232D0314B9842A9
:10143C00C2D12C4BD3F8C8401FE02A4BD3F8A040A4
:10144C00621E033224F04074DAD84FF40023736622
:10145C0044F0807424E0234BD3F8A040621E033286
:10146C0024F040742AD84FF400237366234643F0CB
:10147C00007415E01B4BD3F8B840621E154E0332B6
:10148C00BBE7184BD3F8C040F7E7164BD3F8CC406A
:10149C00F3E7144BD3F8D040EFE74FF40023736617
:1014AC004FF0B442946070BD40F686710A4800F06B
:1014BC0013FC4FF400232C467366F1E740F686715B
:1014CC00054800F009FCCEE70023D0E7C0EA210173
:1014DC0040420F00009000503820000880841E000D
:1014EC0000093D000080E00F0024F4000048E801F2
:1014FC00005A620280BA8C01024A536B0342FCD13F
:10150C00704700BF00400950034A0179D36E23F0A5
:10151C0030030B43D366704700400050F8B50446C7
:10152C00244BD3F88420D006FBD4D3F88430C3F3F7
:10153C0081139C423CD000F08DFC012C05460BD154
:10154C001D4B984204D940F29B711C4800F0C4FB1F
:10155C000121284600F0D8FB00F03DFD4FF0007251
:10156C00174B07465A66204600F0D9FB4FF48063B0
:10157C00104E621E93403367736E9A0103D4D6F8F3
:10158C0084309B060AD5384600F020FD022C0FD182
:10159C002846BDE8F840002100F0B6BBD6F88430F0
:1015AC009906E9D540F2B371044800F095FBE3E7E6
:1015BC00F8BD00BF00400050005A62029B2000089A
:1015CC000060005010B50C4608B900F043FC074B06
:1015DC0021461B783BB1064B984204D80120BDE84C
:1015EC001040FFF79BBF0220F9E700BF8E110020CF
:1015FC00005A62024FF0004238B5244B244C5A6614
:10160C004AF6CD33656C014605F00105236428BB11
:10161C000120FFF771FF6368DB0715D51D4B586080
:10162C0008461D4B226BD2070CD4984208D10724D4
:10163C0015B1174B194A1A6400F072FB204638BDDD
:10164C000130EFE79842F2D00024F1E70132236B2E
:10165C0013F0080305D08A42F8D1E8E700220E49BE
:10166C00F5E78A42E3D020210A4A91620121A2F5D2
:10167C00805251600649084A886A800603D4934216
:10168C00D5D00133F8E79342DDE700BF009000505E
:10169C00004009500060095040420F003254FFFFD7
:1016AC004FF0004238B5164B01465A664AF6CD3318
:1016BC00144C154A656C236443780B205B0043F093
:1016CC000103D363FFF718FF63688A7823F4F87378
:1016DC0043EA02136360CA784B7943EA0223A3609E
:1016EC000A798B7943EA022323610878FFF782FF9A
:1016FC00EB0744BF054B236400F012FB012038BDFF
:10170C000090005000400950004000503254FFFF40
:10171C000F2870B5044605D940F67461124800F0E4
:10172C00DBFA0F244FF00042104B11495D6E03F5AC
:10173C0080535A664AF6CD334E6C80200B64FFF70B
:10174C00DBFE0B6A23F00F0323430B62F30744BF4A
:10175C00084B0B64002DA2BF4FF00042064B5A669B
:10176C0000F0DEFA70BD00BF9B2000080080005026
:10177C00004009503254FFFF00A00050032838B538
:10178C0004460D4605D8094B33F81030CB40DB0727
:10179C0004D440F28541064800F09EFA3023012221
:1017AC005C43044BAA401A5138BD00BFC621000847
:1017BC00FE20000840D00350032838B504460D46DF
:1017CC0005D8094B33F81030CB40DB0704D440F27A
:1017DC005641064800F080FA302301225C43044B4A
:1017EC00AA401A5138BD00BFC6210008FE200008CF
:1017FC0040E0035003282DE9F04104460D461746FE
:10180C00984605D81D4B33F81030CB40DB0704D479
:10181C004FF4B0711A4800F05FFA37B129462046F0
:10182C00B8F1000F20D0FFF7A9FF0F21072D04EB13
:10183C00440688BFA5F108034FEA0616114895BF68
:10184C00AB009B0004360C3607FA03F29940304487
:10185C0000F067FA7FB929462046B8F1000F06D090
:10186C00BDE8F041FFF78ABFFFF7A6FFDDE7BDE853
:10187C00F041FFF7A1BFBDE8F08100BFC621000811
:10188C006221000830C00350034BD3F82424D3F852
:10189C0020041040704700BF00C0035010B56348CF
:1018AC0000F0AEFB20B14FF44E71614800F014FA19
:1018BC006048FFF7DFFC6048FFF76AFD5F4800F007
:1018CC009FFB20B140F2CB11594800F005FA5C4C5B
:1018DC00FFF786FC236F002023F0070343F002037D
:1018EC002367FFF7A7FC236F564923F4744343F493
:1018FC0080632367544BD3F8FC2012F080727CD1A8
:10190C00D4F8803023F0030343F00103C4F8803093
:10191C00C1F880204A4CD4F8203123F0070343F05F
:10192C000103C4F82031D4F8283123F0070343F025
:10193C000103C4F82831D4F8803123F0030343F0B9
:10194C000103C4F88031D4F8903223F0030343F040
:10195C000103C4F89032D4F8403123F0030343F070
:10196C000103C4F84031D4F8603123F0030343F091
:10197C000103C4F86031D4F8403223F0030343F080
:10198C000103C4F84032D4F8003223F0070343F0CB
:10199C000103C4F80032D4F8083223F0070343F0F3
:1019AC000103C4F80832D4F8503223F0030343F097
:1019BC000103C4F85032D4F8703223F0030343F01F
:1019CC000103C4F87032D4F8203223F0070343F03B
:1019DC000103C4F82032FFF755FB4FF0E0221369E6
:1019EC00002043F004031361D4F8603223F00703A2
:1019FC0043F00103C4F8603210BDD3F8FC2022F090
:101A0C008072C3F8FC20D4F8802022F0030242F04C
:101A1C000102C4F880200022C1F88020D3F8FC20F9
:101A2C0042F08072C3F8FC2074E700BF4823000822
:101A3C00B522000800B4C404C0EA21014C230008FC
:101A4C00008000500090005000ED00E007B5094BFD
:101A5C0018689A889B7900906846ADF804208DF838
:101A6C000630FFF71DFE0920FFF752FE002003B0E1
:101A7C005DF804FB3E23000813B50024064A6846B3
:101A8C00536F43F00103536700948DF80440FFF744
:101A9C003BFD204602B010BD004000504F2810B551
:101AAC00044608D801236109074A04F01F04A34027
:101ABC0042F8213010BD4FF49971044800F00CF934
:101ACC00002CF7DBEEE700BF00E100E05423000838
:101ADC004E2810B5044604D940F23D11064800F0DA
:101AEC00FBF8064B621153F8220004F01F04E0408F
:101AFC00C04300F0010010BD5423000800E100E0D9
:101B0C00002808DB01224309034900F01F00824032
:101B1C00603341F82320704700E100E038B500F154
:101B2C0010035F2B04460D4604D94FF4F0710E4898
:101B3C0000F0D2F80F2D04D940F2E1110A4800F060
:101B4C00CBF860B20028ACBF00F16040074B4FEA05
:101B5C000515EDB2ABBF00F5614000F00F0080F849
:101B6C0000531D5438BD00BF5423000814ED00E091
:101B7C0010B500F039FA0A4B1A786AB901226FF0E5
:101B8C0004041A7000F02BFA204605210134FFF7EB
:101B9C00C5FF4F2CF8D110BDBDE8104000F01FBAA6
:101BAC008F1100200123024A8340C2F8A0307047F5
:101BBC0000D003500123024A8340C2F8A030704782
:101BCC0000E00350024A136801331360704700BFF2
:101BDC008411002010B50023042207210220FFF7F6
:101BEC0009FE0023042208210220FFF703FE042231
:101BFC00092100230220FFF7FDFD0E4B187800F0A1
:101C0C00E1F88020FEF7BEFF4FF47A73B0FBF3F0DF
:101C1C000138B0F1807F0BD24FF0E0240F216061CE
:101C2C004FF0FF30FFF77AFF0023A36107232361F6
:101C3C0010BD00BF9011002009490A4A0B681068BA
:101C4C001B1AB3F57A7F09D30B681360064B18780F
:101C5C00013000F00700187000F0B4B8704700BFF6
:101C6C0084110020801100209011002008B5064B33
:101C7C00044613B10021AFF30080044B1B6803B181
:101C8C009847204600F029F8000000008811002039
:101C9C0070B50D4D00260D4C641BA410A64209D145
:101CAC000B4D00260B4C00F0B5F9641BA410A6429A
:101CBC0005D170BD55F8043B01369847EEE755F851
:101CCC00043B01369847F2E7A4110020A411002030
:101CDC00A4110020A8110020FEE7FEE7FEE7002378
:101CEC009A4200D1704710B550F8234041F8234078
:101CFC0001339A42F8D110BD08B500F0DDF8BDE80B
:101D0C0008400021FEF712BF0029CCBF01210021A1
:101D1C00FEF70CBF02214FF42070FFF7CBB97047D0
:101D2C00704770B5054614460E4600F054F92B6802
:101D3C005C4034405C402C60BDE8704000F046B91B
:101D4C0000F000B800207047FFF7A8BD704770473F
:101D5C0008B500F05BF800F05CF800F05CF800F0FF
:101D6C005BF8BDE8084000F058B808B5FFF7EEFF87
:101D7C00FFF7FEFEFFF76AFEFFF7E6FFFFF77CFEBC
:101D8C00FFF7E5FF00F007F800F042F8BDE8084067
:101D9C00FFF7DEBF704708B500F034F800F033F8F9
:101DAC0000F032F800F031F8FFF7F4FF08BD08B589
:101DBC0000F034F800F033F800F032F8BDE80840D9
:101DCC0000F02FB8014608B5CB074FF007000FD530
:101DDC00FFF7E8FE8A074FF008000CD5FFF7E2FE8C
:101DEC004B074FF0090009D5BDE80840FFF7DABEF4
:101DFC00FFF7E0FEEEE7FFF7DDFEF1E7BDE8084098
:101E0C00FFF7D8BE7047704770477047FFF798BF11
:101E1C007047FEF7DDBA70477047704770477047E0
:101E2C007047704708B5FFF7A0FFFFF7D3FEFFF729
:101E3C00BEFFFFF701FFFAE702440346934200D1CD
:101E4C00704703F8011BF9E7014B1868704700BF96
:101E5C00981100200A4B1B6F03F00703013B032B67
:101E6C0003D8DFE803F00A030608FEE7054B186801
:101E7C007047054BFBE7054870470548704700BFA6
:101E8C000080005098110020A011002080D5430242
:101E9C00002D310108B5FFF7DDFF054B1B6FC3F3B8
:101EAC0003330133B0FBF3F0024B186008BD00BFE5
:101EBC0000800050941100200048704700B4C40406
:101ECC0000487047002D3101014B1868704700BF66
:101EDC00A01100200048704780D543024FF4002227
:101EEC00184B5A664FF0B4439868C0F304400C2862
:101EFC000AD8DFE800F00B090909090907211909BB
:101F0C001B1D1F0010487047002070479B6803F092
:101F1C004073B3F1807F11D0B3F1007F10D00B4A26
:101F2C00002B08BF10467047094870470948704796
:101F3C000948704709487047094870470948704775
:101F4C000948704700900050405DC60000093D00F4
:101F5C00C0EA210180BA8C010048E801005A6202F3
:101F6C000024F40080841E0040420F00014B1868CE
:101F7C00704700BF9C11002070B50D46E8B1036896
:101F8C0013F4E07F03F03F06C3F3821210D0012A52
:101F9C0013D10B4C9B0603D591210A48FFF79CFEED
:101FAC0045B104F5805401230020B340236070BD7B
:101FBC00054CEFE704F50054F5E70E20F7E700BFFA
:101FCC0068800050CE2100086480005010B962B6C1
:101FDC00BFF36F8F7047EFF3108072B6704780F3CA
:101FEC001188BFF36F8F7047EFF31180302383F3A9
:101FFC00118870474FF4004070474FF47A70704767
:10200C000121FFF7B9BF0000000000000000000034
:10201C0000000000F8B500BFF8BC08BC9E46704735
:10202C00F8B500BFF8BC08BC9E4670472F557365C9
:10203C0072732F646965676F736D6163626F6F6B29
:10204C002F2E73696C6162732F736C742F696E73AE
:10205C0074616C6C732F636F6E616E2F702F73696C
:10206C006D706C656235323639393866346134647A
:10207C002F702F706C6174666F726D2F656D6C694B
:10208C00622F7372632F656D5F636D752E63002F06
:10209C0055736572732F646965676F736D616362E5
:1020AC006F6F6B2F2E73696C6162732F736C742F4F
:1020BC00696E7374616C6C732F636F6E616E2F70CD
:1020CC002F73696D706C6562353236393938663408
:1020DC006134642F702F706C6174666F726D2F6534
:1020EC006D6C69622F7372632F656D5F656D752EF4
:1020FC0063002F55736572732F646965676F736D19
:10210C006163626F6F6B2F2E73696C6162732F73D7
:10211C006C742F696E7374616C6C732F636F6E616A
:10212C006E2F702F73696D706C656235323639396C
:10213C003866346134642F702F706C6174666F7202
:10214C006D2F656D6C69622F696E632F656D5F67AE
:10215C0070696F2E68002F55736572732F646965F3
:10216C00676F736D6163626F6F6B2F2E73696C6138
:10217C0062732F736C742F696E7374616C6C732F34
:10218C00636F6E616E2F702F73696D706C65623545
:10219C00323639393866346134642F702F706C6183
:1021AC0074666F726D2F656D6C69622F7372632F1D
:1021BC00656D5F6770696F2E6300FF070F00FF038B
:1021CC003F002F55736572732F646965676F736D6C
:1021DC006163626F6F6B2F2E73696C6162732F7307
:1021EC006C742F696E7374616C6C732F636F6E619A
:1021FC006E2F702F73696D706C656235323639399C
:10220C003866346134642F702F706C6174666F7231
:10221C006D2F656D6C69622F696E632F656D5F62E2
:10222C0075732E68002F55736572732F646965671B
:10223C006F736D6163626F6F6B2F2E73696C61626C
:10224C00732F736C742F696E7374616C6C732F6362
:10225C006F6E616E2F702F73696D706C65623532A5
:10226C003639393866346134642F702F706C617470
:10227C00666F726D2F736572766963652F636C6F11
:10228C00636B5F6D616E616765722F7372632F7321
:10229C006C5F636C6F636B5F6D616E616765725FC2
:1022AC0068616C5F73322E63002F55736572732FE8
:1022BC00646965676F736D6163626F6F6B2F2E73EB
:1022CC00696C6162732F736C742F696E7374616CBB
:1022DC006C732F636F6E616E2F702F73696D706CE2
:1022EC00656235323639393866346134642F702F73
:1022FC00706C6174666F726D2F736572766963654D
:10230C002F636C6F636B5F6D616E616765722F73AA
:10231C0072632F736C5F636C6F636B5F6D616E6167
:10232C006765725F696E69745F68616C5F73322E8A
:10233C006300010310010109030000001E000000EE
:10234C00160000001A0000002F55736572732F647D
:10235C006965676F736D6163626F6F6B2F2E736945
:10236C006C6162732F736C742F696E7374616C6C17
:10237C00732F636F6E616E2F702F73696D706C6548
:10238C006235323639393866346134642F702F70C7
:10239C006C6174666F726D2F736572766963652FED
:1023AC00696E746572727570745F6D616E6167656C
:1023BC00722F7372632F736C5F696E7465727275B2
:1023CC0070745F6D616E616765725F636F72746567
:0823DC00786D2E630000000083
:0823E40028DEFF7F010000006C
:0C23EC00F82300089411002006000000F7
:1023F800C0EA2101C0EA210100800000C017530291
:08240800E9010008C101000810
:04000005080002A548
:00000001FF
